:100000000C94F4010C94F3250C9425260C9457269B
:100010000C9413020C9413020C9413020C9413020C
:100020000C9413020C94C1250C9413020C9413022B
:100030000C9413020C941F240C9413020C941F2490
:100040000C9413020C9413020C9413020C941302DC
:100050000C9413020C9413020C9413020C941302CC
:100060000C9413020C9413020C9413020C941302BC
:100070000C9413020C9413020C9413020C941302AC
:100080000C9452240C9413020C9413020C9413023B
:100090000C9413020C9413020C9413020C9413028C
:1000A0000C9413020C9413020C9413020C9413027C
:1000B0000C9413020C9413020C9413020C9413026C
:1000C0000C9413020C9413020C9413020C9413025C
:1000D0000C9413020C9413020C9413020C9413024C
:1000E0000C9413020C942C0C0C941D0C0C94ED0B22
:1000F0000C94EC0C0C94DE0B0C94CF0B0C94BD0BFD
:100100000C94AE0B0C9413020C9413020C94130277
:100110000C9413020C9413020C9413020C9413020B
:100120009B13A113A413A713AA13AD13B313B013F6
:10013000B613B913BC13C513C813CB13CE13C21314
:1001400098139E13D113D413BF1395134661696C92
:10015000656420746F206F70656E2073656E736FB9
:1001600072206472697665720D0A004661696C6579
:100170006420746F206C6F6164206D79204144436A
:10018000206472697665720D0A002A4E524B204532
:1001900052524F522800293A20005461736B20704C
:1001A0006572696F6420746F6F206C617267652E71
:1001B00020506572696F64206D75737420626520CC
:1001C0006C657373207468616E20363120736563CB
:1001D0006F6E64732E00537461636B2077617320BC
:1001E0006E6F7420646566696E6564206173206C4F
:1001F0006172676520656E6F756768210054617371
:100200006B20537461636B204F766572666C6F77F9
:1002100000496E76616C696420537461636B205091
:100220006F696E74657200526573657276652045FC
:1002300072726F7220696E205363686564756C65B5
:1002400072005461736B2052657365727665205637
:10025000696F6C61746564005363686564756C658F
:1002600072204D69737365642057616B657570000A
:100270004475706C696361746564205461736B20AC
:10028000494400556E6578706563746564205265F5
:1002900073746172740049646C65206F72204B65E1
:1002A000726E656C20537461636B204F7665726665
:1002B0006C6F77004578747261205461736B2073A2
:1002C0007461727465642C206973206E726B5F6355
:1002D00066672E68206F6B3F004C6F7720566F6CFF
:1002E0007461676500556E68616E646C6564204971
:1002F0006E7465727275707420566563746F7200E7
:1003000054696D6572204F766572666C6F77005325
:1003100057205761746368646F6720526573746116
:100320007274005761746368646F672052657374F8
:10033000617274004465766963652044726976650C
:1003400072204572726F72004B65726E656C20662A
:10035000756E6374696F6E206E6F7420696D706C5A
:10036000656D656E746564004661696C65642074D2
:100370006F20637265617465205369676E616C00FC
:100380004661696C656420746F2063726561746591
:100390002053656D6170686F72650042726F776E91
:1003A000204F7574204465746563740045787465E6
:1003B000726E616C20526573657400554E4B4F57D9
:1003C0004E000D0A535441434B2044554D500D0AE5
:1003D00000202B2D2E303132333435363738396802
:1003E000004546476566670011241FBECFEFD1E484
:1003F000DEBFCDBF13E0A0E0B2E0EEE5F9E500E03E
:100400000BBF02C007900D92A036B107D9F715E0D7
:10041000A0E6B3E001C01D92AD39B107E1F70E943B
:100420007E270C94AD2C0C941524CF93DF9300D031
:10043000CDB7DEB71F921F9280E292E09F938F9319
:100440000E945E2A0E943B1C1F928F938AE392E0D7
:100450009F938F930E945E2A65E083E00E94E821CB
:10046000F82E0FB6F894DEBF0FBECDBF9FEF8913F5
:1004700004C08CE491E00E945A0D08E612E041E0CD
:1004800061E08F2D0E94892242E0BE016F5F7F4FA5
:100490008F2D0E946C2229813A81293E83E0380702
:1004A00018F089E492E008C02C3B324018F480E553
:1004B00092E002C08BE592E00E947B2A8A818F93B2
:1004C00089818F931F930F930E945E2A0E94A81B1D
:1004D0000F900F900F900F90D2CF85E192E0909304
:1004E0006E0380936D0340E850E06FE873E088E6A8
:1004F00093E00E94CB2681E08093700380936F038A
:1005000080937103809372031092730310927403AB
:10051000109275031092760380E094E9A5E3B7E7A3
:100520008093770390937803A0937903B0937A0331
:1005300010927B0310927C0310927D0310927E0335
:1005400080E092ECABEEBBE080937F03909380035E
:10055000A0938103B09382031092830310928403CB
:1005600010928503109286031092870310928803DD
:100570001092890310928A0388E693E00C94101A73
:1005800063E086EF96E00E94D0218F3F21F48BE656
:1005900091E00C945A0D08958091BE04813011F4BD
:1005A0008FEF089581E08093BE0460FF15C0739AB9
:1005B0001092C30480917C00807E80937C00909197
:1005C0007C0080917C00807E892B80937C0088EE6B
:1005D00093E00E94C32205C0862F867009F76770DA
:1005E000F9F281E0089573981092BE040E943307D7
:1005F000EAE7F0E080818F77808381E008956130C1
:1006000019F48091C30408958FEF0895613059F56E
:100610002C3069F42093C30480917C00807E809309
:100620007C0080917C0090917C00836012C02D3012
:1006300020F081E00E944B1316C02093C3048091E8
:100640007C00807E80937C0080917C0090917C0077
:10065000822B907E892B80937C0088EC90E00E9416
:10066000C32281E008958FEF08950F931F93CF93D6
:10067000DF93CDB7DEB766970FB6F894DEBF0FBE37
:10068000CDBFAE014F5F5F4F66E170E08AEA90E058
:100690000E943D07FE01329664E974E0CE0148965F
:1006A0009F0121503109D9011C9100E02081A8014E
:1006B000422B9A01DB012D933D93BD013296E81741
:1006C000F90771F766960FB6F894DEBF0FBECDBF7F
:1006D000DF91CF911F910F910895EAE7F0E083E059
:1006E00080838081806880831092C304ACE7B0E08F
:1006F0008C91807E8C939C918C91807E892B8C93A5
:1007000080818F77808308951DB86B9A739A0E94B9
:100710006D030E9423078EEE0E9420070E9435037E
:100720001092BE0481E0089588EC90E00C94C322FE
:1007300080917A00806480937A0080917A0084FFAF
:10074000FCCF0E9494032091780030917900932F80
:1007500080E0AC01422B9A01C90108954F925F924B
:100760006F927F928F929F92AF92BF92CF92DF92C1
:10077000EF92FF921F93CF93DF9300D000D0CDB7BD
:10078000DEB7182F8090BA049090BB04A090BC04F0
:10079000B090BD0480EA881A8FE0980AA108B108D9
:1007A0008092AA049092AB04A092AC04B092AD04E3
:1007B000A5019401C501B4010E94F72820E030E1B1
:1007C00040E050E00E943D2929833A834B835C83BB
:1007D000C0909404D0909504EE24D7FCE094FE2CB5
:1007E000F2E0CC0CDD1CEE1CFF1CFA95D1F7A091B9
:1007F000A204B091A3040E94EF2820E038E040E07A
:1008000050E00E943D2929013A01A0919604B0913F
:100810009704A50194010E94EF2820E038E040E011
:1008200050E00E943D29420E531E641E751EC40CEA
:10083000D51CE61CF71C012E04C0CC0CDD1CEE1CE4
:10084000FF1C0A94D2F7E2E0CE0ED11CE11CF11C91
:10085000A4E04A2E512C612C712CC701B601A301D2
:1008600092010E943D2969017A012093DC043093B2
:10087000DD044093DE045093DF04A0919804B0910E
:100880009904A50194010E94EF2820E030E240E0A5
:1008900050E00E943D2949015A01A091A004B09165
:1008A000A10429813A814B815C810E94EF2820E0DC
:1008B00030E041E050E00E943D29820E931EA41ECC
:1008C000B51EF2E08F0E911CA11CB11CC501B40134
:1008D000A30192010E943D292093C4043093C504D2
:1008E0004093C6045093C704A0919A04B0919B040E
:1008F00030584F4F5F4F0E94E42820E030E840E03E
:1009000050E00E943D2949015A012093C8043093C8
:10091000C9044093CA045093CB042091D40430916D
:10092000D5044091D6045091D7042C193D094E09A5
:100930005F0960E573EC80E090E004C095958795D1
:10094000779567951A95D2F70E94F7286093D0049F
:100950007093D1048093D2049093D30497FD09C07F
:10096000660F771F881F991FA50194010E941B29FC
:1009700008C0A50194010E941B29220F331F441FA8
:10098000551F2093D8043093D9044093DA04509330
:10099000DB04C090D804D090D904E090DA04F09041
:1009A000DB04C701B60120E031E040E050E00E94E6
:1009B0003D29CA01B9010E94F7289B01AC01AEEDA7
:1009C000BBE00E94E428412C512C32016394A30126
:1009D00092010E943D2949015A012093BF0430939E
:1009E000C0044093C1045093C204A3E4B3EEA70132
:1009F00096010E94F228A30192010E943D292093B2
:100A0000B2043093B3044093B4045093B504C501C9
:100A1000B401620F731F841F951F6153714F8F4F75
:100A20009F4F20E130E040E050E00E943D292C0D36
:100A30003D1D4E1D5F1D2093D8043093D904409373
:100A4000DA045093DB04B901CA010F900F900F90A4
:100A50000F90DF91CF911F91FF90EF90DF90CF909B
:100A6000BF90AF909F908F907F906F905F904F90CE
:100A70000895CF92DF92EF92FF9280919E04909121
:100A80009F042091AE043091AF044091B004509186
:100A9000B104281B390B41095109A0919C04B09164
:100AA0009D040E94E42820E030E840E050E00E94ED
:100AB0003D2969017A012093BF043093C00440931B
:100AC000C1045093C2046091A6047091A7048827C2
:100AD00077FD8095982FBBE0660F771F881F991FC1
:100AE000BA95D1F72091A8043091A904442737FD85
:100AF0004095542F2C0D3D1D4E1D5F1D0E943D291C
:100B00002093B2043093B3044093B4045093B504DB
:100B1000C20ED31EE41EF51EC092BA04D092BB04CE
:100B2000E092BC04F092BD04C701B601685F7F4F3C
:100B30008F4F9F4F20E130E040E050E00E943D2980
:100B40002093B6043093B7044093B8045093B9048B
:100B5000B901CA01FF90EF90DF90CF900895CF9335
:100B6000DF9300D01F92CDB7DEB78EE28B83AE014C
:100B70004D5F5F4F61E070E084EF90E00E945B08A2
:100B800084E991E10E94C322AE014F5F5F4F62E0B2
:100B900070E086EF90E00E943D07398120E08A8175
:100BA000A901482BCA01A0E0B0E08093AE04909365
:100BB000AF04A093B004B093B1040F900F900F90C6
:100BC000DF91CF9108950E94AF050C9439051F93D2
:100BD000CF93DF9300D000D0CDB7DEB7182F982F7A
:100BE0009295990F990F907C9C5C9C83AE014C5F11
:100BF0005F4F61E070E084EF90E00E945B0884E961
:100C000091E10E94C322AE014F5F5F4F63E070E04D
:100C100086EF90E00E943D078A81498150E060E0C4
:100C200070E0BA0155274427582B8B81480F511D7E
:100C3000611D711D28E030E0211B310904C075954C
:100C40006795579547952A95D2F74093D4045093CA
:100C5000D5046093D6047093D7040F900F900F9033
:100C60000F90DF91CF911F910895CF93C82F0E94CD
:100C7000E7058C2FCF910C94AE03AF92BF92DF9219
:100C8000EF92FF920F931F93CF93DF931F92CDB7F5
:100C9000DEB75A0180917A00806880937A00822FB3
:100CA0008150823018F0243009F094C08091C30440
:100CB0008730A0F429830E9498032981223021F4EF
:100CC000F501808391832EC0213009F035C09695BF
:100CD000879596958795F50180832EC08C3071F5A8
:100CE00030E4D32EE12CF12C01E014E029830E94A2
:100CF000980329818017910708F48C01E816F906FA
:100D000008F47C018DE790E029830E94C322DA94E5
:100D10002981D110EBCFE01AF10A223029F4F50134
:100D2000E082F18281E04FC0213031F4F694E79403
:100D3000F694E794F501E08280E045C08B3069F5D8
:100D40001092CC041092CD041092CE041092CF04D5
:100D50007A99FECF7A9BFECF8091CC049091CD04FE
:100D6000A091CE04B091CF040196A11DB11D809336
:100D7000CC049093CD04A093CE04B093CF047A9981
:100D8000EBCFF50180838091CD0481838091CE04E7
:100D900082838091CF048383CFCF982F9950923054
:100DA00058F62430B9F48A3019F40E94E30505C0DE
:100DB0000E94E30580E00E943506F501608371839F
:100DC0008283938383E090917A009F7790937A0057
:100DD0008F5F01C080E00F90DF91CF911F910F9145
:100DE000FF90EF90DF90BF90AF9008958230A9F010
:100DF00028F4882349F08130D9F409C08430A9F05F
:100E000078F08530A9F406C080E00C94840381E07A
:100E10000C94CC0285E00C943D0682E00C94F30225
:100E2000613061F48091C304089584E00C9406035A
:100E300060E08CE00E94EF1380E008958FEF08954A
:100E40008093E104089582E08093B8001092B90085
:100E5000E4E6F0E080818F778083ECEBF0E0808146
:100E6000846080830895E4E6F0E080818083ECEB89
:100E7000F0E080818B7F80830895292F30E02770F8
:100E80003327220F9091E104292B35E6F4EAE4E8B8
:100E9000A22FA160315009F48DC0F093BC00909155
:100EA000BC0097FFFCCF9091B900987F9093E0042D
:100EB000903129F0983389F3983009F07BC0209362
:100EC000BB00E093BC009091BC0097FFFCCF9091D9
:100ED000B900987F9093E0049032E1F29833E9F200
:100EE000983109F061C08093BB00E093BC00909101
:100EF000BC0097FFFCCF9091B900987F9093E004DD
:100F0000903359F1983349F2983209F04DC0F0937B
:100F1000BC009091BC0097FFFCCF9091B900987FE6
:100F20009093E004903129F0983309F4B6CF9830CB
:100F3000D9F5A093BB00E093BC009091BC0097FF53
:100F4000FCCF9091B900987F9093E004903419F110
:100F5000983419F0983341F5A0CF20E030E026C056
:100F60006130710509F494E89093BC008091BC0055
:100F700087FFFCCF8091B900887F8093E0048035A3
:100F800021F0883589F460E070E08091BB008193A6
:100F90006150710902C0FA0194EC9F01241B350BCA
:100FA00016161706ECF202C02FEF3FEF84E980938C
:100FB000BC0002C02FEF3FEFC9010895680F791FF1
:100FC0009C0127606217730718F0B9016F5F7F4FAC
:100FD000392F330F3E702091E104322BE5E6A4EA6D
:100FE000F4E8E15009F463C0A093BC002091BC0078
:100FF00027FFFCCF2091B900287F2093E004203107
:1010000029F0283389F3283009F051C03093BB0010
:10101000F093BC002091BC0027FFFCCF2091B900C9
:10102000287F2093E0042032E1F22833E9F22831CE
:10103000C1F58093BB00F093BC002091BC0027FF5A
:10104000FCCF2091B900287F2093E004203329F0C1
:10105000283351F2283229F503C020E030E023C0C4
:10106000681B790B20E030E0E4E814C0DA018D91D0
:10107000AD018093BB00E093BC008091BC0087FF72
:10108000FCCF8091B900887F8093E004883249F4D6
:101090002F5F3F4FCB01821B930B1816190634F3B9
:1010A00002C02FEF3FEF84E98093BC0002C02FEF16
:1010B0003FEFC9010895CF92DF92EF92FF920F9315
:1010C0001F93CF93DF936C018B017A01C0E0D0E0D6
:1010D000A701B801C6010E94DE078F3F2FEF9207DC
:1010E00061F0C80ED91E081B190BE80EF91EC80FB7
:1010F000D91F1016110664F302C0CFEFDFEFCE0147
:10110000DF91CF911F910F91FF90EF90DF90CF90E3
:1011100008958091E0041F928F9381E892E09F935D
:101120008F930E945E2A0F900F900F900F9008955A
:10113000909141019F719F31D9F3809342010895AD
:1011400081E08093E80408951092E8040895809166
:1011500041018F718F31D9F3809141018F71E1F09D
:101160008F30D1F0809141018F71883031F48091BE
:10117000390182608093390109C088E00E94980893
:10118000809141018F718830D9F7F1CF8091410171
:101190008F7111F08F30D1F70895809141018F71D7
:1011A0008F31D9F3809141018F7111F08F3051F45B
:1011B000809139018D7F80933901809141018F7138
:1011C0008830D9F70895E5E4F1E09081907F90832D
:1011D00090818F70892B80830895E7E5F1E080810D
:1011E0008D7F80830895E7E5F1E0808182608083D0
:1011F0000895EEE6F1E080818F7E80830895EEE62B
:10120000F1E08081806180830895809360019093F4
:1012100061019093F2048093F10408959093EC049B
:101220008093EB04E8E4F1E08081807E808380811C
:10123000682B6083089590936303809362030895FD
:10124000909361038093600308951F93CF93DF937E
:1012500070E27093440170EC70934501606260939A
:10126000480165EC6093490167EA60934B0160E8CF
:1012700060934C01209360013093610140936201BF
:1012800050936301E6E4F1E0C081A08160811081A8
:10129000C295C695C77070E4C79FE00111241295EE
:1012A000169513701C2BA295A695A37070E1A79FAD
:1012B000D00111241A2B629566956370A4E06A9F91
:1012C000B0011124162B10936D016081E0816295AD
:1012D0006695637070E0660F771F6064E295E6952F
:1012E000E370E62BE0936E0110926C016FEF609358
:1012F0004E019093EC048093EB041092ED04109255
:10130000EE045093F0044093EF043093F2042093E2
:10131000F1041092F30481E08093FD0410920C0517
:101320001092FC041092E804DF91CF911F91089570
:1013300086E10C94980886E10C94980888E00E9455
:10134000980810920C0508953F924F925F926F9209
:101350007F928F929F92AF92BF92CF92DF92EF9245
:10136000FF920F931F93CF93DF93EC013B0180918A
:10137000FD04811102C0CFEF1CC19E818091ED045C
:101380008F5F8093ED0480918101807E816090FB6E
:1013900085F98F7380648093810188E8809382014E
:1013A0008091E804882361F08FEF809383018AEABB
:1013B0009AEA90938901809388018FEF9FEF11C083
:1013C0008091ED048093830130916101209160014F
:1013D000932F80E0822B90938901809388018881EC
:1013E00099819093870180938601309163012091C8
:1013F0006201932F80E0822B90938501809384017A
:101400004A81842F992787FD90956B817C81592F84
:101410008AE891E00E94DE298A81855F80938001BD
:10142000309041018FE13822832D81508230C0F30A
:1014300081E13816A9F382E1381691F38FE138166D
:1014400079F388E0381649F086E0381631F086E105
:10145000381619F089E038128ECF86E10E9498087C
:101460008D81811107C089E00E9498088E818823B0
:1014700091F00EC08091480180688093480180916E
:10148000410187FFFCCF8091410186FF74CFEBCFF4
:1014900089E10E9498086114710499F184EF94E045
:1014A0000E94411C8091F4049091F504A091F604EF
:1014B000B091F7048093FE049093FF04A09300057D
:1014C000B0930105D30120E432E44FE050E00E94E4
:1014D000E4280091F8041091F9042091FA04309165
:1014E000FB04600F711F821F931F609302057093AE
:1014F000030580930405909305058EEF94E00E9408
:10150000321D1092FC0482E00E949808412C512C5C
:1015100008C08FEF481A580A88EE48168DEF580613
:1015200021F08091FC048823A1F36114710421F45B
:101530008E8181112DC034C084EF94E00E94411C43
:101540008090F4049090F504A090F604B090F70415
:10155000C090F804D090F904E090FA04F090FB04F5
:101560000091FE041091FF042091000530910105C7
:1015700040910205509103056091040570910505A5
:101580008DE095E00E949D1C8F3F09F0BACFD0CF2F
:101590008091420182958695877011F0CFEF06C049
:1015A00088EE48168DEF5806C9F3C1E0832D0E94DE
:1015B00098088C2FDF91CF911F910F91FF90EF90A2
:1015C000DF90CF90BF90AF909F908F907F906F9063
:1015D0005F904F903F90089560E070E00C94A409F4
:1015E000CF93DF938091FD04882341F1C0914101A5
:1015F000CF718C2F81508230C8F3C131B9F3C23121
:10160000A9F3CF3199F3C83021F0C63011F0C631BB
:10161000A9F486E10E94980880914801806880932F
:1016200048018091410187FFFCCFD09141018C2F6F
:101630000E949808D6FB882780F901C08FEFDF91C0
:10164000CF9108958091FD04882309F485C080918D
:101650000C05882309F47EC080917B01E091EB04A6
:10166000F091EC0490E002972481332727FD309518
:10167000281739070CF470C0E091EB04F091EC04EA
:10168000809182018083E091EB04F091EC048091E1
:1016900087019091880192838183E091EB04F0911E
:1016A000EC0480917B018B508383A091EB04B0917B
:1016B000EC04E091EB04F091EC0413969C9184818E
:1016C00089173CF0E091EB04F091EC04838187FFF3
:1016D0000DC010920C0580914C018F7780934C01C6
:1016E00080914C01806880934C0136C0A091EB043E
:1016F000B091EC04E091EB04F091EC0413964C9162
:10170000842F992787FD9095592F69E871E085818D
:1017100096810E94DE29E091EB04F091EC04809127
:10172000800185FB882780F98783E091EB04F091A5
:10173000EC0480914701808710920C0580914C0148
:101740008F7780934C0180914C01806880934C018D
:1017500081E0089580E008958FEF08951F920F9221
:101760000FB60F9211248F9380E880934F018F91D1
:101770000F900FBE0F901F9018951F920F920FB6EB
:101780000F9211248F9381E08093FC0480E4809376
:101790004F018F910F900FBE0F901F9018951F92C1
:1017A0000F920FB60F9211248F9380E280934F0116
:1017B0008F910F900FBE0F901F9018951F920F9250
:1017C0000FB60F9211248F9380E180934F018F9178
:1017D0000F900FBE0F901F9018951F920F920FB68B
:1017E0000F9211240BB60F922F933F934F935F9359
:1017F0006F937F938F939F93AF93BF93EF93FF93D9
:1018000084E080934F01E0916203F091630330978D
:1018100009F00995FF91EF91BF91AF919F918F9141
:101820007F916F915F914F913F912F910F900BBEE0
:101830000F900FBE0F901F9018951F920F920FB62A
:101840000F9211248F9382E080934F018F910F901C
:101850000FBE0F901F9018951F920F920FB60F9208
:1018600011248F9381E080934F018F910F900FBED1
:101870000F901F901895E9E4F1E09081907F90839C
:1018800090818F70892B808308958FEF089508953C
:10189000089508958FEF08958091E6049091E704EC
:1018A000089580E00895089581E0089581E0089505
:1018B00081E008950895089508950895089508957C
:1018C00008950895E7E3F1E0808183608083989A2A
:1018D000A09A8DB1806E8DB98EB1806E8EB908954B
:1018E000E7E3F1E0808183608083989AA0988DB1CE
:1018F000806E8DB98EB1806E8EB90895CF92DF92D1
:10190000EF92FF920F931F93CF93DF93CDB7DEB784
:1019100027970FB6F894DEBF0FBECDBF0E94A61169
:10192000E091EB04F091EC04C080D3800581168136
:10193000E0840E94220B18161CF088E992E006C091
:10194000F801F080F11007C087EB92E00E947B2A3B
:101950000E94A81132C0F5E0FF1204C08AE090E0B6
:101960000E94752AC80101969F938F938E2D992707
:1019700087FD90959F93EF921F92FF921F92CF92B7
:1019800089ED92E09F938F930E945E2A1D830C83C2
:10199000FA94F801F082DB821E821F828FEF9FEFA4
:1019A0009A8389830E94A811CE0101960E94EC0AB5
:1019B0000FB6F894DEBF0FBECDBF27960FB6F894D2
:1019C000DEBF0FBECDBFDF91CF911F910F91FF9072
:1019D000EF90DF90CF9008951F920F920FB60F9265
:1019E00011240BB60F922F933F934F935F936F93F6
:1019F0007F938F939F93AF93BF93EF93FF9380E079
:101A000001C08F5F90917B018917D8F380914601C7
:101A100087FF04C081E080930C0504C082E093E05E
:101A20000E947B2A88E080934F018091460187FFC6
:101A300005C08091E80481110E947E0CFF91EF9116
:101A4000BF91AF919F918F917F916F915F914F91D6
:101A50003F912F910F900BBE0F900FBE0F901F90D4
:101A600018958091C00087FFFCCF8091C0008F77D0
:101A70008093C0008091C60008959091C00095FFAA
:101A8000FCCF9091C0009F7D9093C0008093C600D2
:101A900008958FEF0895813031F48091C80087FD5B
:101AA00007C080E008958111FCCF8091C000F7CF7E
:101AB00081E00895CF93DF93EC0107C06091950515
:101AC0007091960590E00E94322AFE012196849141
:101AD0008111F4CFDF91CF91089586E084B985B963
:101AE00088EF8AB980EF8BB982E08EB980E681B940
:101AF000169A08950C946D0D8F3F09F466C0982FC7
:101B00009770923051F130F4992359F0913009F0E7
:101B10005CC015C09430E9F170F1953009F055C002
:101B200046C092B186958695869521E030E0082ED4
:101B300001C0220F0A94EAF7922B92B944C095B1E2
:101B400086958695869521E030E0082E01C0220F0B
:101B50000A94EAF7922B95B936C098B18695869586
:101B6000869521E030E0082E01C0220F0A94EAF7A2
:101B7000922B98B928C09BB186958695869521E0D1
:101B800030E0082E01C0220F0A94EAF7922B9BB98D
:101B90001AC09EB186958695869521E030E0082E84
:101BA00001C0220F0A94EAF7922B9EB90CC091B3A0
:101BB00086958695869521E030E001C0220F8A95B2
:101BC000EAF7922B91BB81E008958FEF08958F3F44
:101BD00009F46DC0982F9770923069F130F4992311
:101BE00061F0913009F063C017C0943009F441C02E
:101BF00088F1953009F05BC04BC092B1869586950F
:101C0000869521E030E0082E01C0220F0A94EAF701
:101C10002095292322B949C095B186958695869548
:101C200021E030E0082E01C0220F0A94EAF7209547
:101C3000292325B93AC098B186958695869521E0E5
:101C400030E0082E01C0220F0A94EAF720952923DC
:101C500028B92BC09BB186958695869521E030E00A
:101C6000082E01C0220F0A94EAF7209529232BB9E8
:101C70001CC09EB186958695869521E030E0082EA1
:101C800001C0220F0A94EAF7209529232EB90DC02E
:101C900091B386958695869521E030E001C0220FAC
:101CA0008A95EAF72095292321BB81E008958FEFDB
:101CB00008958F3F39F1982F9770923081F028F472
:101CC000992349F09130F1F408C0943061F048F064
:101CD0009530C1F40AC020B109C023B107C026B1B4
:101CE00005C029B103C02CB101C02FB130E08695E9
:101CF0008695869502C0359527958A95E2F7822FBD
:101D0000817008958FEF08958F3F09F4E7C0982FF1
:101D10009770923009F456C030F4992369F09130ED
:101D200009F0DCC02CC0943009F492C008F46DC0F6
:101D3000953009F0D3C0AFC020B1869586958695C1
:101D400030E0082E02C0359527950A94E2F792B14B
:101D500020FD0AC021E030E0082E01C0220F0A94C5
:101D6000EAF7922B92B921C021E030E0082E01C0A1
:101D7000220F0A94EAF72095292322B916C023B12D
:101D800086958695869530E0082E02C03595279574
:101D90000A94E2F795B120FD0AC021E030E001C0CD
:101DA000220F8A95EAF7922B95B981E0089521E0F8
:101DB00030E0082E01C0220F0A94EAF7209529236B
:101DC00025B9F3CF26B186958695869530E0082E05
:101DD00002C0359527950A94E2F798B120FD0AC014
:101DE00021E030E0082E01C0220F0A94EAF7922B7E
:101DF00098B9DBCF21E030E0082E01C0220F0A9411
:101E0000EAF72095292328B9D0CF29B18695869560
:101E1000869530E0082E02C0359527950A94E2F7A2
:101E20009BB120FD0AC021E030E0082E01C0220F46
:101E30000A94EAF7922B9BB9B8CF21E030E0082E44
:101E400001C0220F0A94EAF7209529232BB9ADCFC0
:101E50002CB186958695869530E0082E02C0359582
:101E600027950A94E2F79EB120FD0AC021E030E0F8
:101E7000082E01C0220F0A94EAF7922B9EB995CF43
:101E800021E030E0082E01C0220F0A94EAF72095E5
:101E900029232EB98ACF2FB186958695869530E075
:101EA000082E02C0359527950A94E2F791B320FDDC
:101EB0000AC021E030E0082E01C0220F0A94EAF7A0
:101EC000922B91BB72CF21E030E0082E01C0220F8F
:101ED0000A94EAF72095292321BB67CF8FEF089555
:101EE0008F3F09F4E5C0982F977061117DC0923043
:101EF00099F130F4992361F0913009F0D9C01AC0FA
:101F0000943009F44DC0D0F1953009F0D1C05AC0D9
:101F100091B186958695869521E030E001C0220F2B
:101F20008A95EAF7822F8095892381B982B1822B25
:101F300082B9BCC094B186958695869521E030E043
:101F400001C0220F8A95EAF7822F8095892384B9F0
:101F500085B1822B85B9AAC097B18695869586955D
:101F600021E030E001C0220F8A95EAF7822F8095A8
:101F7000892387B988B1822B88B998C09AB1869590
:101F80008695869521E030E001C0220F8A95EAF718
:101F9000822F809589238AB98BB1822B8BB986C019
:101FA0009DB186958695869521E030E001C0220F8F
:101FB0008A95EAF7822F809589238DB98EB1822B7D
:101FC0008EB974C090B386958695869521E030E0F1
:101FD00001C0220F8A95EAF7822F8095892380BB62
:101FE00081B3822B81BB62C0923051F130F49923CE
:101FF00059F0913009F05CC015C09430E9F170F1EE
:10200000953009F055C046C091B186958695869564
:1020100021E030E0082E01C0220F0A94EAF7922B4B
:1020200091B944C094B186958695869521E030E0BB
:10203000082E01C0220F0A94EAF7922B94B936C0F9
:1020400097B186958695869521E030E0082E01C0EF
:10205000220F0A94EAF7922B97B928C09AB1869575
:102060008695869521E030E0082E01C0220F0A9463
:10207000EAF7922B9AB91AC09DB1869586958695F6
:1020800021E030E0082E01C0220F0A94EAF7922BDB
:102090009DB90CC090B386958695869521E030E079
:1020A00001C0220F8A95EAF7922B90BB81E0089538
:1020B0008FEF0895811106C080B18695817091E0FF
:1020C000892708958FEF0895009711F483E20DC0DA
:1020D0008130910511F48BE208C08230910511F432
:1020E00083E303C0039729F48BE30E94840E81E00D
:1020F00008958FEF0895009711F483E20DC08130A9
:10210000910511F48BE208C08230910511F483E34C
:1021100003C0039729F48BE30E947C0D81E00895AE
:102120008FEF0895009711F483E20DC0813091057F
:1021300011F48BE208C08230910511F483E303C0EF
:10214000039729F48BE30E94E70D81E008958FEF58
:102150000895882319F085B78F7E02C085B7806106
:1021600085BF81E008959091C80095FFFCCF8093D2
:10217000CE0008959093C5008093C40086E08093BC
:10218000C200E1ECF0E080818B7F8083A0ECB0E0C6
:102190008C9182608C938081886180830895909374
:1021A000CD008093CC0086E08093CA00E9ECF0E09B
:1021B00080818B7F8083A8ECB0E08C9182608C93CF
:1021C00080818861808308950E94BA1061E37DE078
:1021D0008DE39DE00E94E7299093960580939505F5
:1021E00061E37DE08DE39DE00E94E72990939405F3
:1021F0008093930508958091C80087FFFCCF80915C
:10220000C8008F778093C8008091CE0008950000A9
:102210000000000000000197D1F708950C94392BBD
:102220000E94412B0895EF92FF920F931F93CF933B
:10223000DF93EC0180E090E00E94392BF82E8B8335
:1022400081E090E00E94392BE82E8A8382E090E0C2
:102250000E94392B082F898383E090E00E94392B5C
:10226000182F888384E090E00E94392B9E2D9F0DCB
:10227000900F910F891302C081E001C08FEFDF91B1
:10228000CF911F910F91FF90EF900895CF93DF931F
:10229000EC0185E090E00E94392B888381E0DF919A
:1022A000CF910895FC01608186E090E00E94412B6F
:1022B00081E00895CF93DF93EC0186E090E00E94E7
:1022C000392B888381E0DF91CF9108950F931F937D
:1022D000CF93DF93EC0108E010E0C8010E94392B96
:1022E00089930F5F1F4F08311105B9F781E0DF9126
:1022F000CF911F910F9108950F931F93CF93DF9369
:10230000EC0108E010E06991C8010E94412B0F5FC9
:102310001F4F08311105B9F781E0DF91CF911F916F
:102320000F910895CF93DF93EC0187E090E00E9436
:10233000392B888381E0DF91CF910895FC01608182
:1023400087E090E00E94412B81E00895F894089581
:10235000789408950E94A611FFCFCF93DF93CDB755
:10236000DEB7A3970FB6F894DEBF0FBECDBF0E94B5
:10237000CD15809362058F3F21F460E08EE00E94CE
:10238000EF130E948E2480FF04C060E086E00E946C
:10239000EF1310926505109273051092720510925A
:1023A00064051092630510927405109271058FEF09
:1023B00080935B0580935D0580935C0580935E054B
:1023C0008093600580935F0593E690932105809349
:1023D0001F0590934205809340052AE735E030932E
:1023E00079052093780585E795E090937C058093A7
:1023F0007B054FE755E050937E0540937D05309374
:102400008105209380051092770510927605109231
:1024100083051092820510926805109267059093CB
:102420001605809315056EE57FE1CE0101960E94A9
:10243000C72640E850E064E174E0CE0101960E94B6
:10244000CB2685E58093140419861C861D861E867E
:102450001F86188A198A1A8A1B8A1C8A1D8A1E8A54
:102460001F8A188E198E1A8E1B8E1C8E1D8E1E8E24
:102470001F8E18A219A21AA21BA281E0888792E0DF
:102480009A878B87CE0101960E94101AA3960FB6E9
:10249000F894DEBF0FBECDBFDF91CF91089560915C
:1024A0001F056F3F39F080914005681303C085E038
:1024B0000E94EF13609140056F3F39F080911F0536
:1024C000681303C085E00E94EF130E940D1991E28A
:1024D0008902F0011124E95EFA4F82858093740528
:1024E000F0937305E0937205F0936405E093630540
:1024F000809365050E944F270E9439270E94532729
:10250000FFCFAF92BF92CF92DF92EF92FF920F93E5
:102510001F93CF93DF931F92CDB7DEB75C016B01A2
:102520007A01DC0119968C911997823021F0809103
:1025300061058C9302C0F5011082809161058230A3
:1025400020F060E087E00E94EF13D50119968C918E
:10255000823029F0809161058F5F809361058091C1
:102560006105811103C081E080936105F50130812F
:1025700021E23203F0011124E95EFA4FD182C082D8
:10258000D50118968C91189782873C913203F001FF
:102590001124E95EFA4F83E081873C913203F00118
:1025A0001124E95EFA4F30870C9102038001112457
:1025B000095E1A4FF8011582C5010B960E94C01DD5
:1025C000D8015C969C938E935B97F50103851485E7
:1025D000258536850E3311052105310520F06081F2
:1025E00086E10E94EF13D5010C91112707FD10958C
:1025F000C5014B960E94C01D41E2409FD001419F02
:10260000B00D1124A95EBA4F56969C938E935597A0
:10261000F5010081040380011124095E1A4FD801DD
:1026200055968D919C9156975B962D913C915C9718
:10263000820F931F58969C938E935797C50143968C
:1026400049830E94C01DF801968F858FD5012C917A
:1026500049812403F0011124E95EFA4F858D968D9E
:10266000928F818F81E090E090A3878FF382E28246
:1026700081E084870F90DF91CF911F910F91FF90A0
:10268000EF90DF90CF90BF90AF9008950C94821F91
:1026900085E690E00895E0917205F09173058487D6
:1026A0000895E0917205F091730584850895209155
:1026B0001304222341F0FB01208320916603FC01D7
:1026C000208381E0089580E0089580911304882399
:1026D00009F483C00E94A6118AE891E00E945A0D75
:1026E000809166031F928F938BE193E09F938F936A
:1026F0000E945E2A86E991E00E945A0D0F900F9089
:102700000F900F9080911304883110F010921304F1
:102710008091130490E0FC013197E631F10508F057
:1027200046C0E057FF4F0C94B8298AE991E041C0B8
:1027300086ED91E03EC08DEF91E03BC081E192E0FB
:1027400038C087E292E035C082E492E032C088E58A
:1027500092E02FC080E792E02CC083E892E029C08D
:1027600086E992E026C084EB92E023C089ED92E0F6
:1027700020C085EE92E01DC080E093E01AC08FE09B
:1027800093E017C083E293E014C084E393E011C0A8
:1027900088E493E00EC088E693E00BC080E893E005
:1027A00008C08BE993E005C08CEA93E002C08BEB94
:1027B00093E00E945A0D60919505709196058DE009
:1027C00090E00E94322A60919505709196058AE00A
:1027D00090E00E94322A1092130480E008958093C2
:1027E0001304609366030C94651380931304E091C3
:1027F0007205F09173058085809366030C946513D0
:10280000CF93DF931F92CDB7DEB7198207C080ED5B
:1028100097E00E94C32289818F5F898389818436F2
:10282000B0F30F90DF91CF91089581E090E00E9486
:1028300092100E94001481E090E00E947B100C94A2
:10284000001481E090E00E9492100E9400140E9407
:1028500000140E94001481E090E00E947B100C9410
:102860000014FF920F931F93CF93DF9300D01F921A
:10287000CDB7DEB71F928F938BE193E09F938F9339
:102880008E010F5F1F4F1F930F930E94AA2A0F9074
:102890000F900F900F900F900F90F12C6FC0F801D8
:1028A000E80FF91F80818433B9F168F48133E9F0CE
:1028B00020F4803309F05BC015C0823309F1833303
:1028C00009F055C022C08733C1F130F4853369F176
:1028D000863309F04CC02CC08833B1F1893309F03C
:1028E00046C03BC00E94211402C00E9415140E94E1
:1028F00021140E9421140E9421140E94211437C027
:102900000E9415140E941514F4CF0E9415140E9401
:1029100015140E941514EFCF0E9415140E9415146F
:102920000E9415140E941514E8CF0E94151402C0CD
:102930000E9421140E94151404C00E9421140E94B8
:1029400021140E94151406C00E9421140E94211413
:102950000E9421140E94151408C00E9421140E9494
:1029600021140E9421140E9421140E9415140E9417
:1029700000140E9400140E940014F394F8010190C6
:102980000020E9F73197E01BF10B8F2D90E08E17B7
:102990009F0708F484CF0F900F900F90DF91CF9195
:1029A0001F910F91FF9008955F926F927F928F9287
:1029B0009F92AF92BF92CF92DF92EF92FF920F93CE
:1029C0001F93CF93DF9382EC93E00E945A0DE09126
:1029D0007205F09173052085822F992787FD9095C8
:1029E0009F932F938EE193E09F938F930E945E2A93
:1029F000E0917205F0917305C281D381DF93CF938B
:102A000082E593E09F938F930E945E2A88811F92B4
:102A10008F9387E293E09F938F930E945E2AE091C9
:102A20007205F091730581818F9380818F9384E388
:102A300093E09F938F930E945E2A809173058F93FA
:102A4000809172058F938EE393E09F938F930E9402
:102A50005E2A07E115E0EDB7FEB774960FB6F8945D
:102A6000FEBF0FBEEDBFC0E0D0E08EE4882E83E055
:102A7000982E97E2A92E93E0B92E24E3C22E23E0EC
:102A8000D22E31E2532E4EE3E42E43E0F42EF80131
:102A9000628073807F926F92DF93CF939F928F9229
:102AA0000E945E2AF30180811F928F93BF92AF92A2
:102AB0000E945E2AF80181818F9380818F93DF923B
:102AC000CF920E945E2A5C9EC0015D9E900D1124F3
:102AD000895E9A4F9F938F93FF92EF920E945E2A96
:102AE00021960F5D1F4F8DB79EB742960FB6F89493
:102AF0009EBF0FBE8DBFC230D10549F6DF91CF9189
:102B00001F910F91FF90EF90DF90CF90BF90AF900B
:102B10009F908F907F906F905F900895CF93DF93F9
:102B2000E0917205F0917305C281D381888185356A
:102B300039F00E94D41481E00E94F51385E5888362
:102B4000E0917205F0917305808191818115924425
:102B500038F00E94D41482E1DF91CF910C94F513E8
:102B6000DF91CF91089521E28202F0011124E95E04
:102B7000FA4FA281B3818C91853519F085E58C934C
:102B800008C0808191818115924428F082E10E94E1
:102B9000F5138FEF089581E008950F931F9300912F
:102BA0008B0310918C0320918D0330918E0380E074
:102BB00090E0B901A801082E04C076956795579555
:102BC00047950A94D2F740FD19C041E050E060E01B
:102BD00070E0082E04C0440F551F661F771F0A942B
:102BE000D2F7402B512B622B732B40938B035093C6
:102BF0008C0360938D0370938E0305C00196803221
:102C00009105B9F68FEF1F910F910895E09172052C
:102C1000F091730565857685878590890895CF92B3
:102C2000DF92EF92FF920F931F93CF93DF931F9248
:102C3000CDB7DEB7C12CD12C7601C394082E04C0C9
:102C4000CC0CDD1CEE1CFF1C0A94D2F740918B03C8
:102C500050918C0360918D0370918E034C215D2106
:102C60006E217F21452B462B472B09F463C08983B6
:102C70000E94A611E0E2F5E097018601009510950B
:102C80002095309593E08981DF0111974C914F3F5A
:102C900049F144815581668177814C155D056E054A
:102CA0007F0541F41086118612861386DF01129784
:102CB0001C92908344815581668177814023512302
:102CC00062237323448355836683778340855185CC
:102CD0006285738540235123622373234087518784
:102CE00062877387B19645E0E236F40769F64EEFE6
:102CF0005FEF6FEF7FEF04C0440F551F661F771F14
:102D00008A95D2F780918B0390918C03A0918D03CB
:102D1000B0918E0384239523A623B72380938B033E
:102D200090938C03A0938D03B0938E030E94A811FF
:102D300081E001C08FEF0F90DF91CF911F910F9134
:102D4000FF90EF90DF90CF9008950F931F9341E095
:102D500050E060E070E004C0440F551F661F771F0D
:102D60008A95D2F7E0917205F09173058585968575
:102D7000A785B0898A019B01082319232A233B23B5
:102D8000012B022B032BD1F0409550956095709547
:102D900084239523A623B72385879687A787B08B9F
:102DA00081899289A389B48984239523A623B72393
:102DB000818B928BA38BB48B81E001C08FEF1F912D
:102DC0000F91089540918B0350918C0360918D0376
:102DD00070918E03082E04C0769567955795479598
:102DE0000A94D2F740FF1DC0E0917205F09173057F
:102DF00041E050E060E070E004C0440F551F661FE2
:102E0000771F8A95D2F785859685A785B089842B0B
:102E1000952BA62BB72B85879687A787B08B81E04C
:102E200008958FEF0895CF92DF92EF92FF921F9354
:102E3000CF93DF93C12CD12C7601C39404C0CC0C6A
:102E4000DD1CEE1CFF1C8A95D2F780918B039091BC
:102E50008C03A0918D03B0918E038C219D21AE2116
:102E6000BF21892B8A2B8B2B11F481E040C00E945B
:102E7000A611EEE1F5E0C0E2D5E010E023E08081AC
:102E80008130A9F482859385A485B5858C219D2107
:102E9000AE21BF21892B8A2B8B2B49F028831786E3
:102EA00016861082C286D386E486F58611E080817C
:102EB000823091F482859385A485B5858C159D0516
:102EC000AE05BF0549F42883178616861082128640
:102ED00013861486158611E0B196A19685E0E0363A
:102EE000F80769F60E94A811111105C082E00E943E
:102EF0004B138FEF01C081E0DF91CF911F91FF90C5
:102F0000EF90DF90CF9008950F931F93E09172059B
:102F1000F0917305058516852785308906231723CB
:102F200028233923012B022B032B19F1618B728B80
:102F3000838B948B21E02783DC01CB010090620519
:102F400004C0B695A795979587950A94D2F780FF08
:102F500003C00E94EE1A04C080E090E00E94151B9E
:102F6000E0917205F09173050189128923893489F2
:102F700003C000E010E09801B801C9011F910F9152
:102F800008959091710591111CC090915B059F3F30
:102F900031F090915E059F3F21F421E003C020E0D5
:102FA00001C022E030E0F901EE0FFF1FE20FF31F36
:102FB000E55AFA4F82838083618381E080937105B3
:102FC00002C0E0E0F0E0CF01089525E08B359207E4
:102FD00029F08E55954021F481E0089580E0089510
:102FE0008FEF08950E94E5178F3F11F481E002C032
:102FF000823021F40E944B138FEF0895992787FDAB
:103000009095FC01EE0FFF1FE80FF91FE55AFA4FEC
:103010008FEF8083828381838091710581508093BB
:10302000710581E008950F931F93CF93DF931F9253
:10303000CDB7DEB70E94E5178F3F11F481E002C0E3
:10304000823021F40E944B138FEF70C0282F33275A
:1030500027FD30958901000F111F020F131F055A1C
:103060001A4FF8012281908129170CF05EC08983E4
:103070000E94A611F80192819F5F9283E0917205F0
:10308000F0917305148290911E058981923021F58B
:10309000482F552747FD5095652F752F009128051E
:1030A0001091290520912A0530912B050417150749
:1030B0002607370789F493E09093200510922D0599
:1030C00010922C0510921E051092280510922905C9
:1030D00010922A0510922B0590913F05923019F518
:1030E000992787FD9095A92FB92F409149055091B7
:1030F0004A0560914B0570914C05481759076A07BE
:103100007B0789F483E08093410510924E0510926D
:103110004D0510923F051092490510924A051092F4
:103120004B0510924C050E94A81181E00F90DF9191
:10313000CF911F910F9108950F931F93CF93DF931A
:103140001F92CDB7DEB70E94E5178F3F11F481E0E3
:1031500002C0823021F40E944B138FEF40C089835C
:103160000E94A6118981082F112707FD1095F801EB
:10317000EE0FFF1FE00FF11FE55AFA4F92819111F8
:1031800016C0E0917205F091730597819260978364
:10319000992787FD9095A92FB92F818B928BA38BAF
:1031A000B48B0E94A81180E090E00E94151BF801EA
:1031B000EE0FFF1FE00FF11FE55AFA4F8281815099
:1031C0008283A0917205B091730581811B968C93C7
:1031D0001B9781E014968C930E94A81181E00F90B8
:1031E000DF91CF911F910F9108950E94E5178F3FB6
:1031F00011F481E002C0823021F40E944B138FEF62
:103200000895992787FD9095FC01EE0FFF1FE80FA9
:10321000F91FE55AFA4F82810895E0916705F09110
:10322000680580810895E0916705F091680503C005
:103230000380F481E02D3097D9F70895CF92DF9283
:10324000EF92FF920F931F93CF93DF93E0911505B9
:10325000F0911605309709F48AC0409167055091A6
:1032600068054115510509F446C0DA0191E2692F5C
:10327000782F760390011124295E3A4F8901065F69
:103280001F4F7901C4E0EC0EF11C255F3F4F6C919C
:1032900070E0969FE001979FD00D1124C95EDA4F30
:1032A000DC80DD2029F0DB84E801C880DC1428F113
:1032B000E701D880DD2061F0969FE001979FD00D57
:1032C0001124C95EDA4FDA84E901C880DC14A8F061
:1032D000969FE001979FD00D1124C95EDA4F7A8541
:1032E000E8016881761748F013960D90BC91A02DE7
:1032F000109769F602C0A0E0B0E08083C381D4815A
:10330000D0931605C0931505A417B507B1F410970F
:1033100049F0B483A383128211821296FC93EE9338
:10332000119706C01482138212821182FA83E983F4
:10333000F0936805E09367051AC011968D919C91F2
:103340001297AC17BD0759F092838183B483A3838E
:103350001196CD91DC911297FC83EB8304C014820B
:103360001382928381831296FC93EE931197DF91DF
:10337000CF911F910F91FF90EF90DF90CF90089524
:10338000CF93DF93E0916705F0916805309709F4DA
:1033900044C0992787FD9095208130E02817390790
:1033A00081F4A381B481B0936805A0936705129658
:1033B0001C921E92119718C00380F481E02D309763
:1033C00061F1208130E028173907B1F7C181D2813E
:1033D000838194819C838B83A381B481109721F096
:1033E0001296DC93CE931197A0911505B091160516
:1033F000109739F4F0931605E093150514821382A3
:103400000AC0B483A3831296FC93EE931197F093B2
:103410001605E093150512821182DF91CF91089570
:10342000EF92FF920F931F93CF93DF93EC014B81A9
:103430005C8169817A818D819E810E94EA262F813B
:10344000222371F04B815C81E12CF12C00E010E033
:1034500020E030E0BC01CE010E9481121F820CC02E
:10346000E88121E2E202F0011124E95EFA4F2185B0
:10347000233099F491838083E88181E2E802F001AE
:103480001124E95EFA4F85899689892B41F482E0FF
:10349000818788810E941E1902C08FEF01C081E0E0
:1034A000DF91CF911F910F91FF90EF9008951F939F
:1034B000CF93DF93CDB7DEB728970FB6F894DEBF72
:1034C0000FBECDBF29833A834B835C836D837E839C
:1034D0008F8398870E94A6110E941224182FCE0174
:1034E00001960E94C01D8330910560F0E091720545
:1034F000F0917305810F911D968B858B0E94A81109
:1035000081E001C08FEF28960FB6F894DEBF0FBEA2
:10351000CDBFDF91CF911F9108950E94BC26E0910D
:103520007205F091730585818111F7CF0895FF929F
:103530000F931F93CF93DF93CDB7DEB728970FB6C6
:10354000F894DEBF0FBECDBF29833A834B835C83E3
:103550006D837E838F8398870E948E150E94A611AB
:10356000E0917205F091730581E0858381E090E040
:1035700090A3878F0E941224F82ECE0101960E94FC
:10358000C01DE0917205F09173050F2D10E0800FC2
:10359000911F968B858B87EF8F1578F00E94AB2358
:1035A0000F5F1F4F282F30E00217130734F48F2DC1
:1035B0008E5F809312040E94AF230E94A8110E9484
:1035C0008D1A81E028960FB6F894DEBF0FBECDBFEE
:1035D000DF91CF911F910F91FF900895CF930E949B
:1035E000A611E0917205F091730581E085838683D1
:1035F0000E941224C82F883F88F40E94AB232C2FEE
:1036000030E02F5F3F4F482F50E02417350734F448
:103610008C2F8E5F809312040E94AF230E94A8110A
:103620000E948D1A81E0CF910895CF93DF93EC0132
:103630000E94A611E0917205F091730581E08583E7
:10364000D68BC58B0E941224C82F883F88F40E9415
:10365000AB232C2F30E02F5F3F4F482F50E0241733
:10366000350734F48C2F8E5F809312040E94AF23B1
:103670000E94A8110E948D1A81E0DF91CF910895D8
:10368000FF920F931F93CF93DF938C010E94A6119B
:10369000E0917205F091730581E085830E94122408
:1036A000F82EE0917205F0917305C82FD0E00C0F51
:1036B0001D1F168B058B87EF8F1570F00E94AB23B3
:1036C0002196282F30E0C217D30734F48F2D8E5F58
:1036D000809312040E94AF230E94A8110E948D1AA9
:1036E00081E0DF91CF911F910F91FF900895CF93CB
:1036F000DF93EC010E948E15209711F4C1E0D0E019
:103700000E94A611E0917205F091730581E0858316
:10371000D0A3C78F0E941224C82F883F88F40E942C
:10372000AB232C2F30E02F5F3F4F482F50E0241762
:10373000350734F48C2F8E5F809312040E94AF23E0
:103740000E94A8110E948D1A81E0DF91CF91089507
:10375000CF930E948E150E94A611E0917205F09100
:10376000730581E090E090A3878F81E085830E94BC
:103770001224C82F883F88F40E94AB232C2F30E0FE
:103780002F5F3F4F482F50E02417350734F48C2F1C
:103790008E5F809312040E94AF230E94A8110E94A2
:1037A0008D1A81E0CF910895E0917205F091730533
:1037B00080850E94C019E0917205F091730584E044
:1037C00081870E94A81B81E008958F929F92AF92FB
:1037D000BF92CF92DF92EF92FF920F931F93CF93FE
:1037E000DF93CDB7DEB760970FB6F894DEBF0FBE9C
:1037F000CDBF29873A874B875C876D877E878F8708
:10380000988BCE0101960E94411C89809A80AB80E2
:10381000BC80CD80DE80EF80F88409851A852B85F9
:103820003C854D855E856F857889CE0109960E941D
:103830009D1C8F3F61F029853A854B855C856D85A0
:103840007E858F8598890E94971A81E001C08FEF4D
:1038500060960FB6F894DEBF0FBECDBFDF91CF915B
:103860001F910F91FF90EF90DF90CF90BF90AF909E
:103870009F908F900895E0917205F0917305808577
:103880000895CF92DF92EF92FF92CF93DF93EC01F6
:103890001C821D821E821F828091690590916A059B
:1038A000A0916B05B0916C0588839983AA83BB8333
:1038B000C0906D05D0906E05E0906F05F09070059A
:1038C000CC82DD82EE82FF820E941224A82FB0E01B
:1038D00023EB36EE4EE050E00E94E4286C0D7D1D97
:1038E0008E1D9F1D6C837D838E839F8313C09A5C86
:1038F000AA49BB438C839D83AE83BF834881598192
:103900006A817B814F5F5F4F6F4F7F4F4883598341
:103910006A837B838C819D81AE81BF8181152AEC76
:1039200092072AE9A2072BE3B20708F7DF91CF91AC
:10393000FF90EF90DF90CF9008956F927F928F92DB
:103940009F92AF92BF92CF92DF92EF92FF920F932E
:103950001F93CF93DF93CDB7DEB760970FB6F89480
:10396000DEBF0FBECDBF3C0109831A832B833C838E
:103970004D835E836F83788789869A86AB86BC8603
:10398000CD86DE86EF86F88AC980DA80EB80FC80FF
:103990008D819E81AF81B88509851A852B853C85EF
:1039A0004D855E856F857889C016D106E206F306DF
:1039B00008F442C00C151D052E053F0599F4841727
:1039C0009507A607B707C0F1841B950BA60BB70B8D
:1039D000F30184839583A683B783108211821282B8
:1039E000138228C084179507A607B70790F4F1E063
:1039F000CF1AD108E108F108C01AD10AE20AF30A85
:103A0000F301C082D182E282F3829653A546B44C80
:103A100009C0C01AD10AE20AF30AF301C082D182B6
:103A2000E282F382841B950BA60BB70B84839583EC
:103A3000A683B78381E001C08FEF60960FB6F8943C
:103A4000DEBF0FBECDBFDF91CF911F910F91FF90D1
:103A5000EF90DF90CF90BF90AF909F908F907F902E
:103A60006F900895FC0113C05A5C6A497B434483FC
:103A700055836683778340815181628173814F5F73
:103A80005F4F6F4F7F4F40835183628373834481C5
:103A900055816681778141158AEC58078AE9680764
:103AA0008BE3780708F708958F929F92AF92BF92A9
:103AB000CF92DF92EF92FF920F931F93CF93DF93FA
:103AC000CDB7DEB760970FB6F894DEBF0FBECDBF9F
:103AD00009831A832B833C834D835E836F837887AE
:103AE00089869A86AB86BC86CD86DE86EF86F88A86
:103AF00049855A856B857C8509811A812B813C819A
:103B0000400F511F621F731FFC014083518362836A
:103B100073834D855E856F8578890D811E812F8128
:103B20003885400F511F621F731F4483558366837E
:103B300077830E94321D81E060960FB6F894DEBF55
:103B40000FBECDBFDF91CF911F910F91FF90EF90EE
:103B5000DF90CF90BF90AF909F908F90089560932B
:103B6000690570936A0580936B0590936C052093AB
:103B70006D0530936E0540936F0550937005089561
:103B80002F923F924F925F926F927F928F929F926D
:103B9000AF92BF92CF92DF92EF92FF920F931F935B
:103BA000CF93DF93CDB7DEB762970FB6F894DEBF41
:103BB0000FBECDBFFC014080518062807380648164
:103BC000758186819781411451046104710409F45F
:103BD0006CC0F2E44F1651046104710408F06CC02B
:103BE0007B018C0120E030E0A9016983FA820B831C
:103BF0001C832D833E834F835887E0E0F0E0B0E0E4
:103C0000A0E0198A1A8A312C812C912C01C093943E
:103C10009F014B2F5A2F69897A89832D982DA9806E
:103C2000BA80CB80DC80ED80FE800F8118850E94F9
:103C3000BE29222E39874A875B876C877D878E87CE
:103C40009F879F014B2F5A2F69897A89832D982D41
:103C500036534546544C6F4F7F4F8F4F9F4FF9015E
:103C6000B42FA52F698B7A8B382E892E492D50E0E1
:103C700060E070E0441555056605770540F283EB7A
:103C8000A82E96EEB92E2EE0C22ED12CE12CF12CCE
:103C900000E010E0222D39854A855B856C857D85A5
:103CA0008E859F850E945B2909C023EB36EE4EE08E
:103CB00050E00E941B2902C020E030E0C90162965A
:103CC0000FB6F894DEBF0FBECDBFDF91CF911F912D
:103CD0000F91FF90EF90DF90CF90BF90AF909F90AB
:103CE0008F907F906F905F904F903F902F900895AE
:103CF000CF92DF92EF92FF92CF93DF93CDB7DEB7F3
:103D000028970FB6F894DEBF0FBECDBF6B017C01C4
:103D10003AE0F694E794D794C7943A95D1F7C982DC
:103D2000DA82EB82FC829B01AC0133704427552779
:103D300063EB76EE8EE090E00E94F7282C2D3A811E
:103D40004B815C8128960FB6F894DEBF0FBECDBFC5
:103D5000DF91CF91FF90EF90DF90CF9008952F9259
:103D60003F924F925F926F927F928F929F92AF920B
:103D7000BF92CF92DF92EF92FF920F931F93CF9358
:103D8000DF93CDB7DEB762970FB6F894DEBF0FBEF4
:103D9000CDBFFC0140805180628073806481758159
:103DA00086819781411451046104710409F465C04E
:103DB0007B018C0120E030E0A9016983FA820B834A
:103DC0001C832D833E834F835887E0E0F0E0B0E012
:103DD000A0E0198A1A8A312C812C912C01C093946D
:103DE0009F014B2F5A2F69897A89832D982DA9809D
:103DF000BA80CB80DC80ED80FE800F8118850E9428
:103E0000BE29222E39874A875B876C877D878E87FC
:103E10009F879F014B2F5A2F69897A89832D982D6F
:103E200036534546544C6F4F7F4F8F4F9F4FF9018C
:103E3000B42FA52F698B7A8B382E892E492D50E00F
:103E400060E070E0441555056605770540F243EBE8
:103E5000A42E56EEB52E6EE0C62ED12CE12CF12C00
:103E600000E010E0222D39854A855B856C857D85D3
:103E70008E859F850E945B2906C023EB36EE4EE0BF
:103E800050E00E941B29B901CA0162960FB6F8944E
:103E9000DEBF0FBECDBFDF91CF911F910F91FF907D
:103EA000EF90DF90CF90BF90AF909F908F907F90DA
:103EB0006F905F904F903F902F900895C1E0D2E0B7
:103EC0000E948E150E94AB23843028F4C0936605AF
:103ED0000E94BC2608C08AE090E00E94C322D093D2
:103EE00066050E94B02680911404853519F088E09B
:103EF0000E94F51380917E41853511F388E00E9480
:103F0000F513DECF2F923F924F925F926F927F9286
:103F10008F929F92AF92BF92CF92DF92EF92FF92D9
:103F20000F931F93CF93DF9300D000D01F92CDB794
:103F3000DEB70E94DF220E94A6110E94FE220E948C
:103F400006239A8389838AEF0E94AF23A0911204EB
:103F5000B0E023EB36EE4EE050E00E94E4286B0127
:103F60007C0180916D0590916E05A0916F05B091D7
:103F70007005C80ED91EEA1EFB1EC701B6010E94BD
:103F80001B29C61AD70AE80AF90A80916905909197
:103F90006A05A0916B05B0916C0573EB872E76EEE8
:103FA000972E7EE0A72EB12C12C02AECD21A2AE955
:103FB000E20A2BE3F20AC701B601A50194010E94AF
:103FC0001B29C61AD70AE80AF90AD301C201412CF3
:103FD000512C32014394480E591E6A1E7B1EC11497
:103FE000EAECDE06EAE9EE06EBE3FE06F0F6809385
:103FF000690590936A05A0936B05B0936C05C09218
:104000006D05D0926E05E0926F05F0927005E0911B
:104010007205F091730585818823C1F08185843014
:10402000A9F08781823009F405C0882341F0868198
:10403000811102C085E001C083E0818704C083E074
:1040400081871782168280850E94C019E0917205CF
:10405000F0917305858D968D892B91F1608566238E
:1040600079F18185843061F1218D328D8091120446
:1040700090E02817390750F482E00E94EF13E09196
:104080007205F0917305128E118E04C0281B390B36
:10409000328F218FE0917205F09173051085218D8B
:1040A000328D232B69F4612F83E00E94EF13E0919E
:1040B0007205F091730583E08187812F0E94C019FA
:1040C0008FE1682E85E0782E90E2892E95E0992E7A
:1040D0002EE1A22E25E0B22E3DE1C32E35E0D32EF7
:1040E0004CE1E42E45E0F42E00E61AEE40E02AEF23
:1040F00030E0212C312C21012394D3018C918F3F6E
:1041000009F4BFC0F70110828C91882309F43FC0E5
:10411000D4018C918430D9F11C966D917C911D97BE
:104120008091120490E06817790738F0681B790BCA
:104130001D967C936E931C9703C0F401158614861C
:10414000D4011E966D917C911F976817790738F0FE
:10415000681B790B1F967C936E931E970FC0F4011A
:10416000628973898617970728F4681B790B77870C
:10417000668704C00E94072997878687F401868591
:104180009785892B21F48289938997878687D40123
:104190008C91833009F075C01C968D919C911D9770
:1041A000892B09F063C0F50180818823A1F0D60135
:1041B0008C91882381F0D201C1010090620504C076
:1041C000880F991FAA1FBB1F0A94D2F7F40180879A
:1041D0009187A287B387D5011C92F6011082D7017F
:1041E0001C92F4018689978981309105D1F48489E4
:1041F0009589918B808B82E08083868597859587D2
:10420000848782899389892B11F435872487842FA9
:104210002C833D834B830E941E192C813D814B8151
:1042200025C0D40164897589718B608BFC0131973D
:1042300052968D919C915397E89FB001E99F700D24
:10424000F89F700D11241D967C936E931C971F96FA
:104250007C936E931E97892B21F41D963C932E938D
:104260001C9781E090E0F401978B868BD4011C961B
:104270008D919C911D97009721F08017910708F46C
:104280008C014F5FB1E26B0E711CE1E28E0E911C4E
:10429000F1E2AF0EB11C81E2C80ED11C91E2E90E31
:1042A000F11C423009F029CF0E940D19F82EA1E22D
:1042B0008A02F0011124E95EFA4F82858093740529
:1042C000F0936405E0936305FF2091F0258D368D12
:1042D000232B51F0218D328D2A3F310528F42017F0
:1042E0003107F0F489011CC00B3F1105C8F013C061
:1042F00004301105A8F09801235031092A3F3105F7
:1043000038F489012230310558F402E010E008C089
:104310000D3F110519F00AEF10E002C007EF10E0A1
:1043200080936505F0937305E09372050093120482
:104330000E941224282F30E02F5F3F4F20173107B3
:1043400040F00E941224082F10E00E5F1F4F0093D0
:104350001204F11010926605802F0E94AF236CEDBD
:1043600075E089819A810E9419230E9448270F9045
:104370000F900F900F900F90DF91CF911F910F91A1
:10438000FF90EF90DF90CF90BF90AF909F908F9075
:104390007F906F905F904F903F902F900C94532799
:1043A00040918505141694F054E0450290011124C3
:1043B000F901EA57FA4F6083F901E857FA4F918300
:1043C00080834F5F4093850581E008958FEF0895C6
:1043D0000F931F93CF93DF93062F409185055527A9
:1043E00047FD509510E0E82FF0E030C0E901CC0F18
:1043F000DD1FCC0FDD1FDE01AA57BA4F8C91992724
:1044000087FD90958E179F0701F5F901E657FA4F42
:10441000808181110EC081E08083FE01E857FA4F50
:104420000190F081E02D20E040E050E0602F80E03E
:104430000995C857DA4FE881F98120E040E050E063
:10444000602F81E00995812F07C01F5F212F30E089
:10445000241735075CF28FEFDF91CF911F910F91F9
:104460000895E82FF0E080918505992787FD9095C4
:104470008E179F077CF0EE0FFF1FEE0FFF1FE85710
:10448000FA4F0190F081E02D20E040E050E060E044
:1044900082E0099481E00E944B138FEF0895242F4E
:1044A000E82FF0E080918505992787FD90958E177C
:1044B0009F076CF0EE0FFF1FEE0FFF1FE857FA4F3C
:1044C0000190F081E02DAB0160E086E0099481E08D
:1044D0000E944B138FEF0895242FE82FF0E0809176
:1044E0008505992787FD90958E179F076CF0EE0F35
:1044F000FF1FEE0FFF1FE857FA4F0190F081E02DEC
:10450000AB0160E085E0099481E00E944B138FEFDE
:104510000895242FE82FF0E080918505992787FDE5
:1045200090958E179F076CF0EE0FFF1FEE0FFF1F89
:10453000E857FA4F0190F081E02D40E050E084E030
:10454000099481E00E944B138FEF0895E82FF0E06B
:1045500080918505992787FD90958E179F0774F0A8
:10456000EE0FFF1FEE0FFF1FE857FA4F0190F0818B
:10457000E02D20E040E050E083E0099481E00E94DB
:104580004B138FEF089500000000000000000000B2
:104590000000000000000000000000000000019783
:1045A00091F7089510922101089589E080932101E7
:1045B0008DE89CE39093290180932801089510923F
:1045C0002501109224010895CF93DF9300D0CDB739
:1045D000DEB780912401909125019A8389832981F6
:1045E0003A81C9010F900F90DF91CF9108951092F9
:1045F0008100089581E080938100089583B58160F2
:1046000083BD10928500109284000895CF93DF93AC
:1046100000D0CDB7DEB780918400909185009A8359
:10462000898329813A81C9010F900F90DF91CF9141
:104630000895CF92DF92EF92FF92CF93DF93EC0138
:10464000CC0FDD1FC9378FEFD80710F0C0E0D0E0E6
:104650006B01E12CF12CCC0EDD1EE11CF11C81E084
:10466000C816D104E806F10440F081E0E81AF10828
:104670000E940623C817D907D8F30E9406238C1579
:104680009D05D8F3DF91CF91FF90EF90DF90CF9011
:1046900008951092B100E0E7F0E080818D7F808383
:1046A00080818E7F808308958093B2000895E0E733
:1046B000F0E080818360808383E08093B10008957F
:1046C00083B5826083BD1092B2001092670310928E
:1046D00012040895CF93DF938EEF8093120490E23B
:1046E0009093B6008093B30083E087BB92E09093F1
:1046F000B0008093B10093B5926093BD87BB84BD39
:1047000083B5826083BD1092800081E08093810038
:10471000109285001092840083B5826083BD83B5BA
:10472000816083BD10922001C4E2D1E01982188219
:1047300083B5826083BD83B5816083BD0E946023A1
:10474000198218820E9457230E94D5221092670373
:10475000DF91CF9108958091B3008F5F08958150CC
:104760008093B3000895811102C0109271008FEF01
:104770000895811106C0109295001092940081E076
:1047800008958FEF0895811105C020919400309114
:10479000950002C020E030E0C9010895811105C0F4
:1047A00082E08093710081E008958FEF0895811178
:1047B00035C0CB010197059710F460931104109256
:1047C000900088E080939100509399004093980066
:1047D000309365032093640380911104813021F4A8
:1047E00080919100816011C0823021F4809191000C
:1047F00082600BC0833021F480919100836005C0FA
:10480000843031F48091910084608093910008C0DD
:10481000853031F4809191008560F7CF8FEF089556
:1048200081E008958091B20008951F920F920FB613
:104830000F92112460E08AE00E94EF13FFCF0F92E5
:104840000FB60F921F922F923F924F925F926F92EC
:104850007F928F929F92AF92BF92CF92DF92EF9210
:10486000FF920F931F932F933F934F935F936F93F9
:104870007F938F939F93AF93BF93CF93DF93EF93E8
:10488000FF93A0917205B09173050DB60D920EB60F
:104890000D921F92A0910F04B09110041E90BEBF04
:1048A000ADBF08951F920F920FB60F9211240BB651
:1048B0000F922F933F934F935F936F937F938F93B9
:1048C0009F93AF93BF93EF93FF93E0916403F091B5
:1048D0006503309711F0099504C060E08AE00E94FA
:1048E000EF13FF91EF91BF91AF919F918F917F91C6
:1048F0006F915F914F913F912F910F900BBE0F9051
:104900000FBE0F901F9018951F920F920FB60F9227
:1049100011240F900FBE0F901F90189504B603FC42
:1049200002C080E001C080E104B602FE06C094B778
:104930009B7F94BF04B600FE846004B601FE05C0F0
:1049400094B79D7F94BF8260089581110CC004B616
:1049500000FE04C094B79E7F94BF01C081E0909197
:10496000B000911181E00895811102C0E89A39C028
:10497000813011F4E99A0895823011F4EA9A31C035
:10498000833021F480916B00816029C0843021F450
:1049900080916B00826023C0853021F480916B0090
:1049A00084601DC0863021F480916B00886017C040
:1049B000873021F480916B00806111C0883021F430
:1049C00080916B0080620BC0893021F480916B0074
:1049D000806405C08A3039F480916B0080688093D0
:1049E0006B0081E008958FEF0895811102C0E8986F
:1049F00039C0813011F4E9980895823011F4E998B2
:104A000031C0833021F480916B008E7F29C08430C7
:104A100021F480916B008D7F23C0853021F480913B
:104A20006B008B7F1DC0863021F480916B00877FE7
:104A300017C0873021F480916B008F7E11C08830C1
:104A400021F480916B008F7D0BC0893021F480911F
:104A50006B008F7B05C08A3039F480916B008F77B3
:104A600080936B0081E008958FEF0895811127C036
:104A700050938E0540938D05611104C080916900AB
:104A80008C7F3EC0613049F4809169008D7F8093B6
:104A9000690080916900816033C0623049F480917F
:104AA0006900826080936900809169008E7F28C0D0
:104AB000633009F027C080916900836021C0813094
:104AC00049F550938C0540938B05611104C080918A
:104AD0006900837F15C0613049F480916900877F48
:104AE000809369008091690084600AC0623061F43B
:104AF00080916900886080936900809169008B7F54
:104B00008093690081E008956330E1F78091690046
:104B10008C60F6CF823031F55093900540938F052D
:104B2000611104C0809169008F7CEACF613049F443
:104B3000809169008F7D8093690080916900806118
:104B4000DFCF623049F48091690080628093690010
:104B5000809169008F7ED4CF6330A1F68091690087
:104B60008063CECF8350883050F48091680081609C
:104B7000809368005093920540939105C3CF8FEFC7
:104B800008951F920F920FB60F9211240BB60F9239
:104B90002F933F934F935F936F937F938F939F9345
:104BA000AF93BF93EF93FF93E0919105F09192053E
:104BB000309711F0099504C060E08AE00E94EF137D
:104BC000FF91EF91BF91AF919F918F917F916F91E5
:104BD0005F914F913F912F910F900BBE0F900FBEA1
:104BE0000F901F9018951F920F920FB60F921124DD
:104BF0000BB60F922F933F934F935F936F937F93D7
:104C00008F939F93AF93BF93EF93FF93E0918D05A5
:104C1000F0918E05309711F0099504C060E08AE0AC
:104C20000E94EF13FF91EF91BF91AF919F918F91F0
:104C30007F916F915F914F913F912F910F900BBE9C
:104C40000F900FBE0F901F9018951F920F920FB6E6
:104C50000F9211240BB60F922F933F934F935F93B4
:104C60006F937F938F939F93AF93BF93EF93FF9334
:104C7000E0918B05F0918C05309711F0099504C0F7
:104C800060E08AE00E94EF13FF91EF91BF91AF9136
:104C90009F918F917F916F915F914F913F912F9154
:104CA0000F900BBE0F900FBE0F901F9018951F9284
:104CB0000F920FB60F9211240BB60F922F933F93C2
:104CC0004F935F936F937F938F939F93AF93BF9314
:104CD000EF93FF93E0918F05F0919005309711F0DD
:104CE000099504C060E08AE00E94EF13FF91EF9104
:104CF000BF91AF919F918F917F916F915F914F91F4
:104D00003F912F910F900BBE0F900FBE0F901F90F1
:104D100018950E94A611A89584B7877F84BFE0E606
:104D2000F0E080818861808310820C94A8110E9439
:104D3000A611A89584B7877F84BFE0E6F0E0808164
:104D4000886180838DE080830C94A81104B603FCF5
:104D500002C081E008958FEF0895A8950895089501
:104D600083B7817F866083BF83B7816083BF889567
:104D700083B78E7F83BF089583B7817F83BF83B757
:104D8000816083BF889583B78E7F83BF0895FC01C0
:104D9000768365830895EF92FF920F931F93CF93CD
:104DA000DF93EC018B017A014032510518F481E167
:104DB0000E94F513A70141505109400F511F5A831A
:104DC00049831C830B83DF91CF911F910F91FF903B
:104DD000EF90089525E5FA012083FB013297908337
:104DE000FB0131978083FB01349711821082FB0114
:104DF000369711821082FB01389711821082FB01D5
:104E00003A9711821082FB013C9711821082FB01BC
:104E10003E9711821082FB01709711821082FB0174
:104E2000729711821082FB01749711821082FB012C
:104E3000769711821082FB01789711821082FB0114
:104E40007A9711821082FB017C9711821082FB01FC
:104E50007E9711821082FB01B09711821082FB01B4
:104E6000B29711821082FB01B49711821082CF0198
:104E7000089585E580937E41EEEFF1E4F093100410
:104E8000E0930F0486E493E190838093FF410895BB
:104E900086E493E19093FE418093FF4108950E9440
:104EA0006A230C94A811A0916305B0916405CD917B
:104EB000CDBFDD91DEBFFF91EF91DF91CF91BF912B
:104EC000AF919F918F917F916F915F914F913F91A2
:104ED0002F911F910F91FF90EF90DF90CF90BF9097
:104EE000AF909F908F907F906F905F904F903F908A
:104EF0002F901F900F900FBE0F9018950E947A0D63
:104F000080E190E00E94E41084E792E00E947B2A16
:104F10000E94AD1120E030E0A90160E070E0CB011B
:104F20000E94AF1D0E94C0020E946D020E944F129B
:104F300080E090E008957F928F929F92AF92BF920F
:104F4000CF92DF92EF92FF920F931F93CF93DF9355
:104F5000CDB7DEB72C970FB6F894DEBF0FBECDBF2E
:104F60007C016B018A01FC0117821682838181FD1D
:104F700003C013C1850105C088248394912C8C0E35
:104F80009D1EF701B380F601B3FC8591B3FE8191BC
:104F90006F01882309F4FDC0853239F4B3FC2591F3
:104FA000B3FE21916F01253219F5B70190E00E94FF
:104FB000322A5801DFCF222309F4EBC0622F70E0C0
:104FC00081ED93E02C870E94D3292C85892B49F40D
:104FD000233219F4F0E17F2A04C02C3679F420E85A
:104FE000722AF601B3FC2591B3FE21916F0101C035
:104FF000712C77FEE0CF222309F4CBC0622F70E042
:1050000081EE93E02C870E94D3292C85892B41F0D7
:105010005801F4E0AF0EB11CB7018FE390E00FC070
:10502000233629F0233781F0233519F50BC05801B9
:1050300022E0A20EB11CB701F801808191810E948B
:10504000322A98CFF1E07F2A580122E0A20EB11C4B
:10505000F8010081118104C0B70190E00E94322A5A
:10506000F80170FC859170FE81918F018111F4CF60
:1050700081CF243611F0293631F5580177FE09C069
:10508000F4E0AF0EB11CF8016081718182819381DF
:105090000AC0F2E0AF0EB11CF8016081718188276F
:1050A00077FD8095982FFFEE7F2297FF09C090959E
:1050B0008095709561957F4F8F4F9F4F20E4722AA6
:1050C0002AE030E036C0203791F030F42835B1F0D6
:1050D0002F3609F05EC017C0253721F0283709F0B8
:1050E00058C007C08FEE78222AE030E00EC0E0E121
:1050F0007E2AF4E27F2A20E130E007C024E0722A11
:1051000020E132E002C028E030E0580177FE09C01B
:1051100084E0A80EB11CF8016081718182819381C5
:1051200008C0F2E0AF0EB11CF8016081718180E02F
:1051300090E0A4010E94DB2A182F181976FE05C002
:10514000B7018DE290E00E94322A74FE16C0FE0183
:10515000E10FF11D8081803381F0B70180E390E0A1
:105160000E94322A72FE09C0272D2072822F90E001
:10517000B701885A9F4F0E94322A1150F401E10F63
:10518000F11DB701808190E00E94322A1111F5CF04
:10519000F1CEF7012681378102C02FEF3FEFC90121
:1051A0002C960FB6F894DEBF0FBECDBFDF91CF9126
:1051B0001F910F91FF90EF90DF90CF90BF90AF9035
:1051C0009F908F907F9008950E94C729A59F900D72
:1051D000B49F900DA49F800D911D11240895B7FFD9
:1051E0000C94E4280E94E428821B930B0895DB01B1
:1051F0008F939F930E94E428BF91AF91A29F800D4F
:10520000911DA39F900DB29F900D11240895AA1B8C
:10521000BB1B51E107C0AA1FBB1FA617B70710F0A1
:10522000A61BB70B881F991F5A95A9F780959095D3
:10523000BC01CD010895A1E21A2EAA1BBB1BFD01E2
:105240000DC0AA1FBB1FEE1FFF1FA217B307E40765
:10525000F50720F0A21BB30BE40BF50B661F771FBD
:10526000881F991F1A9469F760957095809590959D
:105270009B01AC01BD01CF010895052E97FB16F4EB
:10528000009407D057FD0DD00E941B2907FC09D0C0
:105290007EF490958095709561957F4F8F4F9F4FCD
:1052A000089550954095309521953F4F4F4F5F4F52
:1052B0000895689401C0E8948F929F92CF93DF93F2
:1052C0000E946729DF91CF919F908F900895882445
:1052D0009924F401E401B0E49F93AA279A158B0462
:1052E0009C04ED05FE05CF05D007A10798F4AD2F6E
:1052F000DC2FCF2FFE2FE92D982C892E982F872F6A
:10530000762F652F542F432F322F2227B85031F795
:10531000BF9127C01B2EBF91BB27220F331F441FF5
:10532000551F661F771F881F991F881C991CEE1F29
:10533000FF1FCC1FDD1FAA1FBB1F8A149B04EC0597
:10534000FD05CE05DF05A007B10748F08A189B08C8
:10535000EC09FD09CE09DF09A00BB10B21601A94FD
:10536000E1F62EF49401AF01BE01CD01000C0895C9
:10537000EE0FFF1F0590F491E02D09942A0D3B1DBF
:105380004C1D5D1D6E1D7F1D801F911F0895A29FE6
:10539000B001B39FC001A39F01D0B29F700D811DCA
:1053A0001124911D0895FC010590061621F000209E
:1053B000D9F7C00108953197CF010895FB01DC01B1
:1053C00002C001900D9241505040D8F708950F93BC
:1053D0001F93CF93DF93EC018B01009731F461159C
:1053E000710519F4E0E0F0E037C06EE070E081E0B4
:1053F00090E00E944F2BFC010097A1F380E883838B
:105400000115110571F01387028781E8838380916C
:10541000930590919405892B21F4F0939405E093E2
:1054200093052097C9F0D187C087838182608383E9
:105430008091950590919605892B71F4F0939605CE
:10544000E09395058091970590919805892B21F41B
:10545000F0939805E0939705CF01DF91CF911F91CD
:105460000F9108950F931F93CF93DF938C01EB015E
:105470008B8181FD03C00FEF1FEF1AC082FF0DC0AB
:105480002E813F818C819D812817390764F4E88142
:10549000F9810193F983E88306C0E885F985802FB7
:1054A0000995892B41F78E819F8101969F838E8379
:1054B000C801DF91CF911F910F910895CF93DF9392
:1054C00000D0CDB7DEB7FE01379661917191FA83B6
:1054D000E983AF0180919505909196050E949B27E5
:1054E0000F900F90DF91CF91089560919505709185
:1054F00096050C94322A0F931F93CF93DF938C0160
:10550000E0919505F0919605838181FF1BC0C0E075
:10551000D0E005C00995892B11F0CFEFDFEFF8013E
:1055200081918F016091950570919605DB01189628
:10553000ED91FC9119978111EDCF8AE00995892BA6
:1055400009F402C0CFEFDFEFCE01DF91CF911F91C1
:105550000F9108950F931F93CF93DF93CDB7DEB7CD
:1055600060970FB6F894DEBF0FBECDBF0F89188DC0
:1055700086E08C831A8309838FEF9FE79E838D8358
:10558000AE01455E5F4F588B4F87698D7A8DCE0196
:1055900001960E949B27EF81F885E00FF11F108292
:1055A00060960FB6F894DEBF0FBECDBFDF91CF91EE
:1055B0001F910F910895FA01AA27283051F1203147
:1055C00081F1E8946F936E7F6E5F7F4F8F4F9F4F97
:1055D000AF4FB1E03ED0B4E03CD0670F781F891FD9
:1055E0009A1FA11D680F791F8A1F911DA11D6A0FA7
:1055F000711D811D911DA11D20D009F468943F915A
:105600002AE0269F11243019305D3193DEF6CF0158
:105610000895462F4770405D4193B3E00FD0C9F71E
:10562000F6CF462F4F70405D4A3318F0495D31FD8B
:105630004052419302D0A9F7EACFB4E0A6959795DE
:10564000879577956795BA95C9F7009761057105B4
:1056500008959B01AC010A2E0694579547953795FE
:105660002795BA95C9F7620F731F841F951FA01D58
:105670000895F999FECF92BD81BDF89A992780B51A
:105680000895262FF999FECF1FBA92BD81BD20BD86
:105690000FB6F894FA9AF99A0FBE019608950F93EF
:1056A0001F93CF93DF93689F8001699F100D789FB0
:1056B000100D1124C8010E946D2BC82FD92F2097DF
:1056C00031F0A80160E070E08C2F0E94A62CCE0182
:1056D000DF91CF911F910F9108950F931F93CF9357
:1056E000DF938230910510F482E090E0E0919B0519
:1056F000F0919C0520E030E0C0E0D0E023C0408184
:10570000518148175907A8F04817590761F4828159
:105710009381209719F09B838A832EC090939C05D8
:1057200080939B0529C02115310529F042175307A5
:1057300010F0A90102C0BE01DF0102811381EF0157
:105740009A01F8013097D9F62115310509F1281B86
:10575000390B2430310590F412968D919C9113975A
:105760006115710521F0FB019383828304C090933E
:105770009C0580939B05FD01329644C0FD01E20F1C
:10578000F31F81939193225031092D933C933AC09A
:105790002091990530919A05232B41F42091020222
:1057A0003091030230939A052093990520910002CD
:1057B000309101022115310541F42DB73EB74091DA
:1057C000040250910502241B350BE0919905F091DC
:1057D0009A05E217F307A0F42E1B3F0B2817390791
:1057E00078F0AC014E5F5F4F2417350748F04E0F3D
:1057F0005F1F50939A05409399058193919302C03E
:10580000E0E0F0E0CF01DF91CF911F910F9108957B
:10581000EF92FF920F931F93CF93DF93009709F4BA
:105820008EC0DC01129713961C921E921297E09084
:105830009B05F0909C05E114F10489F42D913C91B5
:105840001197280F391F8091990590919A05821719
:10585000930789F5B0939A05A093990570C0E70165
:1058600020E030E001C0EA01CA17DB0738F44A81C2
:105870005B819E0141155105B1F722C0AC01425038
:105880005109FA01D383C28300811181BC01600FE9
:10589000711F6C177D0761F468817981600F711F3A
:1058A0006E5F7F4F718360836A817B8173836283C4
:1058B0002115310529F4B0939C05A0939B053FC0A9
:1058C000F901B383A283E90149915991C40FD51F0E
:1058D000AC17BD0771F4DC019E918E91840F951F6A
:1058E00002969183808312968D919C911397938356
:1058F0008283A0E0B0E002C0D7017C01F701828181
:1059000093810097C9F7C701029620813181820FE8
:10591000931F2091990530919A052817390779F43A
:10592000109729F410929C0510929B0504C01396C1
:105930001C921E921297F0929A05E0929905DF91BF
:10594000CF911F910F91FF90EF900895DC0101C05E
:0E5950006D9341505040E0F70895F894FFCF5A
:10595E0000009D0520003D352D251D150D05340C2F
:10596E00043B332B231B130B393129211911090148
:10597E004D79206E6F646527732061646472657360
:10598E00732069732025640D0A005461736B3120F6
:10599E005049443D25640D0A00206461726B20005D
:1059AE00206461796C69676874200020726F6F6D76
:1059BE002D6C696768742000206C696768743D25DA
:1059CE00640D0A007374617274696E672E2E2E0D4B
:1059DE00006572726F723A20545749207374617465
:1059EE007573202523780A0072665F72785F706186
:1059FE00636B65745F6E6F6E626C6F636B20666156
:105A0E00696C65645D0D005061636B65742069732C
:105A1E0020646F6E6520626F756E63696E672061BC
:105A2E00726F756E64210D0A005345513A25347517
:105A3E000954544C3A25326409525353493A253489
:105A4E0064095061796C6F61643A205B25735D0D5A
:105A5E000A00525820656E64206661696C65642088
:105A6E00636865636B73756D210D00256400637546
:105A7E00723A202564200063616E617279203D20A8
:105A8E002578200073746B203D20257820007463E8
:105A9E00622061646472203D2025780D0A00256421
:105AAE003A20626F74746F6D203D202578200000BF
:00000001FF
