:100000000C94F4010C940A260C943C260C946E2655
:100010000C9413020C9413020C9413020C9413020C
:100020000C9413020C94D8250C9413020C94130214
:100030000C9413020C9436240C9413020C94362462
:100040000C9413020C9413020C9413020C941302DC
:100050000C9413020C9413020C9413020C941302CC
:100060000C9413020C9413020C9413020C941302BC
:100070000C9413020C9413020C9413020C941302AC
:100080000C9469240C9413020C9413020C94130224
:100090000C9413020C9413020C9413020C9413028C
:1000A0000C9413020C9413020C9413020C9413027C
:1000B0000C9413020C9413020C9413020C9413026C
:1000C0000C9413020C9413020C9413020C9413025C
:1000D0000C9413020C9413020C9413020C9413024C
:1000E0000C9413020C94430C0C94340C0C94040CDC
:1000F0000C94030D0C94F50B0C94E60B0C94D40BA0
:100100000C94C50B0C9413020C9413020C94130260
:100110000C9413020C9413020C9413020C9413020B
:10012000B213B813BB13BE13C113C413CA13C7133E
:10013000CD13D013D313DC13DF13E213E513D9135C
:10014000AF13B513E813EB13D613AC134661696C08
:10015000656420746F206F70656E2073656E736FB9
:1001600072206472697665720D0A004661696C6579
:100170006420746F206C6F6164206D79204144436A
:10018000206472697665720D0A002A4E524B204532
:1001900052524F522800293A20005461736B20704C
:1001A0006572696F6420746F6F206C617267652E71
:1001B00020506572696F64206D75737420626520CC
:1001C0006C657373207468616E20363120736563CB
:1001D0006F6E64732E00537461636B2077617320BC
:1001E0006E6F7420646566696E6564206173206C4F
:1001F0006172676520656E6F756768210054617371
:100200006B20537461636B204F766572666C6F77F9
:1002100000496E76616C696420537461636B205091
:100220006F696E74657200526573657276652045FC
:1002300072726F7220696E205363686564756C65B5
:1002400072005461736B2052657365727665205637
:10025000696F6C61746564005363686564756C658F
:1002600072204D69737365642057616B657570000A
:100270004475706C696361746564205461736B20AC
:10028000494400556E6578706563746564205265F5
:1002900073746172740049646C65206F72204B65E1
:1002A000726E656C20537461636B204F7665726665
:1002B0006C6F77004578747261205461736B2073A2
:1002C0007461727465642C206973206E726B5F6355
:1002D00066672E68206F6B3F004C6F7720566F6CFF
:1002E0007461676500556E68616E646C6564204971
:1002F0006E7465727275707420566563746F7200E7
:1003000054696D6572204F766572666C6F77005325
:1003100057205761746368646F6720526573746116
:100320007274005761746368646F672052657374F8
:10033000617274004465766963652044726976650C
:1003400072204572726F72004B65726E656C20662A
:10035000756E6374696F6E206E6F7420696D706C5A
:10036000656D656E746564004661696C65642074D2
:100370006F20637265617465205369676E616C00FC
:100380004661696C656420746F2063726561746591
:100390002053656D6170686F72650042726F776E91
:1003A000204F7574204465746563740045787465E6
:1003B000726E616C20526573657400554E4B4F57D9
:1003C0004E000D0A535441434B2044554D500D0AE5
:1003D00000202B2D2E303132333435363738396802
:1003E000004546476566670011241FBECFEFD1E484
:1003F000DEBFCDBF13E0A0E0B2E0ECE8F9E500E03D
:100400000BBF02C007900D92A839B107D9F715E0CC
:10041000A8E9B3E001C01D92A53DB107E1F70E9434
:1004200095270C94C42C0C942C24CF93DF9300D0EC
:10043000CDB7DEB71F921F9282E492E09F938F9315
:100440000E94752A0E94521C1F928F938CE592E0A5
:100450009F938F930E94752A65E083E00E94FF219D
:10046000782E0FB6F894DEBF0FBECDBF9FEF891375
:1004700004C08CE491E00E94710D8BE6A82E82E00E
:10048000B82E812C94E0992E22E7C22E22E0D22EA3
:100490003DE8E32E32E0F32E41E061E0872D0E943B
:1004A000A02242E0BE016F5F7F4F872D0E94832212
:1004B00029813A81293E83E0380738F4283592E0D3
:1004C000390730F408E212E005C000E212E002C091
:1004D00004E312E0BF92AF92C401821B930B9C0114
:1004E0003F938F93DF92CF920E94752A1F930F93B1
:1004F000FF92EF920E94752A0E94BF1B0FB6F894DC
:10050000DEBF0FBECDBFC8CF85E192E09093A603BA
:100510008093A50340E850E067EC73E080EA93E045
:100520000E94E22681E08093A8038093A703809332
:10053000A9038093AA031092AB031092AC0310920C
:10054000AD031092AE0380E094E9A5E3B7E7809392
:10055000AF039093B003A093B103B093B203109292
:10056000B3031092B4031092B5031092B60380E067
:1005700092ECABEEBBE08093B7039093B803A093EB
:10058000B903B093BA031092BB031092BC0310924C
:10059000BD031092BE031092BF031092C0031092CD
:1005A000C1031092C20380EA93E00C94271A63E01F
:1005B0008DE097E00E94E7218F3F21F48BE691E0E8
:1005C0000C94710D08958091F604813011F48FEF31
:1005D000089581E08093F60460FF15C0739A10922D
:1005E000FB0480917C00807E80937C0090917C0055
:1005F00080917C00807E892B80937C0088EE93E044
:100600000E94DA2205C0862F867009F76770F9F21A
:1006100081E0089573981092F6040E944A07EAE771
:10062000F0E080818F77808381E00895613019F454
:100630008091FB0408958FEF0895613059F52C30B7
:1006400069F42093FB0480917C00807E80937C0081
:1006500080917C0090917C00836012C02D3020F04E
:1006600081E00E94621316C02093FB0480917C00FD
:10067000807E80937C0080917C0090917C00822B16
:10068000907E892B80937C0088EC90E00E94DA2297
:1006900081E008958FEF08950F931F93CF93DF9319
:1006A000CDB7DEB766970FB6F894DEBF0FBECDBFED
:1006B000AE014F5F5F4F66E170E08AEA90E00E9412
:1006C0005407FE0132966CEC74E0CE0148969F010F
:1006D00021503109D9011C9100E02081A801422B51
:1006E0009A01DB012D933D93BD013296E817F9077E
:1006F00071F766960FB6F894DEBF0FBECDBFDF91DF
:10070000CF911F910F910895EAE7F0E083E0808395
:100710008081806880831092FB04ACE7B0E08C910C
:10072000807E8C939C918C91807E892B8C93808190
:100730008F77808308951DB86B9A739A0E94840303
:100740000E943A078EEE0E9437070E944C031092D7
:10075000F60481E0089588EC90E00C94DA22809110
:100760007A00806480937A0080917A0084FFFCCFC5
:100770000E94AB032091780030917900932F80E0A4
:10078000AC01422B9A01C90108954F925F926F927A
:100790007F928F929F92AF92BF92CF92DF92EF9211
:1007A000FF921F93CF93DF9300D000D0CDB7DEB779
:1007B000182F8090F2049090F304A090F404B0906D
:1007C000F50480EA881A8FE0980AA108B10880929F
:1007D000E2049092E304A092E404B092E504A5013F
:1007E0009401C501B4010E940E2920E030E140E0EF
:1007F00050E00E94542929833A834B835C83C09044
:10080000CC04D090CD04EE24D7FCE094FE2CF2E092
:10081000CC0CDD1CEE1CFF1CFA95D1F7A091DA047C
:10082000B091DB040E94062920E038E040E050E06F
:100830000E94542929013A01A091CE04B091CF041D
:10084000A50194010E94062920E038E040E050E034
:100850000E945429420E531E641E751EC40CD51CE2
:10086000E61CF71C012E04C0CC0CDD1CEE1CFF1C8A
:100870000A94D2F7E2E0CE0ED11CE11CF11CA4E0F8
:100880004A2E512C612C712CC701B601A301920193
:100890000E94542969017A012093140530931505AB
:1008A0004093160550931705A091D004B091D10440
:1008B000A50194010E94062920E030E240E050E0CA
:1008C0000E94542949015A01A091D804B091D90439
:1008D00029813A814B815C810E94062920E030E029
:1008E00041E050E00E945429820E931EA41EB51EC2
:1008F000F2E08F0E911CA11CB11CC501B401A30133
:1009000092010E9454292093FC043093FD044093EB
:10091000FE045093FF04A091D204B091D304305848
:100920004F4F5F4F0E94FB2820E030E840E050E04E
:100930000E94542949015A01209300053093010572
:10094000409302055093030520910C0530910D054D
:1009500040910E0550910F052C193D094E095F0974
:1009600060E573EC80E090E004C0959587957795FD
:1009700067951A95D2F70E940E2960930805709327
:10098000090580930A0590930B0597FD09C0660F32
:10099000771F881F991FA50194010E94322908C062
:1009A000A50194010E943229220F331F441F551FB5
:1009B00020931005309311054093120550931305B1
:1009C000C0901005D0901105E0901205F09013052D
:1009D000C701B60120E031E040E050E00E94542918
:1009E000CA01B9010E940E299B01AC01AEEDBBE02A
:1009F0000E94FB28412C512C32016394A3019201E7
:100A00000E94542949015A012093F7043093F804B5
:100A10004093F9045093FA04A3E4B3EEA7019601BE
:100A20000E940929A30192010E9454292093EA04FB
:100A30003093EB044093EC045093ED04C501B401F2
:100A4000620F731F841F951F6153714F8F4F9F4F0C
:100A500020E130E040E050E00E9454292C0D3D1D83
:100A60004E1D5F1D20931005309311054093120514
:100A700050931305B901CA010F900F900F900F907A
:100A8000DF91CF911F91FF90EF90DF90CF90BF90BB
:100A9000AF909F908F907F906F905F904F90089550
:100AA000CF92DF92EF92FF928091D6049091D7047B
:100AB0002091E6043091E7044091E8045091E90464
:100AC000281B390B41095109A091D404B091D504D8
:100AD0000E94FB2820E030E840E050E00E945429CA
:100AE00069017A012093F7043093F8044093F904E4
:100AF0005093FA046091DE047091DF04882777FD3B
:100B00008095982FBBE0660F771F881F991FBA95B5
:100B1000D1F72091E0043091E104442737FD40955E
:100B2000542F2C0D3D1D4E1D5F1D0E9454292093F6
:100B3000EA043093EB044093EC045093ED04C20EAE
:100B4000D31EE41EF51EC092F204D092F304E0928C
:100B5000F404F092F504C701B601685F7F4F8F4F30
:100B60009F4F20E130E040E050E00E945429209364
:100B7000EE043093EF044093F0045093F104B90174
:100B8000CA01FF90EF90DF90CF900895CF93DF934D
:100B900000D01F92CDB7DEB78EE28B83AE014D5FE2
:100BA0005F4F61E070E084EF90E00E94720884E99A
:100BB00091E10E94DA22AE014F5F5F4F62E070E088
:100BC00086EF90E00E945407398120E08A81A901D4
:100BD000482BCA01A0E0B0E08093E6049093E704BC
:100BE000A093E804B093E9040F900F900F90DF9169
:100BF000CF9108950E94C6050C9450051F93CF9382
:100C0000DF9300D000D0CDB7DEB7182F982F929584
:100C1000990F990F907C9C5C9C83AE014C5F5F4F59
:100C200061E070E084EF90E00E94720884E991E155
:100C30000E94DA22AE014F5F5F4F63E070E086EF03
:100C400090E00E9454078A81498150E060E070E0A2
:100C5000BA0155274427582B8B81480F511D611D20
:100C6000711D28E030E0211B310904C0759567959E
:100C7000579547952A95D2F740930C0550930D054B
:100C800060930E0570930F050F900F900F900F90CB
:100C9000DF91CF911F910895CF93C82F0E94FE0539
:100CA0008C2FCF910C94C503AF92BF92DF92EF923D
:100CB000FF920F931F93CF93DF931F92CDB7DEB7B1
:100CC0005A0180917A00806880937A00822F815047
:100CD000823018F0243009F094C08091FB048730F2
:100CE000A0F429830E94AF032981223021F4F50169
:100CF000808391832EC0213009F035C09695879569
:100D000096958795F50180832EC08C3071F530E47F
:100D1000D32EE12CF12C01E014E029830E94AF03D3
:100D200029818017910708F48C01E816F90608F468
:100D30007C018DE790E029830E94DA22DA942981F0
:100D4000D110EBCFE01AF10A223029F4F501E0824C
:100D5000F18281E04FC0213031F4F694E794F694AB
:100D6000E794F501E08280E045C08B3069F5109290
:100D700004051092050510920605109207057A9950
:100D8000FECF7A9BFECF8091040590910505A0913E
:100D90000605B09107050196A11DB11D80930405BC
:100DA00090930505A0930605B09307057A99EBCFBC
:100DB000F5018083809105058183809106058283FA
:100DC000809107058383CFCF982F9950923058F6A2
:100DD0002430B9F48A3019F40E94FA0505C00E9443
:100DE000FA0580E00E944C06F501608371838283DE
:100DF000938383E090917A009F7790937A008F5F3E
:100E000001C080E00F90DF91CF911F910F91FF9073
:100E1000EF90DF90BF90AF9008958230A9F028F452
:100E2000882349F08130D9F409C08430A9F078F0E2
:100E30008530A9F406C080E00C949B0381E00C94FB
:100E4000E30285E00C94540682E00C940A036130BE
:100E500061F48091FB04089584E00C941D0360E02C
:100E60008CE00E94061480E008958FEF089580932F
:100E70001905089582E08093B8001092B900E4E665
:100E8000F0E080818F778083ECEBF0E080818460FC
:100E900080830895E4E6F0E080818083ECEBF0E06D
:100EA00080818B7F80830895292F30E0277033273E
:100EB000220F90911905292B35E6F4EAE4E8A22FD8
:100EC000A160315009F48DC0F093BC009091BC003A
:100ED00097FFFCCF9091B900987F909318059031BF
:100EE00029F0983389F3983009F07BC02093BB0038
:100EF000E093BC009091BC0097FFFCCF9091B900AB
:100F0000987F909318059032E1F29833E9F2983186
:100F100009F061C08093BB00E093BC009091BC00DD
:100F200097FFFCCF9091B900987F9093180590336C
:100F300059F1983349F2983209F04DC0F093BC0052
:100F40009091BC0097FFFCCF9091B900987F90934F
:100F50001805903129F0983309F4B6CF9830D9F5B7
:100F6000A093BB00E093BC009091BC0097FFFCCF26
:100F70009091B900987F90931805903419F19834A6
:100F800019F0983341F5A0CF20E030E026C0613061
:100F9000710509F494E89093BC008091BC0087FF30
:100FA000FCCF8091B900887F80931805803521F0AF
:100FB000883589F460E070E08091BB0081936150D6
:100FC000710902C0FA0194EC9F01241B350B16161F
:100FD0001706ECF202C02FEF3FEF84E98093BC00CC
:100FE00002C02FEF3FEFC9010895680F791F9C01E0
:100FF00027606217730718F0B9016F5F7F4F392FB1
:10100000330F3E7020911905322BE5E6A4EAF4E88F
:10101000E15009F463C0A093BC002091BC0027FFFD
:10102000FCCF2091B900287F20931805203129F0AA
:10103000283389F3283009F051C03093BB00F09376
:10104000BC002091BC0027FFFCCF2091B900287F75
:10105000209318052032E1F22833E9F22831C1F556
:101060008093BB00F093BC002091BC0027FFFCCF15
:101070002091B900287F20931805203329F02833C8
:1010800051F2283229F503C020E030E023C0681B6C
:10109000790B20E030E0E4E814C0DA018D91AD0175
:1010A0008093BB00E093BC008091BC0087FFFCCF25
:1010B0008091B900887F80931805883249F42F5FAA
:1010C0003F4FCB01821B930B1816190634F302C055
:1010D0002FEF3FEF84E98093BC0002C02FEF3FEF7A
:1010E000C9010895CF92DF92EF92FF920F931F9361
:1010F000CF93DF936C018B017A01C0E0D0E0A701B0
:10110000B801C6010E94F5078F3F2FEF920761F0EB
:10111000C80ED91E081B190BE80EF91EC80FD91FDF
:101120001016110664F302C0CFEFDFEFCE01DF919E
:10113000CF911F910F91FF90EF90DF90CF90089586
:10114000809118051F928F9389EB92E09F938F9364
:101150000E94752A0F900F900F900F900895909114
:1011600041019F719F31D9F380934201089581E03D
:1011700080932005089510922005089580914101E3
:101180008F718F31D9F3809141018F71E1F08F30F0
:10119000D1F0809141018F71883031F48091390113
:1011A00082608093390109C088E00E94AF08809175
:1011B00041018F718830D9F7F1CF809141018F7152
:1011C00011F08F30D1F70895809141018F718F31E7
:1011D000D9F3809141018F7111F08F3051F48091DA
:1011E00039018D7F80933901809141018F71883061
:1011F000D9F70895E5E4F1E09081907F90839081A4
:101200008F70892B80830895E7E5F1E080818D7FE1
:1012100080830895E7E5F1E080818260808308950E
:10122000EEE6F1E080818F7E80830895EEE6F1E0C6
:101230008081806180830895809360019093610133
:1012400090932A058093290508959093240580930F
:101250002305E8E4F1E08081807E80838081682B33
:101260006083089590939B0380939A0308959093CD
:1012700099038093980308951F93CF93DF9370E2AF
:101280007093440170EC7093450160626093480173
:1012900065EC6093490167EA60934B0160E86093F5
:1012A0004C0120936001309361014093620150939F
:1012B0006301E6E4F1E0C081A08160811081C29504
:1012C000C695C77070E4C79FE0011124129516956A
:1012D00013701C2BA295A695A37070E1A79FD00157
:1012E00011241A2B629566956370A4E06A9FB00181
:1012F0001124162B10936D016081E0816295669533
:10130000637070E0660F771F6064E295E695E370A6
:10131000E62BE0936E0110926C016FEF60934E012B
:10132000909324058093230510922505109226059D
:10133000509328054093270530932A0520932905CB
:1013400010922B0581E08093350510924405109290
:10135000340510922005DF91CF911F91089586E109
:101360000C94AF0886E10C94AF0888E00E94AF08A7
:101370001092440508953F924F925F926F927F9230
:101380008F929F92AF92BF92CF92DF92EF92FF9295
:101390000F931F93CF93DF93EC013B0180913505B1
:1013A000811102C0CFEF1CC19E81809125058F5F06
:1013B0008093250580918101807E816090FB85F975
:1013C0008F7380648093810188E88093820180918B
:1013D0002005882361F08FEF809383018AEA9AEADF
:1013E00090938901809388018FEF9FEF11C08091C6
:1013F0002505809383013091610120916001932F35
:1014000080E0822B90938901809388018881998163
:10141000909387018093860130916301209162014E
:10142000932F80E0822B90938501809384014A81E1
:10143000842F992787FD90956B817C81592F8AE8AD
:1014400091E00E94F5298A81855F80938001309028
:1014500041018FE13822832D81508230C0F381E138
:101460003816A9F382E1381691F38FE1381679F333
:1014700088E0381649F086E0381631F086E13816F3
:1014800019F089E038128ECF86E10E94AF088D8175
:10149000811107C089E00E94AF088E81882391F0F6
:1014A0000EC080914801806880934801809141017D
:1014B00087FFFCCF8091410186FF74CFEBCF89E19C
:1014C0000E94AF086114710499F18CE295E00E94CA
:1014D000581C80912C0590912D05A0912E05B0915E
:1014E0002F058093360590933705A0933805B09368
:1014F0003905D30120E432E44FE050E00E94FB289C
:10150000009130051091310520913205309133055D
:10151000600F711F821F931F60933A0570933B0504
:1015200080933C0590933D0586E395E00E94491D1C
:101530001092340582E00E94AF08412C512C08C063
:101540008FEF481A580A88EE48168DEF580621F09A
:10155000809134058823A1F36114710421F48E81F4
:1015600081112DC034C08CE295E00E94581C8090FF
:101570002C0590902D05A0902E05B0902F05C090C1
:101580003005D0903105E0903205F09033050091A0
:101590003605109137052091380530913905409175
:1015A0003A0550913B0560913C0570913D0585E4FD
:1015B00095E00E94B41C8F3F09F0BACFD0CF809144
:1015C000420182958695877011F0CFEF06C088EEB4
:1015D00048168DEF5806C9F3C1E0832D0E94AF086D
:1015E0008C2FDF91CF911F910F91FF90EF90DF90A3
:1015F000CF90BF90AF909F908F907F906F905F90B3
:101600004F903F90089560E070E00C94BB09CF9339
:10161000DF9380913505882341F1C0914101CF715D
:101620008C2F81508230C8F3C131B9F3C231A9F394
:10163000CF3199F3C83021F0C63011F0C631A9F48A
:1016400086E10E94AF08809148018068809348013C
:101650008091410187FFFCCFD09141018C2F0E94E6
:10166000AF08D6FB882780F901C08FEFDF91CF91BB
:10167000089580913505882309F485C0809144053B
:10168000882309F47EC080917B01E0912305F091CD
:10169000240590E002972481332727FD30952817F1
:1016A00039070CF470C0E0912305F0912405809176
:1016B00082018083E0912305F091240580918701C8
:1016C0009091880192838183E0912305F091240514
:1016D00080917B018B508383A0912305B0912405D9
:1016E000E0912305F091240513969C91848189173C
:1016F0003CF0E0912305F0912405838187FF0DC024
:101700001092440580914C018F7780934C01809119
:101710004C01806880934C0136C0A0912305B091A4
:101720002405E0912305F091240513964C91842F14
:10173000992787FD9095592F69E871E085819681F9
:101740000E94F529E0912305F09124058091800104
:1017500085FB882780F98783E0912305F091240594
:101760008091470180871092440580914C018F77CA
:1017700080934C0180914C01806880934C0181E002
:10178000089580E008958FEF08951F920F920FB68D
:101790000F9211248F9380E880934F018F910F90C7
:1017A0000FBE0F901F9018951F920F920FB60F92B9
:1017B00011248F9381E08093340580E480934F015E
:1017C0008F910F900FBE0F901F9018951F920F9240
:1017D0000FB60F9211248F9380E280934F018F9167
:1017E0000F900FBE0F901F9018951F920F920FB67B
:1017F0000F9211248F9380E180934F018F910F906E
:101800000FBE0F901F9018951F920F920FB60F9258
:1018100011240BB60F922F933F934F935F936F93C7
:101820007F938F939F93AF93BF93EF93FF9384E046
:1018300080934F01E0919A03F0919B03309709F058
:101840000995FF91EF91BF91AF919F918F917F91FA
:101850006F915F914F913F912F910F900BBE0F9021
:101860000FBE0F901F9018951F920F920FB60F92F8
:1018700011248F9382E080934F018F910F900FBEC0
:101880000F901F9018951F920F920FB60F92112470
:101890008F9381E080934F018F910F900FBE0F9037
:1018A0001F901895E9E4F1E09081907F90839081FA
:1018B0008F70892B808308958FEF08950895089580
:1018C00008958FEF089580911E0590911F0508954A
:1018D00080E00895089581E0089581E0089581E011
:1018E0000895089508950895089508950895089510
:1018F0000895E7E3F1E0808183608083989AA09A5D
:101900008DB1806E8DB98EB1806E8EB90895E7E38A
:10191000F1E0808183608083989AA0988DB1806E79
:101920008DB98EB1806E8EB90895CF92DF92EF920D
:10193000FF920F931F93CF93DF93CDB7DEB7279717
:101940000FB6F894DEBF0FBECDBF0E94BD11E0916F
:101950002305F0912405C080D38005811681E084A1
:101960000E94390B18161CF080ED92E006C0F801B9
:10197000F080F11007C08FEE92E00E94922A0E9440
:10198000BF1132C0F5E0FF1204C08AE090E00E946F
:101990008C2AC80101969F938F938E2D992787FDDE
:1019A00090959F93EF921F92FF921F92CF9281E1A9
:1019B00093E09F938F930E94752A1D830C83FA9462
:1019C000F801F082DB821E821F828FEF9FEF9A83E5
:1019D00089830E94BF11CE0101960E94030B0FB6AE
:1019E000F894DEBF0FBECDBF27960FB6F894DEBFCA
:1019F0000FBECDBFDF91CF911F910F91FF90EF9060
:101A0000DF90CF9008951F920F920FB60F9211247E
:101A10000BB60F922F933F934F935F936F937F93E8
:101A20008F939F93AF93BF93EF93FF9380E001C099
:101A30008F5F90917B018917D8F38091460187FFD2
:101A400004C081E08093440504C08AE393E00E94CF
:101A5000922A88E080934F018091460187FF05C05C
:101A60008091200581110E94950CFF91EF91BF910B
:101A7000AF919F918F917F916F915F914F913F9126
:101A80002F910F900BBE0F900FBE0F901F901895C7
:101A90008091C00087FFFCCF8091C0008F7780933A
:101AA000C0008091C60008959091C00095FFFCCFC2
:101AB0009091C0009F7D9093C0008093C6000895D0
:101AC0008FEF0895813031F48091C80087FD07C001
:101AD00080E008958111FCCF8091C000F7CF81E0B4
:101AE0000895CF93DF93EC0107C06091CD0570910D
:101AF000CE0590E00E94492AFE0121968491811131
:101B0000F4CFDF91CF91089586E084B985B988EF4D
:101B10008AB980EF8BB982E08EB980E681B9169AD6
:101B200008950C94840D8F3F09F466C0982F977028
:101B3000923051F130F4992359F0913009F05CC0A2
:101B400015C09430E9F170F1953009F055C046C0E8
:101B500092B186958695869521E030E0082E01C0E9
:101B6000220F0A94EAF7922B92B944C095B1869558
:101B70008695869521E030E0082E01C0220F0A9458
:101B8000EAF7922B95B936C098B1869586958695D9
:101B900021E030E0082E01C0220F0A94EAF7922BD0
:101BA00098B928C09BB186958695869521E030E04E
:101BB000082E01C0220F0A94EAF7922B9BB91AC093
:101BC0009EB186958695869521E030E0082E01C06D
:101BD000220F0A94EAF7922B9EB90CC091B3869516
:101BE0008695869521E030E001C0220F8A95EAF7BC
:101BF000922B91BB81E008958FEF08958F3F09F4F8
:101C00006DC0982F9770923069F130F4992361F08C
:101C1000913009F063C017C0943009F441C088F1D5
:101C2000953009F05BC04BC092B18695869586953C
:101C300021E030E0082E01C0220F0A94EAF7209537
:101C4000292322B949C095B186958695869521E0CC
:101C500030E0082E01C0220F0A94EAF720952923CC
:101C600025B93AC098B186958695869521E030E0F1
:101C7000082E01C0220F0A94EAF72095292328B9DB
:101C80002BC09BB186958695869521E030E0082E85
:101C900001C0220F0A94EAF7209529232BB91CC012
:101CA0009EB186958695869521E030E0082E01C08C
:101CB000220F0A94EAF7209529232EB90DC091B37B
:101CC00086958695869521E030E001C0220F8A95A1
:101CD000EAF72095292321BB81E008958FEF08952D
:101CE0008F3F39F1982F9770923081F028F4992323
:101CF00049F09130F1F408C0943061F048F095302B
:101D0000C1F40AC020B109C023B107C026B105C083
:101D100029B103C02CB101C02FB130E08695869562
:101D2000869502C0359527958A95E2F7822F8170B6
:101D300008958FEF08958F3F09F4E7C0982F9770AB
:101D4000923009F456C030F4992369F0913009F0CB
:101D5000DCC02CC0943009F492C008F46DC09530FA
:101D600009F0D3C0AFC020B186958695869530E046
:101D7000082E02C0359527950A94E2F792B120FD0E
:101D80000AC021E030E0082E01C0220F0A94EAF7D1
:101D9000922B92B921C021E030E0082E01C0220F21
:101DA0000A94EAF72095292322B916C023B1869513
:101DB0008695869530E0082E02C0359527950A94C1
:101DC000E2F795B120FD0AC021E030E001C0220F0A
:101DD0008A95EAF7922B95B981E0089521E030E0E9
:101DE000082E01C0220F0A94EAF72095292325B96D
:101DF000F3CF26B186958695869530E0082E02C0F1
:101E0000359527950A94E2F798B120FD0AC021E0A4
:101E100030E0082E01C0220F0A94EAF7922B98B9FD
:101E2000DBCF21E030E0082E01C0220F0A94EAF750
:101E30002095292328B9D0CF29B1869586958695F6
:101E400030E0082E02C0359527950A94E2F79BB141
:101E500020FD0AC021E030E0082E01C0220F0A94C4
:101E6000EAF7922B9BB9B8CF21E030E0082E01C0F1
:101E7000220F0A94EAF7209529232BB9ADCF2CB174
:101E800086958695869530E0082E02C03595279573
:101E90000A94E2F79EB120FD0AC021E030E0082E4E
:101EA00001C0220F0A94EAF7922B9EB995CF21E048
:101EB00030E0082E01C0220F0A94EAF7209529236A
:101EC0002EB98ACF2FB186958695869530E0082E5B
:101ED00002C0359527950A94E2F791B320FD0AC018
:101EE00021E030E0082E01C0220F0A94EAF7922B7D
:101EF00091BB72CF21E030E0082E01C0220F0A947E
:101F0000EAF72095292321BB67CF8FEF08958F3FF4
:101F100009F4E5C0982F977061117DC0923099F156
:101F200030F4992361F0913009F0D9C01AC094308F
:101F300009F44DC0D0F1953009F0D1C05AC091B12B
:101F400086958695869521E030E001C0220F8A951E
:101F5000EAF7822F8095892381B982B1822B82B9D9
:101F6000BCC094B186958695869521E030E001C08D
:101F7000220F8A95EAF7822F8095892384B985B14B
:101F8000822B85B9AAC097B186958695869521E062
:101F900030E001C0220F8A95EAF7822F80958923CD
:101FA00087B988B1822B88B998C09AB186958695F1
:101FB000869521E030E001C0220F8A95EAF7822F52
:101FC000809589238AB98BB1822B8BB986C09DB14C
:101FD00086958695869521E030E001C0220F8A958E
:101FE000EAF7822F809589238DB98EB1822B8EB925
:101FF00074C090B386958695869521E030E001C047
:10200000220F8A95EAF7822F8095892380BB81B3BE
:10201000822B81BB62C0923051F130F4992359F088
:10202000913009F05CC015C09430E9F170F1953041
:1020300009F055C046C091B186958695869521E0F8
:1020400030E0082E01C0220F0A94EAF7922B91B9D2
:1020500044C094B186958695869521E030E0082E9F
:1020600001C0220F0A94EAF7922B94B936C097B1B7
:1020700086958695869521E030E0082E01C0220FD6
:102080000A94EAF7922B97B928C09AB1869586955B
:10209000869521E030E0082E01C0220F0A94EAF76D
:1020A000922B9AB91AC09DB186958695869521E0A6
:1020B00030E0082E01C0220F0A94EAF7922B9DB956
:1020C0000CC090B386958695869521E030E001C0DE
:1020D000220F8A95EAF7922B90BB81E008958FEF4B
:1020E0000895811106C080B18695817091E089279D
:1020F00008958FEF0895009711F483E20DC08130A9
:10210000910511F48BE208C08230910511F483E34C
:1021100003C0039729F48BE30E949B0E81E008958E
:102120008FEF0895009711F483E20DC0813091057F
:1021300011F48BE208C08230910511F483E303C0EF
:10214000039729F48BE30E94930D81E008958FEFAC
:102150000895009711F483E20DC08130910511F4C8
:102160008BE208C08230910511F483E303C003972A
:1021700029F48BE30E94FE0D81E008958FEF08950E
:10218000882319F085B78F7E02C085B7806185BF2F
:1021900081E008959091C80095FFFCCF8093CE0018
:1021A00008959093C5008093C40086E08093C20098
:1021B000E1ECF0E080818B7F8083A0ECB0E08C913B
:1021C00082608C9380818861808308959093CD0094
:1021D0008093CC0086E08093CA00E9ECF0E0808137
:1021E0008B7F8083A8ECB0E08C9182608C9380819F
:1021F0008861808308950E94D11068E47DE084E5C1
:102200009DE00E94FE299093CE058093CD0568E461
:102210007DE084E59DE00E94FE299093CC058093AB
:10222000CB0508958091C80087FFFCCF8091C8003E
:102230008F778093C8008091CE0008950000000041
:10224000000000000197D1F708950C94502B0E94D4
:10225000582B0895EF92FF920F931F93CF93DF9324
:10226000EC0180E090E00E94502BF82E8B8381E0FF
:1022700090E00E94502BE82E8A8382E090E00E943A
:10228000502B082F898383E090E00E94502B182F59
:10229000888384E090E00E94502B9E2D9F0D900F2C
:1022A000910F891302C081E001C08FEFDF91CF91C0
:1022B0001F910F91FF90EF900895CF93DF93EC0162
:1022C00085E090E00E94502B888381E0DF91CF91E0
:1022D0000895FC01608186E090E00E94582B81E027
:1022E0000895CF93DF93EC0186E090E00E94502B9D
:1022F000888381E0DF91CF9108950F931F93CF934F
:10230000DF93EC0108E010E0C8010E94502B899394
:102310000F5F1F4F08311105B9F781E0DF91CF91B1
:102320001F910F9108950F931F93CF93DF93EC01AB
:1023300008E010E06991C8010E94582B0F5F1F4F01
:1023400008311105B9F781E0DF91CF911F910F910D
:102350000895CF93DF93EC0187E090E00E94502B2B
:10236000888381E0DF91CF910895FC01608187E04F
:1023700090E00E94582B81E00895F8940895789495
:1023800008950E94BD11FFCFCF93DF93CDB7DEB785
:10239000A3970FB6F894DEBF0FBECDBF0E94E41521
:1023A00080939A058F3F21F460E08EE00E9406142E
:1023B0000E94A52480FF04C060E086E00E9406140D
:1023C00010929D051092AB051092AA0510929C05E3
:1023D00010929B051092AC051092A9058FEF809387
:1023E000930580939505809394058093960580933B
:1023F00098058093970593E6909359058093570528
:1024000090937A058093780522EB35E03093B105FF
:102410002093B0058DEA95E09093B4058093B305C1
:1024200047EB55E05093B6054093B5053093B90599
:102430002093B8051092AF051092AE051092BB051F
:102440001092BA051092A00510929F0590934E0528
:1024500080934D0565E77FE1CE0101960E94DE265F
:1024600040E850E06CE474E0CE0101960E94E22660
:1024700085E580934C0419861C861D861E861F8662
:10248000188A198A1A8A1B8A1C8A1D8A1E8A1F8A20
:10249000188E198E1A8E1B8E1C8E1D8E1E8E1F8EF0
:1024A00018A219A21AA21BA281E0888792E09A873B
:1024B0008B87CE0101960E94271AA3960FB6F89437
:1024C000DEBF0FBECDBFDF91CF910895609157055C
:1024D0006F3F39F080917805681303C085E00E9452
:1024E0000614609178056F3F39F0809157056813A5
:1024F00003C085E00E9406140E94241991E289021B
:10250000F0011124E15BFA4F82858093AC05F093D2
:10251000AB05E093AA05F0939C05E0939B0580939F
:102520009D050E9466270E9450270E946A27FFCFC0
:10253000AF92BF92CF92DF92EF92FF920F931F93D1
:10254000CF93DF931F92CDB7DEB75C016B017A01A9
:10255000DC0119968C911997823021F080919905B0
:102560008C9302C0F501108280919905823020F091
:1025700060E087E00E940614D50119968C918230A4
:1025800029F0809199058F5F809399058091990535
:10259000811103C081E080939905F501308121E22A
:1025A0003203F0011124E15BFA4FD182C082D501E0
:1025B00018968C91189782873C913203F001112470
:1025C000E15BFA4F83E081873C913203F0011124F3
:1025D000E15BFA4F30870C91020380011124015B0B
:1025E0001A4FF8011582C5010B960E94D71DD8011C
:1025F0005C969C938E935B97F501038514852585E6
:1026000036850E3311052105310520F0608186E104
:102610000E940614D5010C91112707FD1095C501E4
:102620004B960E94D71D41E2409FD001419FB00DC3
:102630001124A15BBA4F56969C938E935597F50142
:102640000081040380011124015B1A4FD8015596C3
:102650008D919C9156975B962D913C915C97820F42
:10266000931F58969C938E935797C5014396498321
:102670000E94D71DF801968F858FD5012C91498135
:102680002403F0011124E15BFA4F858D968D928F22
:10269000818F81E090E090A3878FF382E28281E0D6
:1026A00084870F90DF91CF911F910F91FF90EF9052
:1026B000DF90CF90BF90AF9008950C94991F85E65E
:1026C00090E00895E091AA05F091AB058487089504
:1026D000E091AA05F091AB058485089520914B0403
:1026E000222341F0FB01208320919E03FC012083E3
:1026F00081E0089580E0089580914B04882309F4D7
:1027000083C00E94BD118AE891E00E94710D809102
:102710009E031F928F9383E593E09F938F930E9474
:10272000752A86E991E00E94710D0F900F900F902D
:102730000F9080914B04883110F010924B048091DF
:102740004B0490E0FC013197E631F10508F046C0FA
:10275000E057FF4F0C94CF298AE991E041C086ED04
:1027600091E03EC08DEF91E03BC081E192E038C046
:1027700087E292E035C082E492E032C088E592E0E0
:102780002FC080E792E02CC083E892E029C086E960
:1027900092E026C084EB92E023C089ED92E020C055
:1027A00085EE92E01DC080E093E01AC08FE093E0D8
:1027B00017C083E293E014C084E393E011C088E47F
:1027C00093E00EC088E693E00BC080E893E008C079
:1027D0008BE993E005C08CEA93E002C08BEB93E0B9
:1027E0000E94710D6091CD057091CE058DE090E055
:1027F0000E94492A6091CD057091CE058AE090E053
:102800000E94492A10924B0480E0089580934B0463
:1028100060939E030C947C1380934B04E091AA0573
:10282000F091AB05808580939E030C947C13CF932D
:10283000DF931F92CDB7DEB7198207C080ED97E016
:102840000E94DA2289818F5F898389818436B0F37F
:102850000F90DF91CF91089581E090E00E94A91040
:102860000E94171481E090E00E9492100C941714BB
:1028700081E090E00E94A9100E9417140E94171492
:102880000E94171481E090E00E9492100C9417149B
:10289000FF920F931F93CF93DF9300D01F92CDB77A
:1028A000DEB71F928F9383E593E09F938F938E0102
:1028B0000F5F1F4F1F930F930E94C12A0F900F901D
:1028C0000F900F900F900F90F12C6FC0F801E80F50
:1028D000F91F80818433B9F168F48133E9F020F481
:1028E000803309F05BC015C0823309F1833309F0EE
:1028F00055C022C08733C1F130F4853369F1863386
:1029000009F04CC02CC08833B1F1893309F046C0BE
:102910003BC00E94381402C00E942C140E9438143C
:102920000E9438140E9438140E94381437C00E9444
:102930002C140E942C14F4CF0E942C140E942C14EE
:102940000E942C14EFCF0E942C140E942C140E9481
:102950002C140E942C14E8CF0E942C1402C00E9458
:1029600038140E942C1404C00E9438140E94381499
:102970000E942C1406C00E9438140E9438140E9431
:1029800038140E942C1408C00E9438140E94381475
:102990000E9438140E9438140E942C140E941714AC
:1029A0000E9417140E941714F394F801019000205C
:1029B000E9F73197E01BF10B8F2D90E08E179F0701
:1029C00008F484CF0F900F900F90DF91CF911F915B
:1029D0000F91FF9008955F926F927F928F929F92D6
:1029E000AF92BF92CF92DF92EF92FF920F931F931D
:1029F000CF93DF9382EC93E00E94710DE091AA05E2
:102A0000F091AB052085822F992787FD90959F93A4
:102A10002F9386E593E09F938F930E94752AE09110
:102A2000AA05F091AB05C281D381DF93CF938AE8E9
:102A300093E09F938F930E94752A88811F928F93B2
:102A40008FE593E09F938F930E94752AE091AA05EA
:102A5000F091AB0581818F9380818F938CE693E019
:102A60009F938F930E94752A8091AB058F938091DD
:102A7000AA058F9386E793E09F938F930E94752A10
:102A80000FE415E0EDB7FEB774960FB6F894FEBFED
:102A90000FBEEDBFC0E0D0E086E8882E83E0982E20
:102AA0009FE5A92E93E0B92E2CE6C22E23E0D22E6C
:102AB00031E2532E46E7E42E43E0F42EF801628023
:102AC00073807F926F92DF93CF939F928F920E9439
:102AD000752AF30180811F928F93BF92AF920E945B
:102AE000752AF80181818F9380818F93DF92CF9235
:102AF0000E94752A5C9EC0015D9E900D1124815B31
:102B00009A4F9F938F93FF92EF920E94752A21967E
:102B10000F5D1F4F8DB79EB742960FB6F8949EBFBC
:102B20000FBE8DBFC230D10549F6DF91CF911F9105
:102B30000F91FF90EF90DF90CF90BF90AF909F905C
:102B40008F907F906F905F900895CF93DF93E09187
:102B5000AA05F091AB05C281D3818881853539F012
:102B60000E94EB1481E00E940C1485E58883E091BB
:102B7000AA05F091AB05808191818115924438F0CE
:102B80000E94EB1482E1DF91CF910C940C14DF9141
:102B9000CF91089521E28202F0011124E15BFA4F06
:102BA000A281B3818C91853519F085E58C9308C09D
:102BB000808191818115924428F082E10E940C1459
:102BC0008FEF089581E008950F931F930091C30341
:102BD0001091C4032091C5033091C60380E090E0BA
:102BE000B901A801082E04C07695679557954795B9
:102BF0000A94D2F740FD19C041E050E060E070E077
:102C0000082E04C0440F551F661F771F0A94D2F781
:102C1000402B512B622B732B4093C3035093C4035F
:102C20006093C5037093C60305C001968032910579
:102C3000B9F68FEF1F910F910895E091AA05F091D9
:102C4000AB0565857685878590890895CF92DF925B
:102C5000EF92FF920F931F93CF93DF931F92CDB705
:102C6000DEB7C12CD12C7601C394082E04C0CC0C45
:102C7000DD1CEE1CFF1C0A94D2F74091C303509157
:102C8000C4036091C5037091C6034C215D216E2180
:102C90007F21452B462B472B09F463C089830E9473
:102CA000BD11E8E5F5E097018601009510952095A6
:102CB000309593E08981DF0111974C914F3F49F1A5
:102CC00044815581668177814C155D056E057F05D0
:102CD00041F41086118612861386DF0112971C922A
:102CE00090834481558166817781402351236223FB
:102CF000732344835583668377834085518562853A
:102D00007385402351236223732340875187628751
:102D10007387B19645E0EA39F40769F64EEF5FEF45
:102D20006FEF7FEF04C0440F551F661F771F8A9512
:102D3000D2F78091C3039091C403A091C503B091D1
:102D4000C60384239523A623B7238093C3039093BC
:102D5000C403A093C503B093C6030E94BF1181E0D2
:102D600001C08FEF0F90DF91CF911F910F91FF90D6
:102D7000EF90DF90CF9008950F931F9341E050E0C4
:102D800060E070E004C0440F551F661F771F8A95EE
:102D9000D2F7E091AA05F091AB0585859685A785C8
:102DA000B0898A019B01082319232A233B23012B85
:102DB000022B032BD1F0409550956095709584239C
:102DC0009523A623B72385879687A787B08B81890C
:102DD0009289A389B48984239523A623B723818B61
:102DE000928BA38BB48B81E001C08FEF1F910F9169
:102DF00008954091C3035091C4036091C50370913D
:102E0000C603082E04C076956795579547950A9492
:102E1000D2F740FF1DC0E091AA05F091AB0541E05B
:102E200050E060E070E004C0440F551F661F771F3C
:102E30008A95D2F785859685A785B089842B952BB1
:102E4000A62BB72B85879687A787B08B81E008953F
:102E50008FEF0895CF92DF92EF92FF921F93CF935F
:102E6000DF93C12CD12C7601C39404C0CC0CDD1CA3
:102E7000EE1CFF1C8A95D2F78091C3039091C40386
:102E8000A091C503B091C6038C219D21AE21BF2125
:102E9000892B8A2B8B2B11F481E040C00E94BD113D
:102EA000E6E5F5E0C8E5D5E010E023E0808181307B
:102EB000A9F482859385A485B5858C219D21AE21B9
:102EC000BF21892B8A2B8B2B49F0288317861686E6
:102ED0001082C286D386E486F58611E08081823036
:102EE00091F482859385A485B5858C159D05AE05E5
:102EF000BF0549F42883178616861082128613862A
:102F00001486158611E0B196A19685E0E839F80798
:102F100069F60E94BF11111105C082E00E94621380
:102F20008FEF01C081E0DF91CF911F91FF90EF9073
:102F3000DF90CF9008950F931F93E091AA05F09131
:102F4000AB05058516852785308906231723282399
:102F50003923012B022B032B19F1618B728B838B8D
:102F6000948B21E02783DC01CB0100909A0504C0FB
:102F7000B695A795979587950A94D2F780FF03C0D9
:102F80000E94051B04C080E090E00E942C1BE09191
:102F9000AA05F091AB05018912892389348903C000
:102FA00000E010E09801B801C9011F910F91089548
:102FB0009091A90591111CC0909193059F3F31F00C
:102FC000909196059F3F21F421E003C020E001C0CD
:102FD00022E030E0F901EE0FFF1FE20FF31FED5684
:102FE000FA4F82838083618381E08093A90502C0C8
:102FF000E0E0F0E0CF01089525E08339920729F061
:103000008659954021F481E0089580E008958FEF7E
:1030100008950E94FC178F3F11F481E002C08230B6
:1030200021F40E9462138FEF0895992787FD9095F0
:10303000FC01EE0FFF1FE80FF91FED56FA4F8FEF5F
:103040008083828381838091A90581508093A90523
:1030500081E008950F931F93CF93DF931F92CDB715
:10306000DEB70E94FC178F3F11F481E002C082306E
:1030700021F40E9462138FEF70C0282F332727FDA1
:1030800030958901000F111F020F131F0D561A4FA3
:10309000F8012281908129170CF05EC089830E947B
:1030A000BD11F80192819F5F9283E091AA05F09192
:1030B000AB051482909156058981923021F5482FF5
:1030C000552747FD5095652F752F0091600510918C
:1030D00061052091620530916305041715072607E5
:1030E000370789F493E09093580510926505109284
:1030F00064051092560510926005109261051092B9
:1031000062051092630590917705923019F5992721
:1031100087FD9095A92FB92F409181055091820587
:103120006091830570918405481759076A077B07EA
:1031300089F483E0809379051092860510928505C5
:1031400010927705109281051092820510928305E6
:10315000109284050E94BF1181E00F90DF91CF9102
:103160001F910F9108950F931F93CF93DF931F9299
:10317000CDB7DEB70E94FC178F3F11F481E002C08B
:10318000823021F40E9462138FEF40C089830E9435
:10319000BD118981082F112707FD1095F801EE0F49
:1031A000FF1FE00FF11FED56FA4F9281911116C0EB
:1031B000E091AA05F091AB059781926097839927DA
:1031C00087FD9095A92FB92F818B928BA38BB48B00
:1031D0000E94BF1180E090E00E942C1BF801EE0FCE
:1031E000FF1FE00FF11FED56FA4F8281815082835D
:1031F000A091AA05B091AB0581811B968C931B977A
:1032000081E014968C930E94BF1181E00F90DF91B2
:10321000CF911F910F9108950E94FC178F3F11F4D9
:1032200081E002C0823021F40E9462138FEF089582
:10323000992787FD9095FC01EE0FFF1FE80FF91FFE
:10324000ED56FA4F82810895E0919F05F091A00517
:1032500080810895E0919F05F091A00503C003804F
:10326000F481E02D3097D9F70895CF92DF92EF9255
:10327000FF920F931F93CF93DF93E0914D05F09151
:103280004E05309709F48AC040919F055091A005E2
:103290004115510509F446C0DA0191E2692F782FF2
:1032A000760390011124215B3A4F8901065F1F4F7D
:1032B0007901C4E0EC0EF11C255F3F4F6C9170E08A
:1032C000969FE001979FD00D1124C15BDA4FDC80FF
:1032D000DD2029F0DB84E801C880DC1428F1E70157
:1032E000D880DD2061F0969FE001979FD00D1124DA
:1032F000C15BDA4FDA84E901C880DC14A8F0969F3C
:10330000E001979FD00D1124C15BDA4F7A85E80167
:103310006881761748F013960D90BC91A02D1097F8
:1033200069F602C0A0E0B0E08083C381D481D0936D
:103330004E05C0934D05A417B507B1F4109749F099
:10334000B483A383128211821296FC93EE93119799
:1033500006C01482138212821182FA83E983F093E9
:10336000A005E0939F051AC011968D919C9112972C
:10337000AC17BD0759F092838183B483A383119660
:10338000CD91DC911297FC83EB8304C014821382ED
:10339000928381831296FC93EE931197DF91CF91E4
:1033A0001F910F91FF90EF90DF90CF900895CF93F2
:1033B000DF93E0919F05F091A005309709F444C098
:1033C000992787FD9095208130E02817390781F4EF
:1033D000A381B481B093A005A0939F0512961C927F
:1033E0001E92119718C00380F481E02D309761F18F
:1033F000208130E028173907B1F7C181D28183815C
:1034000094819C838B83A381B481109721F01296C1
:10341000DC93CE931197A0914D05B0914E05109776
:1034200039F4F0934E05E0934D05148213820AC0DF
:10343000B483A3831296FC93EE931197F0934E05F9
:10344000E0934D0512821182DF91CF910895EF92A2
:10345000FF920F931F93CF93DF93EC014B815C811D
:1034600069817A818D819E810E9401272F8122238B
:1034700071F04B815C81E12CF12C00E010E020E048
:1034800030E0BC01CE010E9498121F820CC0E8817E
:1034900021E2E202F0011124E15BFA4F21852330A1
:1034A00099F491838083E88181E2E802F00111249C
:1034B000E15BFA4F85899689892B41F482E0818707
:1034C00088810E94351902C08FEF01C081E0DF9131
:1034D000CF911F910F91FF90EF9008951F93CF937D
:1034E000DF93CDB7DEB728970FB6F894DEBF0FBED7
:1034F000CDBF29833A834B835C836D837E838F8327
:1035000098870E94BD110E942924182FCE01019690
:103510000E94D71D8330910560F0E091AA05F091DB
:10352000AB05810F911D968B858B0E94BF1181E0A9
:1035300001C08FEF28960FB6F894DEBF0FBECDBF47
:10354000DF91CF911F9108950E94D326E091AA05A3
:10355000F091AB0585818111F7CF0895FF920F930C
:103560001F93CF93DF93CDB7DEB728970FB6F894AC
:10357000DEBF0FBECDBF29833A834B835C836D834F
:103580007E838F8398870E94A5150E94BD11E091CC
:10359000AA05F091AB0581E0858381E090E090A3DE
:1035A000878F0E942924F82ECE0101960E94D71DF4
:1035B000E091AA05F091AB050F2D10E0800F911F4F
:1035C000968B858B87EF8F1578F00E94C2230F5F53
:1035D0001F4F282F30E00217130734F48F2D8E5F12
:1035E00080934A040E94C6230E94BF110E94A41A1D
:1035F00081E028960FB6F894DEBF0FBECDBFDF91F5
:10360000CF911F910F91FF900895CF930E94BD110C
:10361000E091AA05F091AB0581E0858386830E9445
:103620002924C82F883F88F40E94C2232C2F30E021
:103630002F5F3F4F482F50E02417350734F48C2F6D
:103640008E5F80934A040E94C6230E94BF110E948D
:10365000A41A81E0CF910895CF93DF93EC010E94EB
:10366000BD11E091AA05F091AB0581E08583D68B71
:10367000C58B0E942924C82F883F88F40E94C2234A
:103680002C2F30E02F5F3F4F482F50E02417350795
:1036900034F48C2F8E5F80934A040E94C6230E94CC
:1036A000BF110E94A41A81E0DF91CF910895FF928B
:1036B0000F931F93CF93DF938C010E94BD11E09174
:1036C000AA05F091AB0581E085830E942924F82E9C
:1036D000E091AA05F091AB05C82FD0E00C0F1D1F9B
:1036E000168B058B87EF8F1570F00E94C2232196F1
:1036F000282F30E0C217D30734F48F2D8E5F8093CC
:103700004A040E94C6230E94BF110E94A41A81E0AD
:10371000DF91CF911F910F91FF900895CF93DF9389
:10372000EC010E94A515209711F4C1E0D0E00E94A1
:10373000BD11E091AA05F091AB0581E08583D0A38E
:10374000C78F0E942924C82F883F88F40E94C22373
:103750002C2F30E02F5F3F4F482F50E024173507C4
:1037600034F48C2F8E5F80934A040E94C6230E94FB
:10377000BF110E94A41A81E0DF91CF910895CF93E9
:103780000E94A5150E94BD11E091AA05F091AB051C
:1037900081E090E090A3878F81E085830E942924B7
:1037A000C82F883F88F40E94C2232C2F30E02F5F5F
:1037B0003F4F482F50E02417350734F48C2F8E5F8D
:1037C00080934A040E94C6230E94BF110E94A41A3B
:1037D00081E0CF910895E091AA05F091AB05808535
:1037E0000E94D719E091AA05F091AB0584E081878A
:1037F0000E94BF1B81E008958F929F92AF92BF926B
:10380000CF92DF92EF92FF920F931F93CF93DF93AC
:10381000CDB7DEB760970FB6F894DEBF0FBECDBF51
:1038200029873A874B875C876D877E878F87988B40
:10383000CE0101960E94581C89809A80AB80BC8082
:10384000CD80DE80EF80F88409851A852B853C8544
:103850004D855E856F857889CE0109960E94B41CDE
:103860008F3F61F029853A854B855C856D857E8526
:103870008F8598890E94AE1A81E001C08FEF609613
:103880000FB6F894DEBF0FBECDBFDF91CF911F9171
:103890000F91FF90EF90DF90CF90BF90AF909F90EF
:1038A0008F900895E091AA05F091AB058085089569
:1038B000CF92DF92EF92FF92CF93DF93EC011C82C5
:1038C0001D821E821F828091A1059091A205A09168
:1038D000A305B091A40588839983AA83BB83C09074
:1038E000A505D090A605E090A705F090A805CC828C
:1038F000DD82EE82FF820E942924A82FB0E023EB14
:1039000036EE4EE050E00E94FB286C0D7D1D8E1DB2
:103910009F1D6C837D838E839F8313C09A5CAA490D
:10392000BB438C839D83AE83BF83488159816A8169
:103930007B814F5F5F4F6F4F7F4F488359836A830F
:103940007B838C819D81AE81BF8181152AEC92079A
:103950002AE9A2072BE3B20708F7DF91CF91FF9086
:10396000EF90DF90CF9008956F927F928F929F9209
:10397000AF92BF92CF92DF92EF92FF920F931F937D
:10398000CF93DF93CDB7DEB760970FB6F894DEBF65
:103990000FBECDBF3C0109831A832B833C834D832B
:1039A0005E836F83788789869A86AB86BC86CD8650
:1039B000DE86EF86F88AC980DA80EB80FC808D8114
:1039C0009E81AF81B88509851A852B853C854D85FB
:1039D0005E856F857889C016D106E206F30608F485
:1039E00042C00C151D052E053F0599F48417950757
:1039F000A607B707C0F1841B950BA60BB70BF30105
:103A000084839583A683B7831082118212821382E6
:103A100028C084179507A607B70790F4F1E0CF1ADE
:103A2000D108E108F108C01AD10AE20AF30AF30149
:103A3000C082D182E282F3829653A546B44C09C07B
:103A4000C01AD10AE20AF30AF301C082D182E282EB
:103A5000F382841B950BA60BB70B84839583A683F7
:103A6000B78381E001C08FEF60960FB6F894DEBF98
:103A70000FBECDBFDF91CF911F910F91FF90EF90BF
:103A8000DF90CF90BF90AF909F908F907F906F907E
:103A90000895FC0113C05A5C6A497B4344835583F3
:103AA0006683778340815181628173814F5F5F4F6D
:103AB0006F4F7F4F4083518362837383448155816D
:103AC0006681778141158AEC58078AE968078BE39C
:103AD000780708F708958F929F92AF92BF92CF9286
:103AE000DF92EF92FF920F931F93CF93DF93CDB7A7
:103AF000DEB760970FB6F894DEBF0FBECDBF098367
:103B00001A832B833C834D835E836F8378878986FA
:103B10009A86AB86BC86CD86DE86EF86F88A498596
:103B20005A856B857C8509811A812B813C81400FE8
:103B3000511F621F731FFC01408351836283738393
:103B40004D855E856F8578890D811E812F81388531
:103B5000400F511F621F731F448355836683778311
:103B60000E94491D81E060960FB6F894DEBF0FBE3B
:103B7000CDBFDF91CF911F910F91FF90EF90DF901C
:103B8000CF90BF90AF909F908F9008956093A105C4
:103B90007093A2058093A3059093A4052093A50597
:103BA0003093A6054093A7055093A80508952F923A
:103BB0003F924F925F926F927F928F929F92AF92BD
:103BC000BF92CF92DF92EF92FF920F931F93CF930A
:103BD000DF93CDB7DEB762970FB6F894DEBF0FBEA6
:103BE000CDBFFC014080518062807380648175810B
:103BF00086819781411451046104710409F46CC0F9
:103C0000F2E44F1651046104710408F06CC07B01AA
:103C10008C0120E030E0A9016983FA820B831C83C8
:103C20002D833E834F835887E0E0F0E0B0E0A0E0D2
:103C3000198A1A8A312C812C912C01C093949F01EE
:103C40004B2F5A2F69897A89832D982DA980BA80A4
:103C5000CB80DC80ED80FE800F8118850E94D52905
:103C6000222E39874A875B876C877D878E879F875F
:103C70009F014B2F5A2F69897A89832D982D3653AE
:103C80004546544C6F4F7F4F8F4F9F4FF901B42FD4
:103C9000A52F698B7A8B382E892E492D50E060E054
:103CA00070E0441555056605770540F283EBA82EB4
:103CB00096EEB92E2EE0C22ED12CE12CF12C00E094
:103CC00010E0222D39854A855B856C857D858E8542
:103CD0009F850E94722909C023EB36EE4EE050E02A
:103CE0000E94322902C020E030E0C90162960FB67E
:103CF000F894DEBF0FBECDBFDF91CF911F910F9122
:103D0000FF90EF90DF90CF90BF90AF909F908F90FB
:103D10007F906F905F904F903F902F900895CF923B
:103D2000DF92EF92FF92CF93DF93CDB7DEB7289764
:103D30000FB6F894DEBF0FBECDBF6B017C013AE039
:103D4000F694E794D794C7943A95D1F7C982DA826A
:103D5000EB82FC829B01AC0133704427552763EB57
:103D600076EE8EE090E00E940E292C2D3A814B8158
:103D70005C8128960FB6F894DEBF0FBECDBFDF91F1
:103D8000CF91FF90EF90DF90CF9008952F923F92C8
:103D90004F925F926F927F928F929F92AF92BF925B
:103DA000CF92DF92EF92FF920F931F93CF93DF9307
:103DB000CDB7DEB762970FB6F894DEBF0FBECDBFAA
:103DC000FC014080518062807380648175818681AE
:103DD0009781411451046104710409F465C07B01A9
:103DE0008C0120E030E0A9016983FA820B831C83F7
:103DF0002D833E834F835887E0E0F0E0B0E0A0E001
:103E0000198A1A8A312C812C912C01C093949F011C
:103E10004B2F5A2F69897A89832D982DA980BA80D2
:103E2000CB80DC80ED80FE800F8118850E94D52933
:103E3000222E39874A875B876C877D878E879F878D
:103E40009F014B2F5A2F69897A89832D982D3653DC
:103E50004546544C6F4F7F4F8F4F9F4FF901B42F02
:103E6000A52F698B7A8B382E892E492D50E060E082
:103E700070E0441555056605770540F243EBA42E26
:103E800056EEB52E6EE0C62ED12CE12CF12C00E0C2
:103E900010E0222D39854A855B856C857D858E8570
:103EA0009F850E94722906C023EB36EE4EE050E05B
:103EB0000E943229B901CA0162960FB6F894DEBF9A
:103EC0000FBECDBFDF91CF911F910F91FF90EF906B
:103ED000DF90CF90BF90AF909F908F907F906F902A
:103EE0005F904F903F902F900895C1E0D2E00E94E4
:103EF000A5150E94C223843028F4C0939E050E9419
:103F0000D32608C08AE090E00E94DA22D0939E0572
:103F10000E94C72680914C04853519F088E00E94E4
:103F20000C1480917E41853511F388E00E940C14B9
:103F3000DECF2F923F924F925F926F927F928F923D
:103F40009F92AF92BF92CF92DF92EF92FF920F9328
:103F50001F93CF93DF9300D000D01F92CDB7DEB771
:103F60000E94F6220E94BD110E9415230E941D236B
:103F70009A8389838AEF0E94C623A0914A04B0E005
:103F800023EB36EE4EE050E00E94FB286B017C01F3
:103F90008091A5059091A605A091A705B091A805CF
:103FA000C80ED91EEA1EFB1EC701B6010E943229A7
:103FB000C61AD70AE80AF90A8091A1059091A205CC
:103FC000A091A305B091A40573EB872E76EE972EF2
:103FD0007EE0A72EB12C12C02AECD21A2AE9E20AFE
:103FE0002BE3F20AC701B601A50194010E94322910
:103FF000C61AD70AE80AF90AD301C201412C512C8A
:1040000032014394480E591E6A1E7B1EC114EAEC0D
:10401000DE06EAE9EE06EBE3FE06F0F68093A10584
:104020009093A205A093A305B093A405C092A50503
:10403000D092A605E092A705F092A805E091AA0506
:10404000F091AB0585818823C1F081858430A9F08A
:104050008781823009F405C0882341F0868181116F
:1040600002C085E001C083E0818704C083E08187CE
:104070001782168280850E94D719E091AA05F091D7
:10408000AB05858D968D892B91F16085662379F13D
:104090008185843061F1218D328D80914A0490E0D8
:1040A0002817390750F482E00E940614E091AA050F
:1040B000F091AB05128E118E04C0281B390B328F84
:1040C000218FE091AA05F091AB051085218D328DED
:1040D000232B69F4612F83E00E940614E091AA0566
:1040E000F091AB0583E08187812F0E94D71987E586
:1040F000682E85E0782E98E5892E95E0992E26E5A4
:10410000A22E25E0B22E35E5C32E35E0D32E44E5B0
:10411000E42E45E0F42E00E61AEE40E02AEF30E00F
:10412000212C312C21012394D3018C918F3F09F450
:10413000BFC0F70110828C91882309F43FC0D401DD
:104140008C918430D9F11C966D917C911D97809152
:104150004A0490E06817790738F0681B790B1D96C0
:104160007C936E931C9703C0F40115861486D401CA
:104170001E966D917C911F976817790738F0681B20
:10418000790B1F967C936E931E970FC0F401628982
:1041900073898617970728F4681B790B77876687DA
:1041A00004C00E941E2997878687F401868597851B
:1041B000892B21F48289938997878687D4018C91F2
:1041C000833009F075C01C968D919C911D97892BA9
:1041D00009F063C0F50180818823A1F0D6018C919C
:1041E000882381F0D201C10100909A0504C0880F94
:1041F000991FAA1FBB1F0A94D2F7F40180879187E9
:10420000A287B387D5011C92F6011082D7011C92B8
:10421000F4018689978981309105D1F48489958943
:10422000918B808B82E080838685978595878487B4
:1042300082899389892B11F435872487842F2C83D5
:104240003D834B830E9435192C813D814B8125C0D4
:10425000D40164897589718B608BFC01319752960A
:104260008D919C915397E89FB001E99F700DF89F45
:10427000700D11241D967C936E931C971F967C9352
:104280006E931E97892B21F41D963C932E931C97B9
:1042900081E090E0F401978B868BD4011C968D9180
:1042A0009C911D97009721F08017910708F48C01CD
:1042B0004F5FB1E26B0E711CE1E28E0E911CF1E2D8
:1042C000AF0EB11C81E2C80ED11C91E2E90EF11CC7
:1042D000423009F029CF0E942419F82EA1E28A0267
:1042E000F0011124E15BFA4F82858093AC05F093D5
:1042F0009C05E0939B05FF2091F0258D368D232BA7
:1043000051F0218D328D2A3F310528F420173107D5
:10431000F0F489011CC00B3F1105C8F013C0043034
:104320001105A8F09801235031092A3F310538F4CE
:1043300089012230310558F402E010E008C00D3F39
:10434000110519F00AEF10E002C007EF10E08093AA
:104350009D05F093AB05E093AA0500934A040E94E3
:104360002924282F30E02F5F3F4F2017310740F0DE
:104370000E942924082F10E00E5F1F4F00934A046B
:10438000F11010929E05802F0E94C6236CED75E0FF
:1043900089819A810E9430230E945F270F900F909D
:1043A0000F900F900F90DF91CF911F910F91FF9081
:1043B000EF90DF90CF90BF90AF909F908F907F90C5
:1043C0006F905F904F903F902F900C946A27409190
:1043D000BD05141694F054E0450290011124F90132
:1043E000E254FA4F6083F901E054FA4F91838083DD
:1043F0004F5F4093BD0581E008958FEF08950F93BF
:104400001F93CF93DF93062F4091BD05552747FD9E
:10441000509510E0E82FF0E030C0E901CC0FDD1F2F
:10442000CC0FDD1FDE01A254BA4F8C91992787FD76
:1044300090958E179F0701F5F901EE53FA4F808191
:1044400081110EC081E08083FE01E054FA4F01909B
:10445000F081E02D20E040E050E0602F80E0099501
:10446000C054DA4FE881F98120E040E050E0602F4D
:1044700081E00995812F07C01F5F212F30E02417AD
:1044800035075CF28FEFDF91CF911F910F91089567
:10449000E82FF0E08091BD05992787FD90958E1754
:1044A0009F077CF0EE0FFF1FEE0FFF1FE054FA4F47
:1044B0000190F081E02D20E040E050E060E082E0FB
:1044C000099481E00E9462138FEF0895242FE82F52
:1044D000F0E08091BD05992787FD90958E179F0785
:1044E0006CF0EE0FFF1FEE0FFF1FE054FA4F01902C
:1044F000F081E02DAB0160E086E0099481E00E944C
:1045000062138FEF0895242FE82FF0E08091BD050E
:10451000992787FD90958E179F076CF0EE0FFF1F70
:10452000EE0FFF1FE054FA4F0190F081E02DAB0138
:1045300060E085E0099481E00E9462138FEF0895A6
:10454000242FE82FF0E08091BD05992787FD9095F5
:104550008E179F076CF0EE0FFF1FEE0FFF1FE0544A
:10456000FA4F0190F081E02D40E050E084E00994A2
:1045700081E00E9462138FEF0895E82FF0E08091B0
:10458000BD05992787FD90958E179F0774F0EE0F54
:10459000FF1FEE0FFF1FE054FA4F0190F081E02D56
:1045A00020E040E050E083E0099481E00E94621343
:1045B0008FEF0895000000000000000000000000E0
:1045C000000000000000000000000000019791F7CB
:1045D000089510922101089589E0809321018DE8CA
:1045E0009CE390932901809328010895109225015E
:1045F000109224010895CF93DF9300D0CDB7DEB79A
:1046000080912401909125019A83898329813A819F
:10461000C9010F900F90DF91CF9108951092810002
:10462000089581E080938100089583B5816083BD02
:1046300010928500109284000895CF93DF9300D0EC
:10464000CDB7DEB780918400909185009A838983ED
:1046500029813A81C9010F900F90DF91CF91089580
:10466000CF92DF92EF92FF92CF93DF93EC01CC0FCA
:10467000DD1FC9378FEFD80710F0C0E0D0E06B0125
:10468000E12CF12CCC0EDD1EE11CF11C81E0C816E2
:10469000D104E806F10440F081E0E81AF1080E9434
:1046A0001D23C817D907D8F30E941D238C159D051B
:1046B000D8F3DF91CF91FF90EF90DF90CF900895E6
:1046C0001092B100E0E7F0E080818D7F80838081EF
:1046D0008E7F808308958093B2000895E0E7F0E034
:1046E00080818360808383E08093B100089583B5E7
:1046F000826083BD1092B20010929F0310924A0410
:104700000895CF93DF938EEF80934A0490E29093C5
:10471000B6008093B30083E087BB92E09093B00033
:104720008093B10093B5926093BD87BB84BD83B580
:10473000826083BD1092800081E08093810010929E
:1047400085001092840083B5826083BD83B581604B
:1047500083BD10922001C4E2D1E01982188283B592
:10476000826083BD83B5816083BD0E9477231982F7
:1047700018820E946E230E94EC2210929F03DF9108
:10478000CF9108958091B3008F5F089581508093F9
:10479000B3000895811102C0109271008FEF089547
:1047A000811106C0109295001092940081E0089546
:1047B0008FEF0895811105C02091940030919500EC
:1047C00002C020E030E0C9010895811105C082E0F7
:1047D0008093710081E008958FEF0895811135C0B5
:1047E000CB010197059710F4609349041092900053
:1047F00088E0809391005093990040939800309303
:104800009D0320939C0380914904813021F4809181
:104810009100816011C0823021F48091910082600A
:104820000BC0833021F480919100836005C08430F7
:1048300031F48091910084608093910008C08530AC
:1048400031F4809191008560F7CF8FEF089581E07A
:1048500008958091B20008951F920F920FB60F92A3
:10486000112460E08AE00E940614FFCF0F920FB679
:104870000F921F922F923F924F925F926F927F9270
:104880008F929F92AF92BF92CF92DF92EF92FF9260
:104890000F931F932F933F934F935F936F937F9348
:1048A0008F939F93AF93BF93CF93DF93EF93FF9338
:1048B000A091AA05B091AB050DB60D920EB60D9262
:1048C0001F92A0914704B09148041E90BEBFADBF97
:1048D00008951F920F920FB60F9211240BB60F92EC
:1048E0002F933F934F935F936F937F938F939F93F8
:1048F000AF93BF93EF93FF93E0919C03F0919D03DF
:10490000309711F0099504C060E08AE00E94061417
:10491000FF91EF91BF91AF919F918F917F916F9197
:104920005F914F913F912F910F900BBE0F900FBE53
:104930000F901F9018951F920F920FB60F9211248F
:104940000F900FBE0F901F90189504B603FC02C085
:1049500080E001C080E104B602FE06C094B79B7FF0
:1049600094BF04B600FE846004B601FE05C094B78F
:104970009D7F94BF8260089581110CC004B600FE33
:1049800004C094B79E7F94BF01C081E09091B000B5
:10499000911181E00895811102C0E89A39C08130F7
:1049A00011F4E99A0895823011F4EA9A31C0833003
:1049B00021F480916B00816029C0843021F48091C2
:1049C0006B00826023C0853021F480916B0084608D
:1049D0001DC0863021F480916B00886017C087303D
:1049E00021F480916B00806111C0883021F48091A6
:1049F0006B0080620BC0893021F480916B00806471
:104A000005C08A3039F480916B00806880936B0018
:104A100081E008958FEF0895811102C0E89839C0B0
:104A2000813011F4E9980895823011F4E99831C089
:104A3000833021F480916B008E7F29C0843021F473
:104A400080916B008D7F23C0853021F480916B00B5
:104A50008B7F1DC0863021F480916B00877F17C04B
:104A6000873021F480916B008F7E11C0883021F453
:104A700080916B008F7D0BC0893021F480916B0099
:104A80008F7B05C08A3039F480916B008F778093DB
:104A90006B0081E008958FEF0895811127C0509336
:104AA000C6054093C505611104C0809169008C7FE3
:104AB0003EC0613049F4809169008D7F8093690028
:104AC00080916900816033C0623049F4809169004F
:104AD000826080936900809169008E7F28C0633076
:104AE00009F027C080916900836021C0813049F5B9
:104AF0005093C4054093C305611104C080916900BF
:104B0000837F15C0613049F480916900877F80936D
:104B100069008091690084600AC0623061F480910C
:104B20006900886080936900809169008B7F809321
:104B3000690081E008956330E1F7809169008C603D
:104B4000F6CF823031F55093C8054093C705611107
:104B500004C0809169008F7CEACF613049F4809174
:104B600069008F7D80936900809169008061DFCF4B
:104B7000623049F48091690080628093690080917D
:104B800069008F7ED4CF6330A1F680916900806385
:104B9000CECF8350883050F480916800816080933C
:104BA00068005093CA054093C905C3CF8FEF08959D
:104BB0001F920F920FB60F9211240BB60F922F93E4
:104BC0003F934F935F936F937F938F939F93AF9395
:104BD000BF93EF93FF93E091C905F091CA05309719
:104BE00011F0099504C060E08AE00E940614FF916C
:104BF000EF91BF91AF919F918F917F916F915F9155
:104C00004F913F912F910F900BBE0F900FBE0F90C1
:104C10001F9018951F920F920FB60F9211240BB68A
:104C20000F922F933F934F935F936F937F938F9345
:104C30009F93AF93BF93EF93FF93E091C505F091DE
:104C4000C605309711F0099504C060E08AE00E9423
:104C50000614FF91EF91BF91AF919F918F917F913A
:104C60006F915F914F913F912F910F900BBE0F90DD
:104C70000FBE0F901F9018951F920F920FB60F92B4
:104C800011240BB60F922F933F934F935F936F9323
:104C90007F938F939F93AF93BF93EF93FF93E09195
:104CA000C305F091C405309711F0099504C060E088
:104CB0008AE00E940614FF91EF91BF91AF919F91FE
:104CC0008F917F916F915F914F913F912F910F90B5
:104CD0000BBE0F900FBE0F901F9018951F920F9252
:104CE0000FB60F9211240BB60F922F933F934F9351
:104CF0005F936F937F938F939F93AF93BF93EF9344
:104D0000FF93E091C705F091C805309711F0099520
:104D100004C060E08AE00E940614FF91EF91BF9109
:104D2000AF919F918F917F916F915F914F913F9143
:104D30002F910F900BBE0F900FBE0F901F901895E4
:104D40000E94BD11A89584B7877F84BFE0E6F0E09C
:104D500080818861808310820C94BF110E94BD11F4
:104D6000A89584B7877F84BFE0E6F0E08081886102
:104D700080838DE080830C94BF1104B603FC02C0D5
:104D800081E008958FEF0895A8950895089583B759
:104D9000817F866083BF83B7816083BF889583B737
:104DA0008E7F83BF089583B7817F83BF83B7816080
:104DB00083BF889583B78E7F83BF0895FC01768378
:104DC00065830895EF92FF920F931F93CF93DF9324
:104DD000EC018B017A014032510518F481E10E9407
:104DE0000C14A70141505109400F511F5A834983A8
:104DF0001C830B83DF91CF911F910F91FF90EF9058
:104E0000089525E5FA012083FB0132979083FB0189
:104E100031978083FB01349711821082FB01369712
:104E200011821082FB01389711821082FB013A97A0
:104E300011821082FB013C9711821082FB013E9788
:104E400011821082FB01709711821082FB01729710
:104E500011821082FB01749711821082FB017697F8
:104E600011821082FB01789711821082FB017A97E0
:104E700011821082FB017C9711821082FB017E97C8
:104E800011821082FB01B09711821082FB01B29750
:104E900011821082FB01B49711821082CF01089514
:104EA00085E580937E41EEEFF1E4F0934804E093D2
:104EB00047048DE593E190838093FF4108958DE54C
:104EC00093E19093FE418093FF4108950E948123D6
:104ED0000C94BF11A0919B05B0919C05CD91CDBFC5
:104EE000DD91DEBFFF91EF91DF91CF91BF91AF9147
:104EF0009F918F917F916F915F914F913F912F91F2
:104F00001F910F91FF90EF90DF90CF90BF90AF90E7
:104F10009F908F907F906F905F904F903F902F90D9
:104F20001F900F900FBE0F9018950E94910D80E179
:104F300090E00E94FB108CEA92E00E94922A0E946C
:104F4000C41120E030E0A90160E070E0CB010E94D4
:104F5000C61D0E94D7020E9484020E94661280E051
:104F600090E008957F928F929F92AF92BF92CF92DE
:104F7000DF92EF92FF920F931F93CF93DF93CDB702
:104F8000DEB72C970FB6F894DEBF0FBECDBF7C0105
:104F90006B018A01FC0117821682838181FD03C0A7
:104FA00013C1850105C088248394912C8C0E9D1E0D
:104FB000F701B380F601B3FC8591B3FE81916F01D7
:104FC000882309F4FDC0853239F4B3FC2591B3FE82
:104FD00021916F01253219F5B70190E00E94492A0D
:104FE0005801DFCF222309F4EBC0622F70E081ED7E
:104FF00093E02C870E94EA292C85892B49F42332DF
:1050000019F4F0E17F2A04C02C3679F420E8722AE2
:10501000F601B3FC2591B3FE21916F0101C0712C03
:1050200077FEE0CF222309F4CBC0622F70E081EE3F
:1050300093E02C870E94EA292C85892B41F05801A6
:10504000F4E0AF0EB11CB7018FE390E00FC0233640
:1050500029F0233781F0233519F50BC0580122E0E0
:10506000A20EB11CB701F801808191810E94492AEA
:1050700098CFF1E07F2A580122E0A20EB11CF8017E
:105080000081118104C0B70190E00E94492AF80113
:1050900070FC859170FE81918F018111F4CF81CFD9
:1050A000243611F0293631F5580177FE09C0F4E0B5
:1050B000AF0EB11CF80160817181828193810AC0B9
:1050C000F2E0AF0EB11CF80160817181882777FD95
:1050D0008095982FFFEE7F2297FF09C090958095CD
:1050E000709561957F4F8F4F9F4F20E4722A2AE081
:1050F00030E036C0203791F030F42835B1F02F364B
:1051000009F05EC017C0253721F0283709F058C0D4
:1051100007C08FEE78222AE030E00EC0E0E17E2A60
:10512000F4E27F2A20E130E007C024E0722A20E187
:1051300032E002C028E030E0580177FE09C084E088
:10514000A80EB11CF801608171818281938108C031
:10515000F2E0AF0EB11CF8016081718180E090E057
:10516000A4010E94F22A182F181976FE05C0B70173
:105170008DE290E00E94492A74FE16C0FE01E10F04
:10518000F11D8081803381F0B70180E390E00E94BF
:10519000492A72FE09C0272D2072822F90E0B701A4
:1051A000885A9F4F0E94492A1150F401E10FF11DC6
:1051B000B701808190E00E94492A1111F5CFF1CE0C
:1051C000F7012681378102C02FEF3FEFC9012C96EE
:1051D0000FB6F894DEBF0FBECDBFDF91CF911F9108
:1051E0000F91FF90EF90DF90CF90BF90AF909F9086
:1051F0008F907F9008950E94DE29A59F900DB49F07
:10520000900DA49F800D911D11240895B7FF0C945B
:10521000FB280E94FB28821B930B0895DB018F93D0
:105220009F930E94FB28BF91AF91A29F800D911D7B
:10523000A39F900DB29F900D11240895AA1BBB1B34
:1052400051E107C0AA1FBB1FA617B70710F0A61B86
:10525000B70B881F991F5A95A9F780959095BC01A7
:10526000CD010895A1E21A2EAA1BBB1BFD010DC0A2
:10527000AA1FBB1FEE1FFF1FA217B307E407F50706
:1052800020F0A21BB30BE40BF50B661F771F881FE2
:10529000991F1A9469F760957095809590959B0178
:1052A000AC01BD01CF010895052E97FB16F40094C3
:1052B00007D057FD0DD00E94322907FC09D07EF49B
:1052C00090958095709561957F4F8F4F9F4F089572
:1052D00050954095309521953F4F4F4F5F4F089522
:1052E000689401C0E8948F929F92CF93DF930E94BD
:1052F0007E29DF91CF919F908F90089588249924E3
:10530000F401E401B0E49F93AA279A158B049C044E
:10531000ED05FE05CF05D007A10798F4AD2FDC2FD2
:10532000CF2FFE2FE92D982C892E982F872F762F9F
:10533000652F542F432F322F2227B85031F7BF91BA
:1053400027C01B2EBF91BB27220F331F441F551FA1
:10535000661F771F881F991F881C991CEE1FFF1F4F
:10536000CC1FDD1FAA1FBB1F8A149B04EC05FD0583
:10537000CE05DF05A007B10748F08A189B08EC09A5
:10538000FD09CE09DF09A00BB10B21601A94E1F6EB
:105390002EF49401AF01BE01CD01000C0895EE0F73
:1053A000FF1F0590F491E02D09942A0D3B1D4C1D23
:1053B0005D1D6E1D7F1D801F911F0895A29FB0016E
:1053C000B39FC001A39F01D0B29F700D811D112416
:1053D000911D0895FC010590061621F00020D9F7D3
:1053E000C00108953197CF010895FB01DC0102C08F
:1053F00001900D9241505040D8F708950F931F939C
:10540000CF93DF93EC018B01009731F461157105A7
:1054100019F4E0E0F0E037C06EE070E081E090E089
:105420000E94662BFC010097A1F380E8838301159D
:10543000110571F01387028781E883838091CB0582
:105440009091CC05892B21F4F093CC05E093CB050A
:105450002097C9F0D187C087838182608383809140
:10546000CD059091CE05892B71F4F093CE05E09394
:10547000CD058091CF059091D005892B21F4F09333
:10548000D005E093CF05CF01DF91CF911F910F9110
:1054900008950F931F93CF93DF938C01EB018B81C2
:1054A00081FD03C00FEF1FEF1AC082FF0DC02E81D8
:1054B0003F818C819D812817390764F4E881F98147
:1054C0000193F983E88306C0E885F985802F099563
:1054D000892B41F78E819F8101969F838E83C8011E
:1054E000DF91CF911F910F910895CF93DF9300D05B
:1054F000CDB7DEB7FE01379661917191FA83E983EA
:10550000AF018091CD059091CE050E94B2270F90FA
:105510000F90DF91CF9108956091CD057091CE05E8
:105520000C94492A0F931F93CF93DF938C01E09142
:10553000CD05F091CE05838181FF1BC0C0E0D0E096
:1055400005C00995892B11F0CFEFDFEFF8018191AC
:105550008F016091CD057091CE05DB011896ED911C
:10556000FC9119978111EDCF8AE00995892B09F4F7
:1055700002C0CFEFDFEFCE01DF91CF911F910F91EE
:1055800008950F931F93CF93DF93CDB7DEB7609746
:105590000FB6F894DEBF0FBECDBF0F89188D86E021
:1055A0008C831A8309838FEF9FE79E838D83AE01DF
:1055B000455E5F4F588B4F87698D7A8DCE0101967E
:1055C0000E94B227EF81F885E00FF11F10826096EC
:1055D0000FB6F894DEBF0FBECDBFDF91CF911F9104
:1055E0000F910895FA01AA27283051F1203181F155
:1055F000E8946F936E7F6E5F7F4F8F4F9F4FAF4FDB
:10560000B1E03ED0B4E03CD0670F781F891F9A1FED
:10561000A11D680F791F8A1F911DA11D6A0F711DA1
:10562000811D911DA11D20D009F468943F912AE0AD
:10563000269F11243019305D3193DEF6CF01089595
:10564000462F4770405D4193B3E00FD0C9F7F6CFC6
:10565000462F4F70405D4A3318F0495D31FD40528E
:10566000419302D0A9F7EACFB4E0A6959795879524
:1056700077956795BA95C9F7009761057105089503
:105680009B01AC010A2E06945795479537952795AF
:10569000BA95C9F7620F731F841F951FA01D089547
:1056A000F999FECF92BD81BDF89A992780B50895EA
:1056B000262FF999FECF1FBA92BD81BD20BD0FB62E
:1056C000F894FA9AF99A0FBE019608950F931F93D2
:1056D000CF93DF93689F8001699F100D789F100D15
:1056E0001124C8010E94842BC82FD92F209731F094
:1056F000A80160E070E08C2F0E94BD2CCE01DF91EC
:10570000CF911F910F9108950F931F93CF93DF9324
:105710008230910510F482E090E0E091D305F091A1
:10572000D40520E030E0C0E0D0E023C040815181CA
:1057300048175907A8F04817590761F482819381E7
:10574000209719F09B838A832EC09093D405809371
:10575000D30529C02115310529F04217530710F050
:10576000A90102C0BE01DF0102811381EF019A018C
:10577000F8013097D9F62115310509F1281B390BAD
:105780002430310590F412968D919C9113976115F8
:10579000710521F0FB019383828304C09093D405AB
:1057A0008093D305FD01329644C0FD01E20FF31F43
:1057B00081939193225031092D933C933AC02091CB
:1057C000D1053091D205232B41F420910202309172
:1057D00003023093D2052093D1052091000230912D
:1057E00001022115310541F42DB73EB74091040265
:1057F00050910502241B350BE091D105F091D205A3
:10580000E217F307A0F42E1B3F0B2817390778F097
:10581000AC014E5F5F4F2417350748F04E0F5F1FF6
:105820005093D2054093D1058193919302C0E0E05B
:10583000F0E0CF01DF91CF911F910F910895EF928A
:10584000FF920F931F93CF93DF93009709F48EC0BD
:10585000DC01129713961C921E921297E090D305CA
:10586000F090D405E114F10489F42D913C91119745
:10587000280F391F8091D1059091D2058217930787
:1058800089F5B093D205A093D10570C0E70120E05F
:1058900030E001C0EA01CA17DB0738F44A815B81B6
:1058A0009E0141155105B1F722C0AC01425051098A
:1058B000FA01D383C28300811181BC01600F711F83
:1058C0006C177D0761F468817981600F711F6E5FCD
:1058D0007F4F718360836A817B817383628321152B
:1058E000310529F4B093D405A093D3053FC0F90145
:1058F000B383A283E90149915991C40FD51FAC1715
:10590000BD0771F4DC019E918E91840F951F029664
:105910009183808312968D919C91139793838283B8
:10592000A0E0B0E002C0D7017C01F7018281938141
:105930000097C9F7C701029620813181820F931F1A
:105940002091D1053091D2052817390779F41097A5
:1059500029F41092D4051092D30504C013961C921A
:105960001E921297F092D205E092D105DF91CF916D
:105970001F910F91FF90EF900895DC0101C06D938E
:0C59800041505040E0F70895F894FFCF2C
:10598C000000D50520003D352D251D150D05340CC9
:10599C00043B332B231B130B39312921191109011A
:1059AC006461726B200D0A006461796C69676874BC
:1059BC00200D0A00726F6F6D2D6C69676874200D75
:1059CC000A004D79206E6F646527732061646472E0
:1059DC006573732069732025640D0A005461736B21
:1059EC0031205049443D25640D0A006C756D656E7F
:1059FC00730020616D6269656E74206C69676874F0
:105A0C002076616C75653D202564257300203A2055
:105A1C006C6967687420747970652064657465635B
:105A2C007465642061732025730D0A0073746172B0
:105A3C0074696E672E2E2E0D006572726F723A208D
:105A4C0054574920737461747573202523780A00A8
:105A5C0072665F72785F7061636B65745F6E6F6E98
:105A6C00626C6F636B206661696C65645D0D0050E0
:105A7C0061636B657420697320646F6E6520626F5F
:105A8C00756E63696E672061726F756E64210D0AA5
:105A9C00005345513A2534750954544C3A25326417
:105AAC0009525353493A253464095061796C6F613A
:105ABC00643A205B25735D0D0A00525820656E64B4
:105ACC00206661696C656420636865636B73756DD2
