:100000000C94F4010C94F7260C9429270C945B278C
:100010000C9413020C9413020C9413020C9413020C
:100020000C9413020C94C5260C9413020C94130226
:100030000C9413020C9423250C9413020C94232586
:100040000C9413020C9413020C9413020C941302DC
:100050000C9413020C9413020C9413020C941302CC
:100060000C9413020C9413020C9413020C941302BC
:100070000C9413020C9413020C9413020C941302AC
:100080000C9456250C9413020C9413020C94130236
:100090000C9413020C9413020C9413020C9413028C
:1000A0000C9413020C9413020C9413020C9413027C
:1000B0000C9413020C9413020C9413020C9413026C
:1000C0000C9413020C9413020C9413020C9413025C
:1000D0000C9413020C9413020C9413020C9413024C
:1000E0000C9413020C94360D0C94270D0C94F70C01
:1000F0000C94F60D0C94E80C0C94D90C0C94C70CD1
:100100000C94B80C0C9413020C9413020C9413026C
:100110000C9413020C9413020C9413020C9413020B
:10012000BE14C414C714CA14CD14D014D614D314D6
:10013000D914DC14DF14E814EB14EE14F114E514F4
:10014000BB14C114F414F714E214B8144661696CBA
:10015000656420746F206F70656E2073656E736FB9
:1001600072206472697665720D0A004661696C6579
:100170006420746F206C6F6164206D79204144436A
:10018000206472697665720D0A002A4E524B204532
:1001900052524F522800293A20005461736B20704C
:1001A0006572696F6420746F6F206C617267652E71
:1001B00020506572696F64206D75737420626520CC
:1001C0006C657373207468616E20363120736563CB
:1001D0006F6E64732E00537461636B2077617320BC
:1001E0006E6F7420646566696E6564206173206C4F
:1001F0006172676520656E6F756768210054617371
:100200006B20537461636B204F766572666C6F77F9
:1002100000496E76616C696420537461636B205091
:100220006F696E74657200526573657276652045FC
:1002300072726F7220696E205363686564756C65B5
:1002400072005461736B2052657365727665205637
:10025000696F6C61746564005363686564756C658F
:1002600072204D69737365642057616B657570000A
:100270004475706C696361746564205461736B20AC
:10028000494400556E6578706563746564205265F5
:1002900073746172740049646C65206F72204B65E1
:1002A000726E656C20537461636B204F7665726665
:1002B0006C6F77004578747261205461736B2073A2
:1002C0007461727465642C206973206E726B5F6355
:1002D00066672E68206F6B3F004C6F7720566F6CFF
:1002E0007461676500556E68616E646C6564204971
:1002F0006E7465727275707420566563746F7200E7
:1003000054696D6572204F766572666C6F77005325
:1003100057205761746368646F6720526573746116
:100320007274005761746368646F672052657374F8
:10033000617274004465766963652044726976650C
:1003400072204572726F72004B65726E656C20662A
:10035000756E6374696F6E206E6F7420696D706C5A
:10036000656D656E746564004661696C65642074D2
:100370006F20637265617465205369676E616C00FC
:100380004661696C656420746F2063726561746591
:100390002053656D6170686F72650042726F776E91
:1003A000204F7574204465746563740045787465E6
:1003B000726E616C20526573657400554E4B4F57D9
:1003C0004E000D0A535441434B2044554D500D0AE5
:1003D00000202B2D2E303132333435363738396802
:1003E000004546476566670011241FBECFEFD1E484
:1003F000DEBFCDBF14E0A0E0B2E0EAE4FDE500E03E
:100400000BBF02C007900D92A636B107D9F716E0D0
:10041000A6E6B4E001C01D92A93CB107E1F70E9435
:1004200082280C94A32E0C941925CF93DF93CDB77B
:10043000DEB72E970FB6F894DEBF0FBECDBF1A867B
:1004400019861C861B861F921F9280E292E09F9362
:100450008F930E94542C0E943F1D1F928F938AE31A
:1004600092E09F938F930E94542C65E083E00E945A
:10047000EC22382E0FB6F894DEBF0FBECDBF3FEF93
:10048000831304C08CE491E00E94640E612C712CF3
:1004900032E6832E32E0932E4CEE442E42E0542E70
:1004A0004BE061E0832D0E948D2344E0BE016F5F2D
:1004B0007F4F832D0E94702389E492E09F938F9356
:1004C00088858F938F818F938E818F938D818F936A
:1004D0008C818F938B818F938A818F9389818F9366
:1004E0008BE492E09F938F930E94542C4AE061E04A
:1004F000832D0E948D2385E692E09F938F9329811F
:100500003A814B815C816D817E819AE0A92EB12C6C
:10051000C12CD12CE12CF12C00E010E08F819885CA
:100520000E94512B9F938F937F936F935F934F9371
:100530003F932F938DE692E09F938F930E94542CCC
:1005400049E061E0832D0E948D2344E0BE016F5F8E
:100550007F4F832D0E94702329813A814B815C81DA
:100560006D817E818F8198850E94E8292AE033E1A0
:100570004BE959E30E94262A9F938F937F936F93B1
:1005800083E892E09F938F930E94542C41E061E0B6
:10059000832D0E948D2342E0BE01635F7F4F832D38
:1005A0000E9470238D859E8520E034E0281B390B46
:1005B000C9019F932F9387EA92E09F938F930E94A4
:1005C000542C0B851C8589859A85080F191F169553
:1005D00007950FB6F894DEBF0FBECDBF80E090E068
:1005E0000E94851181E090E00E9485118BEC92E0E1
:1005F0000E94712C8D859E85801B910B97FF03C0F7
:100600009195819591090B974CF05F924F929F9233
:100610008F920E94542C80E090E00AC02DEF32E0CF
:100620003F932F939F928F920E94542C81E090E0F1
:100630000E946E110F900F900F900F90F301EE0F2C
:10064000FF1F21E030E02C0F3D1FE20FF31F8D85CF
:100650009E859187808744E061E0832D0E948D23F1
:1006600042E0BE01635F7F4F832D0E9470238E8521
:100670008F938D858F9382E193E09F938F930E9458
:10068000542C45E061E0832D0E948D2342E0BE01A1
:10069000635F7F4F832D0E9470238E858F938D859E
:1006A0008F9385E393E09F938F930E94542C46E0B1
:1006B00061E0832D0E948D2342E0BE01635F7F4F86
:1006C000832D0E9470238E858F938D858F9388E56F
:1006D00093E09F938F930E94542C0E94AC1C31E0B6
:1006E00063260FB6F894DEBF0FBECDBFD9CE85E12D
:1006F00092E0909374048093730440E850E065E9BD
:1007000074E08EE694E00E94CF2781E08093760427
:100710008093750480937704809378041092790411
:1007200010927A0410927B0410927C0480E091EE87
:10073000A5EFB5E080937D0490937E04A0937F04A1
:10074000B09380041092810410928204109283046A
:100750001092840480E092ECABEEBBE080938504C1
:1007600090938604A0938704B09388041092890420
:1007700010928A0410928B0410928C0410928D04B3
:1007800010928E0410928F04109290048EE694E0E2
:100790000C94141B63E080E098E00E94D4228F3F09
:1007A00021F48BE691E00C94640E08958091C405C9
:1007B000813011F48FEF089581E08093C40560FFCC
:1007C00015C0739A1092C90580917C00807E809339
:1007D0007C0090917C0080917C00807E892B8093AE
:1007E0007C0088EE93E00E94C72305C0862F8670A8
:1007F00009F76770F9F281E0089573981092C405C3
:100800000E943D08EAE7F0E080818F77808381E0F5
:100810000895613019F48091C90508958FEF089506
:10082000613059F52C3069F42093C90580917C0022
:10083000807E80937C0080917C0090917C0083601E
:1008400012C02D3020F081E00E946E1416C020935B
:10085000C90580917C00807E80937C0080917C0023
:1008600090917C00822B907E892B80937C0088EC79
:1008700090E00E94C72381E008958FEF08950F93C1
:100880001F93CF93DF93CDB7DEB766970FB6F8947B
:10089000DEBF0FBECDBFAE014F5F5F4F66E170E0C0
:1008A0008AEA90E00E944708FE0132966AE975E004
:1008B000CE0148969F0121503109D9011C9100E0D9
:1008C0002081A801422B9A01DB012D933D93BD01AC
:1008D0003296E817F90771F766960FB6F894DEBFFF
:1008E0000FBECDBFDF91CF911F910F910895EAE721
:1008F000F0E083E080838081806880831092C90566
:10090000ACE7B0E08C91807E8C939C918C91807E42
:10091000892B8C9380818F77808308951DB86B9A83
:10092000739A0E9477040E942D088EEE0E942A0876
:100930000E943F041092C40581E0089588EC90E085
:100940000C94C72380917A00806480937A00809110
:100950007A0084FFFCCF0E949E04209178003091A1
:100960007900932F80E0AC01422B9A01C9010895D0
:100970004F925F926F927F928F929F92AF92BF92AF
:10098000CF92DF92EF92FF921F93CF93DF9300D02D
:1009900000D0CDB7DEB7182F8090C0059090C1056C
:1009A000A090C205B090C30580EA881A8FE0980A2B
:1009B000A108B1088092B0059092B105A092B2054D
:1009C000B092B305A5019401C501B4010E94ED2ABE
:1009D00020E030E140E050E00E94332B29833A834D
:1009E0004B835C83C0909A05D0909B05EE24D7FC86
:1009F000E094FE2CF2E0CC0CDD1CEE1CFF1CFA9502
:100A0000D1F7A091A805B091A9050E94E52A20E0A0
:100A100038E040E050E00E94332B29013A01A091D8
:100A20009C05B0919D05A50194010E94E52A20E056
:100A300038E040E050E00E94332B420E531E641E0B
:100A4000751EC40CD51CE61CF71C012E04C0CC0C72
:100A5000DD1CEE1CFF1C0A94D2F7E2E0CE0ED11C86
:100A6000E11CF11CA4E04A2E512C612C712CC70111
:100A7000B601A30192010E94332B69017A012093F0
:100A8000E2053093E3054093E4055093E505A0911A
:100A90009E05B0919F05A50194010E94E52A20E0E2
:100AA00030E240E050E00E94332B49015A01A0910E
:100AB000A605B091A70529813A814B815C810E94EE
:100AC000E52A20E030E041E050E00E94332B820E26
:100AD000931EA41EB51EF2E08F0E911CA11CB11C2A
:100AE000C501B401A30192010E94332B2093CA05D2
:100AF0003093CB054093CC055093CD05A091A00534
:100B0000B091A10530584F4F5F4F0E94DA2A20E084
:100B100030E840E050E00E94332B49015A01209315
:100B2000CE053093CF054093D0055093D105209149
:100B3000DA053091DB054091DC055091DD052C197B
:100B40003D094E095F0960E573EC80E090E004C068
:100B500095958795779567951A95D2F70E94ED2A16
:100B60006093D6057093D7058093D8059093D905E7
:100B700097FD09C0660F771F881F991FA501940173
:100B80000E94112B08C0A50194010E94112B220F75
:100B9000331F441F551F2093DE053093DF0540931C
:100BA000E0055093E105C090DE05D090DF05E090B0
:100BB000E005F090E105C701B60120E031E040E03A
:100BC00050E00E94332BCA01B9010E94ED2A9B011B
:100BD000AC01AEEDBBE00E94DA2A412C512C32016F
:100BE0006394A30192010E94332B49015A0120937F
:100BF000C5053093C6054093C7055093C805A3E4C7
:100C0000B3EEA70196010E94E82AA30192010E9477
:100C1000332B2093B8053093B9054093BA05509310
:100C2000BB05C501B401620F731F841F951F61537B
:100C3000714F8F4F9F4F20E130E040E050E00E9425
:100C4000332B2C0D3D1D4E1D5F1D2093DE05309373
:100C5000DF054093E0055093E105B901CA010F900B
:100C60000F900F900F90DF91CF911F91FF90EF9019
:100C7000DF90CF90BF90AF909F908F907F906F90BC
:100C80005F904F900895CF92DF92EF92FF92809104
:100C9000A4059091A5052091B4053091B50540912A
:100CA000B6055091B705281B390B41095109A09190
:100CB000A205B091A3050E94DA2A20E030E840E0C6
:100CC00050E00E94332B69017A012093C5053093CF
:100CD000C6054093C7055093C8056091AC05709157
:100CE000AD05882777FD8095982FBBE0660F771FAD
:100CF000881F991FBA95D1F72091AE053091AF05A5
:100D0000442737FD4095542F2C0D3D1D4E1D5F1D72
:100D10000E94332B2093B8053093B9054093BA0550
:100D20005093BB05C20ED31EE41EF51EC092C00533
:100D3000D092C105E092C205F092C305C701B60189
:100D4000685F7F4F8F4F9F4F20E130E040E050E0E1
:100D50000E94332B2093BC053093BD054093BE0504
:100D60005093BF05B901CA01FF90EF90DF90CF907B
:100D70000895CF93DF9300D01F92CDB7DEB78EE2F8
:100D80008B83AE014D5F5F4F61E070E084EF90E0D8
:100D90000E94650984E991E10E94C723AE014F5F7B
:100DA0005F4F62E070E086EF90E00E944708398173
:100DB00020E08A81A901482BCA01A0E0B0E080931D
:100DC000B4059093B505A093B605B093B7050F9001
:100DD0000F900F90DF91CF9108950E94B9060C9467
:100DE00043061F93CF93DF9300D000D0CDB7DEB77B
:100DF000182F982F9295990F990F907C9C5C9C834B
:100E0000AE014C5F5F4F61E070E084EF90E00E94C4
:100E1000650984E991E10E94C723AE014F5F5F4FEE
:100E200063E070E086EF90E00E9447088A81498184
:100E300050E060E070E0BA0155274427582B8B81C1
:100E4000480F511D611D711D28E030E0211B310943
:100E500004C075956795579547952A95D2F74093A5
:100E6000DA055093DB056093DC057093DD050F9088
:100E70000F900F900F90DF91CF911F910895CF9316
:100E8000C82F0E94F1068C2FCF910C94B804AF921A
:100E9000BF92DF92EF92FF920F931F93CF93DF9356
:100EA0001F92CDB7DEB75A0180917A008068809397
:100EB0007A00822F8150823018F0243009F094C0DB
:100EC0008091C9058730A0F429830E94A20429815A
:100ED000223021F4F501808391832EC0213009F066
:100EE00035C09695879596958795F50180832EC098
:100EF0008C3071F530E4D32EE12CF12C01E014E0BC
:100F000029830E94A20429818017910708F48C018B
:100F1000E816F90608F47C018DE790E029830E9429
:100F2000C723DA942981D110EBCFE01AF10A2230DD
:100F300029F4F501E082F18281E04FC0213031F4E3
:100F4000F694E794F694E794F501E08280E045C0DA
:100F50008B3069F51092D2051092D3051092D4050A
:100F60001092D5057A99FECF7A9BFECF8091D2055B
:100F70009091D305A091D405B091D5050196A11DFE
:100F8000B11D8093D2059093D305A093D405B0935F
:100F9000D5057A99EBCFF50180838091D3058183C4
:100FA0008091D40582838091D5058383CFCF982FFC
:100FB0009950923058F62430B9F48A3019F40E94CE
:100FC000ED0605C00E94ED0680E00E943F07F50196
:100FD000608371838283938383E090917A009F770B
:100FE00090937A008F5F01C080E00F90DF91CF91E6
:100FF0001F910F91FF90EF90DF90BF90AF900895F9
:101000008230A9F028F4882349F08130D9F409C04E
:101010008430A9F078F08530A9F406C080E00C9403
:101020008E0481E00C94D60385E00C94470782E09F
:101030000C94FD03613061F48091C905089584E04A
:101040000C94100460E08CE00E94121580E008957A
:101050008FEF08958093E705089582E08093B800AC
:101060001092B900E4E6F0E080818F778083ECEBAA
:10107000F0E08081846080830895E4E6F0E0808180
:101080008083ECEBF0E080818B7F80830895292FB3
:1010900030E027703327220F9091E705292B35E6A2
:1010A000F4EAE4E8A22FA160315009F48DC0F09376
:1010B000BC009091BC0097FFFCCF9091B900987F45
:1010C0009093E605903129F0983389F3983009F030
:1010D0007BC02093BB00E093BC009091BC0097FFC5
:1010E000FCCF9091B900987F9093E6059032E1F2A1
:1010F0009833E9F2983109F061C08093BB00E09326
:10110000BC009091BC0097FFFCCF9091B900987FF4
:101110009093E605903359F1983349F2983209F0EB
:101120004DC0F093BC009091BC0097FFFCCF909114
:10113000B900987F9093E605903129F0983309F42F
:10114000B6CF9830D9F5A093BB00E093BC00909146
:10115000BC0097FFFCCF9091B900987F9093E60573
:10116000903419F1983419F0983341F5A0CF20E06C
:1011700030E026C06130710509F494E89093BC001A
:101180008091BC0087FFFCCF8091B900887F80935D
:10119000E605803521F0883589F460E070E08091C3
:1011A000BB0081936150710902C0FA0194EC9F0168
:1011B000241B350B16161706ECF202C02FEF3FEF7B
:1011C00084E98093BC0002C02FEF3FEFC90108956E
:1011D000680F791F9C0127606217730718F0B90127
:1011E0006F5F7F4F392F330F3E702091E705322B11
:1011F000E5E6A4EAF4E8E15009F463C0A093BC007A
:101200002091BC0027FFFCCF2091B900287F2093BC
:10121000E605203129F0283389F3283009F051C040
:101220003093BB00F093BC002091BC0027FFFCCFA3
:101230002091B900287F2093E6052032E1F228337F
:10124000E9F22831C1F58093BB00F093BC002091F6
:10125000BC0027FFFCCF2091B900287F2093E60532
:10126000203329F0283351F2283229F503C020E039
:1012700030E023C0681B790B20E030E0E4E814C0C4
:10128000DA018D91AD018093BB00E093BC008091A9
:10129000BC0087FFFCCF8091B900887F8093E60572
:1012A000883249F42F5F3F4FCB01821B930B1816F6
:1012B000190634F302C02FEF3FEF84E98093BC009E
:1012C00002C02FEF3FEFC9010895CF92DF92EF9256
:1012D000FF920F931F93CF93DF936C018B017A01E1
:1012E000C0E0D0E0A701B801C6010E94E8088F3F26
:1012F0002FEF920761F0C80ED91E081B190BE80EDC
:10130000F91EC80FD91F1016110664F302C0CFEFE3
:10131000DFEFCE01DF91CF911F910F91FF90EF9002
:10132000DF90CF9008958091E6051F928F938AE811
:1013300093E09F938F930E94542C0F900F900F90E7
:101340000F900895909141019F719F31D9F380933F
:101350004201089581E08093EE0508951092EE0514
:101360000895809141018F718F31D9F380914101AE
:101370008F71E1F08F30D1F0809141018F71883011
:1013800031F48091390182608093390109C088E08D
:101390000E94A209809141018F718830D9F7F1CF65
:1013A000809141018F7111F08F30D1F708958091B4
:1013B00041018F718F31D9F3809141018F7111F00B
:1013C0008F3051F4809139018D7F80933901809164
:1013D00041018F718830D9F70895E5E4F1E09081FB
:1013E000907F908390818F70892B80830895E7E5AB
:1013F000F1E080818D7F80830895E7E5F1E08081D1
:10140000826080830895EEE6F1E080818F7E8083A4
:101410000895EEE6F1E080818061808308958093F5
:101420006001909361019093F8058093F70508950A
:101430009093F2058093F105E8E4F1E08081807EED
:1014400080838081682B60830895909369048093E2
:1014500068040895909367048093660408951F9329
:10146000CF93DF9370E27093440170EC7093450169
:1014700060626093480165EC6093490167EA60939C
:101480004B0160E860934C0120936001309361014F
:101490004093620150936301E6E4F1E0C081A081D2
:1014A00060811081C295C695C77070E4C79FE00146
:1014B00011241295169513701C2BA295A695A37056
:1014C00070E1A79FD00111241A2B62956695637075
:1014D000A4E06A9FB0011124162B10936D01608166
:1014E000E08162956695637070E0660F771F6064B7
:1014F000E295E695E370E62BE0936E0110926C01A5
:101500006FEF60934E019093F2058093F105109276
:10151000F3051092F4055093F6054093F5053093CA
:10152000F8052093F7051092F90581E080930306F2
:1015300010921206109202061092EE05DF91CF91E2
:101540001F91089586E10C94A20986E10C94A209EA
:1015500088E00E94A2091092120608953F924F92CD
:101560005F926F927F928F929F92AF92BF92CF9233
:10157000DF92EF92FF920F931F93CF93DF93EC01D3
:101580003B0180910306811102C0CFEF1CC19E81F7
:101590008091F3058F5F8093F30580918101807EB8
:1015A000816090FB85F98F7380648093810188E866
:1015B000809382018091EE05882361F08FEF809304
:1015C00083018AEA9AEA90938901809388018FEFD8
:1015D0009FEF11C08091F3058093830130916101E9
:1015E00020916001932F80E0822B9093890180935A
:1015F0008801888199819093870180938601309139
:10160000630120916201932F80E0822B90938501EA
:10161000809384014A81842F992787FD90956B815F
:101620007C81592F8AE891E00E94D42B8A81855FC2
:1016300080938001309041018FE13822832D8150C9
:101640008230C0F381E13816A9F382E1381691F3B4
:101650008FE1381679F388E0381649F086E03816BD
:1016600031F086E1381619F089E038128ECF86E124
:101670000E94A2098D81811107C089E00E94A20900
:101680008E81882391F00EC08091480180688093FC
:1016900048018091410187FFFCCF8091410186FF85
:1016A00074CFEBCF89E10E94A2096114710499F112
:1016B0008AEF95E00E94451D8091FA059091FB0507
:1016C000A091FC05B091FD0580930406909305065A
:1016D000A0930606B0930706D30120E432E44FE05E
:1016E00050E00E94DA2A0091FE051091FF0520913A
:1016F000000630910106600F711F821F931F6093D7
:1017000008067093090680930A0690930B0684E0FE
:1017100096E00E94361E1092020682E00E94A20904
:10172000412C512C08C08FEF481A580A88EE4816F1
:101730008DEF580621F0809102068823A1F36114F1
:10174000710421F48E8181112DC034C08AEF95E09F
:101750000E94451D8090FA059090FB05A090FC0525
:10176000B090FD05C090FE05D090FF05E09000060A
:10177000F0900106009104061091050620910606DE
:1017800030910706409108065091090660910A06BB
:1017900070910B0683E196E00E94A11D8F3F09F036
:1017A000BACFD0CF8091420182958695877011F093
:1017B000CFEF06C088EE48168DEF5806C9F3C1E09A
:1017C000832D0E94A2098C2FDF91CF911F910F9141
:1017D000FF90EF90DF90CF90BF90AF909F908F9051
:1017E0007F906F905F904F903F90089560E070E021
:1017F0000C94AE0ACF93DF9380910306882341F1C6
:10180000C0914101CF718C2F81508230C8F3C1311A
:10181000B9F3C231A9F3CF3199F3C83021F0C63002
:1018200011F0C631A9F486E10E94A2098091480115
:101830008068809348018091410187FFFCCFD0915F
:1018400041018C2F0E94A209D6FB882780F901C094
:101850008FEFDF91CF91089580910306882309F4DB
:1018600085C080911206882309F47EC080917B0197
:10187000E091F105F091F20590E002972481332781
:1018800027FD3095281739070CF470C0E091F10559
:10189000F091F205809182018083E091F105F09151
:1018A000F205809187019091880192838183E09174
:1018B000F105F091F20580917B018B508383A0911B
:1018C000F105B091F205E091F105F091F205139662
:1018D0009C91848189173CF0E091F105F091F2052B
:1018E000838187FF0DC01092120680914C018F7783
:1018F00080934C0180914C01806880934C0136C0EC
:10190000A091F105B091F205E091F105F091F20599
:1019100013964C91842F992787FD9095592F69E84C
:1019200071E0858196810E94D42BE091F105F091C0
:10193000F2058091800185FB882780F98783E091FB
:10194000F105F091F205809147018087109212060F
:1019500080914C018F7780934C0180914C0180687D
:1019600080934C0181E0089580E008958FEF089501
:101970001F920F920FB60F9211248F9380E88093DD
:101980004F018F910F900FBE0F901F9018951F92CF
:101990000F920FB60F9211248F9381E0809302066D
:1019A00080E480934F018F910F900FBE0F901F9096
:1019B00018951F920F920FB60F9211248F9380E209
:1019C00080934F018F910F900FBE0F901F9018952D
:1019D0001F920F920FB60F9211248F9380E1809384
:1019E0004F018F910F900FBE0F901F9018951F926F
:1019F0000F920FB60F9211240BB60F922F933F93B5
:101A00004F935F936F937F938F939F93AF93BF9306
:101A1000EF93FF9384E080934F01E0916804F0918D
:101A20006904309709F00995FF91EF91BF91AF914B
:101A30009F918F917F916F915F914F913F912F91E6
:101A40000F900BBE0F900FBE0F901F9018951F9216
:101A50000F920FB60F9211248F9382E080934F0163
:101A60008F910F900FBE0F901F9018951F920F929D
:101A70000FB60F9211248F9381E080934F018F91C5
:101A80000F900FBE0F901F901895E9E4F1E0908140
:101A9000907F908390818F70892B808308958FEF42
:101AA00008950895089508958FEF08958091EC05A5
:101AB0009091ED05089580E00895089581E00895DE
:101AC00081E0089581E008950895089508950895A6
:101AD0000895089508950895E7E3F1E08081836013
:101AE0008083989AA09A8DB1806E8DB98EB1806EE8
:101AF0008EB90895E7E3F1E0808183608083989A4E
:101B0000A0988DB1806E8DB98EB1806E8EB908951A
:101B1000CF92DF92EF92FF920F931F93CF93DF93B9
:101B2000CDB7DEB727970FB6F894DEBF0FBECDBF97
:101B30000E94B012E091F105F091F205C080D380CF
:101B400005811681E0840E942C0C18161CF081EA95
:101B500093E006C0F801F080F11007C080EC93E03C
:101B60000E94712C0E94B21232C0F5E0FF1204C034
:101B70008AE090E00E946B2CC80101969F938F939E
:101B80008E2D992787FD90959F93EF921F92FF923C
:101B90001F92CF9282EE93E09F938F930E94542CDA
:101BA0001D830C83FA94F801F082DB821E821F826F
:101BB0008FEF9FEF9A8389830E94B212CE01019624
:101BC0000E94F60B0FB6F894DEBF0FBECDBF27966E
:101BD0000FB6F894DEBF0FBECDBFDF91CF911F913E
:101BE0000F91FF90EF90DF90CF9008951F920F928A
:101BF0000FB60F9211240BB60F922F933F934F9372
:101C00005F936F937F938F939F93AF93BF93EF9364
:101C1000FF9380E001C08F5F90917B018917D8F31B
:101C20008091460187FF04C081E08093120604C0C2
:101C30008BE094E00E94712C88E080934F018091AA
:101C4000460187FF05C08091EE0581110E94880D35
:101C5000FF91EF91BF91AF919F918F917F916F9184
:101C60005F914F913F912F910F900BBE0F900FBE40
:101C70000F901F9018958091C00087FFFCCF809136
:101C8000C0008F778093C0008091C6000895909126
:101C9000C00095FFFCCF9091C0009F7D9093C00045
:101CA0008093C60008958FEF0895813031F48091BC
:101CB000C80087FD07C080E008958111FCCF8091A6
:101CC000C000F7CF81E00895CF93DF93EC0107C008
:101CD0006091C1067091C20690E00E94282CFE011E
:101CE000219684918111F4CFDF91CF91089586E000
:101CF00084B985B988EF8AB980EF8BB982E08EB953
:101D000080E681B9169A08950C94770E8F3F09F4F6
:101D100066C0982F9770923051F130F4992359F0A2
:101D2000913009F05CC015C09430E9F170F1953044
:101D300009F055C046C092B186958695869521E0FA
:101D400030E0082E01C0220F0A94EAF7922B92B9D4
:101D500044C095B186958695869521E030E0082EA1
:101D600001C0220F0A94EAF7922B95B936C098B1B8
:101D700086958695869521E030E0082E01C0220FD9
:101D80000A94EAF7922B98B928C09BB1869586955C
:101D9000869521E030E0082E01C0220F0A94EAF770
:101DA000922B9BB91AC09EB186958695869521E0A7
:101DB00030E0082E01C0220F0A94EAF7922B9EB958
:101DC0000CC091B386958695869521E030E001C0E0
:101DD000220F8A95EAF7922B91BB81E008958FEF4D
:101DE00008958F3F09F46DC0982F9770923069F174
:101DF00030F4992361F0913009F063C017C094303A
:101E000009F441C088F1953009F05BC04BC092B134
:101E100086958695869521E030E0082E01C0220F38
:101E20000A94EAF72095292322B949C095B18695ED
:101E30008695869521E030E0082E01C0220F0A9495
:101E4000EAF72095292325B93AC098B18695869559
:101E5000869521E030E0082E01C0220F0A94EAF7AF
:101E60002095292328B92BC09BB186958695869508
:101E700021E030E0082E01C0220F0A94EAF72095F5
:101E800029232BB91CC09EB186958695869521E0A5
:101E900030E0082E01C0220F0A94EAF7209529238A
:101EA0002EB90DC091B386958695869521E030E0D8
:101EB00001C0220F8A95EAF72095292321BB81E0F2
:101EC00008958FEF08958F3F39F1982F97709230D2
:101ED00081F028F4992349F09130F1F408C094304E
:101EE00061F048F09530C1F40AC020B109C023B1B7
:101EF00007C026B105C029B103C02CB101C02FB164
:101F000030E086958695869502C0359527958A9509
:101F1000E2F7822F817008958FEF08958F3F09F4C3
:101F2000E7C0982F9770923009F456C030F4992387
:101F300069F0913009F0DCC02CC0943009F492C0F3
:101F400008F46DC0953009F0D3C0AFC020B18695BC
:101F50008695869530E0082E02C0359527950A941F
:101F6000E2F792B120FD0AC021E030E0082E01C066
:101F7000220F0A94EAF7922B92B921C021E030E0B7
:101F8000082E01C0220F0A94EAF72095292322B9CE
:101F900016C023B186958695869530E0082E02C03E
:101FA000359527950A94E2F795B120FD0AC021E006
:101FB00030E001C0220F8A95EAF7922B95B981E0B3
:101FC000089521E030E0082E01C0220F0A94EAF7BC
:101FD0002095292325B9F3CF26B186958695869538
:101FE00030E0082E02C0359527950A94E2F798B1A3
:101FF00020FD0AC021E030E0082E01C0220F0A9423
:10200000EAF7922B98B9DBCF21E030E0082E01C02F
:10201000220F0A94EAF72095292328B9D0CF29B1B5
:1020200086958695869530E0082E02C035952795D1
:102030000A94E2F79BB120FD0AC021E030E0082EAF
:1020400001C0220F0A94EAF7922B9BB9B8CF21E086
:1020500030E0082E01C0220F0A94EAF720952923C8
:102060002BB9ADCF2CB186958695869530E0082E9C
:1020700002C0359527950A94E2F79EB120FD0AC06B
:1020800021E030E0082E01C0220F0A94EAF7922BDB
:102090009EB995CF21E030E0082E01C0220F0A94AE
:1020A000EAF7209529232EB98ACF2FB186958695F8
:1020B000869530E0082E02C0359527950A94E2F700
:1020C00091B320FD0AC021E030E0082E01C0220FAC
:1020D0000A94EAF7922B91BB72CF21E030E0082EF0
:1020E00001C0220F0A94EAF72095292321BB67CF6C
:1020F0008FEF08958F3F09F4E5C0982F9770611115
:102100007DC0923099F130F4992361F0913009F05B
:10211000D9C01AC0943009F44DC0D0F1953009F0FF
:10212000D1C05AC091B186958695869521E030E060
:1021300001C0220F8A95EAF7822F8095892381B901
:1021400082B1822B82B9BCC094B186958695869562
:1021500021E030E001C0220F8A95EAF7822F8095B6
:10216000892384B985B1822B85B9AAC097B1869598
:102170008695869521E030E001C0220F8A95EAF726
:10218000822F8095892387B988B1822B88B998C01E
:102190009AB186958695869521E030E001C0220FA0
:1021A0008A95EAF7822F809589238AB98BB1822B91
:1021B0008BB986C09DB186958695869521E030E0E5
:1021C00001C0220F8A95EAF7822F809589238DB965
:1021D0008EB1822B8EB974C090B386958695869504
:1021E00021E030E001C0220F8A95EAF7822F809526
:1021F000892380BB81B3822B81BB62C0923051F1B5
:1022000030F4992359F0913009F05CC015C0943036
:10221000E9F170F1953009F055C046C091B186954D
:102220008695869521E030E0082E01C0220F0A94A1
:10223000EAF7922B91B944C094B18695869586951C
:1022400021E030E0082E01C0220F0A94EAF7922B19
:1022500094B936C097B186958695869521E030E091
:10226000082E01C0220F0A94EAF7922B97B928C0D2
:102270009AB186958695869521E030E0082E01C0BA
:10228000220F0A94EAF7922B9AB91AC09DB186954B
:102290008695869521E030E0082E01C0220F0A9431
:1022A000EAF7922B9DB90CC090B3869586958695DA
:1022B00021E030E001C0220F8A95EAF7922B90BB13
:1022C00081E008958FEF0895811106C080B1869551
:1022D000817091E0892708958FEF0895009711F498
:1022E00083E20DC08130910511F48BE208C0823089
:1022F000910511F483E303C0039729F48BE30E9453
:102300008E0F81E008958FEF0895009711F483E216
:102310000DC08130910511F48BE208C08230910527
:1023200011F483E303C0039729F48BE30E94860E24
:1023300081E008958FEF0895009711F483E20DC0B6
:102340008130910511F48BE208C08230910511F4BF
:1023500083E303C0039729F48BE30E94F10E81E02D
:1023600008958FEF0895882319F085B78F7E02C0F6
:1023700085B7806185BF81E008959091C80095FF81
:10238000FCCF8093CE0008959093C5008093C40045
:1023900086E08093C200E1ECF0E080818B7F808357
:1023A000A0ECB0E08C9182608C9380818861808306
:1023B00008959093CD008093CC0086E08093CA006E
:1023C000E9ECF0E080818B7F8083A8ECB0E08C9119
:1023D00082608C9380818861808308950E94C411FB
:1023E0006BE37EE087E49EE00E94DD2B9093C206C3
:1023F0008093C1066BE37EE087E49EE00E94DD2BC4
:102400009093C0068093BF0608958091C80087FF0F
:10241000FCCF8091C8008F778093C8008091CE0058
:10242000089500000000000000000197D1F7089512
:102430000C942F2D0E94372D0895EF92FF920F9349
:102440001F93CF93DF93EC0180E090E00E942F2D4B
:10245000F82E8B8381E090E00E942F2DE82E8A8356
:1024600082E090E00E942F2D082F898383E090E086
:102470000E942F2D182F888384E090E00E942F2D3A
:102480009E2D9F0D900F910F891302C081E001C016
:102490008FEFDF91CF911F910F91FF90EF900895F3
:1024A000CF93DF93EC0185E090E00E942F2D88838D
:1024B00081E0DF91CF910895FC01608186E090E09A
:1024C0000E94372D81E00895CF93DF93EC0186E0E1
:1024D00090E00E942F2D888381E0DF91CF910895B5
:1024E0000F931F93CF93DF93EC0108E010E0C80136
:1024F0000E942F2D89930F5F1F4F08311105B9F7E7
:1025000081E0DF91CF911F910F9108950F931F9359
:10251000CF93DF93EC0108E010E06991C8010E94BD
:10252000372D0F5F1F4F08311105B9F781E0DF919B
:10253000CF911F910F910895CF93DF93EC0187E026
:1025400090E00E942F2D888381E0DF91CF91089544
:10255000FC01608187E090E00E94372D81E00895C2
:10256000F8940895789408950E94B012FFCFCF9305
:10257000DF93CDB7DEB7A3970FB6F894DEBF0FBEDB
:10258000CDBF0E94F016809389068F3F21F460E052
:102590008EE00E9412150E94922580FF04C060E028
:1025A00086E00E94121510928C0610929A061092E4
:1025B000990610928B0610928A0610929B06109232
:1025C00098068FEF8093820680938406809383061B
:1025D00080938506809387068093860693E6909382
:1025E000270680932506909348068093460690938D
:1025F00069068093670641EA56E05093A00640932F
:102600009F068CE996E09093A3068093A20626EAA3
:1026100036E03093A5062093A4065093A806409375
:10262000A7064BEA56E05093AA064093A9063093BA
:10263000AD062093AC0610929E0610929D06109255
:10264000AF061092AE0610928F0610928E069093EF
:102650001C0680931B0662E670E2CE0101960E9482
:10266000CB2740E850E06AE175E0CE0101960E9478
:10267000CF2785E580931A0519861C861D861E8640
:102680001F86188A198A1A8A1B8A1C8A1D8A1E8A22
:102690001F8A188E198E1A8E1B8E1C8E1D8E1E8EF2
:1026A0001F8E18A219A21AA21BA281E0888792E0AD
:1026B0009A878B87CE0101960E94141BA3960FB6B2
:1026C000F894DEBF0FBECDBFDF91CF910895C5E274
:1026D000D6E0F12CD8808FEFD81206C0F394A196E3
:1026E00093E0F912F7CF14C005E216E0E12CFE14D6
:1026F00041F0F8018081D81204C06D2D85E00E9460
:102700001215E3940F5D1F4FF3E0EF12F0CFE6CF09
:102710000E94111A91E28902F0011124E35EF94F3F
:10272000828580939B06F0939A06E0939906F09336
:102730008B06E0938A0680938C060E9453280E94A1
:102740003D280E945728FFCFAF92BF92CF92DF92D1
:10275000EF92FF920F931F93CF93DF931F92CDB70A
:10276000DEB75C016B017A01DC0119968C91199737
:10277000823021F0809188068C9302C0F50110828E
:1027800080918806833020F060E087E00E94121577
:10279000D50119968C91823029F0809188068F5F3F
:1027A0008093880680918806811103C081E0809320
:1027B0008806F501308121E23203F0011124E35E45
:1027C000F94FD182C082D50118968C9118978287D3
:1027D0003C913203F0011124E35EF94F83E08187DD
:1027E0003C913203F0011124E35EF94F30870C91E4
:1027F000020380011124035E194FF8011582C501FF
:102800000B960E94C41ED8015C969C938E935B9796
:10281000F50103851485258536850E3311052105BF
:10282000310520F0608186E10E941215D5010C91DE
:10283000112707FD1095C5014B960E94C41E41E269
:10284000409FD001419FB00D1124A35EB94F569611
:102850009C938E935597F501008104038001112408
:10286000035E194FD80155968D919C9156975B96B2
:102870002D913C915C97820F931F58969C938E9359
:102880005797C501439649830E94C41EF801968F4D
:10289000858FD5012C9149812403F0011124E35E39
:1028A000F94F858D968D928F818F81E090E090A376
:1028B000878FF382E28281E084870F90DF91CF914E
:1028C0001F910F91FF90EF90DF90CF90BF90AF904E
:1028D00008950C94862085E690E00895E09199068D
:1028E000F0919A0684870895E0919906F0919A06EE
:1028F0008485089520911905222341F0FB0120834E
:1029000020916C04FC01208381E0089580E008950B
:1029100080911905882309F483C00E94B0128AE8C7
:1029200091E00E94640E80916C041F928F9382E369
:1029300093E09F938F930E94542C86E991E00E942C
:10294000640E0F900F900F900F90809119058831B1
:1029500010F0109219058091190590E0FC01319753
:10296000E631F10508F046C0E057FF4F0C94AE2B5E
:102970008AE991E041C086ED91E03EC08DEF91E0A3
:102980003BC081E192E038C087E292E035C082E44A
:1029900092E032C088E592E02FC080E792E02CC040
:1029A00083E892E029C086E992E026C084EB92E0B9
:1029B00023C089ED92E020C085EE92E01DC080E04A
:1029C00093E01AC08FE093E017C083E293E014C055
:1029D00084E393E011C088E493E00EC088E693E0BE
:1029E0000BC080E893E008C08BE993E005C08CEA57
:1029F00093E002C08BEB93E00E94640E6091C106ED
:102A00007091C2068DE090E00E94282C6091C10672
:102A10007091C2068AE090E00E94282C109219055D
:102A200080E008958093190560936C040C948814D9
:102A300080931905E0919906F0919A06808580931C
:102A40006C040C948814CF93DF931F92CDB7DEB73C
:102A5000198207C080ED97E00E94C72389818F5FAC
:102A6000898389818436B0F30F90DF91CF910895E7
:102A700081E090E00E949C110E94231581E090E08B
:102A80000E9485110C94231581E090E00E949C1116
:102A90000E9423150E9423150E94231581E090E0D7
:102AA0000E9485110C942315FF920F931F93CF93CF
:102AB000DF9300D01F92CDB7DEB71F928F9382E3D2
:102AC00093E09F938F938E010F5F1F4F1F930F9380
:102AD0000E94A02C0F900F900F900F900F900F90CE
:102AE000F12C6FC0F801E80FF91F80818433B9F130
:102AF00068F48133E9F020F4803309F05BC015C03D
:102B0000823309F1833309F055C022C08733C1F104
:102B100030F4853369F1863309F04CC02CC088331A
:102B2000B1F1893309F046C03BC00E94441502C090
:102B30000E9438150E9444150E9444150E944415B5
:102B40000E94441537C00E9438150E943815F4CFF2
:102B50000E9438150E9438150E943815EFCF0E9448
:102B600038150E9438150E9438150E943815E8CF94
:102B70000E94381502C00E9444150E94381504C0F6
:102B80000E9444150E9444150E94381506C00E94F8
:102B900044150E9444150E9444150E94381508C02F
:102BA0000E9444150E9444150E9444150E94441539
:102BB0000E9438150E9423150E9423150E94231598
:102BC000F394F80101900020E9F73197E01BF10B35
:102BD0008F2D90E08E179F0708F484CF0F900F90F1
:102BE0000F90DF91CF911F910F91FF9008955F9209
:102BF0006F927F928F929F92AF92BF92CF92DF920D
:102C0000EF92FF920F931F93CF93DF9382EC93E0A9
:102C10000E94640EE0919906F0919A062085822F19
:102C2000992787FD90959F932F9384E294E09F933B
:102C30008F930E94542CE0919906F0919A06C281DC
:102C4000D381DF93CF9388E594E09F938F930E9485
:102C5000542C88811F928F938DE294E09F938F93E1
:102C60000E94542CE0919906F0919A0681818F93ED
:102C700080818F938AE394E09F938F930E94542CDA
:102C800080919A068F93809199068F9384E494E0C3
:102C90009F938F930E94542C0DE116E0EDB7FEB781
:102CA00074960FB6F894FEBF0FBEEDBFC0E0D0E043
:102CB00084E5882E84E0982E9DE2A92E94E0B92E1A
:102CC0002AE3C22E24E0D22E31E2532E44E4E42E35
:102CD00044E0F42EF801628073807F926F92DF935C
:102CE000CF939F928F920E94542CF30180811F9268
:102CF0008F93BF92AF920E94542CF80181818F93E1
:102D000080818F93DF92CF920E94542C5C9EC001F1
:102D10005D9E900D1124835E994F9F938F93FF9238
:102D2000EF920E94542C21960F5D1F4F8DB79EB7D6
:102D300042960FB6F8949EBF0FBE8DBFC330D1052B
:102D400049F6DF91CF911F910F91FF90EF90DF90A7
:102D5000CF90BF90AF909F908F907F906F905F903B
:102D60000895CF93DF93E0919906F0919A06C2817E
:102D7000D3818881853539F00E94F71581E00E9462
:102D8000181585E58883E0919906F0919A0680816F
:102D900091818115924438F00E94F71582E1DF910C
:102DA000CF910C941815DF91CF91089521E2820202
:102DB000F0011124E35EF94FA281B3818C91853536
:102DC00019F085E58C9308C080819181811592442A
:102DD00028F082E10E9418158FEF089581E0089590
:102DE0000F931F93009191041091920420919304EA
:102DF0003091940480E090E0B901A801082E04C04D
:102E000076956795579547950A94D2F740FD19C076
:102E100041E050E060E070E0082E04C0440F551F10
:102E2000661F771F0A94D2F7402B512B622B732B0E
:102E3000409391045093920460939304709394048C
:102E400005C0019680329105B9F68FEF1F910F9161
:102E50000895E0919906F0919A06658576858785B3
:102E600090890895CF92DF92EF92FF920F931F9374
:102E7000CF93DF931F92CDB7DEB7C12CD12C760153
:102E8000C394082E04C0CC0CDD1CEE1CFF1C0A945D
:102E9000D2F7409191045091920460919304709103
:102EA00094044C215D216E217F21452B462B472B1D
:102EB00009F463C089830E94B012E6E2F6E097014C
:102EC0008601009510952095309593E08981DF016A
:102ED00011974C914F3F49F144815581668177812B
:102EE0004C155D056E057F0541F41086118612862E
:102EF0001386DF0112971C9290834481558166816D
:102F0000778140235123622373234483558366834F
:102F100077834085518562857385402351236223E1
:102F200073234087518762877387B19646E0E938FB
:102F3000F40769F64EEF5FEF6FEF7FEF04C0440FC9
:102F4000551F661F771F8A95D2F780919104909143
:102F50009204A0919304B091940484239523A62312
:102F6000B7238093910490939204A0939304B09319
:102F700094040E94B21281E001C08FEF0F90DF91A4
:102F8000CF911F910F91FF90EF90DF90CF90089518
:102F90000F931F9341E050E060E070E004C0440FE5
:102FA000551F661F771F8A95D2F7E0919906F09119
:102FB0009A0685859685A785B0898A019B01082395
:102FC00019232A233B23012B022B032BD1F04095FD
:102FD00050956095709584239523A623B723858704
:102FE0009687A787B08B81899289A389B489842326
:102FF0009523A623B723818B928BA38BB48B81E07F
:1030000001C08FEF1F910F9108954091910450914D
:1030100092046091930470919404082E04C07695F4
:103020006795579547950A94D2F740FF1DC0E091E8
:103030009906F0919A0641E050E060E070E004C02B
:10304000440F551F661F771F8A95D2F78585968591
:10305000A785B089842B952BA62BB72B85879687C0
:10306000A787B08B81E008958FEF0895CF92DF920C
:10307000EF92FF921F93CF93DF93C12CD12C760157
:10308000C39404C0CC0CDD1CEE1CFF1C8A95D2F747
:103090008091910490919204A0919304B091940432
:1030A0008C219D21AE21BF21892B8A2B8B2B11F4E2
:1030B00081E040C00E94B012E4E2F6E0C6E2D6E051
:1030C00010E023E080818130A9F482859385A48576
:1030D000B5858C219D21AE21BF21892B8A2B8B2B7D
:1030E00049F02883178616861082C286D386E48626
:1030F000F58611E08081823091F482859385A485E4
:10310000B5858C159D05AE05BF0549F42883178646
:1031100016861082128613861486158611E0B196E3
:10312000A19686E0E738F80769F60E94B2121111FD
:1031300005C082E00E946E148FEF01C081E0DF9134
:10314000CF911F91FF90EF90DF90CF9008950F9354
:103150001F93E0919906F0919A06058516852785BB
:1031600030890623172328233923012B022B032B15
:1031700019F1618B728B838B948B21E02783DC01A7
:10318000CB010090890604C0B695A79597958795C1
:103190000A94D2F780FF03C00E94F21B04C080E0B3
:1031A00090E00E94191CE0919906F0919A0601891D
:1031B00012892389348903C000E010E09801B80126
:1031C000C9011F910F9108959091980691111CC00B
:1031D000909182069F3F31F0909185069F3F21F4A8
:1031E00021E003C020E001C022E030E0F901EE0F51
:1031F000FF1FE20FF31FEE57F94F82838083618335
:1032000081E08093980602C0E0E0F0E0CF010895ED
:1032100026E08238920729F08558964021F481E013
:10322000089580E008958FEF08950E9408198F3F58
:1032300011F481E002C0823021F40E946E148FEFFD
:103240000895992787FD9095FC01EE0FFF1FE80F69
:10325000F91FEE57F94F8FEF80838283818380912E
:10326000980681508093980681E00895CF92DF926E
:10327000EF92FF920F931F93CF93DF931F92CDB7DF
:10328000DEB70E9408198F3F11F481E002C082303E
:1032900021F40E946E148FEF49C0282F332727FD99
:1032A00030958901000F111F020F131F0E57194F80
:1032B000D80112962C9112979C912917B4F5898305
:1032C0000E94B012F80192819F5F9283E09199066B
:1032D000F0919A061482E4E2F6E006E216E08981B3
:1032E000C82EDD24C7FCD094ED2CFD2C23E03081CA
:1032F000323091F442855385648575854C155D05A2
:103300006E057F0549F4D8012C9317861686108226
:103310001286138614861586B1960F5D1F4FB6E090
:10332000E738FB0721F70E94B21281E00F90DF918E
:10333000CF911F910F91FF90EF90DF90CF90089564
:103340000F931F93CF93DF931F92CDB7DEB70E94E9
:1033500008198F3F11F481E002C0823021F40E94ED
:103360006E148FEF40C089830E94B0128981082FAC
:10337000112707FD1095F801EE0FFF1FE00FF11F59
:10338000EE57F94F9281911116C0E0919906F09194
:103390009A06978192609783992787FD9095A92F28
:1033A000B92F818B928BA38BB48B0E94B21280E0D9
:1033B00090E00E94191CF801EE0FFF1FE00FF11FB3
:1033C000EE57F94F828181508283A0919906B09186
:1033D0009A0681811B968C931B9781E014968C939F
:1033E0000E94B21281E00F90DF91CF911F910F9157
:1033F00008950E9408198F3F11F481E002C08230C5
:1034000021F40E946E148FEF0895992787FD9095FF
:10341000FC01EE0FFF1FE80FF91FEE57F94F8281F5
:103420000895E0918E06F0918F0680810895E091D5
:103430008E06F0918F0603C00380F481E02D309753
:10344000D9F70895CF92DF92EF92FF920F931F93D7
:10345000CF93DF93E0911B06F0911C06309709F49F
:103460008AC040918E0650918F064115510509F48E
:1034700046C0DA0191E2692F782F7603900111247A
:10348000235E394F8901065F1F4F7901C4E0EC0EBE
:10349000F11C255F3F4F6C9170E0969FE001979F74
:1034A000D00D1124C35ED94FDC80DD2029F0DB84F0
:1034B000E801C880DC1428F1E701D880DD2061F044
:1034C000969FE001979FD00D1124C35ED94FDA84F7
:1034D000E901C880DC14A8F0969FE001979FD00D09
:1034E0001124C35ED94F7A85E8016881761748F0C8
:1034F00013960D90BC91A02D109769F602C0A0E024
:10350000B0E08083C381D481D0931C06C0931B0696
:10351000A417B507B1F4109749F0B483A3831282BE
:1035200011821296FC93EE93119706C014821382B7
:1035300012821182FA83E983F0938F06E0938E065C
:103540001AC011968D919C911297AC17BD0759F036
:1035500092838183B483A3831196CD91DC911297DA
:10356000FC83EB8304C014821382928381831296BE
:10357000FC93EE931197DF91CF911F910F91FF90E4
:10358000EF90DF90CF900895CF93DF93E0918E0678
:10359000F0918F06309709F444C0992787FD9095E4
:1035A000208130E02817390781F4A381B481B093DA
:1035B0008F06A0938E0612961C921E92119718C029
:1035C0000380F481E02D309761F1208130E02817ED
:1035D0003907B1F7C181D281838194819C838B8328
:1035E000A381B481109721F01296DC93CE931197AA
:1035F000A0911B06B0911C06109739F4F0931C069D
:10360000E0931B06148213820AC0B483A38312962C
:10361000FC93EE931197F0931C06E0931B06128225
:103620001182DF91CF910895EF92FF920F931F9334
:10363000CF93DF93EC014B815C8169817A818D812D
:103640009E810E94EE272F81222371F04B815C81A5
:10365000E12CF12C00E010E020E030E0BC01CE01D4
:103660000E94A4131F820CC0E88121E2E202F00153
:103670001124E35EF94F2185233099F491838083EF
:10368000E88181E2E802F0011124E35EF94F8589C7
:103690009689892B41F482E0818788810E94221AD1
:1036A00002C08FEF01C081E0DF91CF911F910F9198
:1036B000FF90EF9008951F93CF93DF93CDB7DEB7C0
:1036C00028970FB6F894DEBF0FBECDBF29833A838B
:1036D0004B835C836D837E838F8398870E94B012B7
:1036E0000E941625182FCE0101960E94C41E833019
:1036F000910560F0E0919906F0919A06810F911D75
:10370000968B858B0E94B21281E001C08FEF2896C4
:103710000FB6F894DEBF0FBECDBFDF91CF911F91E2
:1037200008950E94C027E0919906F0919A0685813C
:103730008111F7CF0895FF920F931F93CF93DF93DB
:10374000CDB7DEB728970FB6F894DEBF0FBECDBF5A
:1037500029833A834B835C836D837E838F83988731
:103760000E94B1160E94B012E0919906F0919A065B
:1037700081E0858381E090E090A3878F0E941625E9
:10378000F82ECE0101960E94C41EE0919906F09198
:103790009A060F2D10E0800F911F968B858B87EF77
:1037A0008F1578F00E94AF240F5F1F4F282F30E055
:1037B0000217130734F48F2D8E5F809318050E9433
:1037C000B3240E94B2120E94911B81E028960FB68A
:1037D000F894DEBF0FBECDBFDF91CF911F910F9147
:1037E000FF900895CF930E94B012E0919906F09156
:1037F0009A0681E0858386830E941625C82F883F1C
:1038000088F40E94AF242C2F30E02F5F3F4F482FC9
:1038100050E02417350734F48C2F8E5F8093180501
:103820000E94B3240E94B2120E94911B81E0CF91AA
:103830000895CF93DF93EC010E94B012E0919906B6
:10384000F0919A0681E08583D68BC58B0E94162560
:10385000C82F883F88F40E94AF242C2F30E02F5FC0
:103860003F4F482F50E02417350734F48C2F8E5FDC
:10387000809318050E94B3240E94B2120E94911BEB
:1038800081E0DF91CF910895FF920F931F93CF9323
:10389000DF938C010E94B012E0919906F0919A0694
:1038A00081E085830E941625F82EE0919906F0911B
:1038B0009A06C82FD0E00C0F1D1F168B058B87EFC3
:1038C0008F1570F00E94AF242196282F30E0C21788
:1038D000D30734F48F2D8E5F809318050E94B32494
:1038E0000E94B2120E94911B81E0DF91CF911F9143
:1038F0000F91FF900895CF93DF93EC010E94B116D2
:10390000209711F4C1E0D0E00E94B012E091990636
:10391000F0919A0681E08583D0A3C78F0E94162577
:10392000C82F883F88F40E94AF242C2F30E02F5FEF
:103930003F4F482F50E02417350734F48C2F8E5F0B
:10394000809318050E94B3240E94B2120E94911B1A
:1039500081E0DF91CF910895CF930E94B1160E942C
:10396000B012E0919906F0919A0681E090E090A360
:10397000878F81E085830E941625C82F883F88F4B1
:103980000E94AF242C2F30E02F5F3F4F482F50E094
:103990002417350734F48C2F8E5F809318050E940E
:1039A000B3240E94B2120E94911B81E0CF9108952E
:1039B000E0919906F0919A0680850E94C41AE091E0
:1039C0009906F0919A0684E081870E94AC1C81E000
:1039D00008958F929F92AF92BF92CF92DF92EF9213
:1039E000FF920F931F93CF93DF93CDB7DEB760970E
:1039F0000FB6F894DEBF0FBECDBF29873A874B873D
:103A00005C876D877E878F87988BCE0101960E9499
:103A1000451D89809A80AB80BC80CD80DE80EF80A0
:103A2000F88409851A852B853C854D855E856F85D3
:103A30007889CE0109960E94A11D8F3F61F02985EA
:103A40003A854B855C856D857E858F8598890E943A
:103A50009B1B81E001C08FEF60960FB6F894DEBF2C
:103A60000FBECDBFDF91CF911F910F91FF90EF90CF
:103A7000DF90CF90BF90AF909F908F900895E0918E
:103A80009906F0919A0680850895CF92DF92EF9281
:103A9000FF92CF93DF93EC011C821D821E821F8256
:103AA0008091900690919106A0919206B091930614
:103AB00088839983AA83BB83C0909406D09095068F
:103AC000E0909606F0909706CC82DD82EE82FF822F
:103AD0000E941625A82FB0E023EB36EE4EE050E012
:103AE0000E94DA2A6C0D7D1D8E1D9F1D6C837D83C7
:103AF0008E839F8313C09A5CAA49BB438C839D83AA
:103B0000AE83BF83488159816A817B814F5F5F4F5C
:103B10006F4F7F4F488359836A837B838C819D815C
:103B2000AE81BF8181152AEC92072AE9A2072BE317
:103B3000B20708F7DF91CF91FF90EF90DF90CF9021
:103B400008956F927F928F929F92AF92BF92CF9281
:103B5000DF92EF92FF920F931F93CF93DF93CDB736
:103B6000DEB760970FB6F894DEBF0FBECDBF3C0145
:103B700009831A832B833C834D835E836F8378870D
:103B800089869A86AB86BC86CD86DE86EF86F88AE5
:103B9000C980DA80EB80FC808D819E81AF81B88501
:103BA00009851A852B853C854D855E856F857889CD
:103BB000C016D106E206F30608F442C00C151D0536
:103BC0002E053F0599F484179507A607B707C0F19E
:103BD000841B950BA60BB70BF30184839583A683F7
:103BE000B783108211821282138228C0841795072E
:103BF000A607B70790F4F1E0CF1AD108E108F10861
:103C0000C01AD10AE20AF30AF301C082D182E28229
:103C1000F3829653A546B44C09C0C01AD10AE20AF1
:103C2000F30AF301C082D182E282F382841B950BF6
:103C3000A60BB70B84839583A683B78381E001C06D
:103C40008FEF60960FB6F894DEBF0FBECDBFDF9149
:103C5000CF911F910F91FF90EF90DF90CF90BF9089
:103C6000AF909F908F907F906F900895FC0113C04C
:103C70005A5C6A497B4344835583668377834081DA
:103C80005181628173814F5F5F4F6F4F7F4F4083E0
:103C900051836283738344815581668177814115A5
:103CA0008AEC58078AE968078BE3780708F70895D4
:103CB0008F929F92AF92BF92CF92DF92EF92FF923C
:103CC0000F931F93CF93DF93CDB7DEB760970FB6F7
:103CD000F894DEBF0FBECDBF09831A832B833C83CC
:103CE0004D835E836F83788789869A86AB86BC8690
:103CF000CD86DE86EF86F88A49855A856B857C8578
:103D000009811A812B813C81400F511F621F731F53
:103D1000FC0140835183628373834D855E856F858B
:103D200078890D811E812F813885400F511F621FB8
:103D3000731F44835583668377830E94361E81E018
:103D400060960FB6F894DEBF0FBECDBFDF91CF9166
:103D50001F910F91FF90EF90DF90CF90BF90AF90A9
:103D60009F908F9008956093900670939106809332
:103D70009206909393062093940630939506409371
:103D800096065093970608952F923F924F925F9216
:103D90006F927F928F929F92AF92BF92CF92DF925B
:103DA000EF92FF920F931F93CF93DF93CDB7DEB7C0
:103DB00062970FB6F894DEBF0FBECDBFFC01408006
:103DC00051806280738064817581868197814114FE
:103DD00051046104710409F46CC0F2E44F165104FB
:103DE0006104710408F06CC07B018C0120E030E0BC
:103DF000A9016983FA820B831C832D833E834F8341
:103E00005887E0E0F0E0B0E0A0E0198A1A8A312C8F
:103E1000812C912C01C093949F014B2F5A2F6989BB
:103E20007A89832D982DA980BA80CB80DC80ED80A3
:103E3000FE800F8118850E94B42B222E39874A8775
:103E40005B876C877D878E879F879F014B2F5A2FBB
:103E500069897A89832D982D36534546544C6F4F86
:103E60007F4F8F4F9F4FF901B42FA52F698B7A8B0E
:103E7000382E892E492D50E060E070E0441555053C
:103E80006605770540F283EBA82E96EEB92E2EE05C
:103E9000C22ED12CE12CF12C00E010E0222D39852E
:103EA0004A855B856C857D858E859F850E94512B1B
:103EB00009C023EB36EE4EE050E00E94112B02C009
:103EC00020E030E0C90162960FB6F894DEBF0FBE65
:103ED000CDBFDF91CF911F910F91FF90EF90DF90B9
:103EE000CF90BF90AF909F908F907F906F905F909A
:103EF0004F903F902F900895CF92DF92EF92FF92D4
:103F0000CF93DF93CDB7DEB728970FB6F894DEBF17
:103F10000FBECDBF6B017C013AE0F694E794D794D5
:103F2000C7943A95D1F7C982DA82EB82FC829B0171
:103F3000AC0133704427552763EB76EE8EE090E0BA
:103F40000E94ED2A2C2D3A814B815C8128960FB678
:103F5000F894DEBF0FBECDBFDF91CF91FF90EF9001
:103F6000DF90CF9008952F923F924F925F926F9281
:103F70007F928F929F92AF92BF92CF92DF92EF92F9
:103F8000FF920F931F93CF93DF93CDB7DEB7629766
:103F90000FB6F894DEBF0FBECDBFFC01408051804C
:103FA0006280738064817581868197814114510498
:103FB0006104710409F465C07B018C0120E030E0EC
:103FC000A9016983FA820B831C832D833E834F836F
:103FD0005887E0E0F0E0B0E0A0E0198A1A8A312CBE
:103FE000812C912C01C093949F014B2F5A2F6989EA
:103FF0007A89832D982DA980BA80CB80DC80ED80D2
:10400000FE800F8118850E94B42B222E39874A87A3
:104010005B876C877D878E879F879F014B2F5A2FE9
:1040200069897A89832D982D36534546544C6F4FB4
:104030007F4F8F4F9F4FF901B42FA52F698B7A8B3C
:10404000382E892E492D50E060E070E0441555056A
:104050006605770540F243EBA42E56EEB52E6EE0D2
:10406000C62ED12CE12CF12C00E010E0222D398558
:104070004A855B856C857D858E859F850E94512B49
:1040800006C023EB36EE4EE050E00E94112BB90142
:10409000CA0162960FB6F894DEBF0FBECDBFDF91A6
:1040A000CF911F910F91FF90EF90DF90CF90BF9035
:1040B000AF909F908F907F906F905F904F903F90C8
:1040C0002F900895C1E0D2E00E94B1160E94AF2463
:1040D000843028F4C0938D060E94C02708C08AE06F
:1040E00090E00E94C723D0938D060E94B427809150
:1040F0001A05853519F088E00E94181580917E41D7
:10410000853511F388E00E941815DECF2F923F927B
:104110004F925F926F927F928F929F92AF92BF92D7
:10412000CF92DF92EF92FF920F931F93CF93DF9383
:1041300000D000D01F92CDB7DEB70E94E3230E94CB
:10414000B0120E9402240E940A249A8389838AEF73
:104150000E94B324A0911805B0E023EB36EE4EE0A8
:1041600050E00E94DA2A6B017C01809194069091C4
:104170009506A0919606B0919706C80ED91EEA1E24
:10418000FB1EC701B6010E94112BC61AD70AE80A06
:10419000F90A8091900690919106A0919206B091B3
:1041A000930673EB872E76EE972E7EE0A72EB12C2A
:1041B00012C02AECD21A2AE9E20A2BE3F20AC7015A
:1041C000B601A50194010E94112BC61AD70AE80A6C
:1041D000F90AD301C201412C512C32014394480EFB
:1041E000591E6A1E7B1EC114EAECDE06EAE9EE06E1
:1041F000EBE3FE06F0F68093900690939106A09371
:104200009206B0939306C0929406D0929506E092DF
:104210009606F0929706E0919906F0919A068581AC
:104220008823C1F081858430A9F08781823009F428
:1042300005C0882341F08681811102C085E001C05C
:1042400083E0818704C083E081871782168280859E
:104250000E94C41AE0919906F0919A06858D968D78
:10426000892B91F16085662379F18185843061F134
:10427000218D328D8091180590E02817390750F470
:1042800082E00E941215E0919906F0919A06128E32
:10429000118E04C0281B390B328F218FE0919906B3
:1042A000F0919A061085218D328D232B69F4612FB0
:1042B00083E00E941215E0919906F0919A0683E03E
:1042C0008187812F0E94C41A85E2682E86E0782EAD
:1042D00096E2892E96E0992E24E2A22E26E0B22EB6
:1042E00033E2C32E36E0D32E42E2E42E46E0F42E33
:1042F00000E61AEE40E02AEF30E0212C312C2101BB
:104300002394D3018C918F3F09F4BFC0F701108231
:104310008C91882309F43FC0D4018C918430D9F169
:104320001C966D917C911D978091180590E06817FF
:10433000790738F0681B790B1D967C936E931C9758
:1043400003C0F40115861486D4011E966D917C91EC
:104350001F976817790738F0681B790B1F967C93B5
:104360006E931E970FC0F4016289738986179707B1
:1043700028F4681B790B7787668704C00E94FD2AA2
:1043800097878687F40186859785892B21F4828912
:10439000938997878687D4018C91833009F075C003
:1043A0001C968D919C911D97892B09F063C0F50196
:1043B00080818823A1F0D6018C91882381F0D201DD
:1043C000C1010090890604C0880F991FAA1FBB1F56
:1043D0000A94D2F7F40180879187A287B387D50129
:1043E0001C92F6011082D7011C92F40186899789EC
:1043F00081309105D1F484899589918B808B82E0FD
:104400008083868597859587848782899389892B80
:1044100011F435872487842F2C833D834B830E949E
:10442000221A2C813D814B8125C0D4016489758974
:10443000718B608BFC01319752968D919C915397B3
:10444000E89FB001E99F700DF89F700D11241D9633
:104450007C936E931C971F967C936E931E97892B6B
:1044600021F41D963C932E931C9781E090E0F4017B
:10447000978B868BD4011C968D919C911D970097EC
:1044800021F08017910708F48C014F5FB1E26B0EA9
:10449000711CE1E28E0E911CF1E2AF0EB11C81E2C3
:1044A000C80ED11C91E2E90EF11C433009F029CF6E
:1044B0000E94111AF82EA1E28A02F0011124E35E93
:1044C000F94F828580939B06F0938B06E0938A06D2
:1044D000FF2091F0258D368D232B51F0218D328DCB
:1044E0002A3F310528F420173107F0F489011CC058
:1044F0000B3F1105C8F013C004301105A8F0980156
:10450000235031092A3F310538F489012230310521
:1045100058F402E010E008C00D3F110519F00AEF51
:1045200010E002C007EF10E080938C06F0939A062B
:10453000E0939906009318050E941625282F30E075
:104540002F5F3F4F2017310740F00E941625082F9C
:1045500010E00E5F1F4F00931805F11010928D06AA
:10456000802F0E94B3246CED75E089819A810E94AE
:104570001D240E944C280F900F900F900F900F90C9
:10458000DF91CF911F910F91FF90EF90DF90CF902F
:10459000BF90AF909F908F907F906F905F904F9063
:1045A0003F902F900C9457284091B106141694F028
:1045B00054E0450290011124F901EE54F94F608353
:1045C000F901EC54F94F918380834F5F4093B1061A
:1045D00081E008958FEF08950F931F93CF93DF939A
:1045E000062F4091B106552747FD509510E0E82F62
:1045F000F0E030C0E901CC0FDD1FCC0FDD1FDE0184
:10460000AE54B94F8C91992787FD90958E179F07CF
:1046100001F5F901EA54F94F808181110EC081E062
:104620008083FE01EC54F94F0190F081E02D20E0F1
:1046300040E050E0602F80E00995CC54D94FE881EC
:10464000F98120E040E050E0602F81E00995812F62
:1046500007C01F5F212F30E0241735075CF28FEF72
:10466000DF91CF911F910F910895E82FF0E0809195
:10467000B106992787FD90958E179F077CF0EE0F66
:10468000FF1FEE0FFF1FEC54F94F0190F081E02D5A
:1046900020E040E050E060E082E0099481E00E9488
:1046A0006E148FEF0895242FE82FF0E08091B1066B
:1046B000992787FD90958E179F076CF0EE0FFF1FCF
:1046C000EE0FFF1FEC54F94F0190F081E02DAB018C
:1046D00060E086E0099481E00E946E148FEF0895F7
:1046E000242FE82FF0E08091B106992787FD90955F
:1046F0008E179F076CF0EE0FFF1FEE0FFF1FEC549D
:10470000F94F0190F081E02DAB0160E085E0099464
:1047100081E00E946E148FEF0895242FE82FF0E0BF
:104720008091B106992787FD90958E179F076CF0B1
:10473000EE0FFF1FEE0FFF1FEC54F94F0190F081B9
:10474000E02D40E050E084E0099481E00E946E1486
:104750008FEF0895E82FF0E08091B106992787FD4B
:1047600090958E179F0774F0EE0FFF1FEE0FFF1F3F
:10477000EC54F94F0190F081E02D20E040E050E052
:1047800083E0099481E00E946E148FEF0895000089
:104790000000000000000000000000000000000019
:1047A000000000000000019791F708951092210188
:1047B000089589E0809321018DE89CE3909329017D
:1047C00080932801089510922501109224010895E4
:1047D000CF93DF9300D0CDB7DEB7809124019091C5
:1047E00025019A83898329813A81C9010F900F900D
:1047F000DF91CF91089510928100089581E0809318
:104800008100089583B5816083BD10928500109268
:1048100084000895CF93DF9300D0CDB7DEB78091A9
:104820008400909185009A83898329813A81C90106
:104830000F900F90DF91CF910895CF92DF92EF927A
:10484000FF92CF93DF93EC01CC0FDD1FC9378FEFC1
:10485000D80710F0C0E0D0E06B01E12CF12CCC0EB9
:10486000DD1EE11CF11C81E0C816D104E806F1044C
:1048700040F081E0E81AF1080E940A24C817D9071D
:10488000D8F30E940A248C159D05D8F3DF91CF91AF
:10489000FF90EF90DF90CF9008951092B100E0E785
:1048A000F0E080818D7F808380818E7F808308957A
:1048B0008093B2000895E0E7F0E080818360808318
:1048C00083E08093B100089583B5826083BD109228
:1048D000B20010926D04109218050895CF93DF93E3
:1048E0008EEF8093180590E29093B6008093B3000A
:1048F00083E087BB92E09093B0008093B10093B5C2
:10490000926093BD87BB84BD83B5826083BD1092E6
:10491000800081E0809381001092850010928400D5
:1049200083B5826083BD83B5816083BD1092200111
:10493000C4E2D1E01982188283B5826083BD83B559
:10494000816083BD0E946424198218820E945B24C6
:104950000E94D92310926D04DF91CF910895809128
:10496000B3008F5F089581508093B3000895811143
:1049700002C0109271008FEF0895811106C010924D
:1049800095001092940081E008958FEF08958111B1
:1049900005C0209194003091950002C020E030E0E5
:1049A000C9010895811105C082E08093710081E002
:1049B00008958FEF0895811135C0CB0101970597B8
:1049C00010F4609317051092900088E08093910096
:1049D000509399004093980030936B0420936A049D
:1049E00080911705813021F480919100816011C080
:1049F000823021F48091910082600BC0833021F4D9
:104A000080919100836005C0843031F480919100E1
:104A100084608093910008C0853031F480919100CA
:104A20008560F7CF8FEF089581E008958091B200FF
:104A300008951F920F920FB60F92112460E08AE042
:104A40000E941215FFCF0F920FB60F921F922F9256
:104A50003F924F925F926F927F928F929F92AF920E
:104A6000BF92CF92DF92EF92FF920F931F932F93FB
:104A70003F934F935F936F937F938F939F93AF93E6
:104A8000BF93CF93DF93EF93FF93A0919906B091DB
:104A90009A060DB60D920EB60D921F92A0911505B5
:104AA000B09116051E90BEBFADBF08951F920F9224
:104AB0000FB60F9211240BB60F922F933F934F9383
:104AC0005F936F937F938F939F93AF93BF93EF9376
:104AD000FF93E0916A04F0916B04309711F009950F
:104AE00004C060E08AE00E941215FF91EF91BF912F
:104AF000AF919F918F917F916F915F914F913F9176
:104B00002F910F900BBE0F900FBE0F901F90189516
:104B10001F920F920FB60F9211240F900FBE0F909D
:104B20001F90189504B603FC02C080E001C080E12C
:104B300004B602FE06C094B79B7F94BF04B600FE85
:104B4000846004B601FE05C094B79D7F94BF826067
:104B5000089581110CC004B600FE04C094B79E7F76
:104B600094BF01C081E09091B000911181E008955F
:104B7000811102C0E89A39C0813011F4E99A089590
:104B8000823011F4EA9A31C0833021F480916B00B5
:104B9000816029C0843021F480916B00826023C041
:104BA000853021F480916B0084601DC0863021F433
:104BB00080916B00886017C0873021F480916B0072
:104BC000806111C0883021F480916B0080620BC03D
:104BD000893021F480916B00806405C08A3039F4FB
:104BE00080916B00806880936B0081E008958FEF67
:104BF0000895811102C0E89839C0813011F4E99814
:104C00000895823011F4E99831C0833021F4809105
:104C10006B008E7F29C0843021F480916B008D7FE2
:104C200023C0853021F480916B008B7F1DC08630BE
:104C300021F480916B00877F17C0873021F4809129
:104C40006B008F7E11C0883021F480916B008F7DC6
:104C50000BC0893021F480916B008F7B05C08A30B6
:104C600039F480916B008F7780936B0081E0089519
:104C70008FEF0895811127C05093BA064093B9066B
:104C8000611104C0809169008C7F3EC0613049F49D
:104C9000809169008D7F80936900809169008160B7
:104CA00033C0623049F4809169008260809369006A
:104CB000809169008E7F28C0633009F027C0809101
:104CC0006900836021C0813049F55093B806409354
:104CD000B706611104C080916900837F15C06130FF
:104CE00049F480916900877F809369008091690011
:104CF00084600AC0623061F48091690088608093AA
:104D00006900809169008B7F8093690081E008953C
:104D10006330E1F7809169008C60F6CF823031F525
:104D20005093BC064093BB06611104C0809169009A
:104D30008F7CEACF613049F4809169008F7D809348
:104D40006900809169008061DFCF623049F4809111
:104D50006900806280936900809169008F7ED4CF62
:104D60006330A1F6809169008063CECF8350883094
:104D700050F4809168008160809368005093BE0673
:104D80004093BD06C3CF8FEF08951F920F920FB6C9
:104D90000F9211240BB60F922F933F934F935F9373
:104DA0006F937F938F939F93AF93BF93EF93FF93F3
:104DB000E091BD06F091BE06309711F0099504C050
:104DC00060E08AE00E941215FF91EF91BF91AF91D0
:104DD0009F918F917F916F915F914F913F912F9113
:104DE0000F900BBE0F900FBE0F901F9018951F9243
:104DF0000F920FB60F9211240BB60F922F933F9381
:104E00004F935F936F937F938F939F93AF93BF93D2
:104E1000EF93FF93E091B906F091BA06309711F045
:104E2000099504C060E08AE00E941215FF91EF919D
:104E3000BF91AF919F918F917F916F915F914F91B2
:104E40003F912F910F900BBE0F900FBE0F901F90B0
:104E500018951F920F920FB60F9211240BB60F9256
:104E60002F933F934F935F936F937F938F939F9372
:104E7000AF93BF93EF93FF93E091B706F091B8061D
:104E8000309711F0099504C060E08AE00E94121585
:104E9000FF91EF91BF91AF919F918F917F916F9112
:104EA0005F914F913F912F910F900BBE0F900FBECE
:104EB0000F901F9018951F920F920FB60F9211240A
:104EC0000BB60F922F933F934F935F936F937F9304
:104ED0008F939F93AF93BF93EF93FF93E091BB06A4
:104EE000F091BC06309711F0099504C060E08AE0AB
:104EF0000E941215FF91EF91BF91AF919F918F91F9
:104F00007F916F915F914F913F912F910F900BBEC9
:104F10000F900FBE0F901F9018950E94B012A89589
:104F200084B7877F84BFE0E6F0E08081886180837A
:104F300010820C94B2120E94B012A89584B7877F99
:104F400084BFE0E6F0E08081886180838DE080832B
:104F50000C94B21204B603FC02C081E008958FEFF6
:104F60000895A8950895089583B7817F866083BFCB
:104F700083B7816083BF889583B78E7F83BF089591
:104F800083B7817F83BF83B7816083BF889583B7F1
:104F90008E7F83BF0895FC01768365830895EF9229
:104FA000FF920F931F93CF93DF93EC018B017A0154
:104FB0004032510518F481E10E941815A7014150B3
:104FC0005109400F511F5A8349831C830B83DF9182
:104FD000CF911F910F91FF90EF90089525E5FA0171
:104FE0002083FB0132979083FB0131978083FB0183
:104FF000349711821082FB01369711821082FB01D7
:10500000389711821082FB013A9711821082FB01BE
:105010003C9711821082FB013E9711821082FB01A6
:10502000709711821082FB01729711821082FB012E
:10503000749711821082FB01769711821082FB0116
:10504000789711821082FB017A9711821082FB01FE
:105050007C9711821082FB017E9711821082FB01E6
:10506000B09711821082FB01B29711821082FB016E
:10507000B49711821082CF01089585E580937E4117
:10508000EEEFF1E4F0931605E093150589E694E15F
:1050900090838093FF41089589E694E19093FE41C7
:1050A0008093FF4108950E946E240C94B212A09147
:1050B0008A06B0918B06CD91CDBFDD91DEBFFF9109
:1050C000EF91DF91CF91BF91AF919F918F917F91A0
:1050D0006F915F914F913F912F911F910F91FF9091
:1050E000EF90DF90CF90BF90AF909F908F907F9088
:1050F0006F905F904F903F902F901F900F900FBE3A
:105100000F9018950E94840E80E190E00E94EE11AD
:105110008DE793E00E94712C0E94B71220E030E0EE
:10512000A90160E070E0CB010E94B31E0E94CA0397
:105130000E9477030E94671380E090E008957F92B9
:105140008F929F92AF92BF92CF92DF92EF92FF9297
:105150000F931F93CF93DF93CDB7DEB72C970FB686
:10516000F894DEBF0FBECDBF7C016B018A01FC014C
:1051700017821682838181FD03C013C1850105C09A
:1051800088248394912C8C0E9D1EF701B380F60128
:10519000B3FC8591B3FE81916F01882309F4FDC0B2
:1051A000853239F4B3FC2591B3FE21916F0125328C
:1051B00019F5B70190E00E94282C5801DFCF222377
:1051C00009F4EBC0622F70E081ED93E02C870E9420
:1051D000C92B2C85892B49F4233219F4F0E17F2A5D
:1051E00004C02C3679F420E8722AF601B3FC25912C
:1051F000B3FE21916F0101C0712C77FEE0CF222315
:1052000009F4CBC0622F70E081EE93E02C870E94FE
:10521000C92B2C85892B41F05801F4E0AF0EB11C4D
:10522000B7018FE390E00FC0233629F0233781F0D8
:10523000233519F50BC0580122E0A20EB11CB701AD
:10524000F801808191810E94282C98CFF1E07F2A7B
:10525000580122E0A20EB11CF8010081118104C0A6
:10526000B70190E00E94282CF80170FC859170FE37
:1052700081918F018111F4CF81CF243611F029362D
:1052800031F5580177FE09C0F4E0AF0EB11CF8010A
:1052900060817181828193810AC0F2E0AF0EB11CFE
:1052A000F80160817181882777FD8095982FFFEE46
:1052B0007F2297FF09C090958095709561957F4FEB
:1052C0008F4F9F4F20E4722A2AE030E036C020370B
:1052D00091F030F42835B1F02F3609F05EC017C0D8
:1052E000253721F0283709F058C007C08FEE782203
:1052F0002AE030E00EC0E0E17E2AF4E27F2A20E1DD
:1053000030E007C024E0722A20E132E002C028E049
:1053100030E0580177FE09C084E0A80EB11CF80106
:10532000608171818281938108C0F2E0AF0EB11C6F
:10533000F8016081718180E090E0A4010E94D12C8D
:10534000182F181976FE05C0B7018DE290E00E9473
:10535000282C74FE16C0FE01E10FF11D8081803300
:1053600081F0B70180E390E00E94282C72FE09C012
:10537000272D2072822F90E0B701885A9F4F0E94FC
:10538000282C1150F401E10FF11DB701808190E04C
:105390000E94282C1111F5CFF1CEF701268137811B
:1053A00002C02FEF3FEFC9012C960FB6F894DEBF75
:1053B0000FBECDBFDF91CF911F910F91FF90EF9066
:1053C000DF90CF90BF90AF909F908F907F90089587
:1053D000E894F92F96EBFF2381F0121613061406BA
:1053E000440B9395F695879577956795579540402B
:1053F000FF23B9F71BC099270895882351F49850CB
:10540000D2F7872B762F652F542F432F322F20E092
:10541000B1F3121613061406440B88233AF09A953A
:10542000440F551F661F771F881FCAF755234AF47C
:10543000440F551F11F460FF04C06F5F7F4F8F4F03
:105440009F4F880F9695879597F908950BD078C050
:1054500069D028F06ED018F0952309F05AC05FC0CB
:105460001124A2C07ED0A0F3959FD1F3950F50E0F8
:10547000551F629FF001729FBB27F00DB11D639F06
:10548000AA27F00DB11DAA1F649F6627B00DA11DAC
:10549000661F829F2227B00DA11D621F739FB00D52
:1054A000A11D621F839FA00D611D221F749F3327C2
:1054B000A00D611D231F849F600D211D822F762F5B
:1054C0006A2F11249F5750408AF0E1F088234AF058
:1054D000EE0FFF1FBB1F661F771F881F91505040A4
:1054E000A9F79E3F510570F014C05EC05F3FECF31A
:1054F000983EDCF3869577956795B795F795E79590
:105500009F5FC1F7FE2B880F911D9695879597F9A0
:10551000089597F99F6780E870E060E008959FEF35
:1055200080EC089500240A9416161706180609063A
:10553000089500240A941216130614060506089509
:10554000092E0394000C11F4882352F0BB0F40F491
:10555000BF2B11F460FF04C06F5F7F4F8F4F9F4FD1
:10556000089557FD9058440F551F59F05F3F71F053
:105570004795880F97FB991F61F09F3F79F08795BA
:105580000895121613061406551FF2CF4695F1DF43
:1055900008C0161617061806991FF1CF86957105D3
:1055A000610508940895E894BB2766277727CB0107
:1055B00097F908950E94BD2BA59F900DB49F900D63
:1055C000A49F800D911D11240895B7FF0C94DA2A31
:1055D0000E94DA2A821B930B0895DB018F939F931D
:1055E0000E94DA2ABF91AF91A29F800D911DA39FC7
:1055F000900DB29F900D11240895AA1BBB1B51E181
:1056000007C0AA1FBB1FA617B70710F0A61BB70B32
:10561000881F991F5A95A9F780959095BC01CD01D7
:105620000895A1E21A2EAA1BBB1BFD010DC0AA1FE3
:10563000BB1FEE1FFF1FA217B307E407F50720F0FB
:10564000A21BB30BE40BF50B661F771F881F991F76
:105650001A9469F760957095809590959B01AC01BF
:10566000BD01CF010895052E97FB16F4009407D0D5
:1056700057FD0DD00E94112B07FC09D07EF49095A8
:105680008095709561957F4F8F4F9F4F08955095EE
:105690004095309521953F4F4F4F5F4F0895689447
:1056A00001C0E8948F929F92CF93DF930E945D2B6D
:1056B000DF91CF919F908F90089588249924F401D1
:1056C000E401B0E49F93AA279A158B049C04ED058E
:1056D000FE05CF05D007A10798F4AD2FDC2FCF2F03
:1056E000FE2FE92D982C892E982F872F762F652F46
:1056F000542F432F322F2227B85031F7BF9127C0A4
:105700001B2EBF91BB27220F331F441F551F661F3F
:10571000771F881F991F881C991CEE1FFF1FCC1F25
:10572000DD1FAA1FBB1F8A149B04EC05FD05CE05D7
:10573000DF05A007B10748F08A189B08EC09FD09AE
:10574000CE09DF09A00BB10B21601A94E1F62EF40B
:105750009401AF01BE01CD01000C0895EE0FFF1FB3
:105760000590F491E02D09942A0D3B1D4C1D5D1D03
:105770006E1D7F1D801F911F0895A29FB001B39FD2
:10578000C001A39F01D0B29F700D811D1124911DF6
:105790000895FC010590061621F00020D9F7C001FC
:1057A00008953197CF010895FB01DC0102C00190FB
:1057B0000D9241505040D8F708950F931F93CF9307
:1057C000DF93EC018B01009731F46115710519F439
:1057D000E0E0F0E037C06EE070E081E090E00E9431
:1057E000452DFC010097A1F380E883830115110585
:1057F00071F01387028781E883838091BF069091BF
:10580000C006892B21F4F093C006E093BF062097D1
:10581000C9F0D187C0878381826083838091C1066C
:105820009091C206892B71F4F093C206E093C106F1
:105830008091C3069091C406892B21F4F093C4068D
:10584000E093C306CF01DF91CF911F910F9108958F
:105850000F931F93CF93DF938C01EB018B8181FD1D
:1058600003C00FEF1FEF1AC082FF0DC02E813F81D2
:105870008C819D812817390764F4E881F9810193AF
:10588000F983E88306C0E885F985802F0995892B7F
:1058900041F78E819F8101969F838E83C801DF919E
:1058A000CF911F910F910895CF93DF9300D0CDB783
:1058B000DEB7FE01379661917191FA83E983AF01FA
:1058C0008091C1069091C2060E949F280F900F9070
:1058D000DF91CF9108956091C1067091C2060C943A
:1058E000282C0F931F93CF93DF938C01E091C10677
:1058F000F091C206838181FF1BC0C0E0D0E005C0EB
:105900000995892B11F0CFEFDFEFF80181918F011D
:105910006091C1067091C206DB011896ED91FC9171
:1059200019978111EDCF8AE00995892B09F402C0FE
:10593000CFEFDFEFCE01DF91CF911F910F9108954F
:105940000F931F93CF93DF93CDB7DEB760970FB65A
:10595000F894DEBF0FBECDBF0F89188D86E08C8313
:105960001A8309838FEF9FE79E838D83AE01455E87
:105970005F4F588B4F87698D7A8DCE0101960E94BB
:105980009F28EF81F885E00FF11F108260960FB617
:10599000F894DEBF0FBECDBFDF91CF911F910F9165
:1059A0000895FA01AA27283051F1203181F1E894B5
:1059B0006F936E7F6E5F7F4F8F4F9F4FAF4FB1E002
:1059C0003ED0B4E03CD0670F781F891F9A1FA11DFD
:1059D000680F791F8A1F911DA11D6A0F711D811DFE
:1059E000911DA11D20D009F468943F912AE0269FC3
:1059F00011243019305D3193DEF6CF010895462F22
:105A00004770405D4193B3E00FD0C9F7F6CF462F02
:105A10004F70405D4A3318F0495D31FD405241936B
:105A200002D0A9F7EACFB4E0A69597958795779528
:105A30006795BA95C9F700976105710508959B01AF
:105A4000AC010A2E06945795479537952795BA9538
:105A5000C9F7620F731F841F951FA01D0895F99940
:105A6000FECF92BD81BDF89A992780B50895262F63
:105A7000F999FECF1FBA92BD81BD20BD0FB6F89433
:105A8000FA9AF99A0FBE019608950F931F93CF9338
:105A9000DF93689F8001699F100D789F100D11247E
:105AA000C8010E94632DC82FD92F209731F0A8017B
:105AB00060E070E08C2F0E949C2ECE01DF91CF9190
:105AC0001F910F9108950F931F93CF93DF9382300F
:105AD000910510F482E090E0E091C706F091C806CD
