:100000000C94F4010C942B270C945D270C948F27EF
:100010000C9413020C9413020C9413020C9413020C
:100020000C9413020C94F9260C9413020C941302F2
:100030000C9413020C9457250C9413020C9457251E
:100040000C9413020C9413020C9413020C941302DC
:100050000C9413020C9413020C9413020C941302CC
:100060000C9413020C9413020C9413020C941302BC
:100070000C9413020C9413020C9413020C941302AC
:100080000C948A250C9413020C9413020C94130202
:100090000C9413020C9413020C9413020C9413028C
:1000A0000C9413020C9413020C9413020C9413027C
:1000B0000C9413020C9413020C9413020C9413026C
:1000C0000C9413020C9413020C9413020C9413025C
:1000D0000C9413020C9413020C9413020C9413024C
:1000E0000C9413020C94640D0C94550D0C94250D76
:1000F0000C94240E0C94160D0C94070D0C94F50C16
:100100000C94E60C0C9413020C9413020C9413023E
:100110000C9413020C9413020C9413020C9413020B
:10012000D314D914DC14DF14E214E514EB14E8142E
:10013000EE14F114F414FD14001503150615FA1449
:10014000D014D61409150C15F714CD144661696C3A
:10015000656420746F206F70656E2073656E736FB9
:1001600072206472697665720D0A004661696C6579
:100170006420746F206C6F6164206D79204144436A
:10018000206472697665720D0A002A4E524B204532
:1001900052524F522800293A20005461736B20704C
:1001A0006572696F6420746F6F206C617267652E71
:1001B00020506572696F64206D75737420626520CC
:1001C0006C657373207468616E20363120736563CB
:1001D0006F6E64732E00537461636B2077617320BC
:1001E0006E6F7420646566696E6564206173206C4F
:1001F0006172676520656E6F756768210054617371
:100200006B20537461636B204F766572666C6F77F9
:1002100000496E76616C696420537461636B205091
:100220006F696E74657200526573657276652045FC
:1002300072726F7220696E205363686564756C65B5
:1002400072005461736B2052657365727665205637
:10025000696F6C61746564005363686564756C658F
:1002600072204D69737365642057616B657570000A
:100270004475706C696361746564205461736B20AC
:10028000494400556E6578706563746564205265F5
:1002900073746172740049646C65206F72204B65E1
:1002A000726E656C20537461636B204F7665726665
:1002B0006C6F77004578747261205461736B2073A2
:1002C0007461727465642C206973206E726B5F6355
:1002D00066672E68206F6B3F004C6F7720566F6CFF
:1002E0007461676500556E68616E646C6564204971
:1002F0006E7465727275707420566563746F7200E7
:1003000054696D6572204F766572666C6F77005325
:1003100057205761746368646F6720526573746116
:100320007274005761746368646F672052657374F8
:10033000617274004465766963652044726976650C
:1003400072204572726F72004B65726E656C20662A
:10035000756E6374696F6E206E6F7420696D706C5A
:10036000656D656E746564004661696C65642074D2
:100370006F20637265617465205369676E616C00FC
:100380004661696C656420746F2063726561746591
:100390002053656D6170686F72650042726F776E91
:1003A000204F7574204465746563740045787465E6
:1003B000726E616C20526573657400554E4B4F57D9
:1003C0004E000D0A535441434B2044554D500D0AE5
:1003D00000202B2D2E303132333435363738396802
:1003E000004546476566670011241FBECFEFD1E484
:1003F000DEBFCDBF13E0A0E0B2E0EEECFBE500E035
:100400000BBF02C007900D92A83EB107D9F716E0C6
:10041000A8EEB3E001C01D92A532B107E1F70E943A
:10042000B6280C94E52D0C944D25CF93DF93CDB7D2
:10043000DEB72E970FB6F894DEBF0FBECDBF1A867B
:1004400019861C861B861F921F9280E292E09F9362
:100450008F930E94962B0E94731D1F928F938AE3A5
:1004600092E09F938F930E94962B65E083E00E9419
:100470002023382E0FB6F894DEBF0FBECDBF9FEFFE
:10048000891304C08CE491E00E94920E612C712CBF
:1004900039E9832E32E0932E47E8442E42E0542E71
:1004A0004BE061E0832D0E94C12344E0BE016F5FF9
:1004B0007F4F832D0E94A42388858F938F818F93F4
:1004C0008E818F938D818F938C818F938B818F936E
:1004D0008A818F9389818F9389E492E09F938F9390
:1004E0000E94962B4AE061E0832D0E94C12344E0E4
:1004F000BE016F5F7F4F832D0E94A42329813A8123
:100500004B815C816D817E819AE0A92EB12CC12C3A
:10051000D12CE12CF12C00E010E08F8198850E9415
:10052000932A9F938F937F936F935F934F933F9300
:100530002F9381E692E09F938F930E94962B49E040
:1005400061E0832D0E94C12344E0BE016F5F7F4FB5
:10055000832D0E94A42388858F938F818F938E8112
:100560008F938D818F938C818F938B818F938A81D1
:100570008F9389818F9388E792E09F938F930E9456
:10058000962B41E061E0832D0E94C12342E0BE0131
:10059000635F7F4F832D0E94A4238E858F938D856B
:1005A0008F9385EB92E09F938F930E94962B0B8500
:1005B0001C8589859A85080F191F169507950FB612
:1005C000F894DEBF0FBECDBF80E090E00E94B31173
:1005D00081E090E00E94B3118D859E85801B910B78
:1005E00097FF03C09195819591090B974CF05F920D
:1005F0004F929F928F920E94962B80E090E00AC0CB
:100600008CE992E09F938F939F928F920E94962BFA
:1006100081E090E00E949C110F900F900F900F903E
:10062000F301EE0FFF1F81E090E08C0F9D1FE80F9C
:10063000F91F8D859E85918780871F930F9382EB8D
:1006400092E09F938F930E94962B40E061E0832D70
:100650000E94C12342E0BE01635F7F4F832D0E9451
:10066000A4238D859E856AE070E00E943F2A7F93D7
:100670006F938FEB92E09F938F930E94962B44E0B1
:1006800061E0832D0E94C12342E0BE01635F7F4F82
:10069000832D0E94A4238E858F938D858F9385ED66
:1006A00092E09F938F930E94962B45E061E0832D0B
:1006B0000E94C12342E0BE01635F7F4F832D0E94F1
:1006C000A4238E858F938D858F938FED92E09F93DA
:1006D0008F930E94962B46E061E0832D0E94C123F8
:1006E00042E0BE01635F7F4F832D0E94A4238E856D
:1006F0008F938D858F9389EE92E09F938F930E94C5
:10070000962B4CE061E0832D0E94C12380E69AEE97
:100710000E94FB2342E0BE01635F7F4F832D0E9456
:10072000A4238E858F938D858F9384EF92E09F9382
:100730008F930E94962B0E94E01C81E068260FB6E2
:10074000F894DEBF0FBECDBFABCE85E192E09093B3
:10075000F6038093F50340E850E067E174E080EF32
:1007600093E00E94032881E08093F8038093F703CD
:100770008093F9038093FA031092FB031092FC0319
:100780001092FD031092FE0380E091EEA5EFB5E01C
:100790008093FF0390930004A0930104B09302049C
:1007A000109203041092040410920504109206049F
:1007B00080E092ECABEEBBE08093070490930804DA
:1007C000A0930904B0930A0410920B0410920C0435
:1007D00010920D0410920E0410920F041092100447
:1007E000109211041092120480EF93E00C94481BB5
:1007F00063E08EE298E00E9408238F3F21F48BE6AD
:1008000091E00C94920E089580914605813011F488
:100810008FEF089581E08093460560FF15C0739ABD
:1008200010924B0580917C00807E80937C0090919B
:100830007C0080917C00807E892B80937C0088EEF8
:1008400093E00E94FB2305C0862F867009F767702E
:10085000F9F281E008957398109246050E946B08A2
:10086000EAE7F0E080818F77808381E0089561304E
:1008700019F480914B0508958FEF0895613059F573
:100880002C3069F420934B0580917C00807E80930E
:100890007C0080917C0090917C00836012C02D30A0
:1008A00020F081E00E94831416C020934B058091B4
:1008B0007C00807E80937C0080917C0090917C0005
:1008C000822B907E892B80937C0088EC90E00E94A4
:1008D000FB2381E008958FEF08950F931F93CF932B
:1008E000DF93CDB7DEB766970FB6F894DEBF0FBEC5
:1008F000CDBFAE014F5F5F4F66E170E08AEA90E0E6
:100900000E947508FE0132966CE175E0CE014896B2
:100910009F0121503109D9011C9100E02081A801DB
:10092000422B9A01DB012D933D93BD013296E817CE
:10093000F90771F766960FB6F894DEBF0FBECDBF0C
:10094000DF91CF911F910F910895EAE7F0E083E0E6
:10095000808380818068808310924B05ACE7B0E093
:100960008C91807E8C939C918C91807E892B8C9332
:1009700080818F77808308951DB86B9A739A0E9447
:10098000A5040E945B088EEE0E9458080E946D0428
:100990001092460581E0089588EC90E00C94FB23CA
:1009A00080917A00806480937A0080917A0084FF3D
:1009B000FCCF0E94CC042091780030917900932FD5
:1009C00080E0AC01422B9A01C90108954F925F92D9
:1009D0006F927F928F929F92AF92BF92CF92DF924F
:1009E000EF92FF921F93CF93DF9300D000D0CDB74B
:1009F000DEB7182F8090420590904305A0904405E3
:100A0000B090450580EA881A8FE0980AA108B108DD
:100A10008092320590923305A0923405B09235054C
:100A2000A5019401C501B4010E942F2A20E030E104
:100A300040E050E00E94752A29833A834B835C830F
:100A4000C0901C05D0901D05EE24D7FCE094FE2C30
:100A5000F2E0CC0CDD1CEE1CFF1CFA95D1F7A09146
:100A60002A05B0912B050E94272A20E038E040E0BB
:100A700050E00E94752A29013A01A0911E05B0910B
:100A80001F05A50194010E94272A20E038E040E0DC
:100A900050E00E94752A420E531E641E751EC40C3F
:100AA000D51CE61CF71C012E04C0CC0CDD1CEE1C72
:100AB000FF1C0A94D2F7E2E0CE0ED11CE11CF11C1F
:100AC000A4E04A2E512C612C712CC701B601A30160
:100AD00092010E94752A69017A012093640530937E
:100AE00065054093660550936705A0912005B09178
:100AF0002105A50194010E94272A20E030E240E070
:100B000050E00E94752A49015A01A0912805B09130
:100B1000290529813A814B815C810E94272A20E0A6
:100B200030E041E050E00E94752A820E931EA41E20
:100B3000B51EF2E08F0E911CA11CB11CC501B401C1
:100B4000A30192010E94752A20934C0530934D0514
:100B500040934E0550934F05A0912205B091230577
:100B600030584F4F5F4F0E941C2A20E030E840E091
:100B700050E00E94752A49015A0120935005309394
:100B80005105409352055093530520915C053091D7
:100B90005D0540915E0550915F052C193D094E0998
:100BA0005F0960E573EC80E090E004C0959587955F
:100BB000779567951A95D2F70E942F2A609358056A
:100BC0007093590580935A0590935B0597FD09C072
:100BD000660F771F881F991FA50194010E94532A51
:100BE00008C0A50194010E94532A220F331F441FFD
:100BF000551F209360053093610540936205509323
:100C00006305C0906005D0906105E0906205F090AA
:100C10006305C701B60120E031E040E050E00E94EA
:100C2000752ACA01B9010E942F2A9B01AC01AEEDC1
:100C3000BBE00E941C2A412C512C32016394A30179
:100C400092010E94752A49015A0120934705309369
:100C500048054093490550934A05A3E4B3EEA70124
:100C600096010E942A2AA30192010E94752A2093CC
:100C70003A0530933B0540933C0550933D05C50133
:100C8000B401620F731F841F951F6153714F8F4F03
:100C90009F4F20E130E040E050E00E94752A2C0D8B
:100CA0003D1D4E1D5F1D20936005309361054093EF
:100CB000620550936305B901CA010F900F900F9020
:100CC0000F90DF91CF911F91FF90EF90DF90CF9029
:100CD000BF90AF909F908F907F906F905F904F905C
:100CE0000895CF92DF92EF92FF9280912605909126
:100CF00027052091360530913705409138055091F0
:100D00003905281B390B41095109A0912405B091DF
:100D100025050E941C2A20E030E840E050E00E94B7
:100D2000752A69017A01209347053093480540935D
:100D3000490550934A0560912E0570912F0588272B
:100D400077FD8095982FBBE0660F771F881F991F4E
:100D5000BA95D1F72091300530913105442737FD00
:100D60004095542F2C0D3D1D4E1D5F1D0E94752A70
:100D700020933A0530933B0540933C0550933D0545
:100D8000C20ED31EE41EF51EC0924205D09243054A
:100D9000E0924405F0924505C701B601685F7F4FB8
:100DA0008F4F9F4F20E130E040E050E00E94752AD5
:100DB00020933E0530933F054093400550934105F5
:100DC000B901CA01FF90EF90DF90CF900895CF93C3
:100DD000DF9300D01F92CDB7DEB78EE28B83AE01DA
:100DE0004D5F5F4F61E070E084EF90E00E949309F7
:100DF00084E991E10E94FB23AE014F5F5F4F62E007
:100E000070E086EF90E00E947508398120E08A81C9
:100E1000A901482BCA01A0E0B0E080933605909369
:100E20003705A0933805B09339050F900F900F90B8
:100E3000DF91CF9108950E94E7060C9471061F93ED
:100E4000CF93DF9300D000D0CDB7DEB7182F982F07
:100E50009295990F990F907C9C5C9C83AE014C5F9E
:100E60005F4F61E070E084EF90E00E94930984E9B5
:100E700091E10E94FB23AE014F5F5F4F63E070E0A2
:100E800086EF90E00E9475088A81498150E060E019
:100E900070E0BA0155274427582B8B81480F511D0C
:100EA000611D711D28E030E0211B310904C07595DA
:100EB0006795579547952A95D2F740935C055093CF
:100EC0005D0560935E0570935F050F900F900F9026
:100ED0000F90DF91CF911F910895CF93C82F0E945B
:100EE0001F078C2FCF910C94E604AF92BF92DF9234
:100EF000EF92FF920F931F93CF93DF931F92CDB783
:100F0000DEB75A0180917A00806880937A00822F40
:100F10008150823018F0243009F094C080914B0544
:100F20008730A0F429830E94D0042981223021F443
:100F3000F501808391832EC0213009F035C096954C
:100F4000879596958795F50180832EC08C3071F535
:100F500030E4D32EE12CF12C01E014E029830E942F
:100F6000D00429818017910708F48C01E816F9064E
:100F700008F47C018DE790E029830E94FB23DA943A
:100F80002981D110EBCFE01AF10A223029F4F501C2
:100F9000E082F18281E04FC0213031F4F694E79491
:100FA000F694E794F501E08280E045C08B3069F566
:100FB000109254051092550510925605109257053F
:100FC0007A99FECF7A9BFECF80915405909155057A
:100FD000A0915605B09157050196A11DB11D8093B2
:100FE000540590935505A0935605B09357057A99EB
:100FF000EBCFF50180838091550581838091560563
:101000008283809157058383CFCF982F9950923058
:1010100058F62430B9F48A3019F40E941B0705C031
:101020000E941B0780E00E946D07F50160837183B9
:101030008283938383E090917A009F7790937A00E4
:101040008F5F01C080E00F90DF91CF911F910F91D2
:10105000FF90EF90DF90BF90AF9008958230A9F09D
:1010600028F4882349F08130D9F409C08430A9F0EC
:1010700078F08530A9F406C080E00C94BC0481E0CF
:101080000C94040485E00C94750782E00C942B0406
:10109000613061F480914B05089584E00C943E0426
:1010A00060E08CE00E94271580E008958FEF08959E
:1010B00080936905089582E08093B8001092B9008A
:1010C000E4E6F0E080818F778083ECEBF0E08081D4
:1010D000846080830895E4E6F0E080818083ECEB17
:1010E000F0E080818B7F80830895292F30E0277086
:1010F0003327220F90916905292B35E6F4EAE4E8BD
:10110000A22FA160315009F48DC0F093BC009091E2
:10111000BC0097FFFCCF9091B900987F9093680531
:10112000903129F0983389F3983009F07BC02093EF
:10113000BB00E093BC009091BC0097FFFCCF909166
:10114000B900987F909368059032E1F29833E9F204
:10115000983109F061C08093BB00E093BC0090918E
:10116000BC0097FFFCCF9091B900987F90936805E1
:10117000903359F1983349F2983209F04DC0F09309
:10118000BC009091BC0097FFFCCF9091B900987F74
:1011900090936805903129F0983309F4B6CF9830D0
:1011A000D9F5A093BB00E093BC009091BC0097FFE1
:1011B000FCCF9091B900987F90936805903419F115
:1011C000983419F0983341F5A0CF20E030E026C0E4
:1011D0006130710509F494E89093BC008091BC00E3
:1011E00087FFFCCF8091B900887F809368058035A8
:1011F00021F0883589F460E070E08091BB00819334
:101200006150710902C0FA0194EC9F01241B350B57
:1012100016161706ECF202C02FEF3FEF84E9809319
:10122000BC0002C02FEF3FEFC9010895680F791F7E
:101230009C0127606217730718F0B9016F5F7F4F39
:10124000392F330F3E7020916905322BE5E6A4EA71
:10125000F4E8E15009F463C0A093BC002091BC0005
:1012600027FFFCCF2091B900287F2093680520310B
:1012700029F0283389F3283009F051C03093BB009E
:10128000F093BC002091BC0027FFFCCF2091B90057
:10129000287F209368052032E1F22833E9F22831D3
:1012A000C1F58093BB00F093BC002091BC0027FFE8
:1012B000FCCF2091B900287F20936805203329F0C6
:1012C000283351F2283229F503C020E030E023C052
:1012D000681B790B20E030E0E4E814C0DA018D915E
:1012E000AD018093BB00E093BC008091BC0087FF00
:1012F000FCCF8091B900887F80936805883249F4DB
:101300002F5F3F4FCB01821B930B1816190634F346
:1013100002C02FEF3FEF84E98093BC0002C02FEFA3
:101320003FEFC9010895CF92DF92EF92FF920F93A2
:101330001F93CF93DF936C018B017A01C0E0D0E063
:10134000A701B801C6010E9416098F3F2FEF92072F
:1013500061F0C80ED91E081B190BE80EF91EC80F44
:10136000D91F1016110664F302C0CFEFDFEFCE01D4
:10137000DF91CF911F910F91FF90EF90DF90CF9071
:101380000895809168051F928F938DE093E09F935D
:101390008F930E94962B0F900F900F900F900895AF
:1013A000909141019F719F31D9F38093420108953B
:1013B00081E08093700508951092700508958091E2
:1013C00041018F718F31D9F3809141018F71E1F02B
:1013D0008F30D1F0809141018F71883031F480914C
:1013E000390182608093390109C088E00E94D009E8
:1013F000809141018F718830D9F7F1CF80914101FF
:101400008F7111F08F30D1F70895809141018F7164
:101410008F31D9F3809141018F7111F08F3051F4E8
:10142000809139018D7F80933901809141018F71C5
:101430008830D9F70895E5E4F1E09081907F9083BA
:1014400090818F70892B80830895E7E5F1E080819A
:101450008D7F80830895E7E5F1E08081826080835D
:101460000895EEE6F1E080818F7E80830895EEE6B8
:10147000F1E0808180618083089580936001909382
:10148000610190937A05809379050895909374058E
:1014900080937305E8E4F1E08081807E8083808121
:1014A000682B608308959093EB038093EA0308957B
:1014B0009093E9038093E80308951F93CF93DF93FC
:1014C00070E27093440170EC709345016062609328
:1014D000480165EC6093490167EA60934B0160E85D
:1014E00060934C012093600130936101409362014D
:1014F00050936301E6E4F1E0C081A0816081108136
:10150000C295C695C77070E4C79FE001112412957B
:10151000169513701C2BA295A695A37070E1A79F3A
:10152000D00111241A2B629566956370A4E06A9F1E
:10153000B0011124162B10936D016081E08162953A
:101540006695637070E0660F771F6064E295E695BC
:10155000E370E62BE0936E0110926C016FEF6093E5
:101560004E01909374058093730510927505109247
:101570007605509378054093770530937A0520934C
:10158000790510927B0581E0809385051092940582
:101590001092840510927005DF91CF911F910895EC
:1015A00086E10C94D00986E10C94D00988E00E9471
:1015B000D0091092940508953F924F925F926F92D6
:1015C0007F928F929F92AF92BF92CF92DF92EF92D3
:1015D000FF920F931F93CF93DF93EC013B01809118
:1015E0008505811102C0CFEF1CC19E8180917505D8
:1015F0008F5F8093750580918101807E816090FB73
:1016000085F98F7380648093810188E880938201DB
:1016100080917005882361F08FEF809383018AEABF
:101620009AEA90938901809388018FEF9FEF11C010
:101630008091750580938301309161012091600153
:10164000932F80E0822B9093890180938801888179
:101650009981909387018093860130916301209155
:101660006201932F80E0822B909385018093840107
:101670004A81842F992787FD90956B817C81592F12
:101680008AE891E00E94162B8A81855F8093800111
:10169000309041018FE13822832D81508230C0F398
:1016A00081E13816A9F382E1381691F38FE13816FB
:1016B00079F388E0381649F086E0381631F086E193
:1016C000381619F089E038128ECF86E10E94D009D1
:1016D0008D81811107C089E00E94D0098E81882305
:1016E00091F00EC0809148018068809348018091FC
:1016F000410187FFFCCF8091410186FF74CFEBCF82
:1017000089E10E94D0096114710499F18CE795E098
:101710000E94791D80917C0590917D05A0917E05A8
:10172000B0917F058093860590938705A0938805E7
:10173000B0938905D30120E432E44FE050E00E94E9
:101740001C2A00918005109181052091820530911D
:101750008305600F711F821F931F60938A0570932A
:101760008B0580938C0590938D0586E895E00E940B
:101770006A1E1092840582E00E94D009412C512CEF
:1017800008C08FEF481A580A88EE48168DEF5806A1
:1017900021F0809184058823A1F36114710421F460
:1017A0008E8181112DC034C08CE795E00E94791D97
:1017B00080907C0590907D05A0907E05B0907F057F
:1017C000C0908005D0908105E0908205F09083055F
:1017D0000091860510918705209188053091890533
:1017E00040918A0550918B0560918C0570918D0513
:1017F00085E995E00E94D51D8F3F09F0BACFD0CF83
:101800008091420182958695877011F0CFEF06C0D6
:1018100088EE48168DEF5806C9F3C1E0832D0E946B
:10182000D0098C2FDF91CF911F910F91FF90EF90F6
:10183000DF90CF90BF90AF909F908F907F906F90F0
:101840005F904F903F90089560E070E00C94DC0A48
:10185000CF93DF9380918505882341F1C0914101A9
:10186000CF718C2F81508230C8F3C131B9F3C231AE
:10187000A9F3CF3199F3C83021F0C63011F0C63149
:10188000A9F486E10E94D009809148018068809384
:1018900048018091410187FFFCCFD09141018C2FFD
:1018A0000E94D009D6FB882780F901C08FEFDF9115
:1018B000CF91089580918505882309F485C0809192
:1018C0009405882309F47EC080917B01E091730523
:1018D000F091740590E002972481332727FD30951D
:1018E000281739070CF470C0E0917305F091740566
:1018F000809182018083E0917305F091740580915D
:1019000087019091880192838183E0917305F09122
:10191000740580917B018B508383A0917305B091F6
:101920007405E0917305F091740513969C91848180
:1019300089173CF0E0917305F0917405838187FF6E
:101940000DC01092940580914C018F7780934C01CB
:1019500080914C01806880934C0136C0A091730542
:10196000B0917405E0917305F091740513964C9154
:10197000842F992787FD9095592F69E871E085811B
:1019800096810E94162BE0917305F0917405809169
:10199000800185FB882780F98783E0917305F091AA
:1019A00074058091470180871092940580914C01C5
:1019B0008F7780934C0180914C01806880934C011B
:1019C00081E0089580E008958FEF08951F920F92AF
:1019D0000FB60F9211248F9380E880934F018F915F
:1019E0000F900FBE0F901F9018951F920F920FB679
:1019F0000F9211248F9381E08093840580E480937B
:101A00004F018F910F900FBE0F901F9018951F924E
:101A10000F920FB60F9211248F9380E280934F01A3
:101A20008F910F900FBE0F901F9018951F920F92DD
:101A30000FB60F9211248F9380E180934F018F9105
:101A40000F900FBE0F901F9018951F920F920FB618
:101A50000F9211240BB60F922F933F934F935F93E6
:101A60006F937F938F939F93AF93BF93EF93FF9366
:101A700084E080934F01E091EA03F091EB0330970B
:101A800009F00995FF91EF91BF91AF919F918F91CF
:101A90007F916F915F914F913F912F910F900BBE6E
:101AA0000F900FBE0F901F9018951F920F920FB6B8
:101AB0000F9211248F9382E080934F018F910F90AA
:101AC0000FBE0F901F9018951F920F920FB60F9296
:101AD00011248F9381E080934F018F910F900FBE5F
:101AE0000F901F901895E9E4F1E09081907F90832A
:101AF00090818F70892B808308958FEF08950895CA
:101B0000089508958FEF089580916E0590916F0567
:101B1000089580E00895089581E0089581E0089592
:101B200081E0089508950895089508950895089509
:101B300008950895E7E3F1E0808183608083989AB7
:101B4000A09A8DB1806E8DB98EB1806E8EB90895D8
:101B5000E7E3F1E0808183608083989AA0988DB15B
:101B6000806E8DB98EB1806E8EB90895CF92DF925E
:101B7000EF92FF920F931F93CF93DF93CDB7DEB712
:101B800027970FB6F894DEBF0FBECDBF0E94DE12BE
:101B9000E0917305F0917405C080D38005811681B2
:101BA000E0840E945A0C18161CF084E293E006C0F0
:101BB000F801F080F11007C083E493E00E94B32B9A
:101BC0000E94E01232C0F5E0FF1204C08AE090E00B
:101BD0000E94AD2BC80101969F938F938E2D99275C
:101BE00087FD90959F93EF921F92FF921F92CF9245
:101BF00085E693E09F938F930E94962B1D830C8321
:101C0000FA94F801F082DB821E821F828FEF9FEF31
:101C10009A8389830E94E012CE0101960E94240CCF
:101C20000FB6F894DEBF0FBECDBF27960FB6F8945F
:101C3000DEBF0FBECDBFDF91CF911F910F91FF90FF
:101C4000EF90DF90CF9008951F920F920FB60F92F2
:101C500011240BB60F922F933F934F935F936F9383
:101C60007F938F939F93AF93BF93EF93FF9380E006
:101C700001C08F5F90917B018917D8F38091460155
:101C800087FF04C081E08093940504C08EE893E050
:101C90000E94B32B88E080934F018091460187FF1B
:101CA00005C08091700581110E94B60DFF91EF91E2
:101CB000BF91AF919F918F917F916F915F914F9164
:101CC0003F912F910F900BBE0F900FBE0F901F9062
:101CD00018958091C00087FFFCCF8091C0008F775E
:101CE0008093C0008091C60008959091C00095FF38
:101CF000FCCF9091C0009F7D9093C0008093C60060
:101D000008958FEF0895813031F48091C80087FDE8
:101D100007C080E008958111FCCF8091C000F7CF0B
:101D200081E00895CF93DF93EC0107C060911D0619
:101D300070911E0690E00E946A2BFE01219684910C
:101D40008111F4CFDF91CF91089586E084B985B9F0
:101D500088EF8AB980EF8BB982E08EB980E681B9CD
:101D6000169A08950C94A50E8F3F09F466C0982F1B
:101D70009770923051F130F4992359F0913009F075
:101D80005CC015C09430E9F170F1953009F055C090
:101D900046C092B186958695869521E030E0082E62
:101DA00001C0220F0A94EAF7922B92B944C095B170
:101DB00086958695869521E030E0082E01C0220F99
:101DC0000A94EAF7922B95B936C098B18695869514
:101DD000869521E030E0082E01C0220F0A94EAF730
:101DE000922B98B928C09BB186958695869521E05F
:101DF00030E0082E01C0220F0A94EAF7922B9BB91B
:101E00001AC09EB186958695869521E030E0082E11
:101E100001C0220F0A94EAF7922B9EB90CC091B32D
:101E200086958695869521E030E001C0220F8A953F
:101E3000EAF7922B91BB81E008958FEF08958F3FD1
:101E400009F46DC0982F9770923069F130F499239E
:101E500061F0913009F063C017C0943009F441C0BB
:101E600088F1953009F05BC04BC092B1869586959C
:101E7000869521E030E0082E01C0220F0A94EAF78F
:101E80002095292322B949C095B1869586958695D6
:101E900021E030E0082E01C0220F0A94EAF72095D5
:101EA000292325B93AC098B186958695869521E073
:101EB00030E0082E01C0220F0A94EAF7209529236A
:101EC00028B92BC09BB186958695869521E030E098
:101ED000082E01C0220F0A94EAF7209529232BB976
:101EE0001CC09EB186958695869521E030E0082E2F
:101EF00001C0220F0A94EAF7209529232EB90DC0BC
:101F000091B386958695869521E030E001C0220F39
:101F10008A95EAF72095292321BB81E008958FEF68
:101F200008958F3F39F1982F9770923081F028F4FF
:101F3000992349F09130F1F408C0943061F048F0F1
:101F40009530C1F40AC020B109C023B107C026B141
:101F500005C029B103C02CB101C02FB130E0869576
:101F60008695869502C0359527958A95E2F7822F4A
:101F7000817008958FEF08958F3F09F4E7C0982F7F
:101F80009770923009F456C030F4992369F091307B
:101F900009F0DCC02CC0943009F492C008F46DC084
:101FA000953009F0D3C0AFC020B18695869586954F
:101FB00030E0082E02C0359527950A94E2F792B1D9
:101FC00020FD0AC021E030E0082E01C0220F0A9453
:101FD000EAF7922B92B921C021E030E0082E01C02F
:101FE000220F0A94EAF72095292322B916C023B1BB
:101FF00086958695869530E0082E02C03595279502
:102000000A94E2F795B120FD0AC021E030E001C05A
:10201000220F8A95EAF7922B95B981E0089521E085
:1020200030E0082E01C0220F0A94EAF720952923F8
:1020300025B9F3CF26B186958695869530E0082E92
:1020400002C0359527950A94E2F798B120FD0AC0A1
:1020500021E030E0082E01C0220F0A94EAF7922B0B
:1020600098B9DBCF21E030E0082E01C0220F0A949E
:10207000EAF72095292328B9D0CF29B186958695EE
:10208000869530E0082E02C0359527950A94E2F730
:102090009BB120FD0AC021E030E0082E01C0220FD4
:1020A0000A94EAF7922B9BB9B8CF21E030E0082ED2
:1020B00001C0220F0A94EAF7209529232BB9ADCF4E
:1020C0002CB186958695869530E0082E02C0359510
:1020D00027950A94E2F79EB120FD0AC021E030E086
:1020E000082E01C0220F0A94EAF7922B9EB995CFD1
:1020F00021E030E0082E01C0220F0A94EAF7209573
:1021000029232EB98ACF2FB186958695869530E002
:10211000082E02C0359527950A94E2F791B320FD69
:102120000AC021E030E0082E01C0220F0A94EAF72D
:10213000922B91BB72CF21E030E0082E01C0220F1C
:102140000A94EAF72095292321BB67CF8FEF0895E2
:102150008F3F09F4E5C0982F977061117DC09230D0
:1021600099F130F4992361F0913009F0D9C01AC087
:10217000943009F44DC0D0F1953009F0D1C05AC067
:1021800091B186958695869521E030E001C0220FB9
:102190008A95EAF7822F8095892381B982B1822BB3
:1021A00082B9BCC094B186958695869521E030E0D1
:1021B00001C0220F8A95EAF7822F8095892384B97E
:1021C00085B1822B85B9AAC097B1869586958695EB
:1021D00021E030E001C0220F8A95EAF7822F809536
:1021E000892387B988B1822B88B998C09AB186951E
:1021F0008695869521E030E001C0220F8A95EAF7A6
:10220000822F809589238AB98BB1822B8BB986C0A6
:102210009DB186958695869521E030E001C0220F1C
:102220008A95EAF7822F809589238DB98EB1822B0A
:102230008EB974C090B386958695869521E030E07E
:1022400001C0220F8A95EAF7822F8095892380BBEF
:1022500081B3822B81BB62C0923051F130F499235B
:1022600059F0913009F05CC015C09430E9F170F17B
:10227000953009F055C046C091B1869586958695F2
:1022800021E030E0082E01C0220F0A94EAF7922BD9
:1022900091B944C094B186958695869521E030E049
:1022A000082E01C0220F0A94EAF7922B94B936C087
:1022B00097B186958695869521E030E0082E01C07D
:1022C000220F0A94EAF7922B97B928C09AB1869503
:1022D0008695869521E030E0082E01C0220F0A94F1
:1022E000EAF7922B9AB91AC09DB186958695869584
:1022F00021E030E0082E01C0220F0A94EAF7922B69
:102300009DB90CC090B386958695869521E030E006
:1023100001C0220F8A95EAF7922B90BB81E00895C5
:102320008FEF0895811106C080B18695817091E08C
:10233000892708958FEF0895009711F483E20DC067
:102340008130910511F48BE208C08230910511F4BF
:1023500083E303C0039729F48BE30E94BC0F81E061
:1023600008958FEF0895009711F483E20DC0813036
:10237000910511F48BE208C08230910511F483E3DA
:1023800003C0039729F48BE30E94B40E81E0089503
:102390008FEF0895009711F483E20DC0813091050D
:1023A00011F48BE208C08230910511F483E303C07D
:1023B000039729F48BE30E941F0F81E008958FEFAC
:1023C0000895882319F085B78F7E02C085B7806194
:1023D00085BF81E008959091C80095FFFCCF809360
:1023E000CE0008959093C5008093C40086E080934A
:1023F000C200E1ECF0E080818B7F8083A0ECB0E054
:102400008C9182608C938081886180830895909301
:10241000CD008093CC0086E08093CA00E9ECF0E028
:1024200080818B7F8083A8ECB0E08C9182608C935C
:1024300080818861808308950E94F21169E67EE0C0
:1024400085E79EE00E941F2B90931E0680931D0639
:1024500069E67EE085E79EE00E941F2B90931C06B4
:1024600080931B0608958091C80087FFFCCF809160
:10247000C8008F778093C8008091CE000895000037
:102480000000000000000197D1F708950C94712C12
:102490000E94792C0895EF92FF920F931F93CF9390
:1024A000DF93EC0180E090E00E94712CF82E8B838A
:1024B00081E090E00E94712CE82E8A8382E090E017
:1024C0000E94712C082F898383E090E00E94712C78
:1024D000182F888384E090E00E94712C9E2D9F0D20
:1024E000900F910F891302C081E001C08FEFDF913F
:1024F000CF911F910F91FF90EF900895CF93DF93AD
:10250000EC0185E090E00E94712C888381E0DF91EE
:10251000CF910895FC01608186E090E00E94792CC3
:1025200081E00895CF93DF93EC0186E090E00E9474
:10253000712C888381E0DF91CF9108950F931F93D1
:10254000CF93DF93EC0108E010E0C8010E94712CEA
:1025500089930F5F1F4F08311105B9F781E0DF91B3
:10256000CF911F910F9108950F931F93CF93DF93F6
:10257000EC0108E010E06991C8010E94792C0F5F1E
:102580001F4F08311105B9F781E0DF91CF911F91FD
:102590000F910895CF93DF93EC0187E090E00E94C4
:1025A000712C888381E0DF91CF910895FC016081D7
:1025B00087E090E00E94792C81E00895F8940895D6
:1025C000789408950E94DE12FFCFCF93DF93CDB7AA
:1025D000DEB7A3970FB6F894DEBF0FBECDBF0E9443
:1025E00005178093EA058F3F21F460E08EE00E949A
:1025F00027150E94C62580FF04C060E086E00E9487
:1026000027151092ED051092FB051092FA05109215
:10261000EC051092EB051092FC051092F9058FEF76
:102620008093E3058093E5058093E4058093E605B8
:102630008093E8058093E70593E69093A90580933E
:10264000A7059093CA058093C80522E036E0309331
:102650000106209300068DEF95E090930406809389
:10266000030647E056E05093060640930506309374
:102670000906209308061092FF051092FE0510929D
:102680000B0610920A061092F0051092EF05909337
:102690009E0580939D0566E970E2CE0101960E9439
:1026A000FF2740E850E06CE974E0CE0101960E94FB
:1026B000032885E580939C0419861C861D861E864A
:1026C0001F86188A198A1A8A1B8A1C8A1D8A1E8AE2
:1026D0001F8A188E198E1A8E1B8E1C8E1D8E1E8EB2
:1026E0001F8E18A219A21AA21BA281E0888792E06D
:1026F0009A878B87CE0101960E94481BA3960FB63E
:10270000F894DEBF0FBECDBFDF91CF9108956091E9
:10271000A7056F3F39F08091C805681303C085E0B5
:102720000E9427156091C8056F3F39F08091A70579
:10273000681303C085E00E9427150E94451A91E2A4
:102740008902F0011124E156FA4F82858093FC053D
:10275000F093FB05E093FA05F093EC05E093EB05AD
:102760008093ED050E9487280E9471280E948B2883
:10277000FFCFAF92BF92CF92DF92EF92FF920F9373
:102780001F93CF93DF931F92CDB7DEB75C016B0130
:102790007A01DC0119968C911997823021F0809191
:1027A000E9058C9302C0F50110828091E905823021
:1027B00020F060E087E00E942715D50119968C91E2
:1027C000823029F08091E9058F5F8093E90580913F
:1027D000E905811103C081E08093E905F5013081AD
:1027E00021E23203F0011124E156FA4FD182C08276
:1027F000D50118968C91189782873C913203F0018D
:102800001124E156FA4F83E081873C913203F001B5
:102810001124E156FA4F30870C91020380011124F4
:1028200001561A4FF8011582C5010B960E94F81E39
:10283000D8015C969C938E935B97F5010385148574
:10284000258536850E3311052105310520F060817F
:1028500086E10E942715D5010C91112707FD1095DF
:10286000C5014B960E94F81E41E2409FD001419F56
:10287000B00D1124A156BA4F56969C938E9355973E
:10288000F501008104038001112401561A4FD8017B
:1028900055968D919C9156975B962D913C915C97A6
:1028A000820F931F58969C938E935797C50143961A
:1028B00049830E94F81EF801968F858FD5012C91CF
:1028C00049812403F0011124E156FA4F858D968D3C
:1028D000928F818F81E090E090A3878FF382E282D4
:1028E00081E084870F90DF91CF911F910F91FF902E
:1028F000EF90DF90CF90BF90AF9008950C94BA20E6
:1029000085E690E00895E091FA05F091FB05848753
:102910000895E091FA05F091FB05848508952091D2
:102920009B04222341F0FB0120832091EE03FC0154
:10293000208381E0089580E0089580919B0488239E
:1029400009F483C00E94DE128AE891E00E94920E90
:102950008091EE031F928F9381EF92E09F938F936C
:102960000E94962B86E991E00E94920E0F900F90A4
:102970000F900F9080919B04883110F010929B046F
:1029800080919B0490E0FC013197E631F10508F05D
:1029900046C0E057FF4F0C94F02A8AE991E041C00D
:1029A00086ED91E03EC08DEF91E03BC081E192E089
:1029B00038C087E292E035C082E492E032C088E518
:1029C00092E02FC080E792E02CC083E892E029C01B
:1029D00086E992E026C084EB92E023C089ED92E084
:1029E00020C085EE92E01DC080E093E01AC08FE029
:1029F00093E017C083E293E014C084E393E011C036
:102A000088E493E00EC088E693E00BC080E893E092
:102A100008C08BE993E005C08CEA93E002C08BEB21
:102A200093E00E94920E60911D0670911E068DE04B
:102A300090E00E946A2B60911D0670911E068AE04C
:102A400090E00E946A2B10929B0480E0089580938E
:102A50009B046093EE030C949D1480939B04E0917F
:102A6000FA05F091FB0580858093EE030C949D148C
:102A7000CF93DF931F92CDB7DEB7198207C080EDE9
:102A800097E00E94FB2389818F5F89838981843647
:102A9000B0F30F90DF91CF91089581E090E00E9414
:102AA000CA110E94381581E090E00E94B3110C9485
:102AB000381581E090E00E94CA110E9438150E94EA
:102AC00038150E94381581E090E00E94B3110C94F3
:102AD0003815FF920F931F93CF93DF9300D01F926F
:102AE000CDB7DEB71F928F9381EF92E09F938F93C4
:102AF0008E010F5F1F4F1F930F930E94E22B0F90C9
:102B00000F900F900F900F900F90F12C6FC0F80165
:102B1000E80FF91F80818433B9F168F48133E9F05B
:102B200020F4803309F05BC015C0823309F1833390
:102B300009F055C022C08733C1F130F4853369F103
:102B4000863309F04CC02CC08833B1F1893309F0C9
:102B500046C03BC00E94591502C00E944D150E94FC
:102B600059150E9459150E9459150E94591537C0D0
:102B70000E944D150E944D15F4CF0E944D150E94E4
:102B80004D150E944D15EFCF0E944D150E944D1519
:102B90000E944D150E944D15E8CF0E944D1502C0B0
:102BA0000E9459150E944D1504C00E9459150E949B
:102BB00059150E944D1506C00E9459150E945915BD
:102BC0000E9459150E944D1508C00E9459150E9477
:102BD00059150E9459150E9459150E944D150E94C1
:102BE00038150E9438150E943815F394F8010190A9
:102BF0000020E9F73197E01BF10B8F2D90E08E1745
:102C00009F0708F484CF0F900F900F90DF91CF9122
:102C10001F910F91FF9008955F926F927F928F9214
:102C20009F92AF92BF92CF92DF92EF92FF920F935B
:102C30001F93CF93DF9382EC93E00E94920EE0917A
:102C4000FA05F091FB052085822F992787FD909545
:102C50009F932F9387EA93E09F938F930E94962BE5
:102C6000E091FA05F091FB05C281D381DF93CF9308
:102C70008BED93E09F938F930E94962B88811F92F8
:102C80008F9380EB93E09F938F930E94962BE0911C
:102C9000FA05F091FB0581818F9380818F938DEBF5
:102CA00093E09F938F930E94962B8091FB058F93C7
:102CB0008091FA058F9387EC93E09F938F930E9406
:102CC000962B0FE915E0EDB7FEB774960FB6F894A2
:102CD000FEBF0FBEEDBFC0E0D0E087ED882E83E0E1
:102CE000982E90EBA92E93E0B92E2DEBC22E23E067
:102CF000D22E31E2532E47ECE42E43E0F42EF801BD
:102D0000628073807F926F92DF93CF939F928F92B6
:102D10000E94962BF30180811F928F93BF92AF92F6
:102D20000E94962BF80181818F9380818F93DF928F
:102D3000CF920E94962B5C9EC0015D9E900D112447
:102D400081569A4F9F938F93FF92EF920E94962BFA
:102D500021960F5D1F4F8DB79EB742960FB6F89420
:102D60009EBF0FBE8DBFC230D10549F6DF91CF9116
:102D70001F910F91FF90EF90DF90CF90BF90AF9099
:102D80009F908F907F906F905F900895CF93DF9387
:102D9000E091FA05F091FB05C281D38188818535E8
:102DA00039F00E940C1681E00E942D1585E588837C
:102DB000E091FA05F091FB058081918181159244A3
:102DC00038F00E940C1682E1DF91CF910C942D1502
:102DD000DF91CF91089521E28202F0011124E156A2
:102DE000FA4FA281B3818C91853519F085E58C93DA
:102DF00008C0808191818115924428F082E10E946F
:102E00002D158FEF089581E008950F931F93009182
:102E1000130410911404209115043091160480E0DD
:102E200090E0B901A801082E04C0769567955795E2
:102E300047950A94D2F740FD19C041E050E060E0A8
:102E400070E0082E04C0440F551F661F771F0A94B8
:102E5000D2F7402B512B622B732B409313045093CA
:102E60001404609315047093160405C00196803213
:102E70009105B9F68FEF1F910F910895E091FA0532
:102E8000F091FB0565857685878590890895CF92B9
:102E9000DF92EF92FF920F931F93CF93DF931F92D6
:102EA000CDB7DEB7C12CD12C7601C394082E04C057
:102EB000CC0CDD1CEE1CFF1C0A94D2F740911304CD
:102EC0005091140460911504709116044C215D21F9
:102ED0006E217F21452B462B472B09F463C0898344
:102EE0000E94DE12E8EAF5E0970186010095109550
:102EF0002095309593E08981DF0111974C914F3FE8
:102F000049F144815581668177814C155D056E05D7
:102F10007F0541F41086118612861386DF01129711
:102F20001C9290834481558166817781402351238F
:102F30006223732344835583668377834085518559
:102F40006285738540235123622373234087518711
:102F500062877387B19645E0EA3EF40769F64EEF63
:102F60005FEF6FEF7FEF04C0440F551F661F771FA1
:102F70008A95D2F78091130490911404A0911504BE
:102F8000B091160484239523A623B72380931304BA
:102F900090931404A0931504B09316040E94E012B9
:102FA00081E001C08FEF0F90DF91CF911F910F91C2
:102FB000FF90EF90DF90CF9008950F931F9341E023
:102FC00050E060E070E004C0440F551F661F771F9B
:102FD0008A95D2F7E091FA05F091FB0585859685F3
:102FE000A785B0898A019B01082319232A233B2343
:102FF000012B022B032BD1F04095509560957095D5
:1030000084239523A623B72385879687A787B08B2C
:1030100081899289A389B48984239523A623B72320
:10302000818B928BA38BB48B81E001C08FEF1F91BA
:103030000F91089540911304509114046091150468
:1030400070911604082E04C076956795579547959C
:103050000A94D2F740FF1DC0E091FA05F091FB05FC
:1030600041E050E060E070E004C0440F551F661F6F
:10307000771F8A95D2F785859685A785B089842B99
:10308000952BA62BB72B85879687A787B08B81E0DA
:1030900008958FEF0895CF92DF92EF92FF921F93E2
:1030A000CF93DF93C12CD12C7601C39404C0CC0CF8
:1030B000DD1CEE1CFF1C8A95D2F7809113049091C1
:1030C0001404A0911504B09116048C219D21AE2109
:1030D000BF21892B8A2B8B2B11F481E040C00E94E9
:1030E000DE12E6EAF5E0C8EAD5E010E023E08081F0
:1030F0008130A9F482859385A485B5858C219D2195
:10310000AE21BF21892B8A2B8B2B49F02883178670
:1031100016861082C286D386E486F58611E0808109
:10312000823091F482859385A485B5858C159D05A3
:10313000AE05BF0549F428831786168610821286CD
:1031400013861486158611E0B196A19685E0E83EB7
:10315000F80769F60E94E012111105C082E00E9492
:1031600083148FEF01C081E0DF91CF911F91FF9019
:10317000EF90DF90CF9008950F931F93E091FA05A1
:10318000F091FB05058516852785308906231723D1
:1031900028233923012B022B032B19F1618B728B0E
:1031A000838B948B21E02783DC01CB010090EA051F
:1031B00004C0B695A795979587950A94D2F780FF96
:1031C00003C00E94261C04C080E090E00E944D1CB9
:1031D000E091FA05F091FB05018912892389348970
:1031E00003C000E010E09801B801C9011F910F91E0
:1031F00008959091F90591111CC09091E3059F3FAE
:1032000031F09091E6059F3F21F421E003C020E0DA
:1032100001C022E030E0F901EE0FFF1FE20FF31FC3
:10322000ED51FA4F82838083618381E08093F905B9
:1032300002C0E0E0F0E0CF01089525E0833E920770
:1032400029F0865E954021F481E0089580E008959C
:103250008FEF08950E941D198F3F11F481E002C085
:10326000823021F40E9483148FEF0895992787FDFF
:103270009095FC01EE0FFF1FE80FF91FED51FA4F7B
:103280008FEF8083828381838091F90581508093C1
:10329000F90581E008950F931F93CF93DF931F9259
:1032A000CDB7DEB70E941D198F3F11F481E002C037
:1032B000823021F40E9483148FEF70C0282F3327AF
:1032C00027FD30958901000F111F020F131F0D51AB
:1032D0001A4FF8012281908129170CF05EC0898372
:1032E0000E94DE12F80192819F5F9283E091FA05BD
:1032F000F091FB0514829091A6058981923021F509
:10330000482F552747FD5095652F752F0091B00523
:103310001091B1052091B2053091B305041715073E
:103320002607370789F493E09093A8051092B50516
:103330001092B4051092A6051092B0051092B10536
:103340001092B2051092B3059091C705923019F50D
:10335000992787FD9095A92FB92F4091D1055091BC
:10336000D2056091D3057091D405481759076A07B3
:103370007B0789F483E08093C9051092D6051092EB
:10338000D5051092C7051092D1051092D205109262
:10339000D3051092D4050E94E01281E00F90DF91D6
:1033A000CF911F910F9108950F931F93CF93DF93A8
:1033B0001F92CDB7DEB70E941D198F3F11F481E037
:1033C00002C0823021F40E9483148FEF40C08983B1
:1033D0000E94DE128981082F112707FD1095F80140
:1033E000EE0FFF1FE00FF11FED51FA4F9281911187
:1033F00016C0E091FA05F091FB05978192609783E2
:10340000992787FD9095A92FB92F818B928BA38B3C
:10341000B48B0E94E01280E090E00E944D1CF80105
:10342000EE0FFF1FE00FF11FED51FA4F8281815027
:103430008283A091FA05B091FB0581811B968C9344
:103440001B9781E014968C930E94E01281E00F900C
:10345000DF91CF911F910F9108950E941D198F3F09
:1034600011F481E002C0823021F40E9483148FEFB6
:103470000895992787FD9095FC01EE0FFF1FE80F37
:10348000F91FED51FA4F82810895E091EF05F09117
:10349000F00580810895E091EF05F091F00503C0FB
:1034A0000380F481E02D3097D9F70895CF92DF9211
:1034B000EF92FF920F931F93CF93DF93E0919D05BF
:1034C000F0919E05309709F48AC04091EF05509124
:1034D000F0054115510509F446C0DA0191E2692F62
:1034E000782F76039001112421563A4F8901065F07
:1034F0001F4F7901C4E0EC0EF11C255F3F4F6C912A
:1035000070E0969FE001979FD00D1124C156DA4FCD
:10351000DC80DD2029F0DB84E801C880DC1428F1A0
:10352000E701D880DD2061F0969FE001979FD00DE4
:103530001124C156DA4FDA84E901C880DC14A8F0FE
:10354000969FE001979FD00D1124C156DA4F7A85DE
:10355000E8016881761748F013960D90BC91A02D74
:10356000109769F602C0A0E0B0E08083C381D481E7
:10357000D0939E05C0939D05A417B507B1F410978D
:1035800049F0B483A383128211821296FC93EE93C6
:10359000119706C01482138212821182FA83E98382
:1035A000F093F005E093EF051AC011968D919C9170
:1035B0001297AC17BD0759F092838183B483A3831C
:1035C0001196CD91DC911297FC83EB8304C0148299
:1035D0001382928381831296FC93EE931197DF916D
:1035E000CF911F910F91FF90EF90DF90CF900895B2
:1035F000CF93DF93E091EF05F091F005309709F458
:1036000044C0992787FD9095208130E0281739071D
:1036100081F4A381B481B093F005A093EF051296D5
:103620001C921E92119718C00380F481E02D3097F0
:1036300061F1208130E028173907B1F7C181D281CB
:10364000838194819C838B83A381B481109721F023
:103650001296DC93CE931197A0919D05B0919E0593
:10366000109739F4F0939E05E0939D051482138220
:103670000AC0B483A3831296FC93EE931197F09340
:103680009E05E0939D0512821182DF91CF910895EE
:10369000EF92FF920F931F93CF93DF93EC014B8137
:1036A0005C8169817A818D819E810E9422282F818F
:1036B000222371F04B815C81E12CF12C00E010E0C1
:1036C00020E030E0BC01CE010E94B9131F820CC083
:1036D000E88121E2E202F0011124E156FA4F21854E
:1036E000233099F491838083E88181E2E802F0013C
:1036F0001124E156FA4F85899689892B41F482E09D
:10370000818788810E94561A02C08FEF01C081E034
:10371000DF91CF911F910F91FF90EF9008951F932C
:10372000CF93DF93CDB7DEB728970FB6F894DEBFFF
:103730000FBECDBF29833A834B835C836D837E8329
:103740008F8398870E94DE120E944A25182FCE018F
:1037500001960E94F81E8330910560F0E091FA0511
:10376000F091FB05810F911D968B858B0E94E012D5
:1037700081E001C08FEF28960FB6F894DEBF0FBE30
:10378000CDBFDF91CF911F9108950E94F427E09162
:10379000FA05F091FB0585818111F7CF0895FF921D
:1037A0000F931F93CF93DF93CDB7DEB728970FB654
:1037B000F894DEBF0FBECDBF29833A834B835C8371
:1037C0006D837E838F8398870E94C6160E94DE12C7
:1037D000E091FA05F091FB0581E0858381E090E0BE
:1037E00090A3878F0E944A25F82ECE0101960E9451
:1037F000F81EE091FA05F091FB050F2D10E0800F07
:10380000911F968B858B87EF8F1578F00E94E324AC
:103810000F5F1F4F282F30E00217130734F48F2D4E
:103820008E5F80939A040E94E7240E94E0120E9417
:10383000C51B81E028960FB6F894DEBF0FBECDBF42
:10384000DF91CF911F910F91FF900895CF930E9428
:10385000DE12E091FA05F091FB0581E08583868315
:103860000E944A25C82F883F88F40E94E3242C2F09
:1038700030E02F5F3F4F482F50E02417350734F4D6
:103880008C2F8E5F80939A040E94E7240E94E0129E
:103890000E94C51B81E0CF910895CF93DF93EC0187
:1038A0000E94DE12E091FA05F091FB0581E085832C
:1038B000D68BC58B0E944A25C82F883F88F40E946A
:1038C000E3242C2F30E02F5F3F4F482F50E0241788
:1038D000350734F48C2F8E5F80939A040E94E7247E
:1038E0000E94E0120E94C51B81E0DF91CF910895F4
:1038F000FF920F931F93CF93DF938C010E94DE12F0
:10390000E091FA05F091FB0581E085830E944A254C
:10391000F82EE091FA05F091FB05C82FD0E00C0FCE
:103920001D1F168B058B87EF8F1570F00E94E32407
:103930002196282F30E0C217D30734F48F2D8E5FE5
:1039400080939A040E94E7240E94E0120E94C51B03
:1039500081E0DF91CF911F910F91FF900895CF9358
:10396000DF93EC010E94C616209711F4C1E0D0E06D
:103970000E94DE12E091FA05F091FB0581E085835B
:10398000D0A3C78F0E944A25C82F883F88F40E9481
:10399000E3242C2F30E02F5F3F4F482F50E02417B7
:1039A000350734F48C2F8E5F80939A040E94E724AD
:1039B0000E94E0120E94C51B81E0DF91CF91089523
:1039C000CF930E94C6160E94DE12E091FA05F09194
:1039D000FB0581E090E090A3878F81E085830E94C2
:1039E0004A25C82F883F88F40E94E3242C2F30E01A
:1039F0002F5F3F4F482F50E02417350734F48C2FAA
:103A00008E5F80939A040E94E7240E94E0120E9435
:103A1000C51B81E0CF910895E091FA05F091FB0577
:103A200080850E94F81AE091FA05F091FB0584E088
:103A300081870E94E01C81E008958F929F92AF924F
:103A4000BF92CF92DF92EF92FF920F931F93CF938B
:103A5000DF93CDB7DEB760970FB6F894DEBF0FBE29
:103A6000CDBF29873A874B875C876D877E878F8795
:103A7000988BCE0101960E94791D89809A80AB8037
:103A8000BC80CD80DE80EF80F88409851A852B8587
:103A90003C854D855E856F857889CE0109960E94AB
:103AA000D51D8F3F61F029853A854B855C856D85F5
:103AB0007E858F8598890E94CF1B81E001C08FEFA2
:103AC00060960FB6F894DEBF0FBECDBFDF91CF91E9
:103AD0001F910F91FF90EF90DF90CF90BF90AF902C
:103AE0009F908F900895E091FA05F091FB058085F5
:103AF0000895CF92DF92EF92FF92CF93DF93EC0184
:103B00001C821D821E821F828091F1059091F20518
:103B1000A091F305B091F40588839983AA83BB83B0
:103B2000C090F505D090F605E090F705F090F80507
:103B3000CC82DD82EE82FF820E944A25A82FB0E06F
:103B400023EB36EE4EE050E00E941C2A6C0D7D1DEA
:103B50008E1D9F1D6C837D838E839F8313C09A5C13
:103B6000AA49BB438C839D83AE83BF83488159811F
:103B70006A817B814F5F5F4F6F4F7F4F48835983CF
:103B80006A837B838C819D81AE81BF8181152AEC04
:103B900092072AE9A2072BE3B20708F7DF91CF913A
:103BA000FF90EF90DF90CF9008956F927F928F9269
:103BB0009F92AF92BF92CF92DF92EF92FF920F93BC
:103BC0001F93CF93DF93CDB7DEB760970FB6F8940E
:103BD000DEBF0FBECDBF3C0109831A832B833C831C
:103BE0004D835E836F83788789869A86AB86BC8691
:103BF000CD86DE86EF86F88AC980DA80EB80FC808D
:103C00008D819E81AF81B88509851A852B853C857C
:103C10004D855E856F857889C016D106E206F3066C
:103C200008F442C00C151D052E053F0599F48417B4
:103C30009507A607B707C0F1841B950BA60BB70B1A
:103C4000F30184839583A683B78310821182128245
:103C5000138228C084179507A607B70790F4F1E0F0
:103C6000CF1AD108E108F108C01AD10AE20AF30A12
:103C7000F301C082D182E282F3829653A546B44C0E
:103C800009C0C01AD10AE20AF30AF301C082D18244
:103C9000E282F382841B950BA60BB70B848395837A
:103CA000A683B78381E001C08FEF60960FB6F894CA
:103CB000DEBF0FBECDBFDF91CF911F910F91FF905F
:103CC000EF90DF90CF90BF90AF909F908F907F90BC
:103CD0006F900895FC0113C05A5C6A497B4344838A
:103CE00055836683778340815181628173814F5F01
:103CF0005F4F6F4F7F4F4083518362837383448153
:103D000055816681778141158AEC58078AE96807F1
:103D10008BE3780708F708958F929F92AF92BF9236
:103D2000CF92DF92EF92FF920F931F93CF93DF9387
:103D3000CDB7DEB760970FB6F894DEBF0FBECDBF2C
:103D400009831A832B833C834D835E836F8378873B
:103D500089869A86AB86BC86CD86DE86EF86F88A13
:103D600049855A856B857C8509811A812B813C8127
:103D7000400F511F621F731FFC01408351836283F8
:103D800073834D855E856F8578890D811E812F81B6
:103D90003885400F511F621F731F4483558366830C
:103DA00077830E946A1E81E060960FB6F894DEBFAA
:103DB0000FBECDBFDF91CF911F910F91FF90EF907C
:103DC000DF90CF90BF90AF909F908F9008956093B9
:103DD000F1057093F2058093F3059093F405209319
:103DE000F5053093F6054093F7055093F8050895CF
:103DF0002F923F924F925F926F927F928F929F92FB
:103E0000AF92BF92CF92DF92EF92FF920F931F93E8
:103E1000CF93DF93CDB7DEB762970FB6F894DEBFCE
:103E20000FBECDBFFC0140805180628073806481F1
:103E3000758186819781411451046104710409F4EC
:103E40006CC0F2E44F1651046104710408F06CC0B8
:103E50007B018C0120E030E0A9016983FA820B83A9
:103E60001C832D833E834F835887E0E0F0E0B0E071
:103E7000A0E0198A1A8A312C812C912C01C09394CC
:103E80009F014B2F5A2F69897A89832D982DA980FC
:103E9000BA80CB80DC80ED80FE800F8118850E9487
:103EA000F62A222E39874A875B876C877D878E8723
:103EB0009F879F014B2F5A2F69897A89832D982DCF
:103EC00036534546544C6F4F7F4F8F4F9F4FF901EC
:103ED000B42FA52F698B7A8B382E892E492D50E06F
:103EE00060E070E0441555056605770540F283EB08
:103EF000A82E96EEB92E2EE0C22ED12CE12CF12C5C
:103F000000E010E0222D39854A855B856C857D8532
:103F10008E859F850E94932A09C023EB36EE4EE0E2
:103F200050E00E94532A02C020E030E0C9016296AE
:103F30000FB6F894DEBF0FBECDBFDF91CF911F91BA
:103F40000F91FF90EF90DF90CF90BF90AF909F9038
:103F50008F907F906F905F904F903F902F9008953B
:103F6000CF92DF92EF92FF92CF93DF93CDB7DEB780
:103F700028970FB6F894DEBF0FBECDBF6B017C0152
:103F80003AE0F694E794D794C7943A95D1F7C9826A
:103F9000DA82EB82FC829B01AC0133704427552707
:103FA00063EB76EE8EE090E00E942F2A2C2D3A8172
:103FB0004B815C8128960FB6F894DEBF0FBECDBF53
:103FC000DF91CF91FF90EF90DF90CF9008952F92E7
:103FD0003F924F925F926F927F928F929F92AF9299
:103FE000BF92CF92DF92EF92FF920F931F93CF93E6
:103FF000DF93CDB7DEB762970FB6F894DEBF0FBE82
:10400000CDBFFC01408051806280738064817581E6
:1040100086819781411451046104710409F465C0DB
:104020007B018C0120E030E0A9016983FA820B83D7
:104030001C832D833E834F835887E0E0F0E0B0E09F
:10404000A0E0198A1A8A312C812C912C01C09394FA
:104050009F014B2F5A2F69897A89832D982DA9802A
:10406000BA80CB80DC80ED80FE800F8118850E94B5
:10407000F62A222E39874A875B876C877D878E8751
:104080009F879F014B2F5A2F69897A89832D982DFD
:1040900036534546544C6F4F7F4F8F4F9F4FF9011A
:1040A000B42FA52F698B7A8B382E892E492D50E09D
:1040B00060E070E0441555056605770540F243EB76
:1040C000A42E56EEB52E6EE0C62ED12CE12CF12C8E
:1040D00000E010E0222D39854A855B856C857D8561
:1040E0008E859F850E94932A06C023EB36EE4EE014
:1040F00050E00E94532AB901CA0162960FB6F894A3
:10410000DEBF0FBECDBFDF91CF911F910F91FF900A
:10411000EF90DF90CF90BF90AF909F908F907F9067
:104120006F905F904F903F902F900895C1E0D2E044
:104130000E94C6160E94E324843028F4C093EE0542
:104140000E94F42708C08AE090E00E94FB23D093ED
:10415000EE050E94E82780919C04853519F088E0DF
:104160000E942D1580917E41853511F388E00E94D3
:104170002D15DECF2F923F924F925F926F927F92DA
:104180008F929F92AF92BF92CF92DF92EF92FF9267
:104190000F931F93CF93DF9300D000D01F92CDB722
:1041A000DEB70E9417240E94DE120E9436240E946D
:1041B0003E249A8389838AEF0E94E724A0919A047F
:1041C000B0E023EB36EE4EE050E00E941C2A6B017B
:1041D0007C018091F5059091F605A091F705B091CD
:1041E000F805C80ED91EEA1EFB1EC701B6010E94C3
:1041F000532AC61AD70AE80AF90A8091F105909164
:10420000F205A091F305B091F40573EB872E76EEDD
:10421000972E7EE0A72EB12C12C02AECD21A2AE9E2
:10422000E20A2BE3F20AC701B601A50194010E943C
:10423000532AC61AD70AE80AF90AD301C201412C47
:10424000512C32014394480E591E6A1E7B1EC11424
:10425000EAECDE06EAE9EE06EBE3FE06F0F6809312
:10426000F1059093F205A093F305B093F405C09285
:10427000F505D092F605E092F705F092F805E09189
:10428000FA05F091FB0585818823C1F08185843092
:10429000A9F08781823009F405C0882341F0868126
:1042A000811102C085E001C083E0818704C083E002
:1042B00081871782168280850E94F81AE091FA059C
:1042C000F091FB05858D968D892B91F16085662394
:1042D00079F18185843061F1218D328D80919A044C
:1042E00090E02817390750F482E00E942715E091EA
:1042F000FA05F091FB05128E118E04C0281B390BB4
:10430000328F218FE091FA05F091FB051085218D08
:10431000328D232B69F4612F83E00E942715E091F1
:10432000FA05F091FB0583E08187812F0E94F81A3E
:1043300087EA682E85E0782E98EA892E95E0992EF6
:1043400026EAA22E25E0B22E35EAC32E35E0D32E82
:1043500044EAE42E45E0F42E00E61AEE40E02AEFAF
:1043600030E0212C312C21012394D3018C918F3FFB
:1043700009F4BFC0F70110828C91882309F43FC073
:10438000D4018C918430D9F11C966D917C911D974C
:1043900080919A0490E06817790738F0681B790BD0
:1043A0001D967C936E931C9703C0F40115861486AA
:1043B000D4011E966D917C911F976817790738F08C
:1043C000681B790B1F967C936E931E970FC0F401A8
:1043D000628973898617970728F4681B790B77879A
:1043E000668704C00E943F2A97878687F4018685E6
:1043F0009785892B21F48289938997878687D401B1
:104400008C91833009F075C01C968D919C911D97FD
:10441000892B09F063C0F50180818823A1F0D601C2
:104420008C91882381F0D201C1010090EA0504C07B
:10443000880F991FAA1FBB1F0A94D2F7F401808727
:104440009187A287B387D5011C92F6011082D7010C
:104450001C92F4018689978981309105D1F4848971
:104460009589918B808B82E080838685978595875F
:10447000848782899389892B11F435872487842F37
:104480002C833D834B830E94561A2C813D814B81A6
:1044900025C0D40164897589718B608BFC013197CB
:1044A00052968D919C915397E89FB001E99F700DB2
:1044B000F89F700D11241D967C936E931C971F9688
:1044C0007C936E931E97892B21F41D963C932E931B
:1044D0001C9781E090E0F401978B868BD4011C96A9
:1044E0008D919C911D97009721F08017910708F4FA
:1044F0008C014F5FB1E26B0E711CE1E28E0E911CDC
:10450000F1E2AF0EB11C81E2C80ED11C91E2E90EBE
:10451000F11C423009F029CF0E94451AF82EA1E281
:104520008A02F0011124E156FA4F82858093FC053E
:10453000F093EC05E093EB05FF2091F0258D368D8F
:10454000232B51F0218D328D2A3F310528F420177D
:104550003107F0F489011CC00B3F1105C8F013C0EE
:1045600004301105A8F09801235031092A3F310584
:1045700038F489012230310558F402E010E008C017
:104580000D3F110519F00AEF10E002C007EF10E02F
:104590008093ED05F093FB05E093FA0500939A04F0
:1045A0000E944A25282F30E02F5F3F4F2017310708
:1045B00040F00E944A25082F10E00E5F1F4F009325
:1045C0009A04F1101092EE05802F0E94E7246CED02
:1045D00075E089819A810E9451240E9480280F9061
:1045E0000F900F900F900F90DF91CF911F910F912F
:1045F000FF90EF90DF90CF90BF90AF909F908F9003
:104600007F906F905F904F903F902F900C948B28ED
:1046100040910D06141694F054E0450290011124C7
:10462000F901E25FF94F6083F901E05FF94F91838F
:1046300080834F5F40930D0681E008958FEF0895CA
:104640000F931F93CF93DF93062F40910D065527AD
:1046500047FD509510E0E82FF0E030C0E901CC0FA5
:10466000DD1FCC0FDD1FDE01A25FB94F8C919927B2
:1046700087FD90958E179F0701F5F901EE5EF94FC2
:10468000808181110EC081E08083FE01E05FF94FDF
:104690000190F081E02D20E040E050E0602F80E0CC
:1046A0000995C05FD94FE881F98120E040E050E0F2
:1046B000602F81E00995812F07C01F5F212F30E017
:1046C000241735075CF28FEFDF91CF911F910F9187
:1046D0000895E82FF0E080910D06992787FD9095C9
:1046E0008E179F077CF0EE0FFF1FEE0FFF1FE05F9E
:1046F000F94F0190F081E02D20E040E050E060E0D3
:1047000082E0099481E00E9483148FEF0895242FA2
:10471000E82FF0E080910D06992787FD90958E1780
:104720009F076CF0EE0FFF1FEE0FFF1FE05FF94FCA
:104730000190F081E02DAB0160E086E0099481E01A
:104740000E9483148FEF0895242FE82FF0E08091CA
:104750000D06992787FD90958E179F076CF0EE0F39
:10476000FF1FEE0FFF1FE05FF94F0190F081E02D7A
:10477000AB0160E085E0099481E00E9483148FEF33
:104780000895242FE82FF0E080910D06992787FDEA
:1047900090958E179F076CF0EE0FFF1FEE0FFF1F17
:1047A000E05FF94F0190F081E02D40E050E084E0BF
:1047B000099481E00E9483148FEF0895E82FF0E0C0
:1047C00080910D06992787FD90958E179F0774F0AD
:1047D000EE0FFF1FEE0FFF1FE05FF94F0190F0811A
:1047E000E02D20E040E050E083E0099481E00E9469
:1047F00083148FEF08950000000000000000000007
:104800000000000000000000000000000000019710
:1048100091F7089510922101089589E08093210174
:104820008DE89CE3909329018093280108951092CC
:104830002501109224010895CF93DF9300D0CDB7C6
:10484000DEB780912401909125019A838983298183
:104850003A81C9010F900F90DF91CF910895109286
:104860008100089581E080938100089583B581607F
:1048700083BD10928500109284000895CF93DF933A
:1048800000D0CDB7DEB780918400909185009A83E7
:10489000898329813A81C9010F900F90DF91CF91CF
:1048A0000895CF92DF92EF92FF92CF93DF93EC01C6
:1048B000CC0FDD1FC9378FEFD80710F0C0E0D0E074
:1048C0006B01E12CF12CCC0EDD1EE11CF11C81E012
:1048D000C816D104E806F10440F081E0E81AF108B6
:1048E0000E943E24C817D907D8F30E943E248C1595
:1048F0009D05D8F3DF91CF91FF90EF90DF90CF909F
:1049000008951092B100E0E7F0E080818D7F808310
:1049100080818E7F808308958093B2000895E0E7C0
:10492000F0E080818360808383E08093B10008950C
:1049300083B5826083BD1092B2001092EF03109293
:104940009A040895CF93DF938EEF80939A0490E2B8
:104950009093B6008093B30083E087BB92E090937E
:10496000B0008093B10093B5926093BD87BB84BDC6
:1049700083B5826083BD1092800081E080938100C6
:10498000109285001092840083B5826083BD83B548
:10499000816083BD10922001C4E2D1E019821882A7
:1049A00083B5826083BD83B5816083BD0E949824F6
:1049B000198218820E948F240E940D241092EF0306
:1049C000DF91CF9108958091B3008F5F089581505A
:1049D0008093B3000895811102C0109271008FEF8F
:1049E0000895811106C0109295001092940081E004
:1049F00008958FEF0895811105C0209194003091A2
:104A0000950002C020E030E0C9010895811105C081
:104A100082E08093710081E008958FEF0895811105
:104A200035C0CB010197059710F46093990410925B
:104A3000900088E0809391005093990040939800F3
:104A40003093ED032093EC0380919904813021F49D
:104A500080919100816011C0823021F48091910099
:104A600082600BC0833021F480919100836005C087
:104A7000843031F48091910084608093910008C06B
:104A8000853031F4809191008560F7CF8FEF0895E4
:104A900081E008958091B20008951F920F920FB6A1
:104AA0000F92112460E08AE00E942715FFCF0F9239
:104AB0000FB60F921F922F923F924F925F926F927A
:104AC0007F928F929F92AF92BF92CF92DF92EF929E
:104AD000FF920F931F932F933F934F935F936F9387
:104AE0007F938F939F93AF93BF93CF93DF93EF9376
:104AF000FF93A091FA05B091FB050DB60D920EB68D
:104B00000D921F92A0919704B09198041E90BEBF81
:104B1000ADBF08951F920F920FB60F9211240BB6DE
:104B20000F922F933F934F935F936F937F938F9346
:104B30009F93AF93BF93EF93FF93E091EC03F091BA
:104B4000ED03309711F0099504C060E08AE00E94FF
:104B50002715FF91EF91BF91AF919F918F917F9119
:104B60006F915F914F913F912F910F900BBE0F90DE
:104B70000FBE0F901F9018951F920F920FB60F92B5
:104B800011240F900FBE0F901F90189504B603FCD0
:104B900002C080E001C080E104B602FE06C094B706
:104BA0009B7F94BF04B600FE846004B601FE05C07E
:104BB00094B79D7F94BF8260089581110CC004B6A4
:104BC00000FE04C094B79E7F94BF01C081E0909125
:104BD000B000911181E00895811102C0E89A39C0B6
:104BE000813011F4E99A0895823011F4EA9A31C0C3
:104BF000833021F480916B00816029C0843021F4DE
:104C000080916B00826023C0853021F480916B001D
:104C100084601DC0863021F480916B00886017C0CD
:104C2000873021F480916B00806111C0883021F4BD
:104C300080916B0080620BC0893021F480916B0001
:104C4000806405C08A3039F480916B00806880935D
:104C50006B0081E008958FEF0895811102C0E898FC
:104C600039C0813011F4E9980895823011F4E9983F
:104C700031C0833021F480916B008E7F29C0843055
:104C800021F480916B008D7F23C0853021F48091C9
:104C90006B008B7F1DC0863021F480916B00877F75
:104CA00017C0873021F480916B008F7E11C088304F
:104CB00021F480916B008F7D0BC0893021F48091AD
:104CC0006B008F7B05C08A3039F480916B008F7741
:104CD00080936B0081E008958FEF0895811127C0C4
:104CE0005093160640931506611104C08091690027
:104CF0008C7F3EC0613049F4809169008D7F809344
:104D0000690080916900816033C0623049F480910C
:104D10006900826080936900809169008E7F28C05D
:104D2000633009F027C080916900836021C0813021
:104D300049F55093140640931306611104C0809105
:104D40006900837F15C0613049F480916900877FD5
:104D5000809369008091690084600AC0623061F4C8
:104D600080916900886080936900809169008B7FE1
:104D70008093690081E008956330E1F780916900D4
:104D80008C60F6CF823031F55093180640931706A9
:104D9000611104C0809169008F7CEACF613049F4D1
:104DA000809169008F7D80936900809169008061A6
:104DB000DFCF623049F4809169008062809369009E
:104DC000809169008F7ED4CF6330A1F68091690015
:104DD0008063CECF8350883050F48091680081602A
:104DE0008093680050931A0640931906C3CF8FEF43
:104DF00008951F920F920FB60F9211240BB60F92C7
:104E00002F933F934F935F936F937F938F939F93D2
:104E1000AF93BF93EF93FF93E0911906F0911A06B9
:104E2000309711F0099504C060E08AE00E942715D0
:104E3000FF91EF91BF91AF919F918F917F916F9172
:104E40005F914F913F912F910F900BBE0F900FBE2E
:104E50000F901F9018951F920F920FB60F9211246A
:104E60000BB60F922F933F934F935F936F937F9364
:104E70008F939F93AF93BF93EF93FF93E0911506AA
:104E8000F0911606309711F0099504C060E08AE0B1
:104E90000E942715FF91EF91BF91AF919F918F9144
:104EA0007F916F915F914F913F912F910F900BBE2A
:104EB0000F900FBE0F901F9018951F920F920FB674
:104EC0000F9211240BB60F922F933F934F935F9342
:104ED0006F937F938F939F93AF93BF93EF93FF93C2
:104EE000E0911306F0911406309711F0099504C073
:104EF00060E08AE00E942715FF91EF91BF91AF918A
:104F00009F918F917F916F915F914F913F912F91E1
:104F10000F900BBE0F900FBE0F901F9018951F9211
:104F20000F920FB60F9211240BB60F922F933F934F
:104F30004F935F936F937F938F939F93AF93BF93A1
:104F4000EF93FF93E0911706F0911806309711F058
:104F5000099504C060E08AE00E942715FF91EF9157
:104F6000BF91AF919F918F917F916F915F914F9181
:104F70003F912F910F900BBE0F900FBE0F901F907F
:104F800018950E94DE12A89584B7877F84BFE0E65B
:104F9000F0E080818861808310820C94E0120E948E
:104FA000DE12A89584B7877F84BFE0E6F0E08081B9
:104FB000886180838DE080830C94E01204B603FC4A
:104FC00002C081E008958FEF0895A895089508958F
:104FD00083B7817F866083BF83B7816083BF8895F5
:104FE00083B78E7F83BF089583B7817F83BF83B7E5
:104FF000816083BF889583B78E7F83BF0895FC014E
:10500000768365830895EF92FF920F931F93CF935A
:10501000DF93EC018B017A014032510518F481E1F4
:105020000E942D15A70141505109400F511F5A836D
:1050300049831C830B83DF91CF911F910F91FF90C8
:10504000EF90089525E5FA012083FB0132979083C4
:10505000FB0131978083FB01349711821082FB01A1
:10506000369711821082FB01389711821082FB0162
:105070003A9711821082FB013C9711821082FB014A
:105080003E9711821082FB01709711821082FB0102
:10509000729711821082FB01749711821082FB01BA
:1050A000769711821082FB01789711821082FB01A2
:1050B0007A9711821082FB017C9711821082FB018A
:1050C0007E9711821082FB01B09711821082FB0142
:1050D000B29711821082FB01B49711821082CF0126
:1050E000089585E580937E41EEEFF1E4F093980416
:1050F000E09397048EE794E190838093FF410895B5
:105100008EE794E19093FE418093FF4108950E94C1
:10511000A2240C94E012A091EB05B091EC05CD9186
:10512000CDBFDD91DEBFFF91EF91DF91CF91BF91B8
:10513000AF919F918F917F916F915F914F913F912F
:105140002F911F910F91FF90EF90DF90CF90BF9024
:10515000AF909F908F907F906F905F904F903F9017
:105160002F901F900F900FBE0F9018950E94B20EB7
:1051700080E190E00E941C1280E093E00E94B32B3B
:105180000E94E51220E030E0A90160E070E0CB0170
:105190000E94E71E0E94F8030E94A5030E94871345
:1051A00080E090E008957F928F929F92AF92BF929D
:1051B000CF92DF92EF92FF920F931F93CF93DF93E3
:1051C000CDB7DEB72C970FB6F894DEBF0FBECDBFBC
:1051D0007C016B018A01FC0117821682838181FDAB
:1051E00003C013C1850105C088248394912C8C0EC3
:1051F0009D1EF701B380F601B3FC8591B3FE81914A
:105200006F01882309F4FDC0853239F4B3FC259180
:10521000B3FE21916F01253219F5B70190E00E948C
:105220006A2B5801DFCF222309F4EBC0622F70E014
:1052300081ED93E02C870E940B2B2C85892B49F460
:10524000233219F4F0E17F2A04C02C3679F420E8E7
:10525000722AF601B3FC2591B3FE21916F0101C0C2
:10526000712C77FEE0CF222309F4CBC0622F70E0CF
:1052700081EE93E02C870E940B2B2C85892B41F02B
:105280005801F4E0AF0EB11CB7018FE390E00FC0FE
:10529000233629F0233781F0233519F50BC0580147
:1052A00022E0A20EB11CB701F801808191810E9419
:1052B0006A2B98CFF1E07F2A580122E0A20EB11CA0
:1052C000F8010081118104C0B70190E00E946A2BAF
:1052D000F80170FC859170FE81918F018111F4CFEE
:1052E00081CF243611F0293631F5580177FE09C0F7
:1052F000F4E0AF0EB11CF80160817181828193816D
:105300000AC0F2E0AF0EB11CF801608171818827FC
:1053100077FD8095982FFFEE7F2297FF09C090952B
:105320008095709561957F4F8F4F9F4F20E4722A33
:105330002AE030E036C0203791F030F42835B1F063
:105340002F3609F05EC017C0253721F0283709F045
:1053500058C007C08FEE78222AE030E00EC0E0E1AE
:105360007E2AF4E27F2A20E130E007C024E0722A9E
:1053700020E132E002C028E030E0580177FE09C0A9
:1053800084E0A80EB11CF801608171818281938153
:1053900008C0F2E0AF0EB11CF8016081718180E0BD
:1053A00090E0A4010E94132C182F181976FE05C056
:1053B000B7018DE290E00E946A2B74FE16C0FE01D8
:1053C000E10FF11D8081803381F0B70180E390E02F
:1053D0000E946A2B72FE09C0272D2072822F90E056
:1053E000B701885A9F4F0E946A2B1150F401E10FB8
:1053F000F11DB701808190E00E946A2B1111F5CF59
:10540000F1CEF7012681378102C02FEF3FEFC901AE
:105410002C960FB6F894DEBF0FBECDBFDF91CF91B3
:105420001F910F91FF90EF90DF90CF90BF90AF90C2
:105430009F908F907F9008950E94FF2AA59F900DC6
:10544000B49F900DA49F800D911D11240895B7FF66
:105450000C941C2A0E941C2A821B930B0895DB01CA
:105460008F939F930E941C2ABF91AF91A29F800DA2
:10547000911DA39F900DB29F900D11240895AA1B1A
:10548000BB1B51E107C0AA1FBB1FA617B70710F02F
:10549000A61BB70B881F991F5A95A9F78095909561
:1054A000BC01CD010895A1E21A2EAA1BBB1BFD0170
:1054B0000DC0AA1FBB1FEE1FFF1FA217B307E407F3
:1054C000F50720F0A21BB30BE40BF50B661F771F4B
:1054D000881F991F1A9469F760957095809590952B
:1054E0009B01AC01BD01CF010895052E97FB16F479
:1054F000009407D057FD0DD00E94532A07FC09D015
:105500007EF490958095709561957F4F8F4F9F4F5A
:10551000089550954095309521953F4F4F4F5F4FDF
:105520000895689401C0E8948F929F92CF93DF937F
:105530000E949F2ADF91CF919F908F900895882499
:105540009924F401E401B0E49F93AA279A158B04EF
:105550009C04ED05FE05CF05D007A10798F4AD2FFB
:10556000DC2FCF2FFE2FE92D982C892E982F872FF7
:10557000762F652F542F432F322F2227B85031F723
:10558000BF9127C01B2EBF91BB27220F331F441F83
:10559000551F661F771F881F991F881C991CEE1FB7
:1055A000FF1FCC1FDD1FAA1FBB1F8A149B04EC0525
:1055B000FD05CE05DF05A007B10748F08A189B0856
:1055C000EC09FD09CE09DF09A00BB10B21601A948B
:1055D000E1F62EF49401AF01BE01CD01000C089557
:1055E000EE0FFF1F0590F491E02D09942A0D3B1D4D
:1055F0004C1D5D1D6E1D7F1D801F911F0895A29F74
:10560000B001B39FC001A39F01D0B29F700D811D57
:105610001124911D0895FC010590061621F000202B
:10562000D9F7C00108953197CF010895FB01DC013E
:1056300002C001900D9241505040D8F708950F9349
:105640001F93CF93DF93EC018B01009731F4611529
:10565000710519F4E0E0F0E037C06EE070E081E041
:1056600090E00E94872CFC010097A1F380E88383DF
:105670000115110571F01387028781E883838091FA
:105680001B0690911C06892B21F4F0931C06E093D5
:105690001B062097C9F0D187C087838182608383EE
:1056A00080911D0690911E06892B71F4F0931E06C1
:1056B000E0931D0680911F0690912006892B21F40E
:1056C000F0932006E0931F06CF01DF91CF911F9149
:1056D0000F9108950F931F93CF93DF938C01EB01EC
:1056E0008B8181FD03C00FEF1FEF1AC082FF0DC039
:1056F0002E813F818C819D812817390764F4E881D0
:10570000F9810193F983E88306C0E885F985802F44
:105710000995892B41F78E819F8101969F838E8306
:10572000C801DF91CF911F910F910895CF93DF931F
:1057300000D0CDB7DEB7FE01379661917191FA8343
:10574000E983AF0180911D0690911E060E94D32827
:105750000F900F90DF91CF91089560911D06709189
:105760001E060C946A2B0F931F93CF93DF938C012B
:10577000E0911D06F0911E06838181FF1BC0C0E0F1
:10578000D0E005C00995892B11F0CFEFDFEFF801CC
:1057900081918F0160911D0670911E06DB011896A4
:1057A000ED91FC9119978111EDCF8AE00995892B34
:1057B00009F402C0CFEFDFEFCE01DF91CF911F914F
:1057C0000F9108950F931F93CF93DF93CDB7DEB75B
:1057D00060970FB6F894DEBF0FBECDBF0F89188D4E
:1057E00086E08C831A8309838FEF9FE79E838D83E6
:1057F000AE01455E5F4F588B4F87698D7A8DCE0124
:1058000001960E94D328EF81F885E00FF11F1082E6
:1058100060960FB6F894DEBF0FBECDBFDF91CF917B
:105820001F910F910895FA01AA27283051F12031D4
:1058300081F1E8946F936E7F6E5F7F4F8F4F9F4F24
:10584000AF4FB1E03ED0B4E03CD0670F781F891F66
:105850009A1FA11D680F791F8A1F911DA11D6A0F34
:10586000711D811D911DA11D20D009F468943F91E7
:105870002AE0269F11243019305D3193DEF6CF01E6
:105880000895462F4770405D4193B3E00FD0C9F7AC
:10589000F6CF462F4F70405D4A3318F0495D31FD19
:1058A0004052419302D0A9F7EACFB4E0A69597956C
:1058B000879577956795BA95C9F700976105710542
:1058C00008959B01AC010A2E06945795479537958C
:1058D0002795BA95C9F7620F731F841F951FA01DE6
:1058E0000895F999FECF92BD81BDF89A992780B5A8
:1058F0000895262FF999FECF1FBA92BD81BD20BD14
:105900000FB6F894FA9AF99A0FBE019608950F937C
:105910001F93CF93DF93689F8001699F100D789F3D
:10592000100D1124C8010E94A52CC82FD92F209733
:1059300031F0A80160E070E08C2F0E94DE2DCE01D6
:10594000DF91CF911F910F9108950F931F93CF93E4
:10595000DF938230910510F482E090E0E09123061D
:10596000F091240620E030E0C0E0D0E023C0408188
:10597000518148175907A8F04817590761F48281E7
:105980009381209719F09B838A832EC090932406DD
:105990008093230629C02115310529F042175307AA
:1059A00010F0A90102C0BE01DF0102811381EF01E5
:1059B0009A01F8013097D9F62115310509F1281B14
:1059C000390B2430310590F412968D919C911397E8
:1059D0006115710521F0FB019383828304C09093CC
:1059E000240680932306FD01329644C0FD01E20F98
:1059F000F31F81939193225031092D933C933AC028
:105A00002091210630912206232B41F4209102029D
:105A10003091030230932206209321062091000248
:105A2000309101022115310541F42DB73EB7409167
:105A3000040250910502241B350BE0912106F091E0
:105A40002206E217F307A0F42E1B3F0B2817390795
:105A500078F0AC014E5F5F4F2417350748F04E0FCA
:105A60005F1F50932206409321068193919302C0B9
:105A7000E0E0F0E0CF01DF91CF911F910F91089509
:105A8000EF92FF920F931F93CF93DF93009709F448
:105A90008EC0DC01129713961C921E921297E09012
:105AA0002306F0902406E114F10489F42D913C9131
:105AB0001197280F391F8091210690912206821795
:105AC000930789F5B0932206A093210670C0E701E1
:105AD00020E030E001C0EA01CA17DB0738F44A8150
