:100000000C9404020C9428280C945A280C948C28E4
:100010000C9423020C9423020C9423020C942302CC
:100020000C9423020C94F6270C9423020C942302C4
:100030000C9423020C9454260C9423020C94542602
:100040000C9423020C9423020C9423020C9423029C
:100050000C9423020C9423020C9423020C9423028C
:100060000C9423020C9423020C9423020C9423027C
:100070000C9423020C9423020C9423020C9423026C
:100080000C9487260C9423020C9423020C942302D4
:100090000C9423020C9423020C9423020C9423024C
:1000A0000C9423020C9423020C9423020C9423023C
:1000B0000C9423020C9423020C9423020C9423022C
:1000C0000C9423020C9423020C9423020C9423021C
:1000D0000C9423020C9423020C9423020C9423020C
:1000E0000C9423020C94670E0C94580E0C94280E5A
:1000F0000C94270F0C94190E0C940A0E0C94F80D06
:100100000C94E90D0C9423020C9423020C9423020A
:100110000C9423020C9423020C9423020C942302CB
:10012000EF15F515F815FB15FE1501160716041643
:100130000A160D16101619161C161F16221616165C
:10014000EC15F215251628161316E9154661696C8B
:10015000656420746F206F70656E2073656E736FB9
:1001600072206472697665720D0A004661696C6579
:100170006420746F206F70656E2073656E736F728C
:10018000206472697665720D0A004661696C656467
:1001900020746F206C6F6164206D7920414443208E
:1001A0006472697665720D0A002A4E524B204552E0
:1001B000524F522800293A20005461736B20706519
:1001C00072696F6420746F6F206C617267652E2096
:1001D000506572696F64206D757374206265206C60
:1001E000657373207468616E203631207365636FA8
:1001F0006E64732E00537461636B20776173206E9D
:100200006F7420646566696E6564206173206C613B
:1002100072676520656E6F75676821005461736B46
:1002200020537461636B204F766572666C6F770044
:10023000496E76616C696420537461636B20506F02
:10024000696E7465720052657365727665204572D9
:10025000726F7220696E205363686564756C657295
:10026000005461736B205265736572766520566920
:100270006F6C61746564005363686564756C657266
:10028000204D69737365642057616B657570004418
:1002900075706C696361746564205461736B204987
:1002A0004400556E657870656374656420526573AB
:1002B000746172740049646C65206F72204B6572C2
:1002C0006E656C20537461636B204F766572666C4B
:1002D0006F77004578747261205461736B2073747A
:1002E00061727465642C206973206E726B5F636643
:1002F000672E68206F6B3F004C6F7720566F6C74D1
:1003000061676500556E68616E646C656420496E56
:100310007465727275707420566563746F720054E0
:10032000696D6572204F766572666C6F7700535702
:10033000205761746368646F6720526573746172DB
:1003400074005761746368646F67205265737461E9
:1003500072740044657669636520447269766572DB
:10036000204572726F72004B65726E656C20667507
:100370006E6374696F6E206E6F7420696D706C654A
:100380006D656E746564004661696C656420746FA8
:1003900020637265617465205369676E616C004605
:1003A00061696C656420746F206372656174652097
:1003B00053656D6170686F72650042726F776E2071
:1003C0004F75742044657465637400457874657274
:1003D0006E616C20526573657400554E4B4F574EDD
:1003E000000D0A535441434B2044554D500D0A0013
:1003F000202B2D2E303132333435363738396800E2
:10040000454647656667000011241FBECFEFD1E463
:10041000DEBFCDBF14E0A0E0B2E0E2E8F0E600E02D
:100420000BBF02C007900D92A03FB107D9F717E0AC
:10043000A0EFB4E001C01D92A93FB107E1F70E940F
:10044000B3290C943F300C944A26CF93DF93CDB759
:10045000DEB72E970FB6F894DEBF0FBECDBF1A865B
:1004600019861C861B861F921F928FE392E09F9332
:100470008F930E94292F0E94701E1F928F9389E5EF
:1004800092E09F938F930E94292F65E083E00E9462
:100490001D24382E0FB6F894DEBF0FBECDBF3FEF40
:1004A000831304C08CE491E00E94950F812C912C61
:1004B00018EE612E12E0712E0BE0402E03E0502E5C
:1004C0004BE061E0832D0E94BE2444E0BE016F5FDB
:1004D0007F4F832D0E94A12488858F938F818F93D6
:1004E0008E818F938D818F938C818F938B818F934E
:1004F0008A818F9389818F9388E692E09F938F936F
:100500000E94292F4AE061E0832D0E94BE2444E02E
:10051000BE016F5F7F4F832D0E94A124A980BA8006
:10052000CB80DC80ED80FE80EF8118859501A601EF
:10053000B7018E2F912F03E00E944D2D0E2F0E94A8
:100540005C2DB5E0AB2EB12CC12CD12CE12CF12CC3
:1005500000E010E00E94932CC90180966AE070E0F0
:100560000E943F2C7F936F9388E892E09F938F9334
:100570000E94292F41E061E0832D0E94BE2442E0C9
:10058000BE01635F7F4F832D0E94A1248D859E85D0
:100590000FB6F894DEBF0FBECDBF893E33E09307A0
:1005A00038F4843422E0920730F407E212E005C008
:1005B00000E212E002C002E312E020E034E0281B77
:1005C000390BC9019F932F938AEA92E09F938F93EF
:1005D0000E94292F1F930F938BEC92E09F938F9390
:1005E0000E94292F49E061E0832D0E94BE2444E04F
:1005F000BE016F5F7F4F832D0E94A12427E2A22EB0
:10060000BB24B394C12CD12CE12CF12C00E010E0E0
:1006100029813A814B815C816D817E818F819885B2
:100620000E949F2CE0E4AE2EF2E4BF2EAFE0CA2E73
:100630000E94932C9F938F937F936F935F934F931D
:100640003F932F937F926F920E94292F44E061E0A5
:10065000832D0E94BE2442E0BE01635F7F4F832D45
:100660000E94A1248E858F938D858F935F924F92E8
:100670000E94292F45E061E0832D0E94BE2442E0C4
:10068000BE01635F7F4F832D0E94A1248E858F93CF
:100690008D858F9380E393E09F938F930E94292F02
:1006A00046E061E0832D0E94BE2442E0BE01635F0C
:1006B0007F4F832D0E94A1240FB6F894DEBF0FBE9A
:1006C000CDBF8D859E858F3D934018F085E593E0E5
:1006D00002C085E793E09F938F930E94292F0F908C
:1006E0000F900B851C8589859A85080F191F169513
:1006F000079580E090E00E94B61281E090E00E94B1
:10070000B6128AE390E00E94402F8D859E85801B63
:10071000910B97FF03C09195819591090B973CF040
:1007200084E993E00E94462F80E090E006C08AEBC7
:1007300093E00E94462F81E090E00E949F12F40116
:10074000EE0FFF1F81E090E08C0F9D1FE80FF91F57
:100750008D859E85918780870E94DD1D91E0892689
:10076000AFCECF92DF92EF92FF92CF9385E292E0ED
:100770009093FE048093FD0440E850E061EA75E048
:1007800088EF94E00E940029C1E0C0930005C09367
:10079000FF04C0930105C093020582E0C82ED12C4E
:1007A000E12CF12CC0920305D0920405E0920505DE
:1007B000F09206051092070510920805109209059F
:1007C00010920A0510920B0510920C0510920D055F
:1007D00010920E0510920F0510921005109211053F
:1007E000109212051092130510921405109215051F
:1007F00010921605109217051092180510921905FF
:1008000010921A0588EF94E00E94451C66EA74E095
:1008100087EA96E00E94FC2840E850E06BE175E032
:1008200087EA96E00E94002982E08093AF06C09399
:10083000AE06C093B006C093B106C092B206D09285
:10084000B306E092B406F092B5061092B606109286
:10085000B7061092B8061092B9061092BA06109216
:10086000BB061092BC061092BD061092BE061092F6
:10087000BF061092C0061092C1061092C2061092D6
:10088000C3061092C4061092C5061092C6061092B6
:10089000C7061092C8061092C90687EA96E0CF9163
:1008A000FF90EF90DF90CF900C94451CCF92DF9299
:1008B000EF92FF92CF93DF93FC01D62FC12CD12C66
:1008C0007601C0E0462F552747FD50950FC0AA0F6F
:1008D000BB1FAE0FBF1F0D90BC91A02D9D010E94AC
:1008E000102CC60ED71EE81EF91ECF5FAC2FB0E04D
:1008F000A417B50764F32D2F332727FD3095432F19
:10090000532FC701B6010E94532CCA01B9010E949E
:10091000502B0E94BA2B0E94242B9F938F937F937E
:100920006F938FED93E09F938F930E94292F0F90E9
:100930000F900F900F900F900F9080E090E0DF915C
:10094000CF91FF90EF90DF90CF900895CF93DF93FA
:1009500000D0CDB7DEB70E94701E1F928F9386EF36
:1009600093E09F938F930E94292F65E083E00E947C
:100970001D24E82E0F900F900F900F908FEFE8122C
:1009800004C08BE691E00E94950F00E010E0F12C8E
:1009900043E061E08E2D0E94BE248DE790E00E942E
:1009A000F82442E0BE016F5F7F4F8E2D0E94A1248C
:1009B00083E090E00E94B61280E090E00E94B612C0
:1009C00080E090E00E949F1220919F053091A00549
:1009D00049815A81F901E00FF11F51834083F3945B
:1009E000809126060E5F1F4FF812D2CF6F2DC901DE
:1009F0000E945604CACF63E081E399E00E94052477
:100A00008F3F21F48AE891E00C94950F089580912E
:100A1000F406813011F48FEF089581E08093F4069D
:100A200060FF15C0739A1092F90680917C00807E59
:100A300080937C0090917C0080917C00807E892B4B
:100A400080937C0088EE93E00E94F82405C0862FF6
:100A5000867009F76770F9F281E008957398109233
:100A6000F4060E946E09EAE7F0E080818F778083C8
:100A700081E00895613019F48091F90608958FEFAF
:100A80000895613059F52C3069F42093F90680916E
:100A90007C00807E80937C0080917C0090917C0023
:100AA000836012C02D3020F081E00E949F1516C097
:100AB0002093F90680917C00807E80937C00809159
:100AC0007C0090917C00822B907E892B80937C000F
:100AD00088EC90E00E94F82481E008958FEF08955B
:100AE0000F931F93CF93DF93CDB7DEB766970FB603
:100AF000F894DEBF0FBECDBFAE014F5F5F4F66E122
:100B000070E08AEA90E00E947809FE0132966AEC71
:100B100076E0CE0148969F0121503109D9011C9100
:100B200000E02081A801422B9A01DB012D933D9327
:100B3000BD013296E817F90771F766960FB6F8947B
:100B4000DEBF0FBECDBFDF91CF911F910F910895F2
:100B5000EAE7F0E083E08083808180688083109200
:100B6000F906ACE7B0E08C91807E8C939C918C91DF
:100B7000807E892B8C9380818F77808308951DB828
:100B80006B9A739A0E94A8050E945E098EEE0E94DD
:100B90005B090E9470051092F40681E0089588ECCC
:100BA00090E00C94F82480917A00806480937A001D
:100BB00080917A0084FFFCCF0E94CF0520917800BD
:100BC00030917900932F80E0AC01422B9A01C9014A
:100BD00008954F925F926F927F928F929F92AF9201
:100BE000BF92CF92DF92EF92FF921F93CF93DF934A
:100BF00000D000D0CDB7DEB7182F8090F0069090CF
:100C0000F106A090F206B090F30680EA881A8FE011
:100C1000980AA108B1088092E0069092E106A0929D
:100C2000E206B092E306A5019401C501B4010E9459
:100C30002F2C20E030E140E050E00E94752C298309
:100C40003A834B835C83C090CA06D090CB06EE24D7
:100C5000D7FCE094FE2CF2E0CC0CDD1CEE1CFF1C5B
:100C6000FA95D1F7A091D806B091D9060E94272C09
:100C700020E038E040E050E00E94752C29013A0164
:100C8000A091CC06B091CD06A50194010E94272C1D
:100C900020E038E040E050E00E94752C420E531EE8
:100CA000641E751EC40CD51CE61CF71C012E04C066
:100CB000CC0CDD1CEE1CFF1C0A94D2F7E2E0CE0E39
:100CC000D11CE11CF11CA4E04A2E512C612C712C8A
:100CD000C701B601A30192010E94752C69017A0136
:100CE000209312073093130740931407509315076E
:100CF000A091CE06B091CF06A50194010E94272CA9
:100D000020E030E240E050E00E94752C49015A0199
:100D1000A091D606B091D70629813A814B815C819A
:100D20000E94272C20E030E041E050E00E94752C2A
:100D3000820E931EA41EB51EF2E08F0E911CA11C04
:100D4000B11CC501B401A30192010E94752C20932E
:100D5000FA063093FB064093FC065093FD06A091E3
:100D6000D006B091D10630584F4F5F4F0E941C2CD7
:100D700020E030E840E050E00E94752C49015A0123
:100D80002093FE063093FF0640930007509301071F
:100D900020910A0730910B0740910C0750910D07E5
:100DA0002C193D094E095F0960E573EC80E090E085
:100DB00004C095958795779567951A95D2F70E9407
:100DC0002F2C609306077093070780930807909372
:100DD000090797FD09C0660F771F881F991FA50196
:100DE00094010E94532C08C0A50194010E94532C29
:100DF000220F331F441F551F20930E0730930F07F8
:100E00004093100750931107C0900E07D0900F0722
:100E1000E0901007F0901107C701B60120E031E023
:100E200040E050E00E94752CCA01B9010E942F2CAD
:100E30009B01AC01AEEDBBE00E941C2C412C512C5F
:100E400032016394A30192010E94752C49015A0159
:100E50002093F5063093F6064093F7065093F80674
:100E6000A3E4B3EEA70196010E942A2CA3019201EC
:100E70000E94752C2093E8063093E9064093EA0619
:100E80005093EB06C501B401620F731F841F951FB9
:100E90006153714F8F4F9F4F20E130E040E050E0B1
:100EA0000E94752C2C0D3D1D4E1D5F1D20930E07BD
:100EB00030930F074093100750931107B901CA01EF
:100EC0000F900F900F900F90DF91CF911F91FF9097
:100ED000EF90DF90CF90BF90AF909F908F907F90DA
:100EE0006F905F904F900895CF92DF92EF92FF92B4
:100EF0008091D4069091D5062091E4063091E506C4
:100F00004091E6065091E706281B390B410951092B
:100F1000A091D206B091D3060E941C2C20E030E8AC
:100F200040E050E00E94752C69017A012093F5069B
:100F30003093F6064093F7065093F8066091DC066E
:100F40007091DD06882777FD8095982FBBE0660FAE
:100F5000771F881F991FBA95D1F72091DE0630912F
:100F6000DF06442737FD4095542F2C0D3D1D4E1DA7
:100F70005F1D0E94752C2093E8063093E90640938C
:100F8000EA065093EB06C20ED31EE41EF51EC09275
:100F9000F006D092F106E092F206F092F306C70155
:100FA000B601685F7F4F8F4F9F4F20E130E040E0F8
:100FB00050E00E94752C2093EC063093ED06409390
:100FC000EE065093EF06B901CA01FF90EF90DF9053
:100FD000CF900895CF93DF9300D01F92CDB7DEB7A7
:100FE0008EE28B83AE014D5F5F4F61E070E084EF76
:100FF00090E00E94960A84E991E10E94F824AE01F3
:101000004F5F5F4F62E070E086EF90E00E947809EA
:10101000398120E08A81A901482BCA01A0E0B0E013
:101020008093E4069093E506A093E606B093E70666
:101030000F900F900F90DF91CF9108950E94EA07D3
:101040000C9474071F93CF93DF9300D000D0CDB7DB
:10105000DEB7182F982F9295990F990F907C9C5C72
:101060009C83AE014C5F5F4F61E070E084EF90E0E5
:101070000E94960A84E991E10E94F824AE014F5F34
:101080005F4F63E070E086EF90E00E9478098A810C
:10109000498150E060E070E0BA0155274427582BA1
:1010A0008B81480F511D611D711D28E030E0211B0F
:1010B000310904C075956795579547952A95D2F7DC
:1010C00040930A0750930B0760930C0770930D072A
:1010D0000F900F900F900F90DF91CF911F91089577
:1010E000CF93C82F0E9422088C2FCF910C94E90532
:1010F000AF92BF92DF92EF92FF920F931F93CF9325
:10110000DF931F92CDB7DEB75A0180917A008068D5
:1011100080937A00822F8150823018F0243009F0B9
:1011200094C08091F9068730A0F429830E94D305EA
:101130002981223021F4F501808391832EC0213052
:1011400009F035C09695879596958795F50180832A
:101150002EC08C3071F530E4D32EE12CF12C01E05F
:1011600014E029830E94D30529818017910708F490
:101170008C01E816F90608F47C018DE790E02983DC
:101180000E94F824DA942981D110EBCFE01AF10AF9
:10119000223029F4F501E082F18281E04FC0213054
:1011A00031F4F694E794F694E794F501E08280E058
:1011B00045C08B3069F51092020710920307109218
:1011C0000407109205077A99FECF7A9BFECF809193
:1011D000020790910307A0910407B09105070196BB
:1011E000A11DB11D8093020790930307A0930407EC
:1011F000B09305077A99EBCFF501808380910307BF
:101200008183809104078283809105078383CFCFF8
:10121000982F9950923058F62430B9F48A3019F446
:101220000E941E0805C00E941E0880E00E947008EF
:10123000F501608371838283938383E090917A00C8
:101240009F7790937A008F5F01C080E00F90DF91CD
:10125000CF911F910F91FF90EF90DF90BF90AF90D3
:1012600008958230A9F028F4882349F08130D9F418
:1012700009C08430A9F078F08530A9F406C080E078
:101280000C94BF0581E00C94070585E00C94780868
:1012900082E00C942E05613061F48091F906089586
:1012A00084E00C94410560E08CE00E94431680E0ED
:1012B00008958FEF089580931707089582E0809333
:1012C000B8001092B900E4E6F0E080818F77808367
:1012D000ECEBF0E08081846080830895E4E6F0E048
:1012E00080818083ECEBF0E080818B7F80830895A8
:1012F000292F30E027703327220F90911707292BD1
:1013000035E6F4EAE4E8A22FA160315009F48DC07B
:10131000F093BC009091BC0097FFFCCF9091B90076
:10132000987F90931607903129F0983389F398307D
:1013300009F07BC02093BB00E093BC009091BC00FF
:1013400097FFFCCF9091B900987F90931607903249
:10135000E1F29833E9F2983109F061C08093BB0063
:10136000E093BC009091BC0097FFFCCF9091B90036
:10137000987F90931607903359F1983349F2983239
:1013800009F04DC0F093BC009091BC0097FFFCCFDA
:101390009091B900987F90931607903129F0983377
:1013A00009F4B6CF9830D9F5A093BB00E093BC0008
:1013B0009091BC0097FFFCCF9091B900987F9093DB
:1013C0001607903419F1983419F0983341F5A0CFED
:1013D00020E030E026C06130710509F494E8909374
:1013E000BC008091BC0087FFFCCF8091B900887F52
:1013F00080931607803521F0883589F460E070E02D
:101400008091BB0081936150710902C0FA0194EC94
:101410009F01241B350B16161706ECF202C02FEFA6
:101420003FEF84E98093BC0002C02FEF3FEFC9017A
:101430000895680F791F9C0127606217730718F0E1
:10144000B9016F5F7F4F392F330F3E70209117071F
:10145000322BE5E6A4EAF4E8E15009F463C0A09376
:10146000BC002091BC0027FFFCCF2091B900287F51
:1014700020931607203129F0283389F3283009F00A
:1014800051C03093BB00F093BC002091BC0027FFFB
:10149000FCCF2091B900287F209316072032E1F27B
:1014A0002833E9F22831C1F58093BB00F093BC00EA
:1014B0002091BC0027FFFCCF2091B900287F20930A
:1014C0001607203329F0283351F2283229F503C0BA
:1014D00020E030E023C0681B790B20E030E0E4E836
:1014E00014C0DA018D91AD018093BB00E093BC0084
:1014F0008091BC0087FFFCCF8091B900887F8093EA
:101500001607883249F42F5F3F4FCB01821B930BA4
:101510001816190634F302C02FEF3FEF84E98093C9
:10152000BC0002C02FEF3FEFC9010895CF92DF92B8
:10153000EF92FF920F931F93CF93DF936C018B0178
:101540007A01C0E0D0E0A701B801C6010E94190AE3
:101550008F3F2FEF920761F0C80ED91E081B190BA1
:10156000E80EF91EC80FD91F1016110664F302C049
:10157000CFEFDFEFCE01DF91CF911F910F91FF9061
:10158000EF90DF90CF900895809116071F928F9370
:1015900081E194E09F938F930E94292F0F900F90E9
:1015A0000F900F900895909141019F719F31D9F351
:1015B00080934201089581E080931E070895109260
:1015C0001E070895809141018F718F31D9F3809169
:1015D00041018F71E1F08F30D1F0809141018F7125
:1015E000883031F48091390182608093390109C0DB
:1015F00088E00E94D30A809141018F718830D9F729
:10160000F1CF809141018F7111F08F30D1F70895A2
:10161000809141018F718F31D9F3809141018F7198
:1016200011F08F3051F4809139018D7F8093390111
:10163000809141018F718830D9F70895E5E4F1E098
:101640009081907F908390818F70892B8083089503
:10165000E7E5F1E080818D7F80830895E7E5F1E0A3
:101660008081826080830895EEE6F1E080818F7E44
:1016700080830895EEE6F1E08081806180830895A3
:1016800080936001909361019093280780932707CE
:1016900008959093220780932107E8E4F1E0808188
:1016A000807E80838081682B608308959093F3040B
:1016B0008093F20408959093F1048093F0040895C8
:1016C0001F93CF93DF9370E27093440170EC70939B
:1016D000450160626093480165EC6093490167EAE7
:1016E00060934B0160E860934C012093600130935C
:1016F00061014093620150936301E6E4F1E0C0812F
:10170000A08160811081C295C695C77070E4C79FA3
:10171000E00111241295169513701C2BA295A69525
:10172000A37070E1A79FD00111241A2B62956695D2
:101730006370A4E06A9FB0011124162B10936D0111
:101740006081E08162956695637070E0660F771F37
:101750006064E295E695E370E62BE0936E011092EB
:101760006C016FEF60934E019093220780932107E5
:1017700010922307109224075093260740932507C1
:1017800030932807209327071092290781E0809340
:101790003307109242071092320710921E07DF9112
:1017A000CF911F91089586E10C94D30A86E10C94A1
:1017B000D30A88E00E94D30A1092420708953F920C
:1017C0004F925F926F927F928F929F92AF92BF9251
:1017D000CF92DF92EF92FF920F931F93CF93DF93FD
:1017E000EC013B0180913307811102C0CFEF1CC196
:1017F0009E81809123078F5F8093230780918101D1
:10180000807E816090FB85F98F7380648093810175
:1018100088E88093820180911E07882361F08FEF12
:10182000809383018AEA9AEA9093890180938801E0
:101830008FEF9FEF11C08091230780938301309138
:10184000610120916001932F80E0822B90938901A8
:101850008093880188819981909387018093860184
:101860003091630120916201932F80E0822B90934D
:101870008501809384014A81842F992787FD909563
:101880006B817C81592F8AE891E00E94A92E8A8180
:10189000855F80938001309041018FE13822832D54
:1018A00081508230C0F381E13816A9F382E1381605
:1018B00091F38FE1381679F388E0381649F086E025
:1018C000381631F086E1381619F089E038128ECFDB
:1018D00086E10E94D30A8D81811107C089E00E94B0
:1018E000D30A8E81882391F00EC0809148018068D0
:1018F000809348018091410187FFFCCF8091410195
:1019000086FF74CFEBCF89E10E94D30A6114710482
:1019100099F18AE297E00E94761E80912A079091C1
:101920002B07A0912C07B0912D078093340790933B
:101930003507A0933607B0933707D30120E432E48C
:101940004FE050E00E941C2C00912E0710912F07B1
:101950002091300730913107600F711F821F931F54
:10196000609338077093390780933A0790933B0749
:1019700084E397E00E94671F1092320782E00E9482
:10198000D30A412C512C08C08FEF481A580A88EE10
:1019900048168DEF580621F0809132078823A1F375
:1019A0006114710421F48E8181112DC034C08AE24A
:1019B00097E00E94761E80902A0790902B07A090B7
:1019C0002C07B0902D07C0902E07D0902F07E090E5
:1019D0003007F090310700913407109135072091BE
:1019E0003607309137074091380750913907609199
:1019F0003A0770913B0783E497E00E94D21E8F3F25
:101A000009F0BACFD0CF8091420182958695877038
:101A100011F0CFEF06C088EE48168DEF5806C9F3D7
:101A2000C1E0832D0E94D30A8C2FDF91CF911F91AB
:101A30000F91FF90EF90DF90CF90BF90AF909F906D
:101A40008F907F906F905F904F903F90089560E0EF
:101A500070E00C94DF0BCF93DF93809133078823E2
:101A600041F1C0914101CF718C2F81508230C8F378
:101A7000C131B9F3C231A9F3CF3199F3C83021F0A4
:101A8000C63011F0C631A9F486E10E94D30A8091D4
:101A900048018068809348018091410187FFFCCF15
:101AA000D09141018C2F0E94D30AD6FB882780F960
:101AB00001C08FEFDF91CF91089580913307882384
:101AC00009F485C080914207882309F47EC0809183
:101AD0007B01E0912107F091220790E00297248199
:101AE000332727FD3095281739070CF470C0E09193
:101AF0002107F0912207809182018083E0912107E4
:101B0000F0912207809187019091880192838183CF
:101B1000E0912107F091220780917B018B50838314
:101B2000A0912107B0912207E0912107F0912207AF
:101B300013969C91848189173CF0E0912107F091E4
:101B40002207838187FF0DC01092420780914C01CC
:101B50008F7780934C0180914C01806880934C0179
:101B600036C0A0912107B0912207E0912107F091A2
:101B7000220713964C91842F992787FD9095592F12
:101B800069E871E0858196810E94A92EE091210784
:101B9000F09122078091800185FB882780F9878357
:101BA000E0912107F09122078091470180871092F0
:101BB000420780914C018F7780934C0180914C01BA
:101BC000806880934C0181E0089580E008958FEF54
:101BD00008951F920F920FB60F9211248F9380E8F1
:101BE00080934F018F910F900FBE0F901F9018950B
:101BF0001F920F920FB60F9211248F9381E0809362
:101C0000320780E480934F018F910F900FBE0F90A9
:101C10001F9018951F920F920FB60F9211248F9359
:101C200080E280934F018F910F900FBE0F901F9015
:101C300018951F920F920FB60F9211248F9380E187
:101C400080934F018F910F900FBE0F901F901895AA
:101C50001F920F920FB60F9211240BB60F922F9373
:101C60003F934F935F936F937F938F939F93AF9324
:101C7000BF93EF93FF9384E080934F01E091F204D0
:101C8000F091F304309709F00995FF91EF91BF911E
:101C9000AF919F918F917F916F915F914F913F9104
:101CA0002F910F900BBE0F900FBE0F901F901895A5
:101CB0001F920F920FB60F9211248F9382E08093A0
:101CC0004F018F910F900FBE0F901F9018951F928C
:101CD0000F920FB60F9211248F9381E080934F01E2
:101CE0008F910F900FBE0F901F901895E9E4F1E0CF
:101CF0009081907F908390818F70892B808308954D
:101D00008FEF08950895089508958FEF08958091B5
:101D10001C0790911D07089580E00895089581E0C3
:101D2000089581E0089581E0089508950895089543
:101D300008950895089508950895E7E3F1E08081F6
:101D400083608083989AA09A8DB1806E8DB98EB190
:101D5000806E8EB90895E7E3F1E08081836080832F
:101D6000989AA0988DB1806E8DB98EB1806E8EB923
:101D70000895CF92DF92EF92FF920F931F93CF932C
:101D8000DF93CDB7DEB727970FB6F894DEBF0FBE4F
:101D9000CDBF0E94E113E0912107F0912207C0809E
:101DA000D38005811681E0840E945D0D18161CF019
:101DB00088E294E006C0F801F080F11007C087E4E3
:101DC00094E00E94462F0E94E31332C0F5E0FF1218
:101DD00004C08AE090E00E94402FC80101969F93C2
:101DE0008F938E2D992787FD90959F93EF921F9249
:101DF000FF921F92CF9289E694E09F938F930E9467
:101E0000292F1D830C83FA94F801F082DB821E8255
:101E10001F828FEF9FEF9A8389830E94E313CE0185
:101E200001960E94270D0FB6F894DEBF0FBECDBFFE
:101E300027960FB6F894DEBF0FBECDBFDF91CF91CE
:101E40001F910F91FF90EF90DF90CF9008951F9218
:101E50000F920FB60F9211240BB60F922F933F9350
:101E60004F935F936F937F938F939F93AF93BF93A2
:101E7000EF93FF9380E001C08F5F90917B01891702
:101E8000D8F38091460187FF04C081E08093420728
:101E900004C082E994E00E94462F88E080934F01BD
:101EA0008091460187FF05C080911E0781110E9425
:101EB000B90EFF91EF91BF91AF919F918F917F915B
:101EC0006F915F914F913F912F910F900BBE0F90AB
:101ED0000FBE0F901F9018958091C00087FFFCCF18
:101EE0008091C0008F778093C0008091C6000895D4
:101EF0009091C00095FFFCCF9091C0009F7D909382
:101F0000C0008093C60008958FEF0895813031F4AA
:101F10008091C80087FD07C080E008958111FCCF43
:101F20008091C000F7CF81E00895CF93DF93EC015B
:101F300007C06091F5077091F60790E00E94FD2EB2
:101F4000FE01219684918111F4CFDF91CF91089504
:101F500086E084B985B988EF8AB980EF8BB982E0D1
:101F60008EB980E681B9169A08950C94A80F8F3F18
:101F700009F466C0982F9770923051F130F499238C
:101F800059F0913009F05CC015C09430E9F170F15E
:101F9000953009F055C046C092B1869586958695D4
:101FA00021E030E0082E01C0220F0A94EAF7922BBC
:101FB00092B944C095B186958695869521E030E02A
:101FC000082E01C0220F0A94EAF7922B95B936C069
:101FD00098B186958695869521E030E0082E01C05F
:101FE000220F0A94EAF7922B98B928C09BB18695E4
:101FF0008695869521E030E0082E01C0220F0A94D4
:10200000EAF7922B9BB91AC09EB186958695869564
:1020100021E030E0082E01C0220F0A94EAF7922B4B
:102020009EB90CC091B386958695869521E030E0E7
:1020300001C0220F8A95EAF7922B91BB81E00895A7
:102040008FEF08958F3F09F46DC0982F97709230ED
:1020500069F130F4992361F0913009F063C017C041
:10206000943009F441C088F1953009F05BC04BC051
:1020700092B186958695869521E030E0082E01C0C4
:10208000220F0A94EAF72095292322B949C095B175
:1020900086958695869521E030E0082E01C0220FB6
:1020A0000A94EAF72095292325B93AC098B1869574
:1020B0008695869521E030E0082E01C0220F0A9413
:1020C000EAF72095292328B92BC09BB186958695E0
:1020D000869521E030E0082E01C0220F0A94EAF72D
:1020E000209529232BB91CC09EB18695869586958F
:1020F00021E030E0082E01C0220F0A94EAF7209573
:1021000029232EB90DC091B386958695869521E039
:1021100030E001C0220F8A95EAF72095292321BBE0
:1021200081E008958FEF08958F3F39F1982F9770D0
:10213000923081F028F4992349F09130F1F408C0ED
:10214000943061F048F09530C1F40AC020B109C064
:1021500023B107C026B105C029B103C02CB101C00D
:102160002FB130E086958695869502C035952795E6
:102170008A95E2F7822F817008958FEF08958F3F3F
:1021800009F4E7C0982F9770923009F456C030F4E4
:10219000992369F0913009F0DCC02CC0943009F427
:1021A00092C008F46DC0953009F0D3C0AFC020B123
:1021B00086958695869530E0082E02C03595279540
:1021C0000A94E2F792B120FD0AC021E030E0082E27
:1021D00001C0220F0A94EAF7922B92B921C021E0A4
:1021E00030E0082E01C0220F0A94EAF72095292337
:1021F00022B916C023B186958695869530E0082EC3
:1022000002C0359527950A94E2F795B120FD0AC0E2
:1022100021E030E001C0220F8A95EAF7922B95B9B0
:1022200081E0089521E030E0082E01C0220F0A94D9
:10223000EAF72095292325B9F3CF26B1869586950F
:10224000869530E0082E02C0359527950A94E2F76E
:1022500098B120FD0AC021E030E0082E01C0220F15
:102260000A94EAF7922B98B9DBCF21E030E0082EF0
:1022700001C0220F0A94EAF72095292328B9D0CF6C
:1022800029B186958695869530E0082E02C0359551
:1022900027950A94E2F79BB120FD0AC021E030E0C7
:1022A000082E01C0220F0A94EAF7922B9BB9B8CFEF
:1022B00021E030E0082E01C0220F0A94EAF72095B1
:1022C00029232BB9ADCF2CB186958695869530E024
:1022D000082E02C0359527950A94E2F79EB120FD9D
:1022E0000AC021E030E0082E01C0220F0A94EAF76C
:1022F000922B9EB995CF21E030E0082E01C0220F2D
:102300000A94EAF7209529232EB98ACF2FB1869512
:102310008695869530E0082E02C0359527950A945B
:10232000E2F791B320FD0AC021E030E0082E01C0A1
:10233000220F0A94EAF7922B91BB72CF21E030E092
:10234000082E01C0220F0A94EAF72095292321BB09
:1023500067CF8FEF08958F3F09F4E5C0982F9770EE
:1023600061117DC0923099F130F4992361F0913080
:1023700009F0D9C01AC0943009F44DC0D0F195309D
:1023800009F0D1C05AC091B186958695869521E015
:1023900030E001C0220F8A95EAF7822F80958923C9
:1023A00081B982B1822B82B9BCC094B186958695E1
:1023B000869521E030E001C0220F8A95EAF7822F4E
:1023C0008095892384B985B1822B85B9AAC097B13C
:1023D00086958695869521E030E001C0220F8A958A
:1023E000EAF7822F8095892387B988B1822B88B933
:1023F00098C09AB186958695869521E030E001C017
:10240000220F8A95EAF7822F809589238AB98BB1AA
:10241000822B8BB986C09DB186958695869521E0E5
:1024200030E001C0220F8A95EAF7822F8095892338
:102430008DB98EB1822B8EB974C090B38695869576
:10244000869521E030E001C0220F8A95EAF7822FBD
:102450008095892380BB81B3822B81BB62C092307F
:1024600051F130F4992359F0913009F05CC015C056
:102470009430E9F170F1953009F055C046C091B142
:1024800086958695869521E030E0082E01C0220FC2
:102490000A94EAF7922B91B944C094B18695869537
:1024A000869521E030E0082E01C0220F0A94EAF759
:1024B000922B94B936C097B186958695869521E082
:1024C00030E0082E01C0220F0A94EAF7922B97B948
:1024D00028C09AB186958695869521E030E0082E31
:1024E00001C0220F0A94EAF7922B9AB91AC09DB143
:1024F00086958695869521E030E0082E01C0220F52
:102500000A94EAF7922B9DB90CC090B386958695F4
:10251000869521E030E001C0220F8A95EAF7922BE0
:1025200090BB81E008958FEF0895811106C080B1BE
:102530008695817091E0892708958FEF089500971F
:1025400011F483E20DC08130910511F48BE208C0D3
:102550008230910511F483E303C0039729F48BE3E0
:102560000E94BF1081E008958FEF0895009711F445
:1025700083E20DC08130910511F48BE208C08230F6
:10258000910511F483E303C0039729F48BE30E94C0
:10259000B70F81E008958FEF0895009711F483E25B
:1025A0000DC08130910511F48BE208C08230910595
:1025B00011F483E303C0039729F48BE30E942210F4
:1025C00081E008958FEF0895882319F085B78F7EF5
:1025D00002C085B7806185BF81E008959091C800F1
:1025E00095FFFCCF8093CE0008959093C500809313
:1025F000C40086E08093C200E1ECF0E080818B7F34
:102600008083A0ECB0E08C9182608C9380818861A3
:10261000808308959093CD008093CC0086E08093D2
:10262000CA00E9ECF0E080818B7F8083A8ECB0E009
:102630008C9182608C9380818861808308950E9450
:10264000F5126CE67FE088E79FE00E94B22E90933F
:10265000F6078093F5076CE67FE088E79FE00E942D
:10266000B22E9093F4078093F30708958091C800E9
:1026700087FFFCCF8091C8008F778093C80080913E
:10268000CE00089500000000000000000197D1F77F
:1026900008950C9404300E940C300895EF92FF923C
:1026A0000F931F93CF93DF93EC0180E090E00E94A3
:1026B0000430F82E8B8381E090E00E940430E82EF5
:1026C0008A8382E090E00E940430082F898383E0AF
:1026D00090E00E940430182F888384E090E00E94EC
:1026E00004309E2D9F0D900F910F891302C081E041
:1026F00001C08FEFDF91CF911F910F91FF90EF906D
:102700000895CF93DF93EC0185E090E00E940430C0
:10271000888381E0DF91CF910895FC01608186E09C
:1027200090E00E940C3081E00895CF93DF93EC019C
:1027300086E090E00E940430888381E0DF91CF91B1
:1027400008950F931F93CF93DF93EC0108E010E0FF
:10275000C8010E94043089930F5F1F4F0831110593
:10276000B9F781E0DF91CF911F910F9108950F93F9
:102770001F93CF93DF93EC0108E010E06991C8014B
:102780000E940C300F5F1F4F08311105B9F781E02F
:10279000DF91CF911F910F910895CF93DF93EC01BB
:1027A00087E090E00E940430888381E0DF91CF9140
:1027B0000895FC01608187E090E00E940C3081E088
:1027C0000895F8940895789408950E94E113FFCF36
:1027D000CF93DF93CDB7DEB7A3970FB6F894DEBFE4
:1027E0000FBECDBF0E9421188093B9078F3F21F4FF
:1027F00060E08EE00E9443160E94C32680FF04C062
:1028000060E086E00E9443161092BC071092CA074F
:102810001092C9071092BB071092BA071092CB070B
:102820001092C8078FEF8093B2078093B40780930C
:10283000B3078093B5078093B7078093B60793E6F5
:102840009093570780935507909378078093760766
:10285000909399078093970741ED57E05093D007E5
:102860004093CF078CEC97E09093D3078093D207E7
:1028700026ED37E03093D5072093D4075093D8073F
:102880004093D7074BED57E05093DA074093D907B1
:102890003093DD072093DC071092CE071092CD070E
:1028A0001092DF071092DE071092BF071092BE074A
:1028B00090934C0780934B0763E971E2CE01019638
:1028C0000E94FC2840E850E067E276E0CE010196E5
:1028D0000E94002985E58093270619861C861D869F
:1028E0001E861F86188A198A1A8A1B8A1C8A1D8AC4
:1028F0001E8A1F8A188E198E1A8E1B8E1C8E1D8E94
:102900001E8E1F8E18A219A21AA21BA281E0888710
:1029100092E09A878B87CE0101960E94451CA39670
:102920000FB6F894DEBF0FBECDBFDF91CF910895F3
:10293000C5E5D7E0F12CD8808FEFD81206C0F3940C
:10294000A19693E0F912F7CF14C005E517E0E12C4A
:10295000FE1441F0F8018081D81204C06D2D85E08D
:102960000E944316E3940F5D1F4FF3E0EF12F0CF88
:10297000E6CF0E94421B91E28902F0011124E35B41
:10298000F84F82858093CB07F093CA07E093C9077D
:10299000F093BB07E093BA078093BC070E94842999
:1029A0000E946E290E948829FFCFAF92BF92CF92DA
:1029B000DF92EF92FF920F931F93CF93DF931F92BB
:1029C000CDB7DEB75C016B017A01DC0119968C9101
:1029D0001997823021F08091B8078C9302C0F501DD
:1029E00010828091B807833020F060E087E00E9479
:1029F0004316D50119968C91823029F08091B80741
:102A00008F5F8093B8078091B807811103C081E080
:102A10008093B807F501308121E23203F0011124DF
:102A2000E35BF84FD182C082D50118968C9118973C
:102A300082873C913203F0011124E35BF84F83E07D
:102A400081873C913203F0011124E35BF84F30871A
:102A50000C91020380011124035B184FF8011582C9
:102A6000C5010B960E94F51FD8015C969C938E932E
:102A70005B97F50103851485258536850E33110591
:102A80002105310520F0608186E10E944316D501C1
:102A90000C91112707FD1095C5014B960E94F51F5B
:102AA00041E2409FD001419FB00D1124A35BB84F7C
:102AB00056969C938E935597F501008104038001EF
:102AC0001124035B184FD80155968D919C91569710
:102AD0005B962D913C915C97820F931F58969C9327
:102AE0008E935797C501439649830E94F51FF801BD
:102AF000968F858FD5012C9149812403F0011124F3
:102B0000E35BF84F858D968D928F818F81E090E009
:102B100090A3878FF382E28281E084870F90DF9118
:102B2000CF911F910F91FF90EF90DF90CF90BF90CA
:102B3000AF9008950C94B72185E690E00895E09158
:102B4000C907F091CA0784870895E091C907F091F9
:102B5000CA078485089520912506222341F0FB01B0
:102B600020832091F604FC01208381E0089580E019
:102B7000089580912506882309F483C00E94E113FB
:102B800089EA91E00E94950F8091F6041F928F933D
:102B90008BEA94E09F938F930E94292F85EB91E01D
:102BA0000E94950F0F900F900F900F908091250627
:102BB000883110F0109225068091250690E0FC01E6
:102BC0003197E631F10508F046C0E057FF4F0C940D
:102BD000472D89EB91E041C085EF91E03EC08CE14B
:102BE00092E03BC080E392E038C086E492E035C0DA
:102BF00081E692E032C087E792E02FC08FE892E052
:102C00002CC082EA92E029C085EB92E026C083EDD9
:102C100092E023C088EF92E020C084E093E01DC0E2
:102C20008FE193E01AC08EE293E017C082E493E054
:102C300014C083E593E011C087E693E00EC087E8F7
:102C400093E00BC08FE993E008C08AEB93E005C0E6
:102C50008BEC93E002C08AED93E00E94950F6091A7
:102C6000F5077091F6078DE090E00E94FD2E6091CF
:102C7000F5077091F6078AE090E00E94FD2E109211
:102C8000250680E00895809325066093F6040C9451
:102C9000B91580932506E091C907F091CA07808590
:102CA0008093F6040C94B915CF93DF931F92CDB7A0
:102CB000DEB7198207C080ED97E00E94F824898171
:102CC0008F5F898389818436B0F30F90DF91CF9134
:102CD000089581E090E00E94CD120E94541681E098
:102CE00090E00E94B6120C94541681E090E00E948D
:102CF000CD120E9454160E9454160E94541681E070
:102D000090E00E94B6120C945416FF920F931F93FA
:102D1000CF93DF9300D01F92CDB7DEB71F928F9372
:102D20008BEA94E09F938F938E010F5F1F4F1F9349
:102D30000F930E94752F0F900F900F900F900F9090
:102D40000F90F12C6FC0F801E80FF91F80818433D8
:102D5000B9F168F48133E9F020F4803309F05BC005
:102D600015C0823309F1833309F055C022C087337F
:102D7000C1F130F4853369F1863309F04CC02CC0C1
:102D80008833B1F1893309F046C03BC00E94751603
:102D900002C00E9469160E9475160E9475160E9454
:102DA00075160E94751637C00E9469160E94691632
:102DB000F4CF0E9469160E9469160E946916EFCF2F
:102DC0000E9469160E9469160E9469160E9469167F
:102DD000E8CF0E94691602C00E9475160E9469160B
:102DE00004C00E9475160E9475160E94691606C0DE
:102DF0000E9475160E9475160E9475160E9469162B
:102E000008C00E9475160E9475160E9475160E94D1
:102E100075160E9469160E9454160E9454160E944C
:102E20005416F394F80101900020E9F73197E01B64
:102E3000F10B8F2D90E08E179F0708F484CF0F9031
:102E40000F900F90DF91CF911F910F91FF900895F8
:102E50005F926F927F928F929F92AF92BF92CF922A
:102E6000DF92EF92FF920F931F93CF93DF9381EE48
:102E700093E00E94950FE091C907F091CA07208561
:102E8000822F992787FD90959F932F938EEA94E048
:102E90009F938F930E94292FE091C907F091CA0751
:102EA000C281D381DF93CF9382EE94E09F938F937F
:102EB0000E94292F88811F928F9387EB94E09F9324
:102EC0008F930E94292FE091C907F091CA07818151
:102ED0008F9380818F9384EC94E09F938F930E94D3
:102EE000292F8091CA078F938091C9078F938EEC09
:102EF00094E09F938F930E94292F0DE417E0EDB784
:102F0000FEB774960FB6F894FEBF0FBEEDBFC0E0DB
:102F1000D0E08EED882E84E0982E97EBA92E94E0D9
:102F2000B92E24ECC22E24E0D22E31E2532E4EECE8
:102F3000E42E44E0F42EF801628073807F926F9259
:102F4000DF93CF939F928F920E94292FF30180816C
:102F50001F928F93BF92AF920E94292FF801818117
:102F60008F9380818F93DF92CF920E94292F5C9E56
:102F7000C0015D9E900D1124835B984F9F938F93AA
:102F8000FF92EF920E94292F21960F5D1F4F8DB760
:102F90009EB742960FB6F8949EBF0FBE8DBFC3304A
:102FA000D10549F6DF91CF911F910F91FF90EF90DE
:102FB000DF90CF90BF90AF909F908F907F906F9059
:102FC0005F900895CF93DF93E091C907F091CA070E
:102FD000C281D3818881853539F00E94281781E02C
:102FE0000E94491685E58883E091C907F091CA07D8
:102FF000808191818115924438F00E94281782E1E6
:10300000DF91CF910C944916DF91CF91089521E281
:103010008202F0011124E35BF84FA281B3818C910D
:10302000853519F085E58C9308C0808191818115E3
:10303000924428F082E10E9449168FEF089581E0C2
:1030400008950F931F9300919B0510919C0520916B
:103050009D0530919E0580E090E0B901A801082E01
:1030600004C076956795579547950A94D2F740FD29
:1030700019C041E050E060E070E0082E04C0440F49
:10308000551F661F771F0A94D2F7402B512B622BD6
:10309000732B40939B0550939C0560939D05709303
:1030A0009E0505C0019680329105B9F68FEF1F91FC
:1030B0000F910895E091C907F091CA07658576855B
:1030C000878590890895CF92DF92EF92FF920F93B8
:1030D0001F93CF93DF931F92CDB7DEB7C12CD12CB6
:1030E0007601C394082E04C0CC0CDD1CEE1CFF1C22
:1030F0000A94D2F740919B0550919C0560919D05E3
:1031000070919E054C215D216E217F21452B462B20
:10311000472B09F463C089830E94E113E6E5F7E0D9
:1031200097018601009510952095309593E089814F
:10313000DF0111974C914F3F49F1448155816681E0
:1031400077814C155D056E057F0541F4108611866B
:1031500012861386DF0112971C9290834481558159
:1031600066817781402351236223732344835583EF
:10317000668377834085518562857385402351231B
:10318000622373234087518762877387B19647E034
:10319000E93BF40769F64EEF5FEF6FEF7FEF04C096
:1031A000440F551F661F771F8A95D2F780919B05A4
:1031B00090919C05A0919D05B0919E058423952337
:1031C000A623B72380939B0590939C05A0939D0510
:1031D000B0939E050E94E31381E001C08FEF0F9032
:1031E000DF91CF911F910F91FF90EF90DF90CF90E3
:1031F00008950F931F9341E050E060E070E004C039
:10320000440F551F661F771F8A95D2F7E091C907B3
:10321000F091CA0785859685A785B0898A019B01AB
:10322000082319232A233B23012B022B032BD1F044
:10323000409550956095709584239523A623B723D8
:1032400085879687A787B08B81899289A389B4895E
:1032500084239523A623B723818B928BA38BB48BD6
:1032600081E001C08FEF1F910F91089540919B0560
:1032700050919C0560919D0570919E05082E04C09B
:1032800076956795579547950A94D2F740FF1DC0EC
:10329000E091C907F091CA0741E050E060E070E0BA
:1032A00004C0440F551F661F771F8A95D2F7858586
:1032B0009685A785B089842B952BA62BB72B858760
:1032C0009687A787B08B81E008958FEF0895CF92FE
:1032D000DF92EF92FF921F93CF93DF93C12CD12CFB
:1032E0007601C39404C0CC0CDD1CEE1CFF1C8A9537
:1032F000D2F780919B0590919C05A0919D05B0917E
:103300009E058C219D21AE21BF21892B8A2B8B2BE1
:1033100011F481E040C00E94E113E4E5F7E0C6E566
:10332000D7E010E023E080818130A9F48285938585
:10333000A485B5858C219D21AE21BF21892B8A2BA7
:103340008B2B49F02883178616861082C286D38677
:10335000E486F58611E08081823091F48285938540
:10336000A485B5858C159D05AE05BF0549F4288358
:10337000178616861082128613861486158611E02B
:10338000B196A19687E0E73BF80769F60E94E31340
:10339000111105C082E00E949F158FEF01C081E0EE
:1033A000DF91CF911F91FF90EF90DF90CF90089524
:1033B0000F931F93E091C907F091CA070585168501
:1033C000278530890623172328233923012B022B35
:1033D000032B19F1618B728B838B948B21E02783F4
:1033E000DC01CB010090B90704C0B695A79597956D
:1033F00087950A94D2F780FF03C00E94231D04C062
:1034000080E090E00E944A1DE091C907F091CA0750
:10341000018912892389348903C000E010E09801F2
:10342000B801C9011F910F9108959091C80791119A
:103430001CC09091B2079F3F31F09091B5079F3F1C
:1034400021F421E003C020E001C022E030E0F901D6
:10345000EE0FFF1FE20FF31FEE54F84F82838083BD
:10346000618381E08093C80702C0E0E0F0E0CF0113
:10347000089527E0823B920729F0855B974021F46D
:1034800081E0089580E008958FEF08950E94391A31
:103490008F3F11F481E002C0823021F40E949F1519
:1034A0008FEF0895992787FD9095FC01EE0FFF1F80
:1034B000E80FF91FEE54F84F8FEF808382838183EA
:1034C0008091C80781508093C80781E00895CF920A
:1034D000DF92EF92FF920F931F93CF93DF931F9290
:1034E000CDB7DEB70E94391A8F3F11F481E002C0D8
:1034F000823021F40E949F158FEF49C0282F332777
:1035000027FD30958901000F111F020F131F0E5464
:10351000184FD80112962C9112979C912917B4F547
:1035200089830E94E113F80192819F5F9283E09169
:10353000C907F091CA071482E4E5F7E006E517E051
:103540008981C82EDD24C7FCD094ED2CFD2C23E00E
:103550003081323091F442855385648575854C15F0
:103560005D056E057F0549F4D8012C9317861686F4
:1035700010821286138614861586B1960F5D1F4F32
:10358000B7E0E73BFB0721F70E94E31381E00F90D0
:10359000DF91CF911F910F91FF90EF90DF90CF902F
:1035A00008950F931F93CF93DF931F92CDB7DEB78C
:1035B0000E94391A8F3F11F481E002C0823021F459
:1035C0000E949F158FEF40C089830E94E11389817B
:1035D000082F112707FD1095F801EE0FFF1FE00FD0
:1035E000F11FEE54F84F9281911116C0E091C90776
:1035F000F091CA07978192609783992787FD9095EC
:10360000A92FB92F818B928BA38BB48B0E94E313CC
:1036100080E090E00E944A1DF801EE0FFF1FE00FCE
:10362000F11FEE54F84F828181508283A091C90727
:10363000B091CA0781811B968C931B9781E01496E9
:103640008C930E94E31381E00F90DF91CF911F9143
:103650000F9108950E94391A8F3F11F481E002C042
:10366000823021F40E949F158FEF0895992787FDDE
:103670009095FC01EE0FFF1FE80FF91FEE54F84F75
:1036800082810895E091BE07F091BF07808108957F
:10369000E091BE07F091BF0703C00380F481E02DE5
:1036A0003097D9F70895CF92DF92EF92FF920F9360
:1036B0001F93CF93DF93E0914B07F0914C07309726
:1036C00009F48AC04091BE075091BF0741155105CA
:1036D00009F446C0DA0191E2692F782F7603900150
:1036E0001124235B384F8901065F1F4F7901C4E025
:1036F000EC0EF11C255F3F4F6C9170E0969FE0014E
:10370000979FD00D1124C35BD84FDC80DD2029F0BA
:10371000DB84E801C880DC1428F1E701D880DD20D3
:1037200061F0969FE001979FD00D1124C35BD84FA5
:10373000DA84E901C880DC14A8F0969FE001979F25
:10374000D00D1124C35BD84F7A85E80168817617C4
:1037500048F013960D90BC91A02D109769F602C009
:10376000A0E0B0E08083C381D481D0934C07C093A4
:103770004B07A417B507B1F4109749F0B483A3839E
:10378000128211821296FC93EE93119706C0148256
:10379000138212821182FA83E983F093BF07E093C8
:1037A000BE071AC011968D919C911297AC17BD0758
:1037B00059F092838183B483A3831196CD91DC91D8
:1037C0001297FC83EB8304C014821382928381835B
:1037D0001296FC93EE931197DF91CF911F910F9169
:1037E000FF90EF90DF90CF900895CF93DF93E0911B
:1037F000BE07F091BF07309709F444C0992787FDB1
:103800009095208130E02817390781F4A381B48195
:10381000B093BF07A093BE0712961C921E921197F9
:1038200018C00380F481E02D309761F1208130E0F1
:1038300028173907B1F7C181D281838194819C8394
:103840008B83A381B481109721F01296DC93CE93E1
:103850001197A0914B07B0914C07109739F4F09352
:103860004C07E0934B07148213820AC0B483A383EE
:103870001296FC93EE931197F0934C07E0934B074D
:1038800012821182DF91CF910895EF92FF920F93F0
:103890001F93CF93DF93EC014B815C8169817A8127
:1038A0008D819E810E941F292F81222371F04B81DF
:1038B0005C81E12CF12C00E010E020E030E0BC0164
:1038C000CE010E94D5141F820CC0E88121E2E202E1
:1038D000F0011124E35BF84F2185233099F49183A3
:1038E0008083E88181E2E802F0011124E35BF84F74
:1038F00085899689892B41F482E0818788810E949D
:10390000531B02C08FEF01C081E0DF91CF911F9167
:103910000F91FF90EF9008951F93CF93DF93CDB752
:10392000DEB728970FB6F894DEBF0FBECDBF298350
:103930003A834B835C836D837E838F8398870E9459
:10394000E1130E944726182FCE0101960E94F51F11
:103950008330910560F0E091C907F091CA07810FAB
:10396000911D968B858B0E94E31381E001C08FEF40
:1039700028960FB6F894DEBF0FBECDBFDF91CF9172
:103980001F9108950E94F128E091C907F091CA079C
:1039900085818111F7CF0895FF920F931F93CF93E5
:1039A000DF93CDB7DEB728970FB6F894DEBF0FBE12
:1039B000CDBF29833A834B835C836D837E838F8362
:1039C00098870E94E2170E94E113E091C907F091E5
:1039D000CA0781E0858381E090E090A3878F0E94F1
:1039E0004726F82ECE0101960E94F51FE091C907E7
:1039F000F091CA070F2D10E0800F911F968B858BD9
:103A000087EF8F1578F00E94E0250F5F1F4F282F5A
:103A100030E00217130734F48F2D8E5F8093240655
:103A20000E94E4250E94E3130E94C21C81E02896B4
:103A30000FB6F894DEBF0FBECDBFDF91CF911F91BF
:103A40000F91FF900895CF930E94E113E091C90771
:103A5000F091CA0781E0858386830E944726C82F9C
:103A6000883F88F40E94E0252C2F30E02F5F3F4FE5
:103A7000482F50E02417350734F48C2F8E5F809345
:103A800024060E94E4250E94E3130E94C21C81E0E8
:103A9000CF910895CF93DF93EC010E94E113E09161
:103AA000C907F091CA0781E08583D68BC58B0E9438
:103AB0004726C82F883F88F40E94E0252C2F30E04D
:103AC0002F5F3F4F482F50E02417350734F48C2FD9
:103AD0008E5F809324060E94E4250E94E3130E94D7
:103AE000C21C81E0DF91CF910895FF920F931F9345
:103AF000CF93DF938C010E94E113E091C907F0910D
:103B0000CA0781E085830E944726F82EE091C90705
:103B1000F091CA07C82FD0E00C0F1D1F168B058B24
:103B200087EF8F1570F00E94E0252196282F30E056
:103B3000C217D30734F48F2D8E5F809324060E9422
:103B4000E4250E94E3130E94C21C81E0DF91CF9123
:103B50001F910F91FF900895CF93DF93EC010E9486
:103B6000E217209711F4C1E0D0E00E94E113E09148
:103B7000C907F091CA0781E08583D0A3C78F0E944F
:103B80004726C82F883F88F40E94E0252C2F30E07C
:103B90002F5F3F4F482F50E02417350734F48C2F08
:103BA0008E5F809324060E94E4250E94E3130E9406
:103BB000C21C81E0DF91CF910895CF930E94E2175C
:103BC0000E94E113E091C907F091CA0781E090E0FB
:103BD00090A3878F81E085830E944726C82F883F66
:103BE00088F40E94E0252C2F30E02F5F3F4F482FB4
:103BF00050E02417350734F48C2F8E5F8093240611
:103C00000E94E4250E94E3130E94C21C81E0CF9130
:103C10000895E091C907F091CA0780850E94F51BBD
:103C2000E091C907F091CA0784E081870E94DD1DF9
:103C300081E008958F929F92AF92BF92CF92DF92D0
:103C4000EF92FF920F931F93CF93DF93CDB7DEB721
:103C500060970FB6F894DEBF0FBECDBF29873A87B5
:103C60004B875C876D877E878F87988BCE01019607
:103C70000E94761E89809A80AB80BC80CD80DE80D9
:103C8000EF80F88409851A852B853C854D855E85F6
:103C90006F857889CE0109960E94D21E8F3F61F010
:103CA00029853A854B855C856D857E858F859889CC
:103CB0000E94CC1C81E001C08FEF60960FB6F89493
:103CC000DEBF0FBECDBFDF91CF911F910F91FF904F
:103CD000EF90DF90CF90BF90AF909F908F9008951E
:103CE000E091C907F091CA0780850895CF92DF92CD
:103CF000EF92FF92CF93DF93EC011C821D821E8214
:103D00001F828091C0079091C107A091C207B09116
:103D1000C30788839983AA83BB83C090C407D090CC
:103D2000C507E090C607F090C707CC82DD82EE821F
:103D3000FF820E944726A82FB0E023EB36EE4EE02C
:103D400050E00E941C2C6C0D7D1D8E1D9F1D6C83F0
:103D50007D838E839F8313C09A5CAA49BB438C8367
:103D60009D83AE83BF83488159816A817B814F5F88
:103D70005F4F6F4F7F4F488359836A837B838C816A
:103D80009D81AE81BF8181152AEC92072AE9A207A5
:103D90002BE3B20708F7DF91CF91FF90EF90DF9010
:103DA000CF9008956F927F928F929F92AF92BF9221
:103DB000CF92DF92EF92FF920F931F93CF93DF93F7
:103DC000CDB7DEB760970FB6F894DEBF0FBECDBF9C
:103DD0003C0109831A832B833C834D835E836F836D
:103DE000788789869A86AB86BC86CD86DE86EF8606
:103DF000F88AC980DA80EB80FC808D819E81AF815A
:103E0000B88509851A852B853C854D855E856F852E
:103E10007889C016D106E206F30608F442C00C15F4
:103E20001D052E053F0599F484179507A607B707CA
:103E3000C0F1841B950BA60BB70BF301848395830C
:103E4000A683B783108211821282138228C084173E
:103E50009507A607B70790F4F1E0CF1AD108E1085B
:103E6000F108C01AD10AE20AF30AF301C082D18232
:103E7000E282F3829653A546B44C09C0C01AD10A17
:103E8000E20AF30AF301C082D182E282F382841B48
:103E9000950BA60BB70B84839583A683B78381E02C
:103EA00001C08FEF60960FB6F894DEBF0FBECDBF96
:103EB000DF91CF911F910F91FF90EF90DF90CF9006
:103EC000BF90AF909F908F907F906F900895FC016E
:103ED00013C05A5C6A497B43448355836683778366
:103EE00040815181628173814F5F5F4F6F4F7F4F80
:103EF00040835183628373834481558166817781D6
:103F000041158AEC58078AE968078BE3780708F7B8
:103F100008958F929F92AF92BF92CF92DF92EF92CD
:103F2000FF920F931F93CF93DF93CDB7DEB76097C8
:103F30000FB6F894DEBF0FBECDBF09831A832B8363
:103F40003C834D835E836F83788789869A86AB86B0
:103F5000BC86CD86DE86EF86F88A49855A856B85D4
:103F60007C8509811A812B813C81400F511F621F82
:103F7000731FFC0140835183628373834D855E858B
:103F80006F8578890D811E812F813885400F511FE3
:103F9000621F731F44835583668377830E94671F64
:103FA00081E060960FB6F894DEBF0FBECDBFDF9103
:103FB000CF911F910F91FF90EF90DF90CF90BF9026
:103FC000AF909F908F9008956093C0077093C10742
:103FD0008093C2079093C3072093C4073093C5070B
:103FE0004093C6075093C70708952F923F924F9270
:103FF0005F926F927F928F929F92AF92BF92CF9279
:10400000DF92EF92FF920F931F93CF93DF93CDB781
:10401000DEB762970FB6F894DEBF0FBECDBFFC01CE
:104020004080518062807380648175818681978130
:10403000411451046104710409F46CC0F2E44F1698
:1040400051046104710408F06CC07B018C0120E014
:1040500030E0A9016983FA820B831C832D833E83A0
:104060004F835887E0E0F0E0B0E0A0E0198A1A8AB8
:10407000312C812C912C01C093949F014B2F5A2FEE
:1040800069897A89832D982DA980BA80CB80DC80BC
:10409000ED80FE800F8118850E945C2D222E3987CD
:1040A0004A875B876C877D878E879F879F014B2F11
:1040B0005A2F69897A89832D982D36534546544C59
:1040C0006F4F7F4F8F4F9F4FF901B42FA52F698BF3
:1040D0007A8B382E892E492D50E060E070E044152F
:1040E00055056605770540F283EBA82E96EEB92EAE
:1040F0002EE0C22ED12CE12CF12C00E010E0222D7C
:1041000039854A855B856C857D858E859F850E9476
:10411000932C09C023EB36EE4EE050E00E94532C66
:1041200002C020E030E0C90162960FB6F894DEBF0D
:104130000FBECDBFDF91CF911F910F91FF90EF90F8
:10414000DF90CF90BF90AF909F908F907F906F90B7
:104150005F904F903F902F900895CF92DF92EF9213
:10416000FF92CF93DF93CDB7DEB728970FB6F894C1
:10417000DEBF0FBECDBF6B017C013AE0F694E79441
:10418000D794C7943A95D1F7C982DA82EB82FC8240
:104190009B01AC0133704427552763EB76EE8EE02C
:1041A00090E00E942F2C2C2D3A814B815C81289627
:1041B0000FB6F894DEBF0FBECDBFDF91CF91FF9059
:1041C000EF90DF90CF9008952F923F924F925F92A1
:1041D0006F927F928F929F92AF92BF92CF92DF9217
:1041E000EF92FF920F931F93CF93DF93CDB7DEB77C
:1041F00062970FB6F894DEBF0FBECDBFFC014080C2
:1042000051806280738064817581868197814114B9
:1042100051046104710409F465C07B018C0120E044
:1042200030E0A9016983FA820B831C832D833E83CE
:104230004F835887E0E0F0E0B0E0A0E0198A1A8AE6
:10424000312C812C912C01C093949F014B2F5A2F1C
:1042500069897A89832D982DA980BA80CB80DC80EA
:10426000ED80FE800F8118850E945C2D222E3987FB
:104270004A875B876C877D878E879F879F014B2F3F
:104280005A2F69897A89832D982D36534546544C87
:104290006F4F7F4F8F4F9F4FF901B42FA52F698B21
:1042A0007A8B382E892E492D50E060E070E044155D
:1042B00055056605770540F243EBA42E56EEB52E64
:1042C0006EE0C62ED12CE12CF12C00E010E0222D66
:1042D00039854A855B856C857D858E859F850E94A5
:1042E000932C06C023EB36EE4EE050E00E94532C98
:1042F000B901CA0162960FB6F894DEBF0FBECDBFFA
:10430000DF91CF911F910F91FF90EF90DF90CF90B1
:10431000BF90AF909F908F907F906F905F904F90E5
:104320003F902F900895C1E0D2E00E94E2170E94D2
:10433000E025843028F4C093BD070E94F12808C00E
:104340008AE090E00E94F824D093BD070E94E528FF
:1043500080912706853519F088E00E9449168091E2
:104360007E41853511F388E00E944916DECF2F92F9
:104370003F924F925F926F927F928F929F92AF92F5
:10438000BF92CF92DF92EF92FF920F931F93CF9342
:10439000DF9300D000D01F92CDB7DEB70E94142566
:1043A0000E94E1130E9433250E943B259A83898352
:1043B0008AEF0E94E425A0912406B0E023EB36EEBC
:1043C0004EE050E00E941C2C6B017C018091C407E0
:1043D0009091C507A091C607B091C707C80ED91E16
:1043E000EA1EFB1EC701B6010E94532CC61AD70A4B
:1043F000E80AF90A8091C0079091C107A091C2070D
:10440000B091C30773EB872E76EE972E7EE0A72E32
:10441000B12C12C02AECD21A2AE9E20A2BE3F20AE2
:10442000C701B601A50194010E94532CC61AD70AF0
:10443000E80AF90AD301C201412C512C32014394FC
:10444000480E591E6A1E7B1EC114EAECDE06EAE91C
:10445000EE06EBE3FE06F0F68093C0079093C107EB
:10446000A093C207B093C307C092C407D092C507F8
:10447000E092C607F092C707E091C907F091CA071A
:1044800085818823C1F081858430A9F087818230BD
:1044900009F405C0882341F08681811102C085E0BE
:1044A00001C083E0818704C083E081871782168280
:1044B00080850E94F51BE091C907F091CA07858DA0
:1044C000968D892B91F16085662379F18185843001
:1044D00061F1218D328D8091240690E028173907F3
:1044E00050F482E00E944316E091C907F091CA0798
:1044F000128E118E04C0281B390B328F218FE09150
:10450000C907F091CA071085218D328D232B69F4DC
:10451000612F83E00E944316E091C907F091CA071A
:1045200083E08187812F0E94F51B85E5682E87E057
:10453000782E96E5892E97E0992E24E5A22E27E085
:10454000B22E33E5C32E37E0D32E42E5E42E47E00A
:10455000F42E00E61AEE40E02AEF30E0212C312C58
:1045600021012394D3018C918F3F09F4BFC0F7013F
:1045700010828C91882309F43FC0D4018C9184303F
:10458000D9F11C966D917C911D978091240690E045
:104590006817790738F0681B790B1D967C936E932A
:1045A0001C9703C0F40115861486D4011E966D91E4
:1045B0007C911F976817790738F0681B790B1F9655
:1045C0007C936E931E970FC0F401628973898617DE
:1045D000970728F4681B790B7787668704C00E94C9
:1045E0003F2C97878687F40186859785892B21F450
:1045F0008289938997878687D4018C91833009F0CB
:1046000075C01C968D919C911D97892B09F063C0F4
:10461000F50180818823A1F0D6018C91882381F057
:10462000D201C1010090B90704C0880F991FAA1FC9
:10463000BB1F0A94D2F7F40180879187A287B387C2
:10464000D5011C92F6011082D7011C92F4018689D3
:10465000978981309105D1F484899589918B808BDC
:1046600082E0808386859785958784878289938970
:10467000892B11F435872487842F2C833D834B832A
:104680000E94531B2C813D814B8125C0D40164893C
:104690007589718B608BFC01319752968D919C913D
:1046A0005397E89FB001E99F700DF89F700D11249A
:1046B0001D967C936E931C971F967C936E931E970A
:1046C000892B21F41D963C932E931C9781E090E05A
:1046D000F401978B868BD4011C968D919C911D972C
:1046E000009721F08017910708F48C014F5FB1E229
:1046F0006B0E711CE1E28E0E911CF1E2AF0EB11C4B
:1047000081E2C80ED11C91E2E90EF11C433009F0A0
:1047100029CF0E94421BF82EA1E28A02F001112447
:10472000E35BF84F82858093CB07F093BB07E09360
:10473000BA07FF2091F0258D368D232B51F0218D66
:10474000328D2A3F310528F420173107F0F4890112
:104750001CC00B3F1105C8F013C004301105A8F0B0
:104760009801235031092A3F310538F4890122305C
:10477000310558F402E010E008C00D3F110519F0B2
:104780000AEF10E002C007EF10E08093BC07F0933F
:10479000CA07E093C907009324060E944726282FE2
:1047A00030E02F5F3F4F2017310740F00E9447262F
:1047B000082F10E00E5F1F4F00932406F110109297
:1047C000BD07802F0E94E4256CED75E089819A81F8
:1047D0000E944E250E947D290F900F900F900F9000
:1047E0000F90DF91CF911F910F91FF90EF90DF908D
:1047F000CF90BF90AF909F908F907F906F905F9081
:104800004F903F902F900C9488294091E107141607
:1048100094F054E0450290011124F901EE51F84F53
:104820006083F901EC51F84F918380834F5F40938F
:10483000E10781E008958FEF08950F931F93CF93C1
:10484000DF93062F4091E107552747FD509510E073
:10485000E82FF0E030C0E901CC0FDD1FCC0FDD1FE9
:10486000DE01AE51B84F8C91992787FD90958E1738
:104870009F0701F5F901EA51F84F808181110EC0BF
:1048800081E08083FE01EC51F84F0190F081E02D32
:1048900020E040E050E0602F80E00995CC51D84FF7
:1048A000E881F98120E040E050E0602F81E0099547
:1048B000812F07C01F5F212F30E0241735075CF2DE
:1048C0008FEFDF91CF911F910F910895E82FF0E0C6
:1048D0008091E107992787FD90958E179F077CF0BF
:1048E000EE0FFF1FEE0FFF1FEC51F84F0190F0810C
:1048F000E02D20E040E050E060E082E0099481E0BB
:104900000E949F158FEF0895242FE82FF0E08091EB
:10491000E107992787FD90958E179F076CF0EE0FA2
:10492000FF1FEE0FFF1FEC51F84F0190F081E02DBB
:10493000AB0160E086E0099481E00E949F158FEF53
:104940000895242FE82FF0E08091E107992787FD53
:1049500090958E179F076CF0EE0FFF1FEE0FFF1F55
:10496000EC51F84F0190F081E02DAB0160E085E063
:10497000099481E00E949F158FEF0895242FE82F5E
:10498000F0E08091E107992787FD90958E179F07AA
:104990006CF0EE0FFF1FEE0FFF1FEC51F84F019070
:1049A000F081E02D40E050E084E0099481E00E9435
:1049B0009F158FEF0895E82FF0E08091E107992788
:1049C00087FD90958E179F0774F0EE0FFF1FEE0F77
:1049D000FF1FEC51F84F0190F081E02D20E040E006
:1049E00050E083E0099481E00E949F158FEF0895C5
:1049F00000000000000000000000000000000000B7
:104A00000000000000000000019791F70895109247
:104A10002101089589E0809321018DE89CE3909322
:104A200029018093280108951092250110922401F4
:104A30000895CF93DF9300D0CDB7DEB780912401E6
:104A4000909125019A83898329813A81C9010F9028
:104A50000F90DF91CF91089510928100089581E029
:104A600080938100089583B5816083BD1092850095
:104A7000109284000895CF93DF9300D0CDB7DEB7B6
:104A800080918400909185009A83898329813A815D
:104A9000C9010F900F90DF91CF910895CF92DF92CF
:104AA000EF92FF92CF93DF93EC01CC0FDD1FC9375C
:104AB0008FEFD80710F0C0E0D0E06B01E12CF12CB3
:104AC000CC0EDD1EE11CF11C81E0C816D104E80605
:104AD000F10440F081E0E81AF1080E943B25C81774
:104AE000D907D8F30E943B258C159D05D8F3DF919B
:104AF000CF91FF90EF90DF90CF9008951092B1008A
:104B0000E0E7F0E080818D7F808380818E7F8083ED
:104B100008958093B2000895E0E7F0E0808183601B
:104B2000808383E08093B100089583B5826083BD64
:104B30001092B2001092F704109224060895CF93B9
:104B4000DF938EEF8093240690E29093B6008093DB
:104B5000B30083E087BB92E09093B0008093B100F4
:104B600093B5926093BD87BB84BD83B5826083BDDE
:104B70001092800081E08093810010928500109255
:104B8000840083B5826083BD83B5816083BD10924C
:104B90002001C4E2D1E01982188283B5826083BD0E
:104BA00083B5816083BD0E949525198218820E9479
:104BB0008C250E940A251092F704DF91CF91089569
:104BC0008091B3008F5F089581508093B300089562
:104BD000811102C0109271008FEF0895811106C0FB
:104BE000109295001092940081E008958FEF08953F
:104BF000811105C0209194003091950002C020E001
:104C000030E0C9010895811105C082E080937100F0
:104C100081E008958FEF0895811135C0CB01019790
:104C2000059710F4609323061092900088E080931B
:104C3000910050939900409398003093F50420938D
:104C4000F40480912306813021F4809191008160E9
:104C500011C0823021F48091910082600BC08330BA
:104C600021F480919100836005C0843031F48091FB
:104C7000910084608093910008C0853031F4809168
:104C800091008560F7CF8FEF089581E008958091BE
:104C9000B20008951F920F920FB60F92112460E098
:104CA0008AE00E944316FFCF0F920FB60F921F9219
:104CB0002F923F924F925F926F927F928F929F922C
:104CC000AF92BF92CF92DF92EF92FF920F931F931A
:104CD0002F933F934F935F936F937F938F939F9304
:104CE000AF93BF93CF93DF93EF93FF93A091C90747
:104CF000B091CA070DB60D920EB60D921F92A091FB
:104D00002106B09122061E90BEBFADBF08951F922E
:104D10000F920FB60F9211240BB60F922F933F9361
:104D20004F935F936F937F938F939F93AF93BF93B3
:104D3000EF93FF93E091F404F091F504309711F0B4
:104D4000099504C060E08AE00E944316FF91EF914C
:104D5000BF91AF919F918F917F916F915F914F9193
:104D60003F912F910F900BBE0F900FBE0F901F9091
:104D700018951F920F920FB60F9211240F900FBE2D
:104D80000F901F90189504B603FC02C080E001C08C
:104D900080E104B602FE06C094B79B7F94BF04B6C0
:104DA00000FE846004B601FE05C094B79D7F94BFE9
:104DB0008260089581110CC004B600FE04C094B74F
:104DC0009E7F94BF01C081E09091B000911181E07D
:104DD0000895811102C0E89A39C0813011F4E99A2E
:104DE0000895823011F4EA9A31C0833021F4809121
:104DF0006B00816029C0843021F480916B00826057
:104E000023C0853021F480916B0084601DC0863002
:104E100021F480916B00886017C0873021F4809165
:104E20006B00806111C0883021F480916B0080623A
:104E30000BC0893021F480916B00806405C08A30FA
:104E400039F480916B00806880936B0081E0089555
:104E50008FEF0895811102C0E89839C0813011F4B4
:104E6000E9980895823011F4E99831C0833021F433
:104E700080916B008E7F29C0843021F480916B007B
:104E80008D7F23C0853021F480916B008B7F1DC006
:104E9000863021F480916B00877F17C0873021F422
:104EA00080916B008F7E11C0883021F480916B005F
:104EB0008F7D0BC0893021F480916B008F7B05C002
:104EC0008A3039F480916B008F7780936B0081E09A
:104ED00008958FEF0895811127C05093EA074093FA
:104EE000E907611104C0809169008C7F3EC0613088
:104EF00049F4809169008D7F8093690080916900F9
:104F0000816033C0623049F480916900826080938F
:104F10006900809169008E7F28C0633009F027C046
:104F200080916900836021C0813049F55093E80782
:104F30004093E707611104C080916900837F15C029
:104F4000613049F480916900877F80936900809186
:104F5000690084600AC0623061F4809169008860F1
:104F600080936900809169008B7F8093690081E064
:104F700008956330E1F7809169008C60F6CF82304C
:104F800031F55093EC074093EB07611104C0809119
:104F900069008F7CEACF613049F4809169008F7D90
:104FA00080936900809169008061DFCF623049F4AD
:104FB00080916900806280936900809169008F7E92
:104FC000D4CF6330A1F6809169008063CECF835047
:104FD000883050F48091680081608093680050931D
:104FE000EE074093ED07C3CF8FEF08951F920F9206
:104FF0000FB60F9211240BB60F922F933F934F933E
:105000005F936F937F938F939F93AF93BF93EF9330
:10501000FF93E091ED07F091EE07309711F00995BD
:1050200004C060E08AE00E944316FF91EF91BF91B7
:10503000AF919F918F917F916F915F914F913F9130
:105040002F910F900BBE0F900FBE0F901F901895D1
:105050001F920F920FB60F9211240BB60F922F933F
:105060003F934F935F936F937F938F939F93AF93F0
:10507000BF93EF93FF93E091E907F091EA07309730
:1050800011F0099504C060E08AE00E944316FF9188
:10509000EF91BF91AF919F918F917F916F915F91B0
:1050A0004F913F912F910F900BBE0F900FBE0F901D
:1050B0001F9018951F920F920FB60F9211240BB6E6
:1050C0000F922F933F934F935F936F937F938F93A1
:1050D0009F93AF93BF93EF93FF93E091E707F09116
:1050E000E807309711F0099504C060E08AE00E945B
:1050F0004316FF91EF91BF91AF919F918F917F9157
:105100006F915F914F913F912F910F900BBE0F9038
:105110000FBE0F901F9018951F920F920FB60F920F
:1051200011240BB60F922F933F934F935F936F937E
:105130007F938F939F93AF93BF93EF93FF93E091F0
:10514000EB07F091EC07309711F0099504C060E08F
:105150008AE00E944316FF91EF91BF91AF919F911A
:105160008F917F916F915F914F913F912F910F9010
:105170000BBE0F900FBE0F901F9018950E94E11369
:10518000A89584B7877F84BFE0E6F0E080818861DE
:10519000808310820C94E3130E94E113A89584B7D6
:1051A000877F84BFE0E6F0E08081886180838DE0C6
:1051B00080830C94E31304B603FC02C081E00895DD
:1051C0008FEF0895A8950895089583B7817F86602D
:1051D00083BF83B7816083BF889583B78E7F83BF8A
:1051E000089583B7817F83BF83B7816083BF88952C
:1051F00083B78E7F83BF0895FC017683658308950E
:10520000EF92FF920F931F93CF93DF93EC018B01EB
:105210007A014032510518F481E10E944916A70134
:1052200041505109400F511F5A8349831C830B83FE
:10523000DF91CF911F910F91FF90EF90089525E599
:10524000FA012083FB0132979083FB013197808321
:10525000FB01349711821082FB0136971182108274
:10526000FB01389711821082FB013A97118210825C
:10527000FB013C9711821082FB013E971182108244
:10528000FB01709711821082FB01729711821082CC
:10529000FB01749711821082FB01769711821082B4
:1052A000FB01789711821082FB017A97118210829C
:1052B000FB017C9711821082FB017E971182108284
:1052C000FB01B09711821082FB01B297118210820C
:1052D000FB01B49711821082CF01089585E5809378
:1052E0007E41EEEFF1E4F0932206E09321068AE995
:1052F00095E190838093FF4108958AE995E1909329
:10530000FE418093FF4108950E949F250C94E31372
:10531000A091BA07B091BB07CD91CDBFDD91DEBFA3
:10532000FF91EF91DF91CF91BF91AF919F918F91BD
:105330007F916F915F914F913F912F911F910F91AD
:10534000FF90EF90DF90CF90BF90AF909F908F90A5
:105350007F906F905F904F903F902F901F900F9095
:105360000FBE0F9018950E94B50F80E190E00E944B
:105370001F1384E094E00E94462F8EE1809326065E
:105380008CE390E00E94652D80939F059093A0058B
:105390000E94E81320E030E0A90160E070E0CB015A
:1053A0000E94E41F0E94FB040E94B1030E94981413
:1053B00080E090E008957F928F929F92AF92BF928B
:1053C000CF92DF92EF92FF920F931F93CF93DF93D1
:1053D000CDB7DEB72C970FB6F894DEBF0FBECDBFAA
:1053E0007C016B018A01FC0117821682838181FD99
:1053F00003C013C1850105C088248394912C8C0EB1
:105400009D1EF701B380F601B3FC8591B3FE819137
:105410006F01882309F4FDC0853239F4B3FC25916E
:10542000B3FE21916F01253219F5B70190E00E947A
:10543000FD2E5801DFCF222309F4EBC0622F70E06C
:1054400080EF93E02C870E949E2E2C85892B49F4B7
:10545000233219F4F0E17F2A04C02C3679F420E8D5
:10546000722AF601B3FC2591B3FE21916F0101C0B0
:10547000712C77FEE0CF222309F4CBC0622F70E0BD
:1054800080E094E02C870E949E2E2C85892B41F091
:105490005801F4E0AF0EB11CB7018FE390E00FC0EC
:1054A000233629F0233781F0233519F50BC0580135
:1054B00022E0A20EB11CB701F801808191810E9407
:1054C000FD2E98CFF1E07F2A580122E0A20EB11CF8
:1054D000F8010081118104C0B70190E00E94FD2E07
:1054E000F80170FC859170FE81918F018111F4CFDC
:1054F00081CF243611F0293631F5580177FE09C0E5
:10550000F4E0AF0EB11CF80160817181828193815A
:105510000AC0F2E0AF0EB11CF801608171818827EA
:1055200077FD8095982FFFEE7F2297FF09C0909519
:105530008095709561957F4F8F4F9F4F20E4722A21
:105540002AE030E036C0203791F030F42835B1F051
:105550002F3609F05EC017C0253721F0283709F033
:1055600058C007C08FEE78222AE030E00EC0E0E19C
:105570007E2AF4E27F2A20E130E007C024E0722A8C
:1055800020E132E002C028E030E0580177FE09C097
:1055900084E0A80EB11CF801608171818281938141
:1055A00008C0F2E0AF0EB11CF8016081718180E0AB
:1055B00090E0A4010E94A62F182F181976FE05C0AE
:1055C000B7018DE290E00E94FD2E74FE16C0FE0130
:1055D000E10FF11D8081803381F0B70180E390E01D
:1055E0000E94FD2E72FE09C0272D2072822F90E0AE
:1055F000B701885A9F4F0E94FD2E1150F401E10F10
:10560000F11DB701808190E00E94FD2E1111F5CFB0
:10561000F1CEF7012681378102C02FEF3FEFC9019C
:105620002C960FB6F894DEBF0FBECDBFDF91CF91A1
:105630001F910F91FF90EF90DF90CF90BF90AF90B0
:105640009F908F907F90089570D088F09F5790F032
:10565000B92F9927B751A0F0D1F0660F771F881F97
:10566000991F1AF0BA95C9F712C0B13081F077D0FE
:10567000B1E0089574C0672F782F8827B85F39F09C
:10568000B93FCCF3869577956795B395D9F73EF4F6
:1056900090958095709561957F4F8F4F9F4F08959E
:1056A000E89409C097FB3EF49095809570956195BC
:1056B0007F4F8F4F9F4F9923A9F0F92F96E9BB2772
:1056C0009395F695879577956795B795F111F8CFEE
:1056D000FAF4BB0F11F460FF1BC06F5F7F4F8F4F59
:1056E0009F4F16C0882311F096E911C0772321F04F
:1056F0009EE8872F762F05C0662371F096E8862FE7
:1057000070E060E02AF09A95660F771F881FDAF73D
:10571000880F9695879597F9089557FD9058440FEF
:10572000551F59F05F3F71F04795880F97FB991F00
:1057300061F09F3F79F087950895121613061406BD
:10574000551FF2CF4695F1DF08C01616170618064A
:10575000991FF1CF86957105610508940895E89425
:10576000BB2766277727CB0197F9089511F40EF42C
:105770004DC03EC0DADFD0F39923D9F3CEF39F5763
:10578000550B87FF46D00024A0E640EA90018058E0
:105790005695979528F4805C660F771F881F20F038
:1057A00026173707480730F4621B730B840B202938
:1057B00031294A2BA69517940794202531254A278D
:1057C00058F7660F771F881F20F0261737074807FE
:1057D00030F4620B730B840B200D311D411DA0951D
:1057E00081F7B901842F9158880F96958795089570
:1057F0009F3F31F0915020F4879577956795B79545
:10580000880F911D9695879597F908959FEF80ECE5
:10581000089591505040660F771F881FD2F7089562
:10582000A29FB001B39FC001A39F01D0B29F700D92
:10583000811D1124911D08950E94102CA59F900D8B
:10584000B49F900DA49F800D911D11240895B7FF62
:105850000C941C2C0E941C2C821B930B0895DB01C2
:105860008F939F930E941C2CBF91AF91A29F800D9C
:10587000911DA39F900DB29F900D11240895AA1B16
:10588000BB1B51E107C0AA1FBB1FA617B70710F02B
:10589000A61BB70B881F991F5A95A9F7809590955D
:1058A000BC01CD010895A1E21A2EAA1BBB1BFD016C
:1058B0000DC0AA1FBB1FEE1FFF1FA217B307E407EF
:1058C000F50720F0A21BB30BE40BF50B661F771F47
:1058D000881F991F1A9469F7609570958095909527
:1058E0009B01AC01BD01CF010895052E97FB16F475
:1058F000009407D057FD0DD00E94532C07FC09D00F
:105900007EF490958095709561957F4F8F4F9F4F56
:10591000089550954095309521953F4F4F4F5F4FDB
:105920000895689401C0E8948F929F92CF93DF937B
:105930000E94F62CDF91CF919F908F900895DF9376
:10594000CF931F930F939A9DF02D219FF00D8B9D68
:10595000F00D8A9DE02DF10D039FF00D029FE00DEB
:10596000F11D4E9DE00DF11D5E9DF00D4F9DF00D62
:105970007F936F93BF92AF925F934F93D5010E9435
:10598000102C8B01AC01D7010E94102CEB01E80F09
:10599000F91FD60122D02F913F91D6010E94102CE1
:1059A000C60FD71FE81FF91FAF91BF9116D02F91D7
:1059B0003F910E94102CC60FD71FE81FF91FD60178
:1059C0000E94102CE60FF71F9801BE01CF01112491
:1059D0000F911F91CF91DF9108950E94102C460FD7
:1059E000571FC81FD91F08F4319608958824992499
:1059F000F401E401B0E49F93AA279A158B049C0458
:105A0000ED05FE05CF05D007A10798F4AD2FDC2FDB
:105A1000CF2FFE2FE92D982C892E982F872F762FA8
:105A2000652F542F432F322F2227B85031F7BF91C3
:105A300027C01B2EBF91BB27220F331F441F551FAA
:105A4000661F771F881F991F881C991CEE1FFF1F58
:105A5000CC1FDD1FAA1FBB1F8A149B04EC05FD058C
:105A6000CE05DF05A007B10748F08A189B08EC09AE
:105A7000FD09CE09DF09A00BB10B21601A94E1F6F4
:105A80002EF49401AF01BE01CD01000C0895EE0F7C
:105A9000FF1F0590F491E02D09940F930F7351F0BF
:105AA000220F331F441F551F661F771F881F991F22
:105AB0000A95B1F70F9108952A0D3B1D4C1D5D1DF0
:105AC0006E1D7F1D801F911F08950F931F93CF930D
:105AD000DF938230910510F482E090E0E091F107CD
