:100000000C94F4010C9470260C94A2260C94D42623
:100010000C9413020C9413020C9413020C9413020C
:100020000C9413020C943E260C9413020C941302AD
:100030000C9413020C949C240C9413020C949C2496
:100040000C9413020C9413020C9413020C941302DC
:100050000C9413020C9413020C9413020C941302CC
:100060000C9413020C9413020C9413020C941302BC
:100070000C9413020C9413020C9413020C941302AC
:100080000C94CF240C9413020C9413020C941302BE
:100090000C9413020C9413020C9413020C9413028C
:1000A0000C9413020C9413020C9413020C9413027C
:1000B0000C9413020C9413020C9413020C9413026C
:1000C0000C9413020C9413020C9413020C9413025C
:1000D0000C9413020C9413020C9413020C9413024C
:1000E0000C9413020C94A90C0C949A0C0C946A0CAA
:1000F0000C94690D0C945B0C0C944C0C0C943A0C05
:100100000C942B0C0C9413020C9413020C941302F9
:100110000C9413020C9413020C9413020C9413020B
:1001200018141E142114241427142A1430142D1406
:100130003314361439144214451448144B143F1424
:1001400015141B144E1451143C1412144661696C9E
:10015000656420746F206F70656E2073656E736FB9
:1001600072206472697665720D0A004661696C6579
:100170006420746F206C6F6164206D79204144436A
:10018000206472697665720D0A002A4E524B204532
:1001900052524F522800293A20005461736B20704C
:1001A0006572696F6420746F6F206C617267652E71
:1001B00020506572696F64206D75737420626520CC
:1001C0006C657373207468616E20363120736563CB
:1001D0006F6E64732E00537461636B2077617320BC
:1001E0006E6F7420646566696E6564206173206C4F
:1001F0006172676520656E6F756768210054617371
:100200006B20537461636B204F766572666C6F77F9
:1002100000496E76616C696420537461636B205091
:100220006F696E74657200526573657276652045FC
:1002300072726F7220696E205363686564756C65B5
:1002400072005461736B2052657365727665205637
:10025000696F6C61746564005363686564756C658F
:1002600072204D69737365642057616B657570000A
:100270004475706C696361746564205461736B20AC
:10028000494400556E6578706563746564205265F5
:1002900073746172740049646C65206F72204B65E1
:1002A000726E656C20537461636B204F7665726665
:1002B0006C6F77004578747261205461736B2073A2
:1002C0007461727465642C206973206E726B5F6355
:1002D00066672E68206F6B3F004C6F7720566F6CFF
:1002E0007461676500556E68616E646C6564204971
:1002F0006E7465727275707420566563746F7200E7
:1003000054696D6572204F766572666C6F77005325
:1003100057205761746368646F6720526573746116
:100320007274005761746368646F672052657374F8
:10033000617274004465766963652044726976650C
:1003400072204572726F72004B65726E656C20662A
:10035000756E6374696F6E206E6F7420696D706C5A
:10036000656D656E746564004661696C65642074D2
:100370006F20637265617465205369676E616C00FC
:100380004661696C656420746F2063726561746591
:100390002053656D6170686F72650042726F776E91
:1003A000204F7574204465746563740045787465E6
:1003B000726E616C20526573657400554E4B4F57D9
:1003C0004E000D0A535441434B2044554D500D0AE5
:1003D00000202B2D2E303132333435363738396802
:1003E000004546476566670011241FBECFEFD1E484
:1003F000DEBFCDBF13E0A0E0B2E0E0E3FCE500E04B
:100400000BBF02C007900D92A833B107D9F715E0D2
:10041000A8E3B3E001C01D92A537B107E1F70E9440
:10042000FB270C94162E0C9492242F923F924F92FD
:100430005F926F927F928F929F92AF92BF92CF9274
:10044000DF92EF92FF920F931F93CF93DF931F9250
:10045000CDB7DEB75C01812C912CE42EFF24E7FCA4
:10046000F094C62EDD24C7FCD09470E2272E72E0F3
:10047000372E0EE212E03CC0EE0FFF1FEA0DFB1D0F
:1004800060817181669FF001679FF00DF00D11246E
:100490008E0F9F1F5F5F03C0592D80E090E0E52F16
:1004A000F0E0E217F30744F3B7010E94702A80E0FE
:1004B00090E049830E948D290E94F7292B013C017D
:1004C0001F928F923F922F920E94C72BC301B201BD
:1004D0000E9461297F936F931F930F930E94C72BF4
:1004E00083944981940E0FB6F894DEBF0FBECDBF42
:1004F0009701290D311DC216D30674F680E090E0F5
:100500000F90DF91CF911F910F91FF90EF90DF90AF
:10051000CF90BF90AF909F908F907F906F905F90A3
:100520004F903F902F900895CF93DF93CDB7DEB7D4
:10053000AA970FB6F894DEBF0FBECDBFFE0131966D
:1005400088E2DF011D928A95E9F765E083E00E9469
:100550006522E82EBFEF8B1304C08CE491E00E946B
:10056000D70D03E412E04CE061E08E2D0E940623DB
:1005700080E69AEE0E94402342E0BE01675D7F4F15
:100580008E2D0E94E9228AA58F9389A58F931F93B0
:100590000F930E94C72BEF2DEE0FFF0B81E090E031
:1005A0008C0F9D1FE80FF91F29A53AA531832083E1
:1005B000F3940F900F900F900F9094E1F91207C0F1
:1005C0004AE064E1CE0101960E941502F12C0E94DE
:1005D000251CC9CF84E992E090934603809345039C
:1005E00040E850E067E673E080E493E00E9448272B
:1005F00081E080934803809347038093490380936D
:100600004A0310924B0310924C0310924D03109228
:100610004E0380E095E6ADECBDE180934F039093EF
:100620005003A0935103B0935203109253031092BE
:100630005403109255031092560380E091EEA5EFFB
:10064000B5E08093570390935803A0935903B09358
:100650005A0310925B0310925C0310925D03109298
:100660005E0310925F031092600310926103109278
:10067000620380E493E00C948D1A63E083E797E0D3
:100680000E944D228F3F21F48BE691E00C94D70D10
:10069000089580919604813011F48FEF089581E0E0
:1006A0008093960460FF15C0739A10929B0480910A
:1006B0007C00807E80937C0090917C0080917C0007
:1006C000807E892B80937C0088EE93E00E944023FB
:1006D00005C0862F867009F76770F9F281E00895EA
:1006E0007398109296040E94B007EAE7F0E08081C8
:1006F0008F77808381E00895613019F480919B04A5
:1007000008958FEF0895613059F52C3069F42093E6
:100710009B0480917C00807E80937C0080917C0093
:1007200090917C00836012C02D3020F081E00E9407
:10073000C81316C020939B0480917C00807E809318
:100740007C0080917C0090917C00822B907E892B94
:1007500080937C0088EC90E00E94402381E0089523
:100760008FEF08950F931F93CF93DF93CDB7DEB72D
:1007700066970FB6F894DEBF0FBECDBFAE014F5FD8
:100780005F4F66E170E08AEA90E00E94BA07FE01DE
:1007900032966CE674E0CE0148969F0121503109F3
:1007A000D9011C9100E02081A801422B9A01DB01B4
:1007B0002D933D93BD013296E817F90771F76696C0
:1007C0000FB6F894DEBF0FBECDBFDF91CF911F9162
:1007D0000F910895EAE7F0E083E0808380818068EC
:1007E000808310929B04ACE7B0E08C91807E8C9368
:1007F0009C918C91807E892B8C9380818F778083D4
:1008000008951DB86B9A739A0E94EA030E94A0078C
:100810008EEE0E949D070E94B2031092960481E022
:10082000089588EC90E00C94402380917A008064D5
:1008300080937A0080917A0084FFFCCF0E9411049B
:100840002091780030917900932F80E0AC01422B09
:100850009A01C90108954F925F926F927F928F9291
:100860009F92AF92BF92CF92DF92EF92FF921F932F
:10087000CF93DF9300D000D0CDB7DEB7182F809094
:10088000920490909304A0909404B090950480EA10
:10089000881A8FE0980AA108B10880928204909289
:1008A0008304A0928404B0928504A5019401C5013B
:1008B000B4010E94602A20E030E140E050E00E9454
:1008C000A62A29833A834B835C83C0906C04D09022
:1008D0006D04EE24D7FCE094FE2CF2E0CC0CDD1C81
:1008E000EE1CFF1CFA95D1F7A0917A04B0917B041D
:1008F0000E94582A20E038E040E050E00E94A62AFA
:1009000029013A01A0916E04B0916F04A5019401F0
:100910000E94582A20E038E040E050E00E94A62AD9
:10092000420E531E641E751EC40CD51CE61CF71C1B
:10093000012E04C0CC0CDD1CEE1CFF1C0A94D2F767
:10094000E2E0CE0ED11CE11CF11CA4E04A2E512C99
:10095000612C712CC701B601A30192010E94A62A45
:1009600069017A012093B4043093B5044093B6042E
:100970005093B704A0917004B0917104A501940143
:100980000E94582A20E030E240E050E00E94A62A6F
:1009900049015A01A0917804B091790429813A81E2
:1009A0004B815C810E94582A20E030E041E050E019
:1009B0000E94A62A820E931EA41EB51EF2E08F0E80
:1009C000911CA11CB11CC501B401A30192010E949C
:1009D000A62A20939C0430939D0440939E04509338
:1009E0009F04A0917204B091730430584F4F5F4F31
:1009F0000E944D2A20E030E840E050E00E94A62A04
:100A000049015A012093A0043093A1044093A20409
:100A10005093A3042091AC043091AD044091AE04F6
:100A20005091AF042C193D094E095F0960E573EC44
:100A300080E090E004C095958795779567951A9525
:100A4000D2F70E94602A6093A8047093A90480934F
:100A5000AA049093AB0497FD09C0660F771F881F07
:100A6000991FA50194010E94842A08C0A501940140
:100A70000E94842A220F331F441F551F2093B00465
:100A80003093B1044093B2045093B304C090B004C7
:100A9000D090B104E090B204F090B304C701B60165
:100AA00020E031E040E050E00E94A62ACA01B901EE
:100AB0000E94602A9B01AC01AEEDBBE00E944D2A72
:100AC000412C512C32016394A30192010E94A62A69
:100AD00049015A0120939704309398044093990454
:100AE00050939A04A3E4B3EEA70196010E945B2AF7
:100AF000A30192010E94A62A20938A0430938B04BA
:100B000040938C0450938D04C501B401620F731F90
:100B1000841F951F6153714F8F4F9F4F20E130E02D
:100B200040E050E00E94A62A2C0D3D1D4E1D5F1D89
:100B30002093B0043093B1044093B2045093B304B3
:100B4000B901CA010F900F900F900F90DF91CF91D4
:100B50001F91FF90EF90DF90CF90BF90AF909F904C
:100B60008F907F906F905F904F900895CF92DF921B
:100B7000EF92FF9280917604909177042091860401
:100B8000309187044091880450918904281B390BC7
:100B900041095109A0917404B09175040E944D2A35
:100BA00020E030E840E050E00E94A62A69017A0186
:100BB00020939704309398044093990450939A0497
:100BC00060917E0470917F04882777FD8095982F2F
:100BD000BBE0660F771F881F991FBA95D1F7209148
:100BE000800430918104442737FD4095542F2C0D0B
:100BF0003D1D4E1D5F1D0E94A62A20938A0430933E
:100C00008B0440938C0450938D04C20ED31EE41EBB
:100C1000F51EC0929204D0929304E0929404F09254
:100C20009504C701B601685F7F4F8F4F9F4F20E14A
:100C300030E040E050E00E94A62A20938E043093DA
:100C40008F044093900450939104B901CA01FF901E
:100C5000EF90DF90CF900895CF93DF9300D01F9255
:100C6000CDB7DEB78EE28B83AE014D5F5F4F61E0A3
:100C700070E084EF90E00E94D80884E991E10E943E
:100C80004023AE014F5F5F4F62E070E086EF90E07F
:100C90000E94BA07398120E08A81A901482BCA0144
:100CA000A0E0B0E08093860490938704A09388042A
:100CB000B09389040F900F900F90DF91CF9108951A
:100CC0000E942C060C94B6051F93CF93DF9300D09F
:100CD00000D0CDB7DEB7182F982F9295990F990FA6
:100CE000907C9C5C9C83AE014C5F5F4F61E070E048
:100CF00084EF90E00E94D80884E991E10E944023AB
:100D0000AE014F5F5F4F63E070E086EF90E00E94BE
:100D1000BA078A81498150E060E070E0BA01552746
:100D20004427582B8B81480F511D611D711D28E0F0
:100D300030E0211B310904C075956795579547959B
:100D40002A95D2F74093AC045093AD046093AE045F
:100D50007093AF040F900F900F900F90DF91CF9191
:100D60001F910895CF93C82F0E9464068C2FCF91B6
:100D70000C942B04AF92BF92DF92EF92FF920F93ED
:100D80001F93CF93DF931F92CDB7DEB75A018091A7
:100D90007A00806880937A00822F8150823018F028
:100DA000243009F094C080919B048730A0F42983FB
:100DB0000E9415042981223021F4F501808391835A
:100DC0002EC0213009F035C0969587959695879568
:100DD000F50180832EC08C3071F530E4D32EE12CE8
:100DE000F12C01E014E029830E9415042981801769
:100DF000910708F48C01E816F90608F47C018DE7E8
:100E000090E029830E944023DA942981D110EBCF0E
:100E1000E01AF10A223029F4F501E082F18281E042
:100E20004FC0213031F4F694E794F694E794F5013D
:100E3000E08280E045C08B3069F51092A4041092E6
:100E4000A5041092A6041092A7047A99FECF7A9B6B
:100E5000FECF8091A4049091A504A091A604B09126
:100E6000A7040196A11DB11D8093A4049093A5042D
:100E7000A093A604B093A7047A99EBCFF5018083E1
:100E80008091A50481838091A60482838091A70428
:100E90008383CFCF982F9950923058F62430B9F4ED
:100EA0008A3019F40E94600605C00E94600680E046
:100EB0000E94B206F501608371838283938383E08D
:100EC00090917A009F7790937A008F5F01C080E0C5
:100ED0000F90DF91CF911F910F91FF90EF90DF90D6
:100EE000BF90AF9008958230A9F028F4882349F08C
:100EF0008130D9F409C08430A9F078F08530A9F4A4
:100F000006C080E00C94010481E00C94490385E064
:100F10000C94BA0682E00C947003613061F4809105
:100F20009B04089584E00C94830360E08CE00E94AD
:100F30006C1480E008958FEF08958093B9040895AC
:100F400082E08093B8001092B900E4E6F0E080817E
:100F50008F778083ECEBF0E080818460808308955C
:100F6000E4E6F0E080818083ECEBF0E080818B7F31
:100F700080830895292F30E027703327220F909126
:100F8000B904292B35E6F4EAE4E8A22FA160315038
:100F900009F48DC0F093BC009091BC0097FFFCCF8A
:100FA0009091B900987F9093B804903129F09833CC
:100FB00089F3983009F07BC02093BB00E093BC001C
:100FC0009091BC0097FFFCCF9091B900987F9093CF
:100FD000B8049032E1F29833E9F2983109F061C037
:100FE0008093BB00E093BC009091BC0097FFFCCFC6
:100FF0009091B900987F9093B804903359F1983349
:1010000049F2983209F04DC0F093BC009091BC00B9
:1010100097FFFCCF9091B900987F9093B8049031DE
:1010200029F0983309F4B6CF9830D9F5A093BB00D6
:10103000E093BC009091BC0097FFFCCF9091B90069
:10104000987F9093B804903419F1983419F098333C
:1010500041F5A0CF20E030E026C06130710509F4F1
:1010600094E89093BC008091BC0087FFFCCF8091F6
:10107000B900887F8093B804803521F0883589F4E1
:1010800060E070E08091BB0081936150710902C003
:10109000FA0194EC9F01241B350B16161706ECF28F
:1010A00002C02FEF3FEF84E98093BC0002C02FEF16
:1010B0003FEFC9010895680F791F9C0127606217EF
:1010C000730718F0B9016F5F7F4F392F330F3E70F0
:1010D0002091B904322BE5E6A4EAF4E8E15009F4E2
:1010E00063C0A093BC002091BC0027FFFCCF2091DF
:1010F000B900287F2093B804203129F0283389F3E0
:10110000283009F051C03093BB00F093BC0020910F
:10111000BC0027FFFCCF2091B900287F2093B804A2
:101120002032E1F22833E9F22831C1F58093BB0087
:10113000F093BC002091BC0027FFFCCF2091B900A8
:10114000287F2093B804203329F0283351F2283225
:1011500029F503C020E030E023C0681B790B20E0B4
:1011600030E0E4E814C0DA018D91AD018093BB005A
:10117000E093BC008091BC0087FFFCCF8091B90058
:10118000887F8093B804883249F42F5F3F4FCB01AA
:10119000821B930B1816190634F302C02FEF3FEF92
:1011A00084E98093BC0002C02FEF3FEFC90108958E
:1011B000CF92DF92EF92FF920F931F93CF93DF9323
:1011C0006C018B017A01C0E0D0E0A701B801C60133
:1011D0000E945B088F3F2FEF920761F0C80ED91E67
:1011E000081B190BE80EF91EC80FD91F101611069F
:1011F00064F302C0CFEFDFEFCE01DF91CF911F91FB
:101200000F91FF90EF90DF90CF9008958091B804F8
:101210001F928F938CE592E09F938F930E94C72B30
:101220000F900F900F900F900895909141019F7132
:101230009F31D9F380934201089581E08093C004E7
:1012400008951092C0040895809141018F718F31EB
:10125000D9F3809141018F71E1F08F30D1F080910D
:1012600041018F71883031F480913901826080931F
:10127000390109C088E00E941509809141018F71F0
:101280008830D9F7F1CF809141018F7111F08F3003
:10129000D1F70895809141018F718F31D9F38091F9
:1012A00041018F7111F08F3051F4809139018D7FA0
:1012B00080933901809141018F718830D9F7089569
:1012C000E5E4F1E09081907F908390818F70892B8D
:1012D00080830895E7E5F1E080818D7F8083089524
:1012E000E7E5F1E08081826080830895EEE6F1E039
:1012F00080818F7E80830895EEE6F1E080818061B9
:101300008083089580936001909361019093CA0453
:101310008093C90408959093C4048093C304E8E4BF
:10132000F1E08081807E80838081682B60830895D6
:1013300090933B0380933A030895909339038093ED
:10134000380308951F93CF93DF9370E270934401A5
:1013500070EC7093450160626093480165EC6093A6
:10136000490167EA60934B0160E860934C01209368
:101370006001309361014093620150936301E6E4A0
:10138000F1E0C081A08160811081C295C695C770CF
:1013900070E4C79FE00111241295169513701C2B61
:1013A000A295A695A37070E1A79FD00111241A2BD6
:1013B000629566956370A4E06A9FB0011124162BB4
:1013C00010936D016081E08162956695637070E0B5
:1013D000660F771F6064E295E695E370E62BE09375
:1013E0006E0110926C016FEF60934E019093C404F4
:1013F0008093C3041092C5041092C6045093C8048D
:101400004093C7043093CA042093C9041092CB04BC
:1014100081E08093D5041092E4041092D4041092D9
:10142000C004DF91CF911F91089586E10C941509B6
:1014300086E10C94150988E00E9415091092E404D5
:1014400008953F924F925F926F927F928F929F92F8
:10145000AF92BF92CF92DF92EF92FF920F931F93C2
:10146000CF93DF93EC013B018091D504811102C041
:10147000CFEF1CC19E818091C5048F5F8093C5040E
:1014800080918101807E816090FB85F98F738064FB
:101490008093810188E8809382018091C004882331
:1014A00061F08FEF809383018AEA9AEA9093890131
:1014B000809388018FEF9FEF11C08091C5048093C6
:1014C00083013091610120916001932F80E0822B94
:1014D00090938901809388018881998190938701F5
:1014E000809386013091630120916201932F80E007
:1014F000822B90938501809384014A81842F9927C0
:1015000087FD90956B817C81592F8AE891E00E943C
:10151000472B8A81855F80938001309041018FE164
:101520003822832D81508230C0F381E13816A9F32F
:1015300082E1381691F38FE1381679F388E0381696
:1015400049F086E0381631F086E1381619F089E066
:1015500038128ECF86E10E9415098D81811107C056
:1015600089E00E9415098E81882391F00EC0809138
:1015700048018068809348018091410187FFFCCF3A
:101580008091410186FF74CFEBCF89E10E9415095C
:101590006114710499F18CEC94E00E94BE1C80915E
:1015A000CC049091CD04A091CE04B091CF0480934F
:1015B000D6049093D704A093D804B093D904D30150
:1015C00020E432E44FE050E00E944D2A0091D00424
:1015D0001091D1042091D2043091D304600F711F77
:1015E000821F931F6093DA047093DB048093DC0402
:1015F0009093DD0486ED94E00E94AF1D1092D40418
:1016000082E00E941509412C512C08C08FEF481A26
:10161000580A88EE48168DEF580621F08091D404C0
:101620008823A1F36114710421F48E8181112DC0EE
:1016300034C08CEC94E00E94BE1C8090CC0490904E
:10164000CD04A090CE04B090CF04C090D004D09030
:10165000D104E090D204F090D3040091D60410910C
:10166000D7042091D8043091D9044091DA045091E4
:10167000DB046091DC047091DD0485EE94E00E944F
:101680001A1D8F3F09F0BACFD0CF809142018295C9
:101690008695877011F0CFEF06C088EE48168DEF63
:1016A0005806C9F3C1E0832D0E9415098C2FDF91E4
:1016B000CF911F910F91FF90EF90DF90CF90BF904F
:1016C000AF909F908F907F906F905F904F903F90E2
:1016D000089560E070E00C94210ACF93DF9380912D
:1016E000D504882341F1C0914101CF718C2F8150E5
:1016F0008230C8F3C131B9F3C231A9F3CF3199F3C4
:10170000C83021F0C63011F0C631A9F486E10E943C
:1017100015098091480180688093480180914101BA
:1017200087FFFCCFD09141018C2F0E941509D6FB79
:10173000882780F901C08FEFDF91CF9108958091C4
:10174000D504882309F485C08091E404882309F432
:101750007EC080917B01E091C304F091C40490E0CD
:1017600002972481332727FD3095281739070CF479
:1017700070C0E091C304F091C40480918201808321
:10178000E091C304F091C404809187019091880195
:1017900092838183E091C304F091C40480917B0122
:1017A0008B508383A091C304B091C404E091C3041F
:1017B000F091C40413969C91848189173CF0E091C8
:1017C000C304F091C404838187FF0DC01092E40428
:1017D00080914C018F7780934C0180914C018068FF
:1017E00080934C0136C0A091C304B091C404E09131
:1017F000C304F091C40413964C91842F992787FD5C
:101800009095592F69E871E0858196810E94472B58
:10181000E091C304F091C4048091800185FB882786
:1018200080F98783E091C304F091C404809147015B
:1018300080871092E40480914C018F7780934C0153
:1018400080914C01806880934C0181E0089580E094
:1018500008958FEF08951F920F920FB60F921124E3
:101860008F9380E880934F018F910F900FBE0F9060
:101870001F9018951F920F920FB60F9211248F93FD
:1018800081E08093D40480E480934F018F910F9086
:101890000FBE0F901F9018951F920F920FB60F92C8
:1018A00011248F9380E280934F018F910F900FBE90
:1018B0000F901F9018951F920F920FB60F92112440
:1018C0008F9380E180934F018F910F900FBE0F9007
:1018D0001F9018951F920F920FB60F9211240BB6FE
:1018E0000F922F933F934F935F936F937F938F93B9
:1018F0009F93AF93BF93EF93FF9384E080934F0147
:10190000E0913A03F0913B03309709F00995FF917C
:10191000EF91BF91AF919F918F917F916F915F9167
:101920004F913F912F910F900BBE0F900FBE0F90D4
:101930001F9018951F920F920FB60F9211248F933C
:1019400082E080934F018F910F900FBE0F901F90F8
:1019500018951F920F920FB60F9211248F9381E06A
:1019600080934F018F910F900FBE0F901F9018958D
:10197000E9E4F1E09081907F908390818F70892BD2
:10198000808308958FEF08950895089508958FEF47
:1019900008958091BE049091BF04089580E0089559
:1019A000089581E0089581E0089581E00895089503
:1019B0000895089508950895089508950895E7E312
:1019C000F1E0808183608083989AA09A8DB1806EC7
:1019D0008DB98EB1806E8EB90895E7E3F1E0808114
:1019E00083608083989AA0988DB1806E8DB98EB1F6
:1019F000806E8EB90895CF92DF92EF92FF920F938F
:101A00001F93CF93DF93CDB7DEB727970FB6F89428
:101A1000DEBF0FBECDBF0E942312E091C304F09140
:101A2000C404C080D38005811681E0840E949F0B8E
:101A300018161CF083E792E006C0F801F080F11060
:101A400007C082E992E00E94E42B0E94251232C076
:101A5000F5E0FF1204C08AE090E00E94DE2BC8018E
:101A600001969F938F938E2D992787FD90959F9335
:101A7000EF921F92FF921F92CF9284EB92E09F937E
:101A80008F930E94C72B1D830C83FA94F801F08278
:101A9000DB821E821F828FEF9FEF9A8389830E94D1
:101AA0002512CE0101960E94690B0FB6F894DEBF95
:101AB0000FBECDBF27960FB6F894DEBF0FBECDBFC9
:101AC000DF91CF911F910F91FF90EF90DF90CF901A
:101AD00008951F920F920FB60F9211240BB60F921A
:101AE0002F933F934F935F936F937F938F939F9326
:101AF000AF93BF93EF93FF9380E001C08F5F90910E
:101B00007B018917D8F38091460187FF04C081E0EB
:101B10008093E40404C08DED92E00E94E42B88E001
:101B200080934F018091460187FF05C08091C004DA
:101B300081110E94FB0CFF91EF91BF91AF919F919A
:101B40008F917F916F915F914F913F912F910F9066
:101B50000BBE0F900FBE0F901F9018958091C00084
:101B600087FFFCCF8091C0008F778093C000809169
:101B7000C60008959091C00095FFFCCF9091C000E1
:101B80009F7D9093C0008093C60008958FEF0895C5
:101B9000813031F48091C80087FD07C080E008954E
:101BA0008111FCCF8091C000F7CF81E00895CF93E1
:101BB000DF93EC0107C060916D0570916E0590E0B8
:101BC0000E949B2BFE01219684918111F4CFDF911D
:101BD000CF91089586E084B985B988EF8AB980EFFE
:101BE0008BB982E08EB980E681B9169A08950C947B
:101BF000EA0D8F3F09F466C0982F9770923051F12B
:101C000030F4992359F0913009F05CC015C094303C
:101C1000E9F170F1953009F055C046C092B1869552
:101C20008695869521E030E0082E01C0220F0A94A7
:101C3000EAF7922B92B944C095B186958695869520
:101C400021E030E0082E01C0220F0A94EAF7922B1F
:101C500095B936C098B186958695869521E030E095
:101C6000082E01C0220F0A94EAF7922B98B928C0D7
:101C70009BB186958695869521E030E0082E01C0BF
:101C8000220F0A94EAF7922B9BB91AC09EB186954F
:101C90008695869521E030E0082E01C0220F0A9437
:101CA000EAF7922B9EB90CC091B3869586958695DE
:101CB00021E030E001C0220F8A95EAF7922B91BB18
:101CC00081E008958FEF08958F3F09F46DC0982F3C
:101CD0009770923069F130F4992361F0913009F0F6
:101CE00063C017C0943009F441C088F1953009F001
:101CF0005BC04BC092B186958695869521E030E019
:101D0000082E01C0220F0A94EAF72095292322B950
:101D100049C095B186958695869521E030E0082EDC
:101D200001C0220F0A94EAF72095292325B93AC069
:101D300098B186958695869521E030E0082E01C001
:101D4000220F0A94EAF72095292328B92BC09BB1CA
:101D500086958695869521E030E0082E01C0220FF9
:101D60000A94EAF7209529232BB91CC09EB18695C9
:101D70008695869521E030E0082E01C0220F0A9456
:101D8000EAF7209529232EB90DC091B38695869543
:101D9000869521E030E001C0220F8A95EAF7209570
:101DA000292321BB81E008958FEF08958F3F39F1FA
:101DB000982F9770923081F028F4992349F0913050
:101DC000F1F408C0943061F048F09530C1F40AC0D5
:101DD00020B109C023B107C026B105C029B103C095
:101DE0002CB101C02FB130E086958695869502C052
:101DF000359527958A95E2F7822F817008958FEFA8
:101E000008958F3F09F4E7C0982F9770923009F436
:101E100056C030F4992369F0913009F0DCC02CC031
:101E2000943009F492C008F46DC0953009F0D3C025
:101E3000AFC020B186958695869530E0082E02C009
:101E4000359527950A94E2F792B120FD0AC021E06A
:101E500030E0082E01C0220F0A94EAF7922B92B9C3
:101E600021C021E030E0082E01C0220F0A94EAF7D9
:101E70002095292322B916C023B18695869586958B
:101E800030E0082E02C0359527950A94E2F795B107
:101E900020FD0AC021E030E001C0220F8A95EAF758
:101EA000922B95B981E0089521E030E0082E01C021
:101EB000220F0A94EAF72095292325B9F3CF26B1FA
:101EC00086958695869530E0082E02C03595279533
:101ED0000A94E2F798B120FD0AC021E030E0082E14
:101EE00001C0220F0A94EAF7922B98B9DBCF21E0C8
:101EF00030E0082E01C0220F0A94EAF7209529232A
:101F000028B9D0CF29B186958695869530E0082EE0
:101F100002C0359527950A94E2F79BB120FD0AC0CF
:101F200021E030E0082E01C0220F0A94EAF7922B3C
:101F30009BB9B8CF21E030E0082E01C0220F0A94EF
:101F4000EAF7209529232BB9ADCF2CB1869586953C
:101F5000869530E0082E02C0359527950A94E2F761
:101F60009EB120FD0AC021E030E0082E01C0220F02
:101F70000A94EAF7922B9EB995CF21E030E0082E23
:101F800001C0220F0A94EAF7209529232EB98ACF9F
:101F90002FB186958695869530E0082E02C035953E
:101FA00027950A94E2F791B320FD0AC021E030E0C2
:101FB000082E01C0220F0A94EAF7922B91BB72CF30
:101FC00021E030E0082E01C0220F0A94EAF72095A4
:101FD000292321BB67CF8FEF08958F3F09F4E5C018
:101FE000982F977061117DC0923099F130F4992348
:101FF00061F0913009F0D9C01AC0943009F44DC095
:10200000D0F1953009F0D1C05AC091B1869586952E
:10201000869521E030E001C0220F8A95EAF7822FF1
:102020008095892381B982B1822B82B9BCC094B1D9
:1020300086958695869521E030E001C0220F8A952D
:10204000EAF7822F8095892384B985B1822B85B9DF
:10205000AAC097B186958695869521E030E001C0AB
:10206000220F8A95EAF7822F8095892387B988B154
:10207000822B88B998C09AB186958695869521E07D
:1020800030E001C0220F8A95EAF7822F80958923DC
:102090008AB98BB1822B8BB986C09DB18695869506
:1020A000869521E030E001C0220F8A95EAF7822F61
:1020B000809589238DB98EB1822B8EB974C090B36F
:1020C00086958695869521E030E001C0220F8A959D
:1020D000EAF7822F8095892380BB81B3822B81BB55
:1020E00062C0923051F130F4992359F0913009F0E7
:1020F0005CC015C09430E9F170F1953009F055C01D
:1021000046C091B186958695869521E030E0082EEF
:1021100001C0220F0A94EAF7922B91B944C094B1FE
:1021200086958695869521E030E0082E01C0220F25
:102130000A94EAF7922B94B936C097B186958695A2
:10214000869521E030E0082E01C0220F0A94EAF7BC
:10215000922B97B928C09AB186958695869521E0ED
:1021600030E0082E01C0220F0A94EAF7922B9AB9A8
:102170001AC09DB186958695869521E030E0082E9F
:1021800001C0220F0A94EAF7922B9DB90CC090B3BC
:1021900086958695869521E030E001C0220F8A95CC
:1021A000EAF7922B90BB81E008958FEF089581119B
:1021B00006C080B18695817091E0892708958FEFE0
:1021C0000895009711F483E20DC08130910511F458
:1021D0008BE208C08230910511F483E303C00397BA
:1021E00029F48BE30E94010F81E008958FEF089599
:1021F000009711F483E20DC08130910511F48BE258
:1022000008C08230910511F483E303C0039729F4D9
:102210008BE30E94F90D81E008958FEF08950097F8
:1022200011F483E20DC08130910511F48BE208C0F6
:102230008230910511F483E303C0039729F48BE303
:102240000E94640E81E008958FEF0895882319F0AD
:1022500085B78F7E02C085B7806185BF81E0089514
:102260009091C80095FFFCCF8093CE000895909385
:10227000C5008093C40086E08093C200E1ECF0E0EA
:1022800080818B7F8083A0ECB0E08C9182608C9306
:1022900080818861808308959093CD008093CC00E5
:1022A00086E08093CA00E9ECF0E080818B7F808338
:1022B000A8ECB0E08C9182608C93808188618083EF
:1022C00008950E9437116EEA7DE08AEB9DE00E943E
:1022D000502B90936E0580936D056EEA7DE08AEB3E
:1022E0009DE00E94502B90936C0580936B050895A0
:1022F0008091C80087FFFCCF8091C8008F778093C2
:10230000C8008091CE000895000000000000000089
:102310000197D1F708950C94A22C0E94AA2C08953D
:10232000EF92FF920F931F93CF93DF93EC0180E026
:1023300090E00E94A22CF82E8B8381E090E00E9416
:10234000A22CE82E8A8382E090E00E94A22C082F23
:10235000898383E090E00E94A22C182F888384E078
:1023600090E00E94A22C9E2D9F0D900F910F89133B
:1023700002C081E001C08FEFDF91CF911F910F91DB
:10238000FF90EF900895CF93DF93EC0185E090E00C
:102390000E94A22C888381E0DF91CF910895FC01F7
:1023A000608186E090E00E94AA2C81E00895CF939E
:1023B000DF93EC0186E090E00E94A22C888381E00C
:1023C000DF91CF9108950F931F93CF93DF93EC018B
:1023D00008E010E0C8010E94A22C89930F5F1F4FF4
:1023E00008311105B9F781E0DF91CF911F910F916D
:1023F00008950F931F93CF93DF93EC0108E010E053
:102400006991C8010E94AA2C0F5F1F4F0831110566
:10241000B9F781E0DF91CF911F910F910895CF938C
:10242000DF93EC0187E090E00E94A22C888381E09A
:10243000DF91CF910895FC01608187E090E00E94D8
:10244000AA2C81E00895F8940895789408950E9444
:102450002312FFCFCF93DF93CDB7DEB7A3970FB68D
:10246000F894DEBF0FBECDBF0E944A1680933A0596
:102470008F3F21F460E08EE00E946C140E940B25D7
:1024800080FF04C060E086E00E946C1410923D055D
:1024900010924B0510924A0510923C0510923B0594
:1024A00010924C05109249058FEF8093330580936D
:1024B00035058093340580933605809338058093E5
:1024C000370593E69093F9048093F70490931A05E7
:1024D0008093180522E535E030935105209350058F
:1024E0008DE495E0909354058093530547E555E0BE
:1024F0005093560540935505309359052093580540
:1025000010924F0510924E0510925B0510925A05DD
:102510001092400510923F059093EE048093ED04D5
:102520006BED7FE1CE0101960E94442740E850E028
:102530006CEE73E0CE0101960E94482785E58093FA
:10254000EC0319861C861D861E861F86188A198A2A
:102550001A8A1B8A1C8A1D8A1E8A1F8A188E198E47
:102560001A8E1B8E1C8E1D8E1E8E1F8E18A219A2F7
:102570001AA21BA281E0888792E09A878B87CE01FE
:1025800001960E948D1AA3960FB6F894DEBF0FBE77
:10259000CDBFDF91CF9108956091F7046F3F39F07F
:1025A00080911805681303C085E00E946C14609147
:1025B00018056F3F39F08091F704681303C085E078
:1025C0000E946C140E948A1991E28902F001112480
:1025D000E151FB4F828580934C05F0934B05E093CE
:1025E0004A05F0933C05E0933B0580933D050E942E
:1025F000CC270E94B6270E94D027FFCFAF92BF9270
:10260000CF92DF92EF92FF920F931F93CF93DF93BE
:102610001F92CDB7DEB75C016B017A01DC01199620
:102620008C911997823021F0809139058C9302C0EA
:10263000F501108280913905823020F060E087E05A
:102640000E946C14D50119968C91823029F08091EA
:1026500039058F5F8093390580913905811103C059
:1026600081E080933905F501308121E23203F001E8
:102670001124E151FB4FD182C082D50118968C9173
:10268000189782873C913203F0011124E151FB4FEE
:1026900083E081873C913203F0011124E151FB4F2B
:1026A00030870C9102038001112401511B4FF80166
:1026B0001582C5010B960E943D1ED8015C969C9325
:1026C0008E935B97F50103851485258536850E333A
:1026D00011052105310520F0608186E10E946C140E
:1026E000D5010C91112707FD1095C5014B960E944D
:1026F0003D1E41E2409FD001419FB00D1124A151E8
:10270000BB4F56969C938E935597F5010081040319
:102710008001112401511B4FD80155968D919C9138
:1027200056975B962D913C915C97820F931F58961C
:102730009C938E935797C501439649830E943D1EF3
:10274000F801968F858FD5012C9149812403F001E2
:102750001124E151FB4F858D968D928F818F81E001
:1027600090E090A3878FF382E28281E084870F90CC
:10277000DF91CF911F910F91FF90EF90DF90CF905D
:10278000BF90AF9008950C94FF1F85E690E00895E8
:10279000E0914A05F0914B0584870895E0914A0540
:1027A000F0914B05848508952091EB03222341F09D
:1027B000FB01208320913E03FC01208381E00895EA
:1027C00080E008958091EB03882309F483C00E9480
:1027D00023128AE891E00E94D70D80913E031F9258
:1027E0008F938BE292E09F938F930E94C72B86E991
:1027F00091E00E94D70D0F900F900F900F90809155
:10280000EB03883110F01092EB038091EB0390E022
:10281000FC013197E631F10508F046C0E057FF4F63
:102820000C94212B8AE991E041C086ED91E03EC0F5
:102830008DEF91E03BC081E192E038C087E292E009
:1028400035C082E492E032C088E592E02FC080E794
:1028500092E02CC083E892E029C086E992E026C08D
:1028600084EB92E023C089ED92E020C085EE92E0F7
:102870001DC080E093E01AC08FE093E017C083E2B0
:1028800093E014C084E393E011C088E493E00EC0A9
:1028900088E693E00BC080E893E008C08BE993E002
:1028A00005C08CEA93E002C08BEB93E00E94D70D49
:1028B00060916D0570916E058DE090E00E949B2BFC
:1028C00060916D0570916E058AE090E00E949B2BEF
:1028D0001092EB0380E008958093EB0360933E0336
:1028E0000C94E2138093EB03E0914A05F0914B05C1
:1028F000808580933E030C94E213CF93DF931F9265
:10290000CDB7DEB7198207C080ED97E00E94402363
:1029100089818F5F898389818436B0F30F90DF913D
:10292000CF91089581E090E00E940F110E947D14E4
:1029300081E090E00E94F8100C947D1481E090E01A
:102940000E940F110E947D140E947D140E947D142C
:1029500081E090E00E94F8100C947D14FF920F9398
:102960001F93CF93DF9300D01F92CDB7DEB71F9296
:102970008F938BE292E09F938F938E010F5F1F4F97
:102980001F930F930E94132C0F900F900F900F9096
:102990000F900F90F12C6FC0F801E80FF91F8081A4
:1029A0008433B9F168F48133E9F020F4803309F01D
:1029B0005BC015C0823309F1833309F055C022C0D2
:1029C0008733C1F130F4853369F1863309F04CC0A7
:1029D0002CC08833B1F1893309F046C03BC00E9456
:1029E0009E1402C00E9492140E949E140E949E1483
:1029F0000E949E140E949E1437C00E9492140E944E
:102A00009214F4CF0E9492140E9492140E94921485
:102A1000EFCF0E9492140E9492140E9492140E947E
:102A20009214E8CF0E94921402C00E949E140E9449
:102A3000921404C00E949E140E949E140E9492143C
:102A400006C00E949E140E949E140E949E140E9422
:102A5000921408C00E949E140E949E140E949E140C
:102A60000E949E140E9492140E947D140E947D1464
:102A70000E947D14F394F80101900020E9F731974A
:102A8000E01BF10B8F2D90E08E179F0708F484CF89
:102A90000F900F900F90DF91CF911F910F91FF90AA
:102AA00008955F926F927F928F929F92AF92BF92A2
:102AB000CF92DF92EF92FF920F931F93CF93DF930A
:102AC00082EC93E00E94D70DE0914A05F0914B050E
:102AD0002085822F992787FD90959F932F9386EFCE
:102AE00092E09F938F930E94C72BE0914A05F0914B
:102AF0004B05C281D381DF93CF938AE293E09F930A
:102B00008F930E94C72B88811F928F938FEF92E043
:102B10009F938F930E94C72BE0914A05F0914B053C
:102B200081818F9380818F938CE093E09F938F932B
:102B30000E94C72B80914B058F9380914A058F93FC
:102B400086E193E09F938F930E94C72B0FEE14E0D2
:102B5000EDB7FEB774960FB6F894FEBF0FBEEDBF8B
:102B6000C0E0D0E086E2882E83E0982E9FEFA92E69
:102B700092E0B92E2CE0C22E23E0D22E31E2532E69
:102B800046E1E42E43E0F42EF801628073807F92E8
:102B90006F92DF93CF939F928F920E94C72BF30186
:102BA00080811F928F93BF92AF920E94C72BF80132
:102BB00081818F9380818F93DF92CF920E94C72B68
:102BC0005C9EC0015D9E900D112481519B4F9F938F
:102BD0008F93FF92EF920E94C72B21960F5D1F4F9C
:102BE0008DB79EB742960FB6F8949EBF0FBE8DBFAD
:102BF000C230D10549F6DF91CF911F910F91FF901F
:102C0000EF90DF90CF90BF90AF909F908F907F908C
:102C10006F905F900895CF93DF93E0914A05F09114
:102C20004B05C281D3818881853539F00E945115C9
:102C300081E00E94721485E58883E0914A05F09155
:102C40004B05808191818115924438F00E94511585
:102C500082E1DF91CF910C947214DF91CF910895AE
:102C600021E28202F0011124E151FB4FA281B381E4
:102C70008C91853519F085E58C9308C08081918110
:102C80008115924428F082E10E9472148FEF08951A
:102C900081E008950F931F930091630310916403E3
:102CA000209165033091660380E090E0B901A801AE
:102CB000082E04C076956795579547950A94D2F7E4
:102CC00040FD19C041E050E060E070E0082E04C013
:102CD000440F551F661F771F0A94D2F7402B512BC4
:102CE000622B732B409363035093640360936503DB
:102CF0007093660305C0019680329105B9F68FEF97
:102D00001F910F910895E0914A05F0914B0565855B
:102D10007685878590890895CF92DF92EF92FF9212
:102D20000F931F93CF93DF931F92CDB7DEB7C12CC4
:102D3000D12C7601C394082E04C0CC0CDD1CEE1CF3
:102D4000FF1C0A94D2F74091630350916403609191
:102D50006503709166034C215D216E217F21452B17
:102D6000462B472B09F463C089830E942312E8EFA6
:102D7000F4E097018601009510952095309593E039
:102D80008981DF0111974C914F3F49F14481558171
:102D9000668177814C155D056E057F0541F41086CF
:102DA000118612861386DF0112971C92908344814C
:102DB00055816681778140235123622373234483A5
:102DC000558366837783408551856285738540236B
:102DD0005123622373234087518762877387B1969B
:102DE00045E0EA33F40769F64EEF5FEF6FEF7FEFF0
:102DF00004C0440F551F661F771F8A95D2F7809134
:102E0000630390916403A0916503B09166038423EA
:102E10009523A623B7238093630390936403A09321
:102E20006503B09366030E94251281E001C08FEF15
:102E30000F90DF91CF911F910F91FF90EF90DF9056
:102E4000CF9008950F931F9341E050E060E070E051
:102E500004C0440F551F661F771F8A95D2F7E09173
:102E60004A05F0914B0585859685A785B0898A012D
:102E70009B01082319232A233B23012B022B032B1D
:102E8000D1F0409550956095709584239523A623A5
:102E9000B72385879687A787B08B81899289A38975
:102EA000B48984239523A623B723818B928BA38B8C
:102EB000B48B81E001C08FEF1F910F910895409175
:102EC0006303509164036091650370916603082E5B
:102ED00004C076956795579547950A94D2F740FFB9
:102EE0001DC0E0914A05F0914B0541E050E060E0E3
:102EF00070E004C0440F551F661F771F8A95D2F7F4
:102F000085859685A785B089842B952BA62BB72B15
:102F100085879687A787B08B81E008958FEF089506
:102F2000CF92DF92EF92FF921F93CF93DF93C12C4A
:102F3000D12C7601C39404C0CC0CDD1CEE1CFF1C0C
:102F40008A95D2F78091630390916403A091650301
:102F5000B09166038C219D21AE21BF21892B8A2B44
:102F60008B2B11F481E040C00E942312E6EFF4E0C5
:102F7000C8EFD4E010E023E080818130A9F482859D
:102F80009385A485B5858C219D21AE21BF21892BF8
:102F90008A2B8B2B49F02883178616861082C286CF
:102FA000D386E486F58611E08081823091F48285B3
:102FB0009385A485B5858C159D05AE05BF0549F49F
:102FC0002883178616861082128613861486158625
:102FD00011E0B196A19685E0E833F80769F60E9402
:102FE0002512111105C082E00E94C8138FEF01C0A5
:102FF00081E0DF91CF911F91FF90EF90DF90CF9014
:1030000008950F931F93E0914A05F0914B050585B4
:103010001685278530890623172328233923012B7A
:10302000022B032B19F1618B728B838B948B21E024
:103030002783DC01CB0100903A0504C0B695A79523
:10304000979587950A94D2F780FF03C00E946B1B67
:1030500004C080E090E00E94921BE0914A05F0914C
:103060004B05018912892389348903C000E010E0EF
:103070009801B801C9011F910F91089590914905D8
:1030800091111CC0909133059F3F31F0909136050E
:103090009F3F21F421E003C020E001C022E030E0A6
:1030A000F901EE0FFF1FE20FF31FED5CFA4F828371
:1030B0008083618381E08093490502C0E0E0F0E015
:1030C000CF01089525E08333920729F08653954078
:1030D00021F481E0089580E008958FEF08950E9423
:1030E00062188F3F11F481E002C0823021F40E9407
:1030F000C8138FEF0895992787FD9095FC01EE0F77
:10310000FF1FE80FF91FED5CFA4F8FEF808382837A
:1031100081838091490581508093490581E008951C
:103120000F931F93CF93DF931F92CDB7DEB70E940B
:1031300062188F3F11F481E002C0823021F40E94B6
:10314000C8138FEF70C0282F332727FD30958901D2
:10315000000F111F020F131F0D5C1A4FF80122817F
:10316000908129170CF05EC089830E942312F80118
:1031700092819F5F9283E0914A05F0914B05148202
:103180009091F6048981923021F5482F552747FD0B
:103190005095652F752F0091000510910105209124
:1031A000020530910305041715072607370789F430
:1031B00093E09093F8041092050510920405109284
:1031C000F60410920005109201051092020510926B
:1031D000030590911705923019F5992787FD909571
:1031E000A92FB92F40912105509122056091230507
:1031F00070912405481759076A077B0789F483E013
:103200008093190510922605109225051092170536
:103210001092210510922205109223051092240588
:103220000E94251281E00F90DF91CF911F910F91A5
:1032300008950F931F93CF93DF931F92CDB7DEB7FF
:103240000E9462188F3F11F481E002C0823021F4A5
:103250000E94C8138FEF40C089830E942312898186
:10326000082F112707FD1095F801EE0FFF1FE00F43
:10327000F11FED5CFA4F9281911116C0E0914A0561
:10328000F0914B05978192609783992787FD9095E0
:10329000A92FB92F818B928BA38BB48B0E942512FF
:1032A00080E090E00E94921BF801EE0FFF1FE00FFC
:1032B000F11FED5CFA4F828181508283A0914A0513
:1032C000B0914B0581811B968C931B9781E01496DE
:1032D0008C930E94251281E00F90DF91CF911F9176
:1032E0000F9108950E9462188F3F11F481E002C08F
:1032F000823021F40E94C8138FEF0895992787FD2B
:103300009095FC01EE0FFF1FE80FF91FED5CFA4FDF
:1033100082810895E0913F05F091400580810895F4
:10332000E0913F05F091400503C00380F481E02D5A
:103330003097D9F70895CF92DF92EF92FF920F93D3
:103340001F93CF93DF93E091ED04F091EE0430975B
:1033500009F48AC040913F0550914005411551053F
:1033600009F446C0DA0191E2692F782F76039001C3
:10337000112421513B4F8901065F1F4F7901C4E0A1
:10338000EC0EF11C255F3F4F6C9170E0969FE001C1
:10339000979FD00D1124C151DB4FDC80DD2029F037
:1033A000DB84E801C880DC1428F1E701D880DD2047
:1033B00061F0969FE001979FD00D1124C151DB4F22
:1033C000DA84E901C880DC14A8F0969FE001979F99
:1033D000D00D1124C151DB4F7A85E8016881761741
:1033E00048F013960D90BC91A02D109769F602C07D
:1033F000A0E0B0E08083C381D481D093EE04C09379
:10340000ED04A417B507B1F4109749F0B483A38372
:10341000128211821296FC93EE93119706C01482C9
:10342000138212821182FA83E983F0934005E093BC
:103430003F051AC011968D919C911297AC17BD074C
:1034400059F092838183B483A3831196CD91DC914B
:103450001297FC83EB8304C01482138292838183CE
:103460001296FC93EE931197DF91CF911F910F91DC
:10347000FF90EF90DF90CF900895CF93DF93E0918E
:103480003F05F0914005309709F444C0992787FD26
:103490009095208130E02817390781F4A381B48109
:1034A000B0934005A0933F0512961C921E9211976F
:1034B00018C00380F481E02D309761F1208130E065
:1034C00028173907B1F7C181D281838194819C8308
:1034D0008B83A381B481109721F01296DC93CE9355
:1034E0001197A091ED04B091EE04109739F4F09388
:1034F000EE04E093ED04148213820AC0B483A38324
:103500001296FC93EE931197F093EE04E093ED0482
:1035100012821182DF91CF910895EF92FF920F9363
:103520001F93CF93DF93EC014B815C8169817A819A
:103530008D819E810E9467272F81222371F04B810C
:103540005C81E12CF12C00E010E020E030E0BC01D7
:10355000CE010E94FE121F820CC0E88121E2E2022D
:10356000F0011124E151FB4F2185233099F491831F
:103570008083E88181E2E802F0011124E151FB4FF0
:1035800085899689892B41F482E0818788810E9410
:103590009B1902C08FEF01C081E0DF91CF911F9195
:1035A0000F91FF90EF9008951F93CF93DF93CDB7C6
:1035B000DEB728970FB6F894DEBF0FBECDBF2983C4
:1035C0003A834B835C836D837E838F8398870E94CD
:1035D00023120E948F24182FCE0101960E943D1EB7
:1035E0008330910560F0E0914A05F0914B05810F21
:1035F000911D968B858B0E94251281E001C08FEF73
:1036000028960FB6F894DEBF0FBECDBFDF91CF91E5
:103610001F9108950E943927E0914A05F0914B05CA
:1036200085818111F7CF0895FF920F931F93CF9358
:10363000DF93CDB7DEB728970FB6F894DEBF0FBE85
:10364000CDBF29833A834B835C836D837E838F83D5
:1036500098870E940B160E942312E0914A05F09170
:103660004B0581E0858381E090E090A3878F0E94E5
:103670008F24F82ECE0101960E943D1EE0914A054E
:10368000F0914B050F2D10E0800F911F968B858BCD
:1036900087EF8F1578F00E9428240F5F1F4F282F87
:1036A00030E00217130734F48F2D8E5F8093EA0306
:1036B0000E942C240E9425120E940A1B81E0289659
:1036C0000FB6F894DEBF0FBECDBFDF91CF911F9133
:1036D0000F91FF900895CF930E942312E0914A0525
:1036E000F0914B0581E0858386830E948F24C82F4B
:1036F000883F88F40E9428242C2F30E02F5F3F4F12
:10370000482F50E02417350734F48C2F8E5F8093B8
:10371000EA030E942C240E9425120E940A1B81E0C9
:10372000CF910895CF93DF93EC010E942312E09193
:103730004A05F0914B0581E08583D68BC58B0E94AD
:103740008F24C82F883F88F40E9428242C2F30E033
:103750002F5F3F4F482F50E02417350734F48C2F4C
:103760008E5F8093EA030E942C240E9425120E94FF
:103770000A1B81E0DF91CF910895FF920F931F9371
:10378000CF93DF938C010E942312E0914A05F091C0
:103790004B0581E085830E948F24F82EE0914A0535
:1037A000F0914B05C82FD0E00C0F1D1F168B058B19
:1037B00087EF8F1570F00E9428242196282F30E083
:1037C000C217D30734F48F2D8E5F8093EA030E94D3
:1037D0002C240E9425120E940A1B81E0DF91CF91C8
:1037E0001F910F91FF900895CF93DF93EC010E94FA
:1037F0000B16209711F4C1E0D0E00E942312E09153
:103800004A05F0914B0581E08583D0A3C78F0E94C4
:103810008F24C82F883F88F40E9428242C2F30E062
:103820002F5F3F4F482F50E02417350734F48C2F7B
:103830008E5F8093EA030E942C240E9425120E942E
:103840000A1B81E0DF91CF910895CF930E940B1660
:103850000E942312E0914A05F0914B0581E090E02F
:1038600090A3878F81E085830E948F24C82F883F93
:1038700088F40E9428242C2F30E02F5F3F4F482FE0
:1038800050E02417350734F48C2F8E5F8093EA03C1
:103890000E942C240E9425120E940A1B81E0CF91D5
:1038A0000895E0914A05F0914B0580850E943D1AEC
:1038B000E0914A05F0914B0584E081870E94251C28
:1038C00081E008958F929F92AF92BF92CF92DF9244
:1038D000EF92FF920F931F93CF93DF93CDB7DEB795
:1038E00060970FB6F894DEBF0FBECDBF29873A8729
:1038F0004B875C876D877E878F87988BCE0101967B
:103900000E94BE1C89809A80AB80BC80CD80DE8006
:10391000EF80F88409851A852B853C854D855E8569
:103920006F857889CE0109960E941A1D8F3F61F03C
:1039300029853A854B855C856D857E858F8598893F
:103940000E94141B81E001C08FEF60960FB6F894BF
:10395000DEBF0FBECDBFDF91CF911F910F91FF90C2
:10396000EF90DF90CF90BF90AF909F908F90089591
:10397000E0914A05F0914B0580850895CF92DF9242
:10398000EF92FF92CF93DF93EC011C821D821E8287
:103990001F828091410590914205A0914305B0910D
:1039A000440588839983AA83BB83C0904505D09042
:1039B0004605E0904705F0904805CC82DD82EE8216
:1039C000FF820E948F24A82FB0E023EB36EE4EE05A
:1039D00050E00E944D2A6C0D7D1D8E1D9F1D6C8335
:1039E0007D838E839F8313C09A5CAA49BB438C83DB
:1039F0009D83AE83BF83488159816A817B814F5FFC
:103A00005F4F6F4F7F4F488359836A837B838C81DD
:103A10009D81AE81BF8181152AEC92072AE9A20718
:103A20002BE3B20708F7DF91CF91FF90EF90DF9083
:103A3000CF9008956F927F928F929F92AF92BF9294
:103A4000CF92DF92EF92FF920F931F93CF93DF936A
:103A5000CDB7DEB760970FB6F894DEBF0FBECDBF0F
:103A60003C0109831A832B833C834D835E836F83E0
:103A7000788789869A86AB86BC86CD86DE86EF8679
:103A8000F88AC980DA80EB80FC808D819E81AF81CD
:103A9000B88509851A852B853C854D855E856F85A2
:103AA0007889C016D106E206F30608F442C00C1568
:103AB0001D052E053F0599F484179507A607B7073E
:103AC000C0F1841B950BA60BB70BF3018483958380
:103AD000A683B783108211821282138228C08417B2
:103AE0009507A607B70790F4F1E0CF1AD108E108CF
:103AF000F108C01AD10AE20AF30AF301C082D182A6
:103B0000E282F3829653A546B44C09C0C01AD10A8A
:103B1000E20AF30AF301C082D182E282F382841BBB
:103B2000950BA60BB70B84839583A683B78381E09F
:103B300001C08FEF60960FB6F894DEBF0FBECDBF09
:103B4000DF91CF911F910F91FF90EF90DF90CF9079
:103B5000BF90AF909F908F907F906F900895FC01E1
:103B600013C05A5C6A497B434483558366837783D9
:103B700040815181628173814F5F5F4F6F4F7F4FF3
:103B80004083518362837383448155816681778149
:103B900041158AEC58078AE968078BE3780708F72C
:103BA00008958F929F92AF92BF92CF92DF92EF9241
:103BB000FF920F931F93CF93DF93CDB7DEB760973C
:103BC0000FB6F894DEBF0FBECDBF09831A832B83D7
:103BD0003C834D835E836F83788789869A86AB8624
:103BE000BC86CD86DE86EF86F88A49855A856B8548
:103BF0007C8509811A812B813C81400F511F621FF6
:103C0000731FFC0140835183628373834D855E85FE
:103C10006F8578890D811E812F813885400F511F56
:103C2000621F731F44835583668377830E94AF1D91
:103C300081E060960FB6F894DEBF0FBECDBFDF9176
:103C4000CF911F910F91FF90EF90DF90CF90BF9099
:103C5000AF909F908F9008956093410570934205B7
:103C60008093430590934405209345053093460582
:103C7000409347055093480508952F923F924F92E5
:103C80005F926F927F928F929F92AF92BF92CF92EC
:103C9000DF92EF92FF920F931F93CF93DF93CDB7F5
:103CA000DEB762970FB6F894DEBF0FBECDBFFC0142
:103CB00040805180628073806481758186819781A4
:103CC000411451046104710409F46CC0F2E44F160C
:103CD00051046104710408F06CC07B018C0120E088
:103CE00030E0A9016983FA820B831C832D833E8314
:103CF0004F835887E0E0F0E0B0E0A0E0198A1A8A2C
:103D0000312C812C912C01C093949F014B2F5A2F61
:103D100069897A89832D982DA980BA80CB80DC802F
:103D2000ED80FE800F8118850E94272B222E398777
:103D30004A875B876C877D878E879F879F014B2F84
:103D40005A2F69897A89832D982D36534546544CCC
:103D50006F4F7F4F8F4F9F4FF901B42FA52F698B66
:103D60007A8B382E892E492D50E060E070E04415A2
:103D700055056605770540F283EBA82E96EEB92E21
:103D80002EE0C22ED12CE12CF12C00E010E0222DEF
:103D900039854A855B856C857D858E859F850E94EA
:103DA000C42A09C023EB36EE4EE050E00E94842A7C
:103DB00002C020E030E0C90162960FB6F894DEBF81
:103DC0000FBECDBFDF91CF911F910F91FF90EF906C
:103DD000DF90CF90BF90AF909F908F907F906F902B
:103DE0005F904F903F902F900895CF92DF92EF9287
:103DF000FF92CF93DF93CDB7DEB728970FB6F89435
:103E0000DEBF0FBECDBF6B017C013AE0F694E794B4
:103E1000D794C7943A95D1F7C982DA82EB82FC82B3
:103E20009B01AC0133704427552763EB76EE8EE09F
:103E300090E00E94602A2C2D3A814B815C8128966B
:103E40000FB6F894DEBF0FBECDBFDF91CF91FF90CC
:103E5000EF90DF90CF9008952F923F924F925F9214
:103E60006F927F928F929F92AF92BF92CF92DF928A
:103E7000EF92FF920F931F93CF93DF93CDB7DEB7EF
:103E800062970FB6F894DEBF0FBECDBFFC01408035
:103E9000518062807380648175818681978141142D
:103EA00051046104710409F465C07B018C0120E0B8
:103EB00030E0A9016983FA820B831C832D833E8342
:103EC0004F835887E0E0F0E0B0E0A0E0198A1A8A5A
:103ED000312C812C912C01C093949F014B2F5A2F90
:103EE00069897A89832D982DA980BA80CB80DC805E
:103EF000ED80FE800F8118850E94272B222E3987A6
:103F00004A875B876C877D878E879F879F014B2FB2
:103F10005A2F69897A89832D982D36534546544CFA
:103F20006F4F7F4F8F4F9F4FF901B42FA52F698B94
:103F30007A8B382E892E492D50E060E070E04415D0
:103F400055056605770540F243EBA42E56EEB52ED7
:103F50006EE0C62ED12CE12CF12C00E010E0222DD9
:103F600039854A855B856C857D858E859F850E9418
:103F7000C42A06C023EB36EE4EE050E00E94842AAD
:103F8000B901CA0162960FB6F894DEBF0FBECDBF6D
:103F9000DF91CF911F910F91FF90EF90DF90CF9025
:103FA000BF90AF909F908F907F906F905F904F9059
:103FB0003F902F900895C1E0D2E00E940B160E941E
:103FC0002824843028F4C0933E050E94392708C075
:103FD0008AE090E00E944023D0933E050E942D2766
:103FE0008091EC03853519F088E00E94721480916D
:103FF0007E41853511F388E00E947214DECF2F9246
:104000003F924F925F926F927F928F929F92AF9268
:10401000BF92CF92DF92EF92FF920F931F93CF93B5
:10402000DF9300D000D01F92CDB7DEB70E945C2393
:104030000E9423120E947B230E9483239A838983F8
:104040008AEF0E942C24A091EA03B0E023EB36EE25
:104050004EE050E00E944D2A6B017C0180914505A5
:1040600090914605A0914705B0914805C80ED91E0C
:10407000EA1EFB1EC701B6010E94842AC61AD70A8F
:10408000E80AF90A8091410590914205A091430503
:10409000B091440573EB872E76EE972E7EE0A72E27
:1040A000B12C12C02AECD21A2AE9E20A2BE3F20A56
:1040B000C701B601A50194010E94842AC61AD70A35
:1040C000E80AF90AD301C201412C512C3201439470
:1040D000480E591E6A1E7B1EC114EAECDE06EAE990
:1040E000EE06EBE3FE06F0F6809341059093420561
:1040F000A0934305B0934405C0924505D092460570
:10410000E0924705F0924805E0914A05F0914B0591
:1041100085818823C1F081858430A9F08781823030
:1041200009F405C0882341F08681811102C085E031
:1041300001C083E0818704C083E0818717821682F3
:1041400080850E943D1AE0914A05F0914B05858DCE
:10415000968D892B91F16085662379F18185843074
:1041600061F1218D328D8091EA0390E028173907A3
:1041700050F482E00E946C14E0914A05F0914B05E6
:10418000128E118E04C0281B390B328F218FE091C3
:104190004A05F0914B051085218D328D232B69F452
:1041A000612F83E00E946C14E0914A05F0914B0569
:1041B00083E08187812F0E943D1A87EF682E84E07B
:1041C000782E98EF892E94E0992E26EFA22E24E0E7
:1041D000B22E35EFC32E34E0D32E44EFE42E44E06C
:1041E000F42E00E61AEE40E02AEF30E0212C312CCC
:1041F00021012394D3018C918F3F09F4BFC0F701B3
:1042000010828C91882309F43FC0D4018C918430B2
:10421000D9F11C966D917C911D978091EA0390E0F5
:104220006817790738F0681B790B1D967C936E939D
:104230001C9703C0F40115861486D4011E966D9157
:104240007C911F976817790738F0681B790B1F96C8
:104250007C936E931E970FC0F40162897389861751
:10426000970728F4681B790B7787668704C00E943C
:10427000702A97878687F40186859785892B21F494
:104280008289938997878687D4018C91833009F03E
:1042900075C01C968D919C911D97892B09F063C068
:1042A000F50180818823A1F0D6018C91882381F0CB
:1042B000D201C10100903A0504C0880F991FAA1FBE
:1042C000BB1F0A94D2F7F40180879187A287B38736
:1042D000D5011C92F6011082D7011C92F401868947
:1042E000978981309105D1F484899589918B808B50
:1042F00082E08083868597859587848782899389E4
:10430000892B11F435872487842F2C833D834B839D
:104310000E949B192C813D814B8125C0D401648969
:104320007589718B608BFC01319752968D919C91B0
:104330005397E89FB001E99F700DF89F700D11240D
:104340001D967C936E931C971F967C936E931E977D
:10435000892B21F41D963C932E931C9781E090E0CD
:10436000F401978B868BD4011C968D919C911D979F
:10437000009721F08017910708F48C014F5FB1E29C
:104380006B0E711CE1E28E0E911CF1E2AF0EB11CBE
:1043900081E2C80ED11C91E2E90EF11C423009F015
:1043A00029CF0E948A19F82EA1E28A02F001112475
:1043B000E151FB4F828580934C05F0933C05E093DF
:1043C0003B05FF2091F0258D368D232B51F0218D5B
:1043D000328D2A3F310528F420173107F0F4890186
:1043E0001CC00B3F1105C8F013C004301105A8F024
:1043F0009801235031092A3F310538F489012230D0
:10440000310558F402E010E008C00D3F110519F025
:104410000AEF10E002C007EF10E080933D05F09333
:104420004B05E0934A050093EA030E948F24282F4E
:1044300030E02F5F3F4F2017310740F00E948F245C
:10444000082F10E00E5F1F4F0093EA03F110109247
:104450003E05802F0E942C246CED75E089819A81A5
:104460000E9496230E94C5270F900F900F900F90E7
:104470000F90DF91CF911F910F91FF90EF90DF9000
:10448000CF90BF90AF909F908F907F906F905F90F4
:104490004F903F902F900C94D02740915D051416BB
:1044A00094F054E0450290011124F901E25AFA4FC8
:1044B0006083F901E05AFA4F918380834F5F409304
:1044C0005D0581E008958FEF08950F931F93CF93BB
:1044D000DF93062F40915D05552747FD509510E06D
:1044E000E82FF0E030C0E901CC0FDD1FCC0FDD1F5D
:1044F000DE01A25ABA4F8C91992787FD90958E17AD
:104500009F0701F5F901EE59FA4F808181110EC024
:1045100081E08083FE01E05AFA4F0190F081E02DA6
:1045200020E040E050E0602F80E00995C05ADA4F6B
:10453000E881F98120E040E050E0602F81E00995BA
:10454000812F07C01F5F212F30E0241735075CF251
:104550008FEFDF91CF911F910F910895E82FF0E039
:1045600080915D05992787FD90958E179F077CF0B8
:10457000EE0FFF1FEE0FFF1FE05AFA4F0190F08180
:10458000E02D20E040E050E060E082E0099481E02E
:104590000E94C8138FEF0895242FE82FF0E0809138
:1045A0005D05992787FD90958E179F076CF0EE0F9C
:1045B000FF1FEE0FFF1FE05AFA4F0190F081E02D30
:1045C000AB0160E086E0099481E00E94C8138FEFA0
:1045D0000895242FE82FF0E080915D05992787FD4D
:1045E00090958E179F076CF0EE0FFF1FEE0FFF1FC9
:1045F000E05AFA4F0190F081E02DAB0160E085E0D8
:10460000099481E00E94C8138FEF0895242FE82FAA
:10461000F0E080915D05992787FD90958E179F07A3
:104620006CF0EE0FFF1FEE0FFF1FE05AFA4F0190E4
:10463000F081E02D40E050E084E0099481E00E94A8
:10464000C8138FEF0895E82FF0E080915D0599275A
:1046500087FD90958E179F0774F0EE0FFF1FEE0FEA
:10466000FF1FE05AFA4F0190F081E02D20E040E07A
:1046700050E083E0099481E00E94C8138FEF089511
:10468000000000000000000000000000000000002A
:104690000000000000000000019791F708951092BB
:1046A0002101089589E0809321018DE89CE3909396
:1046B0002901809328010895109225011092240168
:1046C0000895CF93DF9300D0CDB7DEB7809124015A
:1046D000909125019A83898329813A81C9010F909C
:1046E0000F90DF91CF91089510928100089581E09D
:1046F00080938100089583B5816083BD1092850009
:10470000109284000895CF93DF9300D0CDB7DEB729
:1047100080918400909185009A83898329813A81D0
:10472000C9010F900F90DF91CF910895CF92DF9242
:10473000EF92FF92CF93DF93EC01CC0FDD1FC937CF
:104740008FEFD80710F0C0E0D0E06B01E12CF12C26
:10475000CC0EDD1EE11CF11C81E0C816D104E80678
:10476000F10440F081E0E81AF1080E948323C817A1
:10477000D907D8F30E9483238C159D05D8F3DF91C8
:10478000CF91FF90EF90DF90CF9008951092B100FD
:10479000E0E7F0E080818D7F808380818E7F808361
:1047A00008958093B2000895E0E7F0E0808183608F
:1047B000808383E08093B100089583B5826083BDD8
:1047C0001092B20010923F031092EA030895CF9323
:1047D000DF938EEF8093EA0390E29093B60080938C
:1047E000B30083E087BB92E09093B0008093B10068
:1047F00093B5926093BD87BB84BD83B5826083BD52
:104800001092800081E080938100109285001092C8
:10481000840083B5826083BD83B5816083BD1092BF
:104820002001C4E2D1E01982188283B5826083BD81
:1048300083B5816083BD0E94DD23198218820E94A6
:10484000D4230E94522310923F03DF91CF91089509
:104850008091B3008F5F089581508093B3000895D5
:10486000811102C0109271008FEF0895811106C06E
:10487000109295001092940081E008958FEF0895B2
:10488000811105C0209194003091950002C020E074
:1048900030E0C9010895811105C082E08093710064
:1048A00081E008958FEF0895811135C0CB01019704
:1048B000059710F46093E9031092900088E08093CC
:1048C0009100509399004093980030933D032093BA
:1048D0003C038091E903813021F480919100816053
:1048E00011C0823021F48091910082600BC083302E
:1048F00021F480919100836005C0843031F480916F
:10490000910084608093910008C0853031F48091DB
:1049100091008560F7CF8FEF089581E00895809131
:10492000B20008951F920F920FB60F92112460E00B
:104930008AE00E946C14FFCF0F920FB60F921F9265
:104940002F923F924F925F926F927F928F929F929F
:10495000AF92BF92CF92DF92EF92FF920F931F938D
:104960002F933F934F935F936F937F938F939F9377
:10497000AF93BF93CF93DF93EF93FF93A0914A053B
:10498000B0914B050DB60D920EB60D921F92A091EF
:10499000E703B091E8031E90BEBFADBF08951F921C
:1049A0000F920FB60F9211240BB60F922F933F93D5
:1049B0004F935F936F937F938F939F93AF93BF9327
:1049C000EF93FF93E0913C03F0913D03309711F09A
:1049D000099504C060E08AE00E946C14FF91EF9199
:1049E000BF91AF919F918F917F916F915F914F9107
:1049F0003F912F910F900BBE0F900FBE0F901F9005
:104A000018951F920F920FB60F9211240F900FBEA0
:104A10000F901F90189504B603FC02C080E001C0FF
:104A200080E104B602FE06C094B79B7F94BF04B633
:104A300000FE846004B601FE05C094B79D7F94BF5C
:104A40008260089581110CC004B600FE04C094B7C2
:104A50009E7F94BF01C081E09091B000911181E0F0
:104A60000895811102C0E89A39C0813011F4E99AA1
:104A70000895823011F4EA9A31C0833021F4809194
:104A80006B00816029C0843021F480916B008260CA
:104A900023C0853021F480916B0084601DC0863076
:104AA00021F480916B00886017C0873021F48091D9
:104AB0006B00806111C0883021F480916B008062AE
:104AC0000BC0893021F480916B00806405C08A306E
:104AD00039F480916B00806880936B0081E00895C9
:104AE0008FEF0895811102C0E89839C0813011F428
:104AF000E9980895823011F4E99831C0833021F4A7
:104B000080916B008E7F29C0843021F480916B00EE
:104B10008D7F23C0853021F480916B008B7F1DC079
:104B2000863021F480916B00877F17C0873021F495
:104B300080916B008F7E11C0883021F480916B00D2
:104B40008F7D0BC0893021F480916B008F7B05C075
:104B50008A3039F480916B008F7780936B0081E00D
:104B600008958FEF0895811127C0509366054093F3
:104B70006505611104C0809169008C7F3EC0613081
:104B800049F4809169008D7F80936900809169006C
:104B9000816033C0623049F4809169008260809303
:104BA0006900809169008E7F28C0633009F027C0BA
:104BB00080916900836021C0813049F5509364057C
:104BC00040936305611104C080916900837F15C023
:104BD000613049F480916900877F809369008091FA
:104BE000690084600AC0623061F480916900886065
:104BF00080936900809169008B7F8093690081E0D8
:104C000008956330E1F7809169008C60F6CF8230BF
:104C100031F55093680540936705611104C0809198
:104C200069008F7CEACF613049F4809169008F7D03
:104C300080936900809169008061DFCF623049F420
:104C400080916900806280936900809169008F7E05
:104C5000D4CF6330A1F6809169008063CECF8350BA
:104C6000883050F480916800816080936800509390
:104C70006A0540936905C3CF8FEF08951F920F9285
:104C80000FB60F9211240BB60F922F933F934F93B1
:104C90005F936F937F938F939F93AF93BF93EF93A4
:104CA000FF93E0916905F0916A05309711F009953D
:104CB00004C060E08AE00E946C14FF91EF91BF9104
:104CC000AF919F918F917F916F915F914F913F91A4
:104CD0002F910F900BBE0F900FBE0F901F90189545
:104CE0001F920F920FB60F9211240BB60F922F93B3
:104CF0003F934F935F936F937F938F939F93AF9364
:104D0000BF93EF93FF93E0916505F09166053097AF
:104D100011F0099504C060E08AE00E946C14FF91D4
:104D2000EF91BF91AF919F918F917F916F915F9123
:104D30004F913F912F910F900BBE0F900FBE0F9090
:104D40001F9018951F920F920FB60F9211240BB659
:104D50000F922F933F934F935F936F937F938F9314
:104D60009F93AF93BF93EF93FF93E0916305F0910F
:104D70006405309711F0099504C060E08AE00E9454
:104D80006C14FF91EF91BF91AF919F918F917F91A3
:104D90006F915F914F913F912F910F900BBE0F90AC
:104DA0000FBE0F901F9018951F920F920FB60F9283
:104DB00011240BB60F922F933F934F935F936F93F2
:104DC0007F938F939F93AF93BF93EF93FF93E09164
:104DD0006705F0916805309711F0099504C060E00F
:104DE0008AE00E946C14FF91EF91BF91AF919F9167
:104DF0008F917F916F915F914F913F912F910F9084
:104E00000BBE0F900FBE0F901F9018950E9423129B
:104E1000A89584B7877F84BFE0E6F0E08081886151
:104E2000808310820C9425120E942312A89584B7C7
:104E3000877F84BFE0E6F0E08081886180838DE039
:104E400080830C94251204B603FC02C081E008950F
:104E50008FEF0895A8950895089583B7817F8660A0
:104E600083BF83B7816083BF889583B78E7F83BFFD
:104E7000089583B7817F83BF83B7816083BF88959F
:104E800083B78E7F83BF0895FC0176836583089581
:104E9000EF92FF920F931F93CF93DF93EC018B015F
:104EA0007A014032510518F481E10E947214A70181
:104EB00041505109400F511F5A8349831C830B8372
:104EC000DF91CF911F910F91FF90EF90089525E50D
:104ED000FA012083FB0132979083FB013197808395
:104EE000FB01349711821082FB01369711821082E8
:104EF000FB01389711821082FB013A9711821082D0
:104F0000FB013C9711821082FB013E9711821082B7
:104F1000FB01709711821082FB017297118210823F
:104F2000FB01749711821082FB0176971182108227
:104F3000FB01789711821082FB017A97118210820F
:104F4000FB017C9711821082FB017E9711821082F7
:104F5000FB01B09711821082FB01B297118210827F
:104F6000FB01B49711821082CF01089585E58093EB
:104F70007E41EEEFF1E4F093E803E093E70383EC86
:104F800093E190838093FF41089583EC93E19093A4
:104F9000FE418093FF4108950E94E7230C9425125F
:104FA000A0913B05B0913C05CD91CDBFDD91DEBF19
:104FB000FF91EF91DF91CF91BF91AF919F918F9131
:104FC0007F916F915F914F913F912F911F910F9121
:104FD000FF90EF90DF90CF90BF90AF909F908F9019
:104FE0007F906F905F904F903F902F901F900F9009
:104FF0000FBE0F9018950E94F70D80E190E00E947F
:1050000061118FE492E00E94E42B0E942A1220E0BA
:1050100030E0A90160E070E0CB010E942C1E0E94EC
:105020003D030E94EA020E94CC1280E090E00895C5
:105030007F928F929F92AF92BF92CF92DF92EF9228
:10504000FF920F931F93CF93DF93CDB7DEB72C97CB
:105050000FB6F894DEBF0FBECDBF7C016B018A0195
:10506000FC0117821682838181FD03C013C1850173
:1050700005C088248394912C8C0E9D1EF701B3806B
:10508000F601B3FC8591B3FE81916F01882309F489
:10509000FDC0853239F4B3FC2591B3FE21916F0137
:1050A000253219F5B70190E00E949B2B5801DFCF04
:1050B000222309F4EBC0622F70E081ED93E02C878E
:1050C0000E943C2B2C85892B49F4233219F4F0E102
:1050D0007F2A04C02C3679F420E8722AF601B3FC4A
:1050E0002591B3FE21916F0101C0712C77FEE0CFB5
:1050F000222309F4CBC0622F70E081EE93E02C876D
:105100000E943C2B2C85892B41F05801F4E0AF0E16
:10511000B11CB7018FE390E00FC0233629F023378D
:1051200081F0233519F50BC0580122E0A20EB11C05
:10513000B701F801808191810E949B2B98CFF1E00B
:105140007F2A580122E0A20EB11CF80100811181D2
:1051500004C0B70190E00E949B2BF80170FC859180
:1051600070FE81918F018111F4CF81CF243611F02F
:10517000293631F5580177FE09C0F4E0AF0EB11CB5
:10518000F80160817181828193810AC0F2E0AF0EE3
:10519000B11CF80160817181882777FD8095982F77
:1051A000FFEE7F2297FF09C09095809570956195DD
:1051B0007F4F8F4F9F4F20E4722A2AE030E036C0A5
:1051C000203791F030F42835B1F02F3609F05EC069
:1051D00017C0253721F0283709F058C007C08FEED7
:1051E00078222AE030E00EC0E0E17E2AF4E27F2A55
:1051F00020E130E007C024E0722A20E132E002C062
:1052000028E030E0580177FE09C084E0A80EB11C08
:10521000F801608171818281938108C0F2E0AF0E54
:10522000B11CF8016081718180E090E0A4010E94CE
:10523000442C182F181976FE05C0B7018DE290E0B6
:105240000E949B2B74FE16C0FE01E10FF11D8081B0
:10525000803381F0B70180E390E00E949B2B72FEC7
:1052600009C0272D2072822F90E0B701885A9F4FE6
:105270000E949B2B1150F401E10FF11DB7018081B9
:1052800090E00E949B2B1111F5CFF1CEF701268102
:10529000378102C02FEF3FEFC9012C960FB6F8946B
:1052A000DEBF0FBECDBFDF91CF911F910F91FF9059
:1052B000EF90DF90CF90BF90AF909F908F907F90B6
:1052C000089570D088F09F5790F0B92F9927B75163
:1052D000A0F0D1F0660F771F881F991F1AF0BA95BA
:1052E000C9F712C0B13081F077D0B1E0089574C031
:1052F000672F782F8827B85F39F0B93FCCF38695B0
:1053000077956795B395D9F73EF49095809570950C
:1053100061957F4F8F4F9F4F0895E89409C097FB89
:105320003EF490958095709561957F4F8F4F9F4F7C
:105330009923A9F0F92F96E9BB279395F6958795C0
:1053400077956795B795F111F8CFFAF4BB0F11F483
:1053500060FF1BC06F5F7F4F8F4F9F4F16C088232A
:1053600011F096E911C0772321F09EE8872F762F60
:1053700005C0662371F096E8862F70E060E02AF0A1
:105380009A95660F771F881FDAF7880F969587958D
:1053900097F9089557FD9058440F551F59F05F3FF6
:1053A00071F04795880F97FB991F61F09F3F79F047
:1053B00087950895121613061406551FF2CF4695C9
:1053C000F1DF08C0161617061806991FF1CF86954B
:1053D0007105610508940895E894BB27662777272F
:1053E000CB0197F9089511F40EF44DC03EC0DADFF9
:1053F000D0F39923D9F3CEF39F57550B87FF46D0AF
:105400000024A0E640EA900180585695979528F42C
:10541000805C660F771F881F20F026173707480724
:1054200030F4621B730B840B202931294A2BA6957B
:1054300017940794202531254A2758F7660F771FC0
:10544000881F20F026173707480730F4620B730BCC
:10545000840B200D311D411DA09581F7B901842FCA
:105460009158880F9695879508959F3F31F09150F8
:1054700020F4879577956795B795880F911D969538
:10548000879597F908959FEF80EC089591505040CB
:10549000660F771F881FD2F708950E94302BA59FB3
:1054A000900DB49F900DA49F800D911D112408951F
:1054B000B7FF0C944D2A0E944D2A821B930B08952E
:1054C000DB018F939F930E944D2ABF91AF91A29FC2
:1054D000800D911DA39F900DB29F900D11240895F2
:1054E000AA1BBB1B51E107C0AA1FBB1FA617B7070A
:1054F00010F0A61BB70B881F991F5A95A9F7809526
:105500009095BC01CD010895A1E21A2EAA1BBB1BE8
:10551000FD010DC0AA1FBB1FEE1FFF1FA217B3077F
:10552000E407F50720F0A21BB30BE40BF50B661F95
:10553000771F881F991F1A9469F760957095809559
:1055400090959B01AC01BD01CF010895052E97FBFD
:1055500016F4009407D057FD0DD00E94842A07FC52
:1055600009D07EF490958095709561957F4F8F4F0F
:105570009F4F089550954095309521953F4F4F4F3F
:105580005F4F0895689401C0E8948F929F92CF93E3
:10559000DF930E94D02ADF91CF919F908F90089542
:1055A00088249924F401E401B0E49F93AA279A1572
:1055B0008B049C04ED05FE05CF05D007A10798F4E8
:1055C000AD2FDC2FCF2FFE2FE92D982C892E982F71
:1055D000872F762F652F542F432F322F2227B85035
:1055E00031F7BF9127C01B2EBF91BB27220F331F5E
:1055F000441F551F661F771F881F991F881C991C01
:10560000EE1FFF1FCC1FDD1FAA1FBB1F8A149B04A8
:10561000EC05FD05CE05DF05A007B10748F08A18A7
:105620009B08EC09FD09CE09DF09A00BB10B216035
:105630001A94E1F62EF49401AF01BE01CD01000CE5
:105640000895EE0FFF1F0590F491E02D09942A0DA7
:105650003B1D4C1D5D1D6E1D7F1D801F911F0895FC
:10566000A29FB001B39FC001A39F01D0B29F700D54
:10567000811D1124911D0895FC010590061621F04D
:105680000020D9F7C00108953197CF010895FB019B
:10569000DC0102C001900D9241505040D8F70895AE
:1056A0000F931F93CF93DF93EC018B01009731F49D
:1056B0006115710519F4E0E0F0E037C06EE070E0CC
:1056C00081E090E00E94B82CFC010097A1F380E8F3
:1056D00083830115110571F01387028781E88383A5
:1056E00080916B0590916C05892B21F4F0936C05EA
:1056F000E0936B052097C9F0D187C08783818260D2
:10570000838380916D0590916E05892B71F4F093E0
:105710006E05E0936D0580916F0590917005892B62
:1057200021F4F0937005E0936F05CF01DF91CF91E5
:105730001F910F9108950F931F93CF93DF938C01C7
:10574000EB018B8181FD03C00FEF1FEF1AC082FFB9
:105750000DC02E813F818C819D812817390764F40B
:10576000E881F9810193F983E88306C0E885F9852A
:10577000802F0995892B41F78E819F8101969F8308
:105780008E83C801DF91CF911F910F910895CF9320
:10579000DF9300D0CDB7DEB7FE01379661917191EE
:1057A000FA83E983AF0180916D0590916E050E94A7
:1057B00018280F900F90DF91CF91089560916D059B
:1057C00070916E050C949B2B0F931F93CF93DF93D7
:1057D0008C01E0916D05F0916E05838181FF1BC006
:1057E000C0E0D0E005C00995892B11F0CFEFDFEFC5
:1057F000F80181918F0160916D0570916E05DB015B
:105800001896ED91FC9119978111EDCF8AE00995D9
:10581000892B09F402C0CFEFDFEFCE01DF91CF91EA
:105820001F910F9108950F931F93CF93DF93CDB7DF
:10583000DEB760970FB6F894DEBF0FBECDBF0F89FD
:10584000188D86E08C831A8309838FEF9FE79E83F0
:105850008D83AE01455E5F4F588B4F87698D7A8D82
:10586000CE0101960E941828EF81F885E00FF11F04
:10587000108260960FB6F894DEBF0FBECDBFDF91E9
:10588000CF911F910F910895FA01AA27283051F165
:10589000203181F1E8946F936E7F6E5F7F4F8F4F61
:1058A0009F4FAF4FB1E03ED0B4E03CD0670F781FC0
:1058B000891F9A1FA11D680F791F8A1F911DA11DA5
:1058C0006A0F711D811D911DA11D20D009F46894DE
:1058D0003F912AE0269F11243019305D3193DEF686
:1058E000CF010895462F4770405D4193B3E00FD03C
:1058F000C9F7F6CF462F4F70405D4A3318F0495D27
:1059000031FD4052419302D0A9F7EACFB4E0A69509
:105910009795879577956795BA95C9F7009761052B
:10592000710508959B01AC010A2E06945795479581
:1059300037952795BA95C9F7620F731F841F951F76
:10594000A01D0895F999FECF92BD81BDF89A9927BF
:1059500080B50895262FF999FECF1FBA92BD81BD5B
:1059600020BD0FB6F894FA9AF99A0FBE01960895E1
:105970000F931F93CF93DF93689F8001699F100D52
:10598000789F100D1124C8010E94D62CC82FD92F42
:10599000209731F0A80160E070E08C2F0E940F2E5C
:1059A000CE01DF91CF911F910F9108950F931F9317
:1059B000CF93DF938230910510F482E090E0E09184
:1059C0007305F091740520E030E0C0E0D0E023C022
:1059D0004081518148175907A8F04817590761F4C9
:1059E00082819381209719F09B838A832EC09093A4
:1059F00074058093730529C02115310529F04217DC
:105A0000530710F0A90102C0BE01DF01028113811A
:105A1000EF019A01F8013097D9F62115310509F106
:105A2000281B390B2430310590F412968D919C91EE
:105A300013976115710521F0FB019383828304C0E4
:105A40009093740580937305FD01329644C0FD0167
:105A5000E20FF31F81939193225031092D933C93D0
:105A60003AC02091710530917205232B41F42091A9
:105A70000202309103023093720520937105209148
:105A80000002309101022115310541F42DB73EB7D6
:105A90004091040250910502241B350BE0917105E1
:105AA000F0917205E217F307A0F42E1B3F0B2817A5
:105AB000390778F0AC014E5F5F4F2417350748F087
:105AC0004E0F5F1F50937205409371058193919320
:105AD00002C0E0E0F0E0CF01DF91CF911F910F9184
