:100000000C94F4010C9412260C9444260C9476263D
:100010000C9413020C9413020C9413020C9413020C
:100020000C9413020C94E0250C9413020C9413020C
:100030000C9413020C943E240C9413020C943E2452
:100040000C9413020C9413020C9413020C941302DC
:100050000C9413020C9413020C9413020C941302CC
:100060000C9413020C9413020C9413020C941302BC
:100070000C9413020C9413020C9413020C941302AC
:100080000C9471240C9413020C9413020C9413021C
:100090000C9413020C9413020C9413020C9413028C
:1000A0000C9413020C9413020C9413020C9413027C
:1000B0000C9413020C9413020C9413020C9413026C
:1000C0000C9413020C9413020C9413020C9413025C
:1000D0000C9413020C9413020C9413020C9413024C
:1000E0000C9413020C944B0C0C943C0C0C940C0CC4
:1000F0000C940B0D0C94FD0B0C94EE0B0C94DC0B80
:100100000C94CD0B0C9413020C9413020C94130258
:100110000C9413020C9413020C9413020C9413020B
:10012000BA13C013C313C613C913CC13D213CF13FE
:10013000D513D813DB13E413E713EA13ED13E1131C
:10014000B713BD13F013F313DE13B4134661696CD8
:10015000656420746F206F70656E2073656E736FB9
:1001600072206472697665720D0A004661696C6579
:100170006420746F206C6F6164206D79204144436A
:10018000206472697665720D0A002A4E524B204532
:1001900052524F522800293A20005461736B20704C
:1001A0006572696F6420746F6F206C617267652E71
:1001B00020506572696F64206D75737420626520CC
:1001C0006C657373207468616E20363120736563CB
:1001D0006F6E64732E00537461636B2077617320BC
:1001E0006E6F7420646566696E6564206173206C4F
:1001F0006172676520656E6F756768210054617371
:100200006B20537461636B204F766572666C6F77F9
:1002100000496E76616C696420537461636B205091
:100220006F696E74657200526573657276652045FC
:1002300072726F7220696E205363686564756C65B5
:1002400072005461736B2052657365727665205637
:10025000696F6C61746564005363686564756C658F
:1002600072204D69737365642057616B657570000A
:100270004475706C696361746564205461736B20AC
:10028000494400556E6578706563746564205265F5
:1002900073746172740049646C65206F72204B65E1
:1002A000726E656C20537461636B204F7665726665
:1002B0006C6F77004578747261205461736B2073A2
:1002C0007461727465642C206973206E726B5F6355
:1002D00066672E68206F6B3F004C6F7720566F6CFF
:1002E0007461676500556E68616E646C6564204971
:1002F0006E7465727275707420566563746F7200E7
:1003000054696D6572204F766572666C6F77005325
:1003100057205761746368646F6720526573746116
:100320007274005761746368646F672052657374F8
:10033000617274004465766963652044726976650C
:1003400072204572726F72004B65726E656C20662A
:10035000756E6374696F6E206E6F7420696D706C5A
:10036000656D656E746564004661696C65642074D2
:100370006F20637265617465205369676E616C00FC
:100380004661696C656420746F2063726561746591
:100390002053656D6170686F72650042726F776E91
:1003A000204F7574204465746563740045787465E6
:1003B000726E616C20526573657400554E4B4F57D9
:1003C0004E000D0A535441434B2044554D500D0AE5
:1003D00000202B2D2E303132333435363738396802
:1003E000004546476566670011241FBECFEFD1E484
:1003F000DEBFCDBF13E0A0E0B2E0E4E7FBE500E044
:100400000BBF02C007900D92A032B107D9F715E0DB
:10041000A0E2B3E001C01D92AD35B107E1F70E9443
:100420009D270C94B82D0C943424A0E0772767FD09
:1004300070950FC0EE0FFF1FE80FF91F408151812B
:10044000449FF001459FF00DF00D11242E0F3F1F2A
:10045000AF5FEA2FF0E0E617F70764F3C9010E94E7
:10046000122A80E090E00E942F290E9499290E9480
:100470000329CB010895CF93DF93CDB7DEB76697FD
:100480000FB6F894DEBF0FBECDBFFE01319684E1FA
:10049000DF011D928A95E9F765E083E00E9407225B
:1004A000B82EBFEF8B1304C08CE491E00E94790D4D
:1004B0006E01E5E1CE0ED11C50E2E52E52E0F52EA4
:1004C0008E010F5F1F4F4CE061E08B2D0E94A82230
:1004D00080E69AEE0E94E22242E0B6018B2D0E9455
:1004E0008B220E94C71B2D893E89D8012D933D93F5
:1004F0008D01AC15BD0539F76AE0CE0101960E9469
:1005000015029F938F93FF92EF920E94692B0F9099
:100510000F900F900F90D4CF8BE392E090932E0327
:1005200080932D0340E850E06FE473E088E293E0AD
:100530000E94EA2681E08093300380932F0380930A
:1005400031038093320310923303109234031092DC
:1005500035031092360380E09DE2A1E3B1E0809381
:10056000370390933803A0933903B0933A03109262
:100570003B0310923C0310923D0310923E0380E037
:1005800091EEA5EFB5E080933F0390934003A093D5
:100590004103B0934203109243031092440310921C
:1005A000450310924603109247031092480310929D
:1005B000490310924A0388E293E00C942F1A63E0F7
:1005C00085E197E00E94EF218F3F21F48BE691E0D7
:1005D0000C94790D089580917E04813011F48FEF91
:1005E000089581E080937E0460FF15C0739A109295
:1005F000830480917C00807E80937C0090917C00BD
:1006000080917C00807E892B80937C0088EE93E033
:100610000E94E22205C0862F867009F76770F9F202
:1006200081E00895739810927E040E945207EAE7D1
:10063000F0E080818F77808381E00895613019F444
:100640008091830408958FEF0895613059F52C301F
:1006500069F42093830480917C00807E80937C00E9
:1006600080917C0090917C00836012C02D3020F03E
:1006700081E00E946A1316C02093830480917C005D
:10068000807E80937C0080917C0090917C00822B06
:10069000907E892B80937C0088EC90E00E94E2227F
:1006A00081E008958FEF08950F931F93CF93DF9309
:1006B000CDB7DEB766970FB6F894DEBF0FBECDBFDD
:1006C000AE014F5F5F4F66E170E08AEA90E00E9402
:1006D0005C07FE01329664E574E0CE0148969F0106
:1006E00021503109D9011C9100E02081A801422B41
:1006F0009A01DB012D933D93BD013296E817F9076E
:1007000071F766960FB6F894DEBF0FBECDBFDF91CE
:10071000CF911F910F910895EAE7F0E083E0808385
:1007200080818068808310928304ACE7B0E08C9174
:10073000807E8C939C918C91807E892B8C93808180
:100740008F77808308951DB86B9A739A0E948C03EB
:100750000E9442078EEE0E943F070E9454031092AF
:100760007E0481E0089588EC90E00C94E222809170
:100770007A00806480937A0080917A0084FFFCCFB5
:100780000E94B3032091780030917900932F80E08C
:10079000AC01422B9A01C90108954F925F926F926A
:1007A0007F928F929F92AF92BF92CF92DF92EF9201
:1007B000FF921F93CF93DF9300D000D0CDB7DEB769
:1007C000182F80907A0490907B04A0907C04B090C5
:1007D0007D0480EA881A8FE0980AA108B108809207
:1007E0006A0490926B04A0926C04B0926D04A5010F
:1007F0009401C501B4010E94022A20E030E140E0EA
:1008000050E00E94482A29833A834B835C83C0903E
:100810005404D0905504EE24D7FCE094FE2CF2E072
:10082000CC0CDD1CEE1CFF1CFA95D1F7A0916204E4
:10083000B09163040E94FA2920E038E040E050E0E3
:100840000E94482A29013A01A0915604B091570408
:10085000A50194010E94FA2920E038E040E050E030
:100860000E94482A420E531E641E751EC40CD51CDD
:10087000E61CF71C012E04C0CC0CDD1CEE1CFF1C7A
:100880000A94D2F7E2E0CE0ED11CE11CF11CA4E0E8
:100890004A2E512C612C712CC701B601A301920183
:1008A0000E94482A69017A0120939C0430939D0498
:1008B00040939E0450939F04A0915804B091590412
:1008C000A50194010E94FA2920E030E240E050E0C6
:1008D0000E94482A49015A01A0916004B091610424
:1008E00029813A814B815C810E94FA2920E030E025
:1008F00041E050E00E94482A820E931EA41EB51EBD
:10090000F2E08F0E911CA11CB11CC501B401A30122
:1009100092010E94482A20938404309385044093D6
:10092000860450938704A0915A04B0915B04305818
:100930004F4F5F4F0E94EF2920E030E840E050E049
:100940000E94482A49015A0120938804309389045F
:1009500040938A0450938B04209194043091950421
:1009600040919604509197042C193D094E095F0956
:1009700060E573EC80E090E004C0959587957795ED
:1009800067951A95D2F70E94022A6093900470939B
:100990009104809392049093930497FD09C0660F8D
:1009A000771F881F991FA50194010E94262A08C05D
:1009B000A50194010E94262A220F331F441F551FB0
:1009C000209398043093990440939A0450939B0485
:1009D000C0909804D0909904E0909A04F0909B0401
:1009E000C701B60120E031E040E050E00E94482A13
:1009F000CA01B9010E94022A9B01AC01AEEDBBE025
:100A00000E94EF29412C512C32016394A3019201E1
:100A10000E94482A49015A0120937F0430938004A0
:100A20004093810450938204A3E4B3EEA70196019E
:100A30000E94FD29A30192010E94482A209372047A
:100A4000309373044093740450937504C501B4014A
:100A5000620F731F841F951F6153714F8F4F9F4FFC
:100A600020E130E040E050E00E94482A2C0D3D1D7E
:100A70004E1D5F1D209398043093990440939A046F
:100A800050939B04B901CA010F900F900F900F90E3
:100A9000DF91CF911F91FF90EF90DF90CF90BF90AB
:100AA000AF909F908F907F906F905F904F90089540
:100AB000CF92DF92EF92FF9280915E0490915F045B
:100AC00020916E0430916F04409170045091710434
:100AD000281B390B41095109A0915C04B0915D04B8
:100AE0000E94EF2920E030E840E050E00E94482AD0
:100AF00069017A0120937F0430938004409381043C
:100B0000509382046091660470916704882777FD92
:100B10008095982FBBE0660F771F881F991FBA95A5
:100B2000D1F72091680430916904442737FD40953E
:100B3000542F2C0D3D1D4E1D5F1D0E94482A2093F1
:100B40007204309373044093740450937504C20E7E
:100B5000D31EE41EF51EC0927A04D0927B04E0926C
:100B60007C04F0927D04C701B601685F7F4F8F4F10
:100B70009F4F20E130E040E050E00E94482A20935F
:100B80007604309377044093780450937904B90144
:100B9000CA01FF90EF90DF90CF900895CF93DF933D
:100BA00000D01F92CDB7DEB78EE28B83AE014D5FD2
:100BB0005F4F61E070E084EF90E00E947A0884E982
:100BC00091E10E94E222AE014F5F5F4F62E070E070
:100BD00086EF90E00E945C07398120E08A81A901BC
:100BE000482BCA01A0E0B0E080936E0490936F049C
:100BF000A0937004B09371040F900F900F90DF9149
:100C0000CF9108950E94CE050C9458051F93CF9361
:100C1000DF9300D000D0CDB7DEB7182F982F929574
:100C2000990F990F907C9C5C9C83AE014C5F5F4F49
:100C300061E070E084EF90E00E947A0884E991E13D
:100C40000E94E222AE014F5F5F4F63E070E086EFEB
:100C500090E00E945C078A81498150E060E070E08A
:100C6000BA0155274427582B8B81480F511D611D10
:100C7000711D28E030E0211B310904C0759567958E
:100C8000579547952A95D2F740939404509395042D
:100C900060939604709397040F900F900F900F90AD
:100CA000DF91CF911F910895CF93C82F0E94060620
:100CB0008C2FCF910C94CD03AF92BF92DF92EF9225
:100CC000FF920F931F93CF93DF931F92CDB7DEB7A1
:100CD0005A0180917A00806880937A00822F815037
:100CE000823018F0243009F094C08091830487305A
:100CF000A0F429830E94B7032981223021F4F50151
:100D0000808391832EC0213009F035C09695879558
:100D100096958795F50180832EC08C3071F530E46F
:100D2000D32EE12CF12C01E014E029830E94B703BB
:100D300029818017910708F48C01E816F90608F458
:100D40007C018DE790E029830E94E222DA942981D8
:100D5000D110EBCFE01AF10A223029F4F501E0823C
:100D6000F18281E04FC0213031F4F694E794F6949B
:100D7000E794F501E08280E045C08B3069F5109280
:100D80008C0410928D0410928E0410928F047A9924
:100D9000FECF7A9BFECF80918C0490918D04A09120
:100DA0008E04B0918F040196A11DB11D80938C0417
:100DB00090938D04A0938E04B0938F047A99EBCF17
:100DC000F501808380918D04818380918E048283DC
:100DD00080918F048383CFCF982F9950923058F60B
:100DE0002430B9F48A3019F40E94020605C00E942A
:100DF000020680E00E945406F501608371838283BD
:100E0000938383E090917A009F7790937A008F5F2D
:100E100001C080E00F90DF91CF911F910F91FF9063
:100E2000EF90DF90BF90AF9008958230A9F028F442
:100E3000882349F08130D9F409C08430A9F078F0D2
:100E40008530A9F406C080E00C94A30381E00C94E3
:100E5000EB0285E00C945C0682E00C941203613096
:100E600061F480918304089584E00C94250360E08C
:100E70008CE00E940E1480E008958FEF0895809317
:100E8000A104089582E08093B8001092B900E4E6CE
:100E9000F0E080818F778083ECEBF0E080818460EC
:100EA00080830895E4E6F0E080818083ECEBF0E05D
:100EB00080818B7F80830895292F30E0277033272E
:100EC000220F9091A104292B35E6F4EAE4E8A22F41
:100ED000A160315009F48DC0F093BC009091BC002A
:100EE00097FFFCCF9091B900987F9093A004903128
:100EF00029F0983389F3983009F07BC02093BB0028
:100F0000E093BC009091BC0097FFFCCF9091B9009A
:100F1000987F9093A0049032E1F29833E9F29831EF
:100F200009F061C08093BB00E093BC009091BC00CD
:100F300097FFFCCF9091B900987F9093A0049033D5
:100F400059F1983349F2983209F04DC0F093BC0042
:100F50009091BC0097FFFCCF9091B900987F90933F
:100F6000A004903129F0983309F4B6CF9830D9F520
:100F7000A093BB00E093BC009091BC0097FFFCCF16
:100F80009091B900987F9093A004903419F198340F
:100F900019F0983341F5A0CF20E030E026C0613051
:100FA000710509F494E89093BC008091BC0087FF20
:100FB000FCCF8091B900887F8093A004803521F018
:100FC000883589F460E070E08091BB0081936150C6
:100FD000710902C0FA0194EC9F01241B350B16160F
:100FE0001706ECF202C02FEF3FEF84E98093BC00BC
:100FF00002C02FEF3FEFC9010895680F791F9C01D0
:1010000027606217730718F0B9016F5F7F4F392FA0
:10101000330F3E702091A104322BE5E6A4EAF4E8F8
:10102000E15009F463C0A093BC002091BC0027FFED
:10103000FCCF2091B900287F2093A004203129F013
:10104000283389F3283009F051C03093BB00F09366
:10105000BC002091BC0027FFFCCF2091B900287F65
:101060002093A0042032E1F22833E9F22831C1F5BF
:101070008093BB00F093BC002091BC0027FFFCCF05
:101080002091B900287F2093A004203329F0283331
:1010900051F2283229F503C020E030E023C0681B5C
:1010A000790B20E030E0E4E814C0DA018D91AD0165
:1010B0008093BB00E093BC008091BC0087FFFCCF15
:1010C0008091B900887F8093A004883249F42F5F13
:1010D0003F4FCB01821B930B1816190634F302C045
:1010E0002FEF3FEF84E98093BC0002C02FEF3FEF6A
:1010F000C9010895CF92DF92EF92FF920F931F9351
:10110000CF93DF936C018B017A01C0E0D0E0A7019F
:10111000B801C6010E94FD078F3F2FEF920761F0D3
:10112000C80ED91E081B190BE80EF91EC80FD91FCF
:101130001016110664F302C0CFEFDFEFCE01DF918E
:10114000CF911F910F91FF90EF90DF90CF90089576
:101150008091A0041F928F9381E492E09F938F93DC
:101160000E94692B0F900F900F900F90089590910F
:1011700041019F719F31D9F380934201089581E02D
:101180008093A80408951092A804089580914101C5
:101190008F718F31D9F3809141018F71E1F08F30E0
:1011A000D1F0809141018F71883031F48091390103
:1011B00082608093390109C088E00E94B70880915D
:1011C00041018F718830D9F7F1CF809141018F7142
:1011D00011F08F30D1F70895809141018F718F31D7
:1011E000D9F3809141018F7111F08F3051F48091CA
:1011F00039018D7F80933901809141018F71883051
:10120000D9F70895E5E4F1E09081907F9083908193
:101210008F70892B80830895E7E5F1E080818D7FD1
:1012200080830895E7E5F1E08081826080830895FE
:10123000EEE6F1E080818F7E80830895EEE6F1E0B6
:101240008081806180830895809360019093610123
:101250009093B2048093B10408959093AC0480936A
:10126000AB04E8E4F1E08081807E80838081682B9C
:1012700060830895909323038093220308959093AD
:1012800021038093200308951F93CF93DF9370E28F
:101290007093440170EC7093450160626093480163
:1012A00065EC6093490167EA60934B0160E86093E5
:1012B0004C0120936001309361014093620150938F
:1012C0006301E6E4F1E0C081A08160811081C295F4
:1012D000C695C77070E4C79FE0011124129516955A
:1012E00013701C2BA295A695A37070E1A79FD00147
:1012F00011241A2B629566956370A4E06A9FB00171
:101300001124162B10936D016081E0816295669522
:10131000637070E0660F771F6064E295E695E37096
:10132000E62BE0936E0110926C016FEF60934E011B
:101330009093AC048093AB041092AD041092AE0471
:101340005093B0044093AF043093B2042093B1049F
:101350001092B30481E08093BD041092CC041092EB
:10136000BC041092A804DF91CF911F91089586E1EB
:101370000C94B70886E10C94B70888E00E94B7087F
:101380001092CC0408953F924F925F926F927F9299
:101390008F929F92AF92BF92CF92DF92EF92FF9285
:1013A0000F931F93CF93DF93EC013B018091BD041A
:1013B000811102C0CFEF1CC19E818091AD048F5F6F
:1013C0008093AD0480918101807E816090FB85F9DE
:1013D0008F7380648093810188E88093820180917B
:1013E000A804882361F08FEF809383018AEA9AEA48
:1013F00090938901809388018FEF9FEF11C08091B6
:10140000AD04809383013091610120916001932F9D
:1014100080E0822B90938901809388018881998153
:10142000909387018093860130916301209162013E
:10143000932F80E0822B90938501809384014A81D1
:10144000842F992787FD90956B817C81592F8AE89D
:1014500091E00E94E92A8A81855F80938001309023
:1014600041018FE13822832D81508230C0F381E128
:101470003816A9F382E1381691F38FE1381679F323
:1014800088E0381649F086E0381631F086E13816E3
:1014900019F089E038128ECF86E10E94B7088D815D
:1014A000811107C089E00E94B7088E81882391F0DE
:1014B0000EC080914801806880934801809141016D
:1014C00087FFFCCF8091410186FF74CFEBCF89E18C
:1014D0000E94B7086114710499F184EB94E00E94B2
:1014E000601C8091B4049091B504A091B604B091B1
:1014F000B7048093BE049093BF04A093C004B0933C
:10150000C104D30120E432E44FE050E00E94EF290F
:101510000091B8041091B9042091BA043091BB0431
:10152000600F711F821F931F6093C2047093C304E6
:101530008093C4049093C5048EEB94E00E94511DE7
:101540001092BC0482E00E94B708412C512C08C0C4
:101550008FEF481A580A88EE48168DEF580621F08A
:101560008091BC048823A1F36114710421F48E815D
:1015700081112DC034C084EB94E00E94601C8090E7
:10158000B4049090B504A090B604B090B704C09095
:10159000B804D090B904E090BA04F090BB04009174
:1015A000BE041091BF042091C0043091C104409149
:1015B000C2045091C3046091C4047091C5048DECC1
:1015C00094E00E94BC1C8F3F09F0BACFD0CF80912D
:1015D000420182958695877011F0CFEF06C088EEA4
:1015E00048168DEF5806C9F3C1E0832D0E94B70855
:1015F0008C2FDF91CF911F910F91FF90EF90DF9093
:10160000CF90BF90AF909F908F907F906F905F90A2
:101610004F903F90089560E070E00C94C309CF9321
:10162000DF938091BD04882341F1C0914101CF71C6
:101630008C2F81508230C8F3C131B9F3C231A9F384
:10164000CF3199F3C83021F0C63011F0C631A9F47A
:1016500086E10E94B7088091480180688093480124
:101660008091410187FFFCCFD09141018C2F0E94D6
:10167000B708D6FB882780F901C08FEFDF91CF91A3
:1016800008958091BD04882309F485C08091CC041D
:10169000882309F47EC080917B01E091AB04F09136
:1016A000AC0490E002972481332727FD309528175A
:1016B00039070CF470C0E091AB04F091AC04809158
:1016C00082018083E091AB04F091AC0480918701AA
:1016D0009091880192838183E091AB04F091AC04F6
:1016E00080917B018B508383A091AB04B091AC04BB
:1016F000E091AB04F091AC0413969C91848189171E
:101700003CF0E091AB04F091AC04838187FF0DC005
:101710001092CC0480914C018F7780934C01809182
:101720004C01806880934C0136C0A091AB04B0910D
:10173000AC04E091AB04F091AC0413964C91842F6F
:10174000992787FD9095592F69E871E085819681E9
:101750000E94E92AE091AB04F091AC0480918001F1
:1017600085FB882780F98783E091AB04F091AC0476
:101770008091470180871092CC0480914C018F7733
:1017800080934C0180914C01806880934C0181E0F2
:10179000089580E008958FEF08951F920F920FB67D
:1017A0000F9211248F9380E880934F018F910F90B7
:1017B0000FBE0F901F9018951F920F920FB60F92A9
:1017C00011248F9381E08093BC0480E480934F01C7
:1017D0008F910F900FBE0F901F9018951F920F9230
:1017E0000FB60F9211248F9380E280934F018F9157
:1017F0000F900FBE0F901F9018951F920F920FB66B
:101800000F9211248F9380E180934F018F910F905D
:101810000FBE0F901F9018951F920F920FB60F9248
:1018200011240BB60F922F933F934F935F936F93B7
:101830007F938F939F93AF93BF93EF93FF9384E036
:1018400080934F01E0912203F0912303309709F038
:101850000995FF91EF91BF91AF919F918F917F91EA
:101860006F915F914F913F912F910F900BBE0F9011
:101870000FBE0F901F9018951F920F920FB60F92E8
:1018800011248F9382E080934F018F910F900FBEB0
:101890000F901F9018951F920F920FB60F92112460
:1018A0008F9381E080934F018F910F900FBE0F9027
:1018B0001F901895E9E4F1E09081907F90839081EA
:1018C0008F70892B808308958FEF08950895089570
:1018D00008958FEF08958091A6049091A70408952C
:1018E00080E00895089581E0089581E0089581E001
:1018F0000895089508950895089508950895089500
:101900000895E7E3F1E0808183608083989AA09A4C
:101910008DB1806E8DB98EB1806E8EB90895E7E37A
:10192000F1E0808183608083989AA0988DB1806E69
:101930008DB98EB1806E8EB90895CF92DF92EF92FD
:10194000FF920F931F93CF93DF93CDB7DEB7279707
:101950000FB6F894DEBF0FBECDBF0E94C511E09157
:10196000AB04F091AC04C080D38005811681E08483
:101970000E94410B18161CF088E592E006C0F801A1
:10198000F080F11007C087E792E00E94862B0E944A
:10199000C71132C0F5E0FF1204C08AE090E00E9457
:1019A000802BC80101969F938F938E2D992787FDD9
:1019B00090959F93EF921F92FF921F92CF9289E989
:1019C00092E09F938F930E94692B1D830C83FA945E
:1019D000F801F082DB821E821F828FEF9FEF9A83D5
:1019E00089830E94C711CE0101960E940B0B0FB68E
:1019F000F894DEBF0FBECDBF27960FB6F894DEBFBA
:101A00000FBECDBFDF91CF911F910F91FF90EF904F
:101A1000DF90CF9008951F920F920FB60F9211246E
:101A20000BB60F922F933F934F935F936F937F93D8
:101A30008F939F93AF93BF93EF93FF9380E001C089
:101A40008F5F90917B018917D8F38091460187FFC2
:101A500004C081E08093CC0404C082EC92E00E9438
:101A6000862B88E080934F018091460187FF05C057
:101A70008091A80481110E949D0CFF91EF91BF916C
:101A8000AF919F918F917F916F915F914F913F9116
:101A90002F910F900BBE0F900FBE0F901F901895B7
:101AA0008091C00087FFFCCF8091C0008F7780932A
:101AB000C0008091C60008959091C00095FFFCCFB2
:101AC0009091C0009F7D9093C0008093C6000895C0
:101AD0008FEF0895813031F48091C80087FD07C0F1
:101AE00080E008958111FCCF8091C000F7CF81E0A4
:101AF0000895CF93DF93EC0107C060915505709175
:101B0000560590E00E943D2BFE01219684918111A3
:101B1000F4CFDF91CF91089586E084B985B988EF3D
:101B20008AB980EF8BB982E08EB980E681B9169AC6
:101B300008950C948C0D8F3F09F466C0982F977010
:101B4000923051F130F4992359F0913009F05CC092
:101B500015C09430E9F170F1953009F055C046C0D8
:101B600092B186958695869521E030E0082E01C0D9
:101B7000220F0A94EAF7922B92B944C095B1869548
:101B80008695869521E030E0082E01C0220F0A9448
:101B9000EAF7922B95B936C098B1869586958695C9
:101BA00021E030E0082E01C0220F0A94EAF7922BC0
:101BB00098B928C09BB186958695869521E030E03E
:101BC000082E01C0220F0A94EAF7922B9BB91AC083
:101BD0009EB186958695869521E030E0082E01C05D
:101BE000220F0A94EAF7922B9EB90CC091B3869506
:101BF0008695869521E030E001C0220F8A95EAF7AC
:101C0000922B91BB81E008958FEF08958F3F09F4E7
:101C10006DC0982F9770923069F130F4992361F07C
:101C2000913009F063C017C0943009F441C088F1C5
:101C3000953009F05BC04BC092B18695869586952C
:101C400021E030E0082E01C0220F0A94EAF7209527
:101C5000292322B949C095B186958695869521E0BC
:101C600030E0082E01C0220F0A94EAF720952923BC
:101C700025B93AC098B186958695869521E030E0E1
:101C8000082E01C0220F0A94EAF72095292328B9CB
:101C90002BC09BB186958695869521E030E0082E75
:101CA00001C0220F0A94EAF7209529232BB91CC002
:101CB0009EB186958695869521E030E0082E01C07C
:101CC000220F0A94EAF7209529232EB90DC091B36B
:101CD00086958695869521E030E001C0220F8A9591
:101CE000EAF72095292321BB81E008958FEF08951D
:101CF0008F3F39F1982F9770923081F028F4992313
:101D000049F09130F1F408C0943061F048F095301A
:101D1000C1F40AC020B109C023B107C026B105C073
:101D200029B103C02CB101C02FB130E08695869552
:101D3000869502C0359527958A95E2F7822F8170A6
:101D400008958FEF08958F3F09F4E7C0982F97709B
:101D5000923009F456C030F4992369F0913009F0BB
:101D6000DCC02CC0943009F492C008F46DC09530EA
:101D700009F0D3C0AFC020B186958695869530E036
:101D8000082E02C0359527950A94E2F792B120FDFE
:101D90000AC021E030E0082E01C0220F0A94EAF7C1
:101DA000922B92B921C021E030E0082E01C0220F11
:101DB0000A94EAF72095292322B916C023B1869503
:101DC0008695869530E0082E02C0359527950A94B1
:101DD000E2F795B120FD0AC021E030E001C0220FFA
:101DE0008A95EAF7922B95B981E0089521E030E0D9
:101DF000082E01C0220F0A94EAF72095292325B95D
:101E0000F3CF26B186958695869530E0082E02C0E0
:101E1000359527950A94E2F798B120FD0AC021E094
:101E200030E0082E01C0220F0A94EAF7922B98B9ED
:101E3000DBCF21E030E0082E01C0220F0A94EAF740
:101E40002095292328B9D0CF29B1869586958695E6
:101E500030E0082E02C0359527950A94E2F79BB131
:101E600020FD0AC021E030E0082E01C0220F0A94B4
:101E7000EAF7922B9BB9B8CF21E030E0082E01C0E1
:101E8000220F0A94EAF7209529232BB9ADCF2CB164
:101E900086958695869530E0082E02C03595279563
:101EA0000A94E2F79EB120FD0AC021E030E0082E3E
:101EB00001C0220F0A94EAF7922B9EB995CF21E038
:101EC00030E0082E01C0220F0A94EAF7209529235A
:101ED0002EB98ACF2FB186958695869530E0082E4B
:101EE00002C0359527950A94E2F791B320FD0AC008
:101EF00021E030E0082E01C0220F0A94EAF7922B6D
:101F000091BB72CF21E030E0082E01C0220F0A946D
:101F1000EAF72095292321BB67CF8FEF08958F3FE4
:101F200009F4E5C0982F977061117DC0923099F146
:101F300030F4992361F0913009F0D9C01AC094307F
:101F400009F44DC0D0F1953009F0D1C05AC091B11B
:101F500086958695869521E030E001C0220F8A950E
:101F6000EAF7822F8095892381B982B1822B82B9C9
:101F7000BCC094B186958695869521E030E001C07D
:101F8000220F8A95EAF7822F8095892384B985B13B
:101F9000822B85B9AAC097B186958695869521E052
:101FA00030E001C0220F8A95EAF7822F80958923BD
:101FB00087B988B1822B88B998C09AB186958695E1
:101FC000869521E030E001C0220F8A95EAF7822F42
:101FD000809589238AB98BB1822B8BB986C09DB13C
:101FE00086958695869521E030E001C0220F8A957E
:101FF000EAF7822F809589238DB98EB1822B8EB915
:1020000074C090B386958695869521E030E001C036
:10201000220F8A95EAF7822F8095892380BB81B3AE
:10202000822B81BB62C0923051F130F4992359F078
:10203000913009F05CC015C09430E9F170F1953031
:1020400009F055C046C091B186958695869521E0E8
:1020500030E0082E01C0220F0A94EAF7922B91B9C2
:1020600044C094B186958695869521E030E0082E8F
:1020700001C0220F0A94EAF7922B94B936C097B1A7
:1020800086958695869521E030E0082E01C0220FC6
:102090000A94EAF7922B97B928C09AB1869586954B
:1020A000869521E030E0082E01C0220F0A94EAF75D
:1020B000922B9AB91AC09DB186958695869521E096
:1020C00030E0082E01C0220F0A94EAF7922B9DB946
:1020D0000CC090B386958695869521E030E001C0CE
:1020E000220F8A95EAF7922B90BB81E008958FEF3B
:1020F0000895811106C080B18695817091E089278D
:1021000008958FEF0895009711F483E20DC0813098
:10211000910511F48BE208C08230910511F483E33C
:1021200003C0039729F48BE30E94A30E81E0089576
:102130008FEF0895009711F483E20DC0813091056F
:1021400011F48BE208C08230910511F483E303C0DF
:10215000039729F48BE30E949B0D81E008958FEF94
:102160000895009711F483E20DC08130910511F4B8
:102170008BE208C08230910511F483E303C003971A
:1021800029F48BE30E94060E81E008958FEF0895F5
:10219000882319F085B78F7E02C085B7806185BF1F
:1021A00081E008959091C80095FFFCCF8093CE0008
:1021B00008959093C5008093C40086E08093C20088
:1021C000E1ECF0E080818B7F8083A0ECB0E08C912B
:1021D00082608C9380818861808308959093CD0084
:1021E0008093CC0086E08093CA00E9ECF0E0808127
:1021F0008B7F8083A8ECB0E08C9182608C9380818F
:102200008861808308950E94D91060E57DE08CE5A7
:102210009DE00E94F22A909356058093550560E553
:102220007DE08CE59DE00E94F22A90935405809316
:10223000530508958091C80087FFFCCF8091C800A6
:102240008F778093C8008091CE0008950000000031
:10225000000000000197D1F708950C94442C0E94CF
:102260004C2C0895EF92FF920F931F93CF93DF931F
:10227000EC0180E090E00E94442CF82E8B8381E0FA
:1022800090E00E94442CE82E8A8382E090E00E9435
:10229000442C082F898383E090E00E94442C182F5F
:1022A000888384E090E00E94442C9E2D9F0D900F27
:1022B000910F891302C081E001C08FEFDF91CF91B0
:1022C0001F910F91FF90EF900895CF93DF93EC0152
:1022D00085E090E00E94442C888381E0DF91CF91DB
:1022E0000895FC01608186E090E00E944C2C81E022
:1022F0000895CF93DF93EC0186E090E00E94442C98
:10230000888381E0DF91CF9108950F931F93CF933E
:10231000DF93EC0108E010E0C8010E94442C89938F
:102320000F5F1F4F08311105B9F781E0DF91CF91A1
:102330001F910F9108950F931F93CF93DF93EC019B
:1023400008E010E06991C8010E944C2C0F5F1F4FFC
:1023500008311105B9F781E0DF91CF911F910F91FD
:102360000895CF93DF93EC0187E090E00E94442C26
:10237000888381E0DF91CF910895FC01608187E03F
:1023800090E00E944C2C81E00895F8940895789490
:1023900008950E94C511FFCFCF93DF93CDB7DEB76D
:1023A000A3970FB6F894DEBF0FBECDBF0E94EC1509
:1023B000809322058F3F21F460E08EE00E940E148E
:1023C0000E94AD2480FF04C060E086E00E940E14ED
:1023D00010922505109233051092320510922405B3
:1023E0001092230510923405109231058FEF8093DF
:1023F0001B0580931D0580931C0580931E0580930B
:10240000200580931F0593E69093E1048093DF04F9
:1024100090930205809300052AE335E03093390557
:102420002093380585E395E090933C0580933B0528
:102430004FE355E050933E0540933D0530934105F1
:1024400020934005109237051092360510924305EF
:102450001092420510922805109227059093D604F9
:102460008093D5046DE77FE1CE0101960E94E626B8
:1024700040E850E064ED73E0CE0101960E94EA2648
:1024800085E58093D40319861C861D861E861F86CB
:10249000188A198A1A8A1B8A1C8A1D8A1E8A1F8A10
:1024A000188E198E1A8E1B8E1C8E1D8E1E8E1F8EE0
:1024B00018A219A21AA21BA281E0888792E09A872B
:1024C0008B87CE0101960E942F1AA3960FB6F8941F
:1024D000DEBF0FBECDBFDF91CF9108956091DF04C5
:1024E0006F3F39F080910005681303C085E00E94BA
:1024F0000E14609100056F3F39F08091DF0468137E
:1025000003C085E00E940E140E942C1991E28902FA
:10251000F0011124E952FB4F828580933405F0933A
:102520003305E0933205F0932405E093230580936F
:1025300025050E946E270E9458270E947227FFCF10
:10254000AF92BF92CF92DF92EF92FF920F931F93C1
:10255000CF93DF931F92CDB7DEB75C016B017A0199
:10256000DC0119968C911997823021F08091210518
:102570008C9302C0F501108280912105823020F0F9
:1025800060E087E00E940E14D50119968C9182308C
:1025900029F0809121058F5F80932105809121058D
:1025A000811103C081E080932105F501308121E292
:1025B0003203F0011124E952FB4FD182C082D501D0
:1025C00018968C91189782873C913203F001112460
:1025D000E952FB4F83E081873C913203F0011124E3
:1025E000E952FB4F30870C910203800111240952FC
:1025F0001B4FF8011582C5010B960E94DF1DD80103
:102600005C969C938E935B97F501038514852585D5
:1026100036850E3311052105310520F0608186E1F4
:102620000E940E14D5010C91112707FD1095C501CC
:102630004B960E94DF1D41E2409FD001419FB00DAB
:102640001124A952BB4F56969C938E935597F50132
:10265000008104038001112409521B4FD8015596B3
:102660008D919C9156975B962D913C915C97820F32
:10267000931F58969C938E935797C5014396498311
:102680000E94DF1DF801968F858FD5012C9149811D
:102690002403F0011124E952FB4F858D968D928F12
:1026A000818F81E090E090A3878FF382E28281E0C6
:1026B00084870F90DF91CF911F910F91FF90EF9042
:1026C000DF90CF90BF90AF9008950C94A11F85E646
:1026D00090E00895E0913205F091330584870895E4
:1026E000E0913205F0913305848508952091D3035C
:1026F000222341F0FB01208320912603FC0120834B
:1027000081E0089580E008958091D303882309F43F
:1027100083C00E94C5118AE891E00E94790D8091E2
:1027200026031F928F938BED92E09F938F930E94CD
:10273000692B86E991E00E94790D0F900F900F9020
:102740000F908091D303883110F01092D3038091C1
:10275000D30390E0FC013197E631F10508F046C063
:10276000E057FF4F0C94C32A8AE991E041C086EDFF
:1027700091E03EC08DEF91E03BC081E192E038C036
:1027800087E292E035C082E492E032C088E592E0D0
:102790002FC080E792E02CC083E892E029C086E950
:1027A00092E026C084EB92E023C089ED92E020C045
:1027B00085EE92E01DC080E093E01AC08FE093E0C8
:1027C00017C083E293E014C084E393E011C088E46F
:1027D00093E00EC088E693E00BC080E893E008C069
:1027E0008BE993E005C08CEA93E002C08BEB93E0A9
:1027F0000E94790D60915505709156058DE090E02D
:102800000E943D2B60915505709156058AE090E03D
:102810000E943D2B1092D30380E008958093D30350
:10282000609326030C9484138093D303E0913205C4
:10283000F09133058085809326030C948413CF9305
:10284000DF931F92CDB7DEB7198207C080ED97E006
:102850000E94E22289818F5F898389818436B0F367
:102860000F90DF91CF91089581E090E00E94B11028
:102870000E941F1481E090E00E949A100C941F1493
:1028800081E090E00E94B1100E941F140E941F146A
:102890000E941F1481E090E00E949A100C941F1473
:1028A000FF920F931F93CF93DF9300D01F92CDB76A
:1028B000DEB71F928F938BED92E09F938F938E01E3
:1028C0000F5F1F4F1F930F930E94B52B0F900F9018
:1028D0000F900F900F900F90F12C6FC0F801E80F40
:1028E000F91F80818433B9F168F48133E9F020F471
:1028F000803309F05BC015C0823309F1833309F0DE
:1029000055C022C08733C1F130F4853369F1863375
:1029100009F04CC02CC08833B1F1893309F046C0AE
:102920003BC00E94401402C00E9434140E94401414
:102930000E9440140E9440140E94401437C00E941C
:1029400034140E943414F4CF0E9434140E943414BE
:102950000E943414EFCF0E9434140E9434140E9459
:1029600034140E943414E8CF0E94341402C00E9430
:1029700040140E94341404C00E9440140E94401469
:102980000E94341406C00E9440140E9440140E9409
:1029900040140E94341408C00E9440140E94401445
:1029A0000E9440140E9440140E9434140E941F147C
:1029B0000E941F140E941F14F394F801019000203C
:1029C000E9F73197E01BF10B8F2D90E08E179F07F1
:1029D00008F484CF0F900F900F90DF91CF911F914B
:1029E0000F91FF9008955F926F927F928F929F92C6
:1029F000AF92BF92CF92DF92EF92FF920F931F930D
:102A0000CF93DF9382EC93E00E94790DE091320541
:102A1000F09133052085822F992787FD90959F930C
:102A20002F938EED92E09F938F930E94692BE091FC
:102A30003205F0913305C281D381DF93CF9382E1D8
:102A400093E09F938F930E94692B88811F928F93AD
:102A500087EE92E09F938F930E94692BE09132055D
:102A6000F091330581818F9380818F9384EF92E081
:102A70009F938F930E94692B809133058F93809150
:102A800032058F938EEF92E09F938F930E94692B74
:102A900007ED14E0EDB7FEB774960FB6F894FEBFDD
:102AA0000FBEEDBFC0E0D0E08EE0882E83E0982E10
:102AB00097EEA92E92E0B92E24EFC22E22E0D22E5C
:102AC00031E2532E4EEFE42E42E0F42EF801628004
:102AD00073807F926F92DF93CF939F928F920E9429
:102AE000692BF30180811F928F93BF92AF920E9456
:102AF000692BF80181818F9380818F93DF92CF9230
:102B00000E94692B5C9EC0015D9E900D112489522C
:102B10009B4F9F938F93FF92EF920E94692B219678
:102B20000F5D1F4F8DB79EB742960FB6F8949EBFAC
:102B30000FBE8DBFC230D10549F6DF91CF911F91F5
:102B40000F91FF90EF90DF90CF90BF90AF909F904C
:102B50008F907F906F905F900895CF93DF93E09177
:102B60003205F0913305C281D3818881853539F0F2
:102B70000E94F31481E00E94141485E58883E0919B
:102B80003205F0913305808191818115924438F0AE
:102B90000E94F31482E1DF91CF910C941414DF9121
:102BA000CF91089521E28202F0011124E952FB4FF6
:102BB000A281B3818C91853519F085E58C9308C08D
:102BC000808191818115924428F082E10E94141441
:102BD0008FEF089581E008950F931F9300914B03A9
:102BE00010914C0320914D0330914E0380E090E012
:102BF000B901A801082E04C07695679557954795A9
:102C00000A94D2F740FD19C041E050E060E070E066
:102C1000082E04C0440F551F661F771F0A94D2F771
:102C2000402B512B622B732B40934B0350934C033F
:102C300060934D0370934E0305C001968032910559
:102C4000B9F68FEF1F910F910895E0913205F09141
:102C5000330565857685878590890895CF92DF92C3
:102C6000EF92FF920F931F93CF93DF931F92CDB7F5
:102C7000DEB7C12CD12C7601C394082E04C0CC0C35
:102C8000DD1CEE1CFF1C0A94D2F740914B035091BF
:102C90004C0360914D0370914E034C215D216E21D8
:102CA0007F21452B462B472B09F463C089830E9463
:102CB000C511E0EEF4E0970186010095109520958E
:102CC000309593E08981DF0111974C914F3F49F195
:102CD00044815581668177814C155D056E057F05C0
:102CE00041F41086118612861386DF0112971C921A
:102CF00090834481558166817781402351236223EB
:102D00007323448355836683778340855185628529
:102D10007385402351236223732340875187628741
:102D20007387B19645E0E232F40769F64EEF5FEF44
:102D30006FEF7FEF04C0440F551F661F771F8A9502
:102D4000D2F780914B0390914C03A0914D03B09129
:102D50004E0384239523A623B72380934B0390939C
:102D60004C03A0934D03B0934E030E94C71181E022
:102D700001C08FEF0F90DF91CF911F910F91FF90C6
:102D8000EF90DF90CF9008950F931F9341E050E0B4
:102D900060E070E004C0440F551F661F771F8A95DE
:102DA000D2F7E0913205F091330585859685A785A8
:102DB000B0898A019B01082319232A233B23012B75
:102DC000022B032BD1F0409550956095709584238C
:102DD0009523A623B72385879687A787B08B8189FC
:102DE0009289A389B48984239523A623B723818B51
:102DF000928BA38BB48B81E001C08FEF1F910F9159
:102E0000089540914B0350914C0360914D03709194
:102E10004E03082E04C076956795579547950A94FA
:102E2000D2F740FF1DC0E0913205F091330541E03B
:102E300050E060E070E004C0440F551F661F771F2C
:102E40008A95D2F785859685A785B089842B952BA1
:102E5000A62BB72B85879687A787B08B81E008952F
:102E60008FEF0895CF92DF92EF92FF921F93CF934F
:102E7000DF93C12CD12C7601C39404C0CC0CDD1C93
:102E8000EE1CFF1C8A95D2F780914B0390914C0366
:102E9000A0914D03B0914E038C219D21AE21BF2105
:102EA000892B8A2B8B2B11F481E040C00E94C51125
:102EB000EEEDF4E0C0EED4E010E023E0808181305C
:102EC000A9F482859385A485B5858C219D21AE21A9
:102ED000BF21892B8A2B8B2B49F0288317861686D6
:102EE0001082C286D386E486F58611E08081823026
:102EF00091F482859385A485B5858C159D05AE05D5
:102F0000BF0549F428831786168610821286138619
:102F10001486158611E0B196A19685E0E032F80797
:102F200069F60E94C711111105C082E00E946A1360
:102F30008FEF01C081E0DF91CF911F91FF90EF9063
:102F4000DF90CF9008950F931F93E0913205F09199
:102F50003305058516852785308906231723282301
:102F60003923012B022B032B19F1618B728B838B7D
:102F7000948B21E02783DC01CB010090220504C063
:102F8000B695A795979587950A94D2F780FF03C0C9
:102F90000E940D1B04C080E090E00E94341BE09171
:102FA0003205F0913305018912892389348903C0E0
:102FB00000E010E09801B801C9011F910F91089538
:102FC0009091310591111CC090911B059F3F31F0EC
:102FD00090911E059F3F21F421E003C020E001C035
:102FE00022E030E0F901EE0FFF1FE20FF31FE55E74
:102FF000FA4F82838083618381E08093310502C030
:10300000E0E0F0E0CF01089525E08B31920729F050
:103010008E51954021F481E0089580E008958FEF6E
:1030200008950E9404188F3F11F481E002C082309D
:1030300021F40E946A138FEF0895992787FD9095D8
:10304000FC01EE0FFF1FE80FF91FE55EFA4F8FEF4F
:103050008083828381838091310581508093310503
:1030600081E008950F931F93CF93DF931F92CDB705
:10307000DEB70E9404188F3F11F481E002C0823055
:1030800021F40E946A138FEF70C0282F332727FD89
:1030900030958901000F111F020F131F055E1A4F93
:1030A000F8012281908129170CF05EC089830E946B
:1030B000C511F80192819F5F9283E0913205F091F2
:1030C000330514829091DE048981923021F5482FD6
:1030D000552747FD5095652F752F0091E8041091F5
:1030E000E9042091EA043091EB0404171507260740
:1030F000370789F493E09093E0041092ED04109266
:10310000EC041092DE041092E8041092E90410928C
:10311000EA041092EB049091FF04923019F599277C
:1031200087FD9095A92FB92F4091090550910A0567
:1031300060910B0570910C05481759076A077B07CA
:1031400089F483E08093010510920E0510920D051D
:103150001092FF041092090510920A0510920B05B7
:1031600010920C050E94C71181E00F90DF91CF9162
:103170001F910F9108950F931F93CF93DF931F9289
:10318000CDB7DEB70E9404188F3F11F481E002C072
:10319000823021F40E946A138FEF40C089830E941D
:1031A000C5118981082F112707FD1095F801EE0F31
:1031B000FF1FE00FF11FE55EFA4F9281911116C0DB
:1031C000E0913205F09133059781926097839927BA
:1031D00087FD9095A92FB92F818B928BA38BB48BF0
:1031E0000E94C71180E090E00E94341BF801EE0FAE
:1031F000FF1FE00FF11FE55EFA4F8281815082834D
:10320000A0913205B091330581811B968C931B9759
:1032100081E014968C930E94C71181E00F90DF919A
:10322000CF911F910F9108950E9404188F3F11F4C0
:1032300081E002C0823021F40E946A138FEF08956A
:10324000992787FD9095FC01EE0FFF1FE80FF91FEE
:10325000E55EFA4F82810895E0912705F0912805F7
:1032600080810895E0912705F091280503C003802F
:10327000F481E02D3097D9F70895CF92DF92EF9245
:10328000FF920F931F93CF93DF93E091D504F091BA
:10329000D604309709F48AC040912705509128053B
:1032A0004115510509F446C0DA0191E2692F782FE2
:1032B00076039001112429523B4F8901065F1F4F6D
:1032C0007901C4E0EC0EF11C255F3F4F6C9170E07A
:1032D000969FE001979FD00D1124C952DB4FDC80EF
:1032E000DD2029F0DB84E801C880DC1428F1E70147
:1032F000D880DD2061F0969FE001979FD00D1124CA
:10330000C952DB4FDA84E901C880DC14A8F0969F2B
:10331000E001979FD00D1124C952DB4F7A85E80157
:103320006881761748F013960D90BC91A02D1097E8
:1033300069F602C0A0E0B0E08083C381D481D0935D
:10334000D604C093D504A417B507B1F4109749F07B
:10335000B483A383128211821296FC93EE93119789
:1033600006C01482138212821182FA83E983F093D9
:103370002805E09327051AC011968D919C9112970C
:10338000AC17BD0759F092838183B483A383119650
:10339000CD91DC911297FC83EB8304C014821382DD
:1033A000928381831296FC93EE931197DF91CF91D4
:1033B0001F910F91FF90EF90DF90CF900895CF93E2
:1033C000DF93E0912705F0912805309709F444C078
:1033D000992787FD9095208130E02817390781F4DF
:1033E000A381B481B0932805A093270512961C925F
:1033F0001E92119718C00380F481E02D309761F17F
:10340000208130E028173907B1F7C181D28183814B
:1034100094819C838B83A381B481109721F01296B1
:10342000DC93CE931197A091D504B091D604109758
:1034300039F4F093D604E093D504148213820AC0C1
:10344000B483A3831296FC93EE931197F093D60462
:10345000E093D50412821182DF91CF910895EF920B
:10346000FF920F931F93CF93DF93EC014B815C810D
:1034700069817A818D819E810E9409272F81222373
:1034800071F04B815C81E12CF12C00E010E020E038
:1034900030E0BC01CE010E94A0121F820CC0E88166
:1034A00021E2E202F0011124E952FB4F2185233091
:1034B00099F491838083E88181E2E802F00111248C
:1034C000E952FB4F85899689892B41F482E08187F7
:1034D00088810E943D1902C08FEF01C081E0DF9119
:1034E000CF911F910F91FF90EF9008951F93CF936D
:1034F000DF93CDB7DEB728970FB6F894DEBF0FBEC7
:10350000CDBF29833A834B835C836D837E838F8316
:1035100098870E94C5110E943124182FCE01019670
:103520000E94DF1D8330910560F0E0913205F0913B
:103530003305810F911D968B858B0E94C71181E009
:1035400001C08FEF28960FB6F894DEBF0FBECDBF37
:10355000DF91CF911F9108950E94DB26E091320503
:10356000F091330585818111F7CF0895FF920F9374
:103570001F93CF93DF93CDB7DEB728970FB6F8949C
:10358000DEBF0FBECDBF29833A834B835C836D833F
:103590007E838F8398870E94AD150E94C511E091AC
:1035A0003205F091330581E0858381E090E090A3BE
:1035B000878F0E943124F82ECE0101960E94DF1DD4
:1035C000E0913205F09133050F2D10E0800F911F2F
:1035D000968B858B87EF8F1578F00E94CA230F5F3B
:1035E0001F4F282F30E00217130734F48F2D8E5F02
:1035F0008093D2030E94CE230E94C7110E94AC1A6E
:1036000081E028960FB6F894DEBF0FBECDBFDF91E4
:10361000CF911F910F91FF900895CF930E94C511F4
:10362000E0913205F091330581E0858386830E9425
:103630003124C82F883F88F40E94CA232C2F30E001
:103640002F5F3F4F482F50E02417350734F48C2F5D
:103650008E5F8093D2030E94CE230E94C7110E94E6
:10366000AC1A81E0CF910895CF93DF93EC010E94D3
:10367000C511E0913205F091330581E08583D68B49
:10368000C58B0E943124C82F883F88F40E94CA232A
:103690002C2F30E02F5F3F4F482F50E02417350785
:1036A00034F48C2F8E5F8093D2030E94CE230E942D
:1036B000C7110E94AC1A81E0DF91CF910895FF926B
:1036C0000F931F93CF93DF938C010E94C511E0915C
:1036D0003205F091330581E085830E943124F82E74
:1036E000E0913205F0913305C82FD0E00C0F1D1F7B
:1036F000168B058B87EF8F1570F00E94CA232196D9
:10370000282F30E0C217D30734F48F2D8E5F8093BB
:10371000D2030E94CE230E94C7110E94AC1A81E0FE
:10372000DF91CF911F910F91FF900895CF93DF9379
:10373000EC010E94AD15209711F4C1E0D0E00E9489
:10374000C511E0913205F091330581E08583D0A366
:10375000C78F0E943124C82F883F88F40E94CA2353
:103760002C2F30E02F5F3F4F482F50E024173507B4
:1037700034F48C2F8E5F8093D2030E94CE230E945C
:10378000C7110E94AC1A81E0DF91CF910895CF93C9
:103790000E94AD150E94C511E0913205F0913305EC
:1037A00081E090E090A3878F81E085830E9431249F
:1037B000C82F883F88F40E94CA232C2F30E02F5F47
:1037C0003F4F482F50E02417350734F48C2F8E5F7D
:1037D0008093D2030E94CE230E94C7110E94AC1A8C
:1037E00081E0CF910895E0913205F0913305808515
:1037F0000E94DF19E0913205F091330584E0818762
:103800000E94C71B81E008958F929F92AF92BF9252
:10381000CF92DF92EF92FF920F931F93CF93DF939C
:10382000CDB7DEB760970FB6F894DEBF0FBECDBF41
:1038300029873A874B875C876D877E878F87988B30
:10384000CE0101960E94601C89809A80AB80BC806A
:10385000CD80DE80EF80F88409851A852B853C8534
:103860004D855E856F857889CE0109960E94BC1CC6
:103870008F3F61F029853A854B855C856D857E8516
:103880008F8598890E94B61A81E001C08FEF6096FB
:103890000FB6F894DEBF0FBECDBFDF91CF911F9161
:1038A0000F91FF90EF90DF90CF90BF90AF909F90DF
:1038B0008F900895E0913205F09133058085089549
:1038C000CF92DF92EF92FF92CF93DF93EC011C82B5
:1038D0001D821E821F828091290590912A05A09148
:1038E0002B05B0912C0588839983AA83BB83C09054
:1038F0002D05D0902E05E0902F05F0903005CC825C
:10390000DD82EE82FF820E943124A82FB0E023EBFB
:1039100036EE4EE050E00E94EF296C0D7D1D8E1DAD
:103920009F1D6C837D838E839F8313C09A5CAA49FD
:10393000BB438C839D83AE83BF83488159816A8159
:103940007B814F5F5F4F6F4F7F4F488359836A83FF
:103950007B838C819D81AE81BF8181152AEC92078A
:103960002AE9A2072BE3B20708F7DF91CF91FF9076
:10397000EF90DF90CF9008956F927F928F929F92F9
:10398000AF92BF92CF92DF92EF92FF920F931F936D
:10399000CF93DF93CDB7DEB760970FB6F894DEBF55
:1039A0000FBECDBF3C0109831A832B833C834D831B
:1039B0005E836F83788789869A86AB86BC86CD8640
:1039C000DE86EF86F88AC980DA80EB80FC808D8104
:1039D0009E81AF81B88509851A852B853C854D85EB
:1039E0005E856F857889C016D106E206F30608F475
:1039F00042C00C151D052E053F0599F48417950747
:103A0000A607B707C0F1841B950BA60BB70BF301F4
:103A100084839583A683B7831082118212821382D6
:103A200028C084179507A607B70790F4F1E0CF1ACE
:103A3000D108E108F108C01AD10AE20AF30AF30139
:103A4000C082D182E282F3829653A546B44C09C06B
:103A5000C01AD10AE20AF30AF301C082D182E282DB
:103A6000F382841B950BA60BB70B84839583A683E7
:103A7000B78381E001C08FEF60960FB6F894DEBF88
:103A80000FBECDBFDF91CF911F910F91FF90EF90AF
:103A9000DF90CF90BF90AF909F908F907F906F906E
:103AA0000895FC0113C05A5C6A497B4344835583E3
:103AB0006683778340815181628173814F5F5F4F5D
:103AC0006F4F7F4F4083518362837383448155815D
:103AD0006681778141158AEC58078AE968078BE38C
:103AE000780708F708958F929F92AF92BF92CF9276
:103AF000DF92EF92FF920F931F93CF93DF93CDB797
:103B0000DEB760970FB6F894DEBF0FBECDBF098356
:103B10001A832B833C834D835E836F8378878986EA
:103B20009A86AB86BC86CD86DE86EF86F88A498586
:103B30005A856B857C8509811A812B813C81400FD8
:103B4000511F621F731FFC01408351836283738383
:103B50004D855E856F8578890D811E812F81388521
:103B6000400F511F621F731F448355836683778301
:103B70000E94511D81E060960FB6F894DEBF0FBE23
:103B8000CDBFDF91CF911F910F91FF90EF90DF900C
:103B9000CF90BF90AF909F908F900895609329052C
:103BA00070932A0580932B0590932C0520932D0567
:103BB00030932E0540932F055093300508952F9292
:103BC0003F924F925F926F927F928F929F92AF92AD
:103BD000BF92CF92DF92EF92FF920F931F93CF93FA
:103BE000DF93CDB7DEB762970FB6F894DEBF0FBE96
:103BF000CDBFFC01408051806280738064817581FB
:103C000086819781411451046104710409F46CC0E8
:103C1000F2E44F1651046104710408F06CC07B019A
:103C20008C0120E030E0A9016983FA820B831C83B8
:103C30002D833E834F835887E0E0F0E0B0E0A0E0C2
:103C4000198A1A8A312C812C912C01C093949F01DE
:103C50004B2F5A2F69897A89832D982DA980BA8094
:103C6000CB80DC80ED80FE800F8118850E94C92A00
:103C7000222E39874A875B876C877D878E879F874F
:103C80009F014B2F5A2F69897A89832D982D36539E
:103C90004546544C6F4F7F4F8F4F9F4FF901B42FC4
:103CA000A52F698B7A8B382E892E492D50E060E044
:103CB00070E0441555056605770540F283EBA82EA4
:103CC00096EEB92E2EE0C22ED12CE12CF12C00E084
:103CD00010E0222D39854A855B856C857D858E8532
:103CE0009F850E94662A09C023EB36EE4EE050E025
:103CF0000E94262A02C020E030E0C90162960FB679
:103D0000F894DEBF0FBECDBFDF91CF911F910F9111
:103D1000FF90EF90DF90CF90BF90AF909F908F90EB
:103D20007F906F905F904F903F902F900895CF922B
:103D3000DF92EF92FF92CF93DF93CDB7DEB7289754
:103D40000FB6F894DEBF0FBECDBF6B017C013AE029
:103D5000F694E794D794C7943A95D1F7C982DA825A
:103D6000EB82FC829B01AC0133704427552763EB47
:103D700076EE8EE090E00E94022A2C2D3A814B8153
:103D80005C8128960FB6F894DEBF0FBECDBFDF91E1
:103D9000CF91FF90EF90DF90CF9008952F923F92B8
:103DA0004F925F926F927F928F929F92AF92BF924B
:103DB000CF92DF92EF92FF920F931F93CF93DF93F7
:103DC000CDB7DEB762970FB6F894DEBF0FBECDBF9A
:103DD000FC0140805180628073806481758186819E
:103DE0009781411451046104710409F465C07B0199
:103DF0008C0120E030E0A9016983FA820B831C83E7
:103E00002D833E834F835887E0E0F0E0B0E0A0E0F0
:103E1000198A1A8A312C812C912C01C093949F010C
:103E20004B2F5A2F69897A89832D982DA980BA80C2
:103E3000CB80DC80ED80FE800F8118850E94C92A2E
:103E4000222E39874A875B876C877D878E879F877D
:103E50009F014B2F5A2F69897A89832D982D3653CC
:103E60004546544C6F4F7F4F8F4F9F4FF901B42FF2
:103E7000A52F698B7A8B382E892E492D50E060E072
:103E800070E0441555056605770540F243EBA42E16
:103E900056EEB52E6EE0C62ED12CE12CF12C00E0B2
:103EA00010E0222D39854A855B856C857D858E8560
:103EB0009F850E94662A06C023EB36EE4EE050E056
:103EC0000E94262AB901CA0162960FB6F894DEBF95
:103ED0000FBECDBFDF91CF911F910F91FF90EF905B
:103EE000DF90CF90BF90AF909F908F907F906F901A
:103EF0005F904F903F902F900895C1E0D2E00E94D4
:103F0000AD150E94CA23843028F4C09326050E9470
:103F1000DB2608C08AE090E00E94E222D0932605CA
:103F20000E94CF268091D403853519F088E00E9445
:103F3000141480917E41853511F388E00E94141499
:103F4000DECF2F923F924F925F926F927F928F922D
:103F50009F92AF92BF92CF92DF92EF92FF920F9318
:103F60001F93CF93DF9300D000D01F92CDB7DEB761
:103F70000E94FE220E94C5110E941D230E9425233B
:103F80009A8389838AEF0E94CE23A091D203B0E066
:103F900023EB36EE4EE050E00E94EF296B017C01EE
:103FA00080912D0590912E05A0912F05B09130059F
:103FB000C80ED91EEA1EFB1EC701B6010E94262AA2
:103FC000C61AD70AE80AF90A8091290590912A05AC
:103FD000A0912B05B0912C0573EB872E76EE972ED2
:103FE0007EE0A72EB12C12C02AECD21A2AE9E20AEE
:103FF0002BE3F20AC701B601A50194010E94262A0B
:10400000C61AD70AE80AF90AD301C201412C512C79
:1040100032014394480E591E6A1E7B1EC114EAECFD
:10402000DE06EAE9EE06EBE3FE06F0F680932905EC
:1040300090932A05A0932B05B0932C05C0922D05D3
:10404000D0922E05E0922F05F0923005E0913205D6
:10405000F091330585818823C1F081858430A9F0F2
:104060008781823009F405C0882341F0868181115F
:1040700002C085E001C083E0818704C083E08187BE
:104080001782168280850E94DF19E0913205F09137
:104090003305858D968D892B91F16085662379F1A5
:1040A0008185843061F1218D328D8091D20390E041
:1040B0002817390750F482E00E940E14E09132056F
:1040C000F0913305128E118E04C0281B390B328FEC
:1040D000218FE0913205F09133051085218D328DCD
:1040E000232B69F4612F83E00E940E14E0913205C6
:1040F000F091330583E08187812F0E94DF198FEDD6
:10410000682E84E0782E90EE892E94E0992E2EED84
:10411000A22E24E0B22E3DEDC32E34E0D32E4CED82
:10412000E42E44E0F42E00E61AEE40E02AEF30E000
:10413000212C312C21012394D3018C918F3F09F440
:10414000BFC0F70110828C91882309F43FC0D401CD
:104150008C918430D9F11C966D917C911D97809142
:10416000D20390E06817790738F0681B790B1D9629
:104170007C936E931C9703C0F40115861486D401BA
:104180001E966D917C911F976817790738F0681B10
:10419000790B1F967C936E931E970FC0F401628972
:1041A00073898617970728F4681B790B77876687CA
:1041B00004C00E94122A97878687F4018685978516
:1041C000892B21F48289938997878687D4018C91E2
:1041D000833009F075C01C968D919C911D97892B99
:1041E00009F063C0F50180818823A1F0D6018C918C
:1041F000882381F0D201C1010090220504C0880FFC
:10420000991FAA1FBB1F0A94D2F7F40180879187D8
:10421000A287B387D5011C92F6011082D7011C92A8
:10422000F4018689978981309105D1F48489958933
:10423000918B808B82E080838685978595878487A4
:1042400082899389892B11F435872487842F2C83C5
:104250003D834B830E943D192C813D814B8125C0BC
:10426000D40164897589718B608BFC0131975296FA
:104270008D919C915397E89FB001E99F700DF89F35
:10428000700D11241D967C936E931C971F967C9342
:104290006E931E97892B21F41D963C932E931C97A9
:1042A00081E090E0F401978B868BD4011C968D9170
:1042B0009C911D97009721F08017910708F48C01BD
:1042C0004F5FB1E26B0E711CE1E28E0E911CF1E2C8
:1042D000AF0EB11C81E2C80ED11C91E2E90EF11CB7
:1042E000423009F029CF0E942C19F82EA1E28A024F
:1042F000F0011124E952FB4F828580933405F0933D
:104300002405E0932305FF2091F0258D368D232B86
:1043100051F0218D328D2A3F310528F420173107C5
:10432000F0F489011CC00B3F1105C8F013C0043024
:104330001105A8F09801235031092A3F310538F4BE
:1043400089012230310558F402E010E008C00D3F29
:10435000110519F00AEF10E002C007EF10E080939A
:104360002505F0933305E09332050093D2030E94B4
:104370003124282F30E02F5F3F4F2017310740F0C6
:104380000E943124082F10E00E5F1F4F0093D203CC
:10439000F11010922605802F0E94CE236CED75E05F
:1043A00089819A810E9438230E9467270F900F907D
:1043B0000F900F900F90DF91CF911F910F91FF9071
:1043C000EF90DF90CF90BF90AF909F908F907F90B5
:1043D0006F905F904F903F902F900C947227409178
:1043E0004505141694F054E0450290011124F9019A
:1043F000EA5BFA4F6083F901E85BFA4F91838083AF
:104400004F5F4093450581E008958FEF08950F9326
:104410001F93CF93DF93062F40914505552747FD06
:10442000509510E0E82FF0E030C0E901CC0FDD1F1F
:10443000CC0FDD1FDE01AA5BBA4F8C91992787FD57
:1044400090958E179F0701F5F901E65BFA4F808181
:1044500081110EC081E08083FE01E85BFA4F01907C
:10446000F081E02D20E040E050E0602F80E00995F1
:10447000C85BDA4FE881F98120E040E050E0602F2E
:1044800081E00995812F07C01F5F212F30E024179D
:1044900035075CF28FEFDF91CF911F910F91089557
:1044A000E82FF0E080914505992787FD90958E17BC
:1044B0009F077CF0EE0FFF1FEE0FFF1FE85BFA4F28
:1044C0000190F081E02D20E040E050E060E082E0EB
:1044D000099481E00E946A138FEF0895242FE82F3A
:1044E000F0E080914505992787FD90958E179F07ED
:1044F0006CF0EE0FFF1FEE0FFF1FE85BFA4F01900D
:10450000F081E02DAB0160E086E0099481E00E943B
:104510006A138FEF0895242FE82FF0E0809145056E
:10452000992787FD90958E179F076CF0EE0FFF1F60
:10453000EE0FFF1FE85BFA4F0190F081E02DAB0119
:1045400060E085E0099481E00E946A138FEF08958E
:10455000242FE82FF0E080914505992787FD90955D
:104560008E179F076CF0EE0FFF1FEE0FFF1FE85B2B
:10457000FA4F0190F081E02D40E050E084E0099492
:1045800081E00E946A138FEF0895E82FF0E0809198
:104590004505992787FD90958E179F0774F0EE0FBC
:1045A000FF1FEE0FFF1FE85BFA4F0190F081E02D37
:1045B00020E040E050E083E0099481E00E946A132B
:1045C0008FEF0895000000000000000000000000D0
:1045D000000000000000000000000000019791F7BB
:1045E000089510922101089589E0809321018DE8BA
:1045F0009CE390932901809328010895109225014E
:10460000109224010895CF93DF9300D0CDB7DEB789
:1046100080912401909125019A83898329813A818F
:10462000C9010F900F90DF91CF91089510928100F2
:10463000089581E080938100089583B5816083BDF2
:1046400010928500109284000895CF93DF9300D0DC
:10465000CDB7DEB780918400909185009A838983DD
:1046600029813A81C9010F900F90DF91CF91089570
:10467000CF92DF92EF92FF92CF93DF93EC01CC0FBA
:10468000DD1FC9378FEFD80710F0C0E0D0E06B0115
:10469000E12CF12CCC0EDD1EE11CF11C81E0C816D2
:1046A000D104E806F10440F081E0E81AF1080E9424
:1046B0002523C817D907D8F30E9425238C159D05FB
:1046C000D8F3DF91CF91FF90EF90DF90CF900895D6
:1046D0001092B100E0E7F0E080818D7F80838081DF
:1046E0008E7F808308958093B2000895E0E7F0E024
:1046F00080818360808383E08093B100089583B5D7
:10470000826083BD1092B200109227031092D203F0
:104710000895CF93DF938EEF8093D20390E290932E
:10472000B6008093B30083E087BB92E09093B00023
:104730008093B10093B5926093BD87BB84BD83B570
:10474000826083BD1092800081E08093810010928E
:1047500085001092840083B5826083BD83B581603B
:1047600083BD10922001C4E2D1E01982188283B582
:10477000826083BD83B5816083BD0E947F231982DF
:1047800018820E9476230E94F42210922703DF9160
:10479000CF9108958091B3008F5F089581508093E9
:1047A000B3000895811102C0109271008FEF089537
:1047B000811106C0109295001092940081E0089536
:1047C0008FEF0895811105C02091940030919500DC
:1047D00002C020E030E0C9010895811105C082E0E7
:1047E0008093710081E008958FEF0895811135C0A5
:1047F000CB010197059710F46093D10310929000BC
:1048000088E08093910050939900409398003093F2
:104810002503209324038091D103813021F48091DA
:104820009100816011C0823021F4809191008260FA
:104830000BC0833021F480919100836005C08430E7
:1048400031F48091910084608093910008C085309C
:1048500031F4809191008560F7CF8FEF089581E06A
:1048600008958091B20008951F920F920FB60F9293
:10487000112460E08AE00E940E14FFCF0F920FB661
:104880000F921F922F923F924F925F926F927F9260
:104890008F929F92AF92BF92CF92DF92EF92FF9250
:1048A0000F931F932F933F934F935F936F937F9338
:1048B0008F939F93AF93BF93CF93DF93EF93FF9328
:1048C000A0913205B09133050DB60D920EB60D9242
:1048D0001F92A091CF03B091D0031E90BEBFADBF79
:1048E00008951F920F920FB60F9211240BB60F92DC
:1048F0002F933F934F935F936F937F938F939F93E8
:10490000AF93BF93EF93FF93E0912403F0912503BE
:10491000309711F0099504C060E08AE00E940E14FF
:10492000FF91EF91BF91AF919F918F917F916F9187
:104930005F914F913F912F910F900BBE0F900FBE43
:104940000F901F9018951F920F920FB60F9211247F
:104950000F900FBE0F901F90189504B603FC02C075
:1049600080E001C080E104B602FE06C094B79B7FE0
:1049700094BF04B600FE846004B601FE05C094B77F
:104980009D7F94BF8260089581110CC004B600FE23
:1049900004C094B79E7F94BF01C081E09091B000A5
:1049A000911181E00895811102C0E89A39C08130E7
:1049B00011F4E99A0895823011F4EA9A31C08330F3
:1049C00021F480916B00816029C0843021F48091B2
:1049D0006B00826023C0853021F480916B0084607D
:1049E0001DC0863021F480916B00886017C087302D
:1049F00021F480916B00806111C0883021F4809196
:104A00006B0080620BC0893021F480916B00806460
:104A100005C08A3039F480916B00806880936B0008
:104A200081E008958FEF0895811102C0E89839C0A0
:104A3000813011F4E9980895823011F4E99831C079
:104A4000833021F480916B008E7F29C0843021F463
:104A500080916B008D7F23C0853021F480916B00A5
:104A60008B7F1DC0863021F480916B00877F17C03B
:104A7000873021F480916B008F7E11C0883021F443
:104A800080916B008F7D0BC0893021F480916B0089
:104A90008F7B05C08A3039F480916B008F778093CB
:104AA0006B0081E008958FEF0895811127C0509326
:104AB0004E0540934D05611104C0809169008C7FC3
:104AC0003EC0613049F4809169008D7F8093690018
:104AD00080916900816033C0623049F4809169003F
:104AE000826080936900809169008E7F28C0633066
:104AF00009F027C080916900836021C0813049F5A9
:104B000050934C0540934B05611104C0809169009E
:104B1000837F15C0613049F480916900877F80935D
:104B200069008091690084600AC0623061F48091FC
:104B30006900886080936900809169008B7F809311
:104B4000690081E008956330E1F7809169008C602D
:104B5000F6CF823031F55093500540934F056111E7
:104B600004C0809169008F7CEACF613049F4809164
:104B700069008F7D80936900809169008061DFCF3B
:104B8000623049F48091690080628093690080916D
:104B900069008F7ED4CF6330A1F680916900806375
:104BA000CECF8350883050F480916800816080932C
:104BB00068005093520540935105C3CF8FEF08957D
:104BC0001F920F920FB60F9211240BB60F922F93D4
:104BD0003F934F935F936F937F938F939F93AF9385
:104BE000BF93EF93FF93E0915105F09152053097F9
:104BF00011F0099504C060E08AE00E940E14FF9154
:104C0000EF91BF91AF919F918F917F916F915F9144
:104C10004F913F912F910F900BBE0F900FBE0F90B1
:104C20001F9018951F920F920FB60F9211240BB67A
:104C30000F922F933F934F935F936F937F938F9335
:104C40009F93AF93BF93EF93FF93E0914D05F09146
:104C50004E05309711F0099504C060E08AE00E948B
:104C60000E14FF91EF91BF91AF919F918F917F9122
:104C70006F915F914F913F912F910F900BBE0F90CD
:104C80000FBE0F901F9018951F920F920FB60F92A4
:104C900011240BB60F922F933F934F935F936F9313
:104CA0007F938F939F93AF93BF93EF93FF93E09185
:104CB0004B05F0914C05309711F0099504C060E068
:104CC0008AE00E940E14FF91EF91BF91AF919F91E6
:104CD0008F917F916F915F914F913F912F910F90A5
:104CE0000BBE0F900FBE0F901F9018951F920F9242
:104CF0000FB60F9211240BB60F922F933F934F9341
:104D00005F936F937F938F939F93AF93BF93EF9333
:104D1000FF93E0914F05F0915005309711F0099500
:104D200004C060E08AE00E940E14FF91EF91BF91F1
:104D3000AF919F918F917F916F915F914F913F9133
:104D40002F910F900BBE0F900FBE0F901F901895D4
:104D50000E94C511A89584B7877F84BFE0E6F0E084
:104D600080818861808310820C94C7110E94C511D4
:104D7000A89584B7877F84BFE0E6F0E080818861F2
:104D800080838DE080830C94C71104B603FC02C0BD
:104D900081E008958FEF0895A8950895089583B749
:104DA000817F866083BF83B7816083BF889583B727
:104DB0008E7F83BF089583B7817F83BF83B7816070
:104DC00083BF889583B78E7F83BF0895FC01768368
:104DD00065830895EF92FF920F931F93CF93DF9314
:104DE000EC018B017A014032510518F481E10E94F7
:104DF0001414A70141505109400F511F5A83498390
:104E00001C830B83DF91CF911F910F91FF90EF9047
:104E1000089525E5FA012083FB0132979083FB0179
:104E200031978083FB01349711821082FB01369702
:104E300011821082FB01389711821082FB013A9790
:104E400011821082FB013C9711821082FB013E9778
:104E500011821082FB01709711821082FB01729700
:104E600011821082FB01749711821082FB017697E8
:104E700011821082FB01789711821082FB017A97D0
:104E800011821082FB017C9711821082FB017E97B8
:104E900011821082FB01B09711821082FB01B29740
:104EA00011821082FB01B49711821082CF01089504
:104EB00085E580937E41EEEFF1E4F093D003E0933B
:104EC000CF0385E693E190838093FF41089585E6C3
:104ED00093E19093FE418093FF4108950E948923BE
:104EE0000C94C711A0912305B0912405CD91CDBF9D
:104EF000DD91DEBFFF91EF91DF91CF91BF91AF9137
:104F00009F918F917F916F915F914F913F912F91E1
:104F10001F910F91FF90EF90DF90CF90BF90AF90D7
:104F20009F908F907F906F905F904F903F902F90C9
:104F30001F900F900FBE0F9018950E94990D80E161
:104F400090E00E94031184E392E00E94862B0E946D
:104F5000CC1120E030E0A90160E070E0CB010E94BC
:104F6000CE1D0E94DF020E948C020E946E1280E021
:104F700090E008957F928F929F92AF92BF92CF92CE
:104F8000DF92EF92FF920F931F93CF93DF93CDB7F2
:104F9000DEB72C970FB6F894DEBF0FBECDBF7C01F5
:104FA0006B018A01FC0117821682838181FD03C097
:104FB00013C1850105C088248394912C8C0E9D1EFD
:104FC000F701B380F601B3FC8591B3FE81916F01C7
:104FD000882309F4FDC0853239F4B3FC2591B3FE72
:104FE00021916F01253219F5B70190E00E943D2B08
:104FF0005801DFCF222309F4EBC0622F70E081ED6E
:1050000093E02C870E94DE2A2C85892B49F42332D9
:1050100019F4F0E17F2A04C02C3679F420E8722AD2
:10502000F601B3FC2591B3FE21916F0101C0712CF3
:1050300077FEE0CF222309F4CBC0622F70E081EE2F
:1050400093E02C870E94DE2A2C85892B41F05801A1
:10505000F4E0AF0EB11CB7018FE390E00FC0233630
:1050600029F0233781F0233519F50BC0580122E0D0
:10507000A20EB11CB701F801808191810E943D2BE5
:1050800098CFF1E07F2A580122E0A20EB11CF8016E
:105090000081118104C0B70190E00E943D2BF8010E
:1050A00070FC859170FE81918F018111F4CF81CFC9
:1050B000243611F0293631F5580177FE09C0F4E0A5
:1050C000AF0EB11CF80160817181828193810AC0A9
:1050D000F2E0AF0EB11CF80160817181882777FD85
:1050E0008095982FFFEE7F2297FF09C090958095BD
:1050F000709561957F4F8F4F9F4F20E4722A2AE071
:1051000030E036C0203791F030F42835B1F02F363A
:1051100009F05EC017C0253721F0283709F058C0C4
:1051200007C08FEE78222AE030E00EC0E0E17E2A50
:10513000F4E27F2A20E130E007C024E0722A20E177
:1051400032E002C028E030E0580177FE09C084E078
:10515000A80EB11CF801608171818281938108C021
:10516000F2E0AF0EB11CF8016081718180E090E047
:10517000A4010E94E62B182F181976FE05C0B7016E
:105180008DE290E00E943D2B74FE16C0FE01E10FFF
:10519000F11D8081803381F0B70180E390E00E94AF
:1051A0003D2B72FE09C0272D2072822F90E0B7019F
:1051B000885A9F4F0E943D2B1150F401E10FF11DC1
:1051C000B701808190E00E943D2B1111F5CFF1CE07
:1051D000F7012681378102C02FEF3FEFC9012C96DE
:1051E0000FB6F894DEBF0FBECDBFDF91CF911F91F8
:1051F0000F91FF90EF90DF90CF90BF90AF909F9076
:105200008F907F90089570D088F09F5790F0B92FBD
:105210009927B751A0F0D1F0660F771F881F991F0B
:105220001AF0BA95C9F712C0B13081F077D0B1E069
:10523000089574C0672F782F8827B85F39F0B93F79
:10524000CCF3869577956795B395D9F73EF490950D
:105250008095709561957F4F8F4F9F4F0895E8948B
:1052600009C097FB3EF490958095709561957F4FAE
:105270008F4F9F4F9923A9F0F92F96E9BB2793955C
:10528000F695879577956795B795F111F8CFFAF46C
:10529000BB0F11F460FF1BC06F5F7F4F8F4F9F4F9D
:1052A00016C0882311F096E911C0772321F09EE8FB
:1052B000872F762F05C0662371F096E8862F70E061
:1052C00060E02AF09A95660F771F881FDAF7880F3B
:1052D0009695879597F9089557FD9058440F551F57
:1052E00059F05F3F71F04795880F97FB991F61F068
:1052F0009F3F79F087950895121613061406551FDF
:10530000F2CF4695F1DF08C0161617061806991F4A
:10531000F1CF86957105610508940895E894BB273F
:1053200066277727CB0197F9089511F40EF44DC045
:105330003EC0DADFD0F39923D9F3CEF39F57550B54
:1053400087FF46D00024A0E640EA90018058569599
:10535000979528F4805C660F771F881F20F026172A
:105360003707480730F4621B730B840B202931295F
:105370004A2BA69517940794202531254A2758F7DC
:10538000660F771F881F20F026173707480730F46D
:10539000620B730B840B200D311D411DA09581F70D
:1053A000B901842F9158880F9695879508959F3F4E
:1053B00031F0915020F4879577956795B795880FD0
:1053C000911D9695879597F908959FEF80EC089524
:1053D00091505040660F771F881FD2F708950E94A2
:1053E000D22AA59F900DB49F900DA49F800D911D72
:1053F00011240895B7FF0C94EF290E94EF29821B16
:10540000930B0895DB018F939F930E94EF29BF9127
:10541000AF91A29F800D911DA39F900DB29F900D03
:1054200011240895AA1BBB1B51E107C0AA1FBB1F73
:10543000A617B70710F0A61BB70B881F991F5A9520
:10544000A9F780959095BC01CD010895A1E21A2E8F
:10545000AA1BBB1BFD010DC0AA1FBB1FEE1FFF1F18
:10546000A217B307E407F50720F0A21BB30BE40B68
:10547000F50B661F771F881F991F1A9469F76095AF
:105480007095809590959B01AC01BD01CF01089569
:10549000052E97FB16F4009407D057FD0DD00E94FF
:1054A000262A07FC09D07EF4909580957095619529
:1054B0007F4F8F4F9F4F0895509540953095219580
:1054C0003F4F4F4F5F4F0895689401C0E8948F920B
:1054D0009F92CF93DF930E94722ADF91CF919F908A
:1054E0008F90089588249924F401E401B0E49F93F7
:1054F000AA279A158B049C04ED05FE05CF05D0075D
:10550000A10798F4AD2FDC2FCF2FFE2FE92D982C7B
:10551000892E982F872F762F652F542F432F322FC8
:105520002227B85031F7BF9127C01B2EBF91BB2750
:10553000220F331F441F551F661F771F881F991F97
:10554000881C991CEE1FFF1FCC1FDD1FAA1FBB1F4D
:105550008A149B04EC05FD05CE05DF05A007B10705
:1055600048F08A189B08EC09FD09CE09DF09A00B59
:10557000B10B21601A94E1F62EF49401AF01BE0143
:10558000CD01000C0895EE0FFF1F0590F491E02D62
:1055900009942A0D3B1D4C1D5D1D6E1D7F1D801F36
:1055A000911F0895A29FB001B39FC001A39F01D096
:1055B000B29F700D811D1124911D0895FC0105906D
:1055C000061621F00020D9F7C00108953197CF01C8
:1055D0000895FB01DC0102C001900D924150504042
:1055E000D8F708950F931F93CF93DF93EC018B01AE
:1055F000009731F46115710519F4E0E0F0E037C06F
:105600006EE070E081E090E00E945A2CFC0100976F
:10561000A1F380E883830115110571F013870287D8
:1056200081E883838091530590915405892B21F45F
:10563000F0935405E09353052097C9F0D187C087B4
:105640008381826083838091550590915605892BD3
:1056500071F4F0935605E0935505809157059091AC
:105660005805892B21F4F0935805E0935705CF0195
:10567000DF91CF911F910F9108950F931F93CF93B7
:10568000DF938C01EB018B8181FD03C00FEF1FEFD6
:105690001AC082FF0DC02E813F818C819D81281709
:1056A000390764F4E881F9810193F983E88306C03E
:1056B000E885F985802F0995892B41F78E819F8197
:1056C00001969F838E83C801DF91CF911F910F9127
:1056D0000895CF93DF9300D0CDB7DEB7FE013796A4
:1056E00061917191FA83E983AF01809155059091A1
:1056F00056050E94BA270F900F90DF91CF91089521
:1057000060915505709156050C943D2B0F931F9396
:10571000CF93DF938C01E0915505F091560583817D
:1057200081FF1BC0C0E0D0E005C00995892B11F0B6
:10573000CFEFDFEFF80181918F01609155057091F6
:105740005605DB011896ED91FC9119978111EDCF6B
:105750008AE00995892B09F402C0CFEFDFEFCE0173
:10576000DF91CF911F910F9108950F931F93CF93C6
:10577000DF93CDB7DEB760970FB6F894DEBF0FBEEC
:10578000CDBF0F89188D86E08C831A8309838FEF34
:105790009FE79E838D83AE01455E5F4F588B4F8799
:1057A000698D7A8DCE0101960E94BA27EF81F88526
:1057B000E00FF11F108260960FB6F894DEBF0FBEA7
:1057C000CDBFDF91CF911F910F910895FA01AA27C4
:1057D000283051F1203181F1E8946F936E7F6E5F34
:1057E0007F4F8F4F9F4FAF4FB1E03ED0B4E03CD0E2
:1057F000670F781F891F9A1FA11D680F791F8A1FC5
:10580000911DA11D6A0F711D811D911DA11D20D02B
:1058100009F468943F912AE0269F11243019305DE5
:105820003193DEF6CF010895462F4770405D4193D6
:10583000B3E00FD0C9F7F6CF462F4F70405D4A3323
:1058400018F0495D31FD4052419302D0A9F7EACFEB
:10585000B4E0A6959795879577956795BA95C9F71A
:1058600000976105710508959B01AC010A2E06940D
:105870005795479537952795BA95C9F7620F731FC6
:10588000841F951FA01D0895F999FECF92BD81BD7B
:10589000F89A992780B50895262FF999FECF1FBA57
:1058A00092BD81BD20BD0FB6F894FA9AF99A0FBE49
:1058B000019608950F931F93CF93DF93689F800104
:1058C000699F100D789F100D1124C8010E94782C3B
:1058D000C82FD92F209731F0A80160E070E08C2FFD
:1058E0000E94B12DCE01DF91CF911F910F910895AC
:1058F0000F931F93CF93DF938230910510F482E0D2
:1059000090E0E0915B05F0915C0520E030E0C0E0C4
:10591000D0E023C04081518148175907A8F04817AB
:10592000590761F482819381209719F09B838A83C0
:105930002EC090935C0580935B0529C0211531052D
:1059400029F04217530710F0A90102C0BE01DF0180
:1059500002811381EF019A01F8013097D9F62115E0
:10596000310509F1281B390B2430310590F41296CA
:105970008D919C9113976115710521F0FB01938323
:10598000828304C090935C0580935B05FD01329691
:1059900044C0FD01E20FF31F81939193225031091E
:1059A0002D933C933AC02091590530915A05232BF1
:1059B00041F4209102023091030230935A05209362
:1059C000590520910002309101022115310541F461
:1059D0002DB73EB74091040250910502241B350BB0
:1059E000E0915905F0915A05E217F307A0F42E1B38
:1059F0003F0B2817390778F0AC014E5F5F4F241733
:105A0000350748F04E0F5F1F50935A0540935905D4
:105A10008193919302C0E0E0F0E0CF01DF91CF915C
:105A20001F910F910895EF92FF920F931F93CF93C1
:105A3000DF93009709F48EC0DC01129713961C9235
:105A40001E921297E0905B05F0905C05E114F10462
:105A500089F42D913C911197280F391F8091590598
:105A600090915A058217930789F5B0935A05A09330
:105A7000590570C0E70120E030E001C0EA01CA1713
:105A8000DB0738F44A815B819E0141155105B1F76E
:105A900022C0AC0142505109FA01D383C283008174
:105AA0001181BC01600F711F6C177D0761F4688163
:105AB0007981600F711F6E5F7F4F718360836A8190
:105AC0007B81738362832115310529F4B0935C05D2
:105AD000A0935B053FC0F901B383A283E90149911B
