:100000000C9454020C941F270C9451270C948327B2
:100010000C9473020C9473020C9473020C9473028C
:100020000C9473020C94ED260C9473020C947302DE
:100030000C9473020C944B250C9473020C944B2576
:100040000C9473020C9473020C9473020C9473025C
:100050000C9473020C9473020C9473020C9473024C
:100060000C9473020C9473020C9473020C9473023C
:100070000C9473020C9473020C9473020C9473022C
:100080000C947E250C9473020C9473020C947302EE
:100090000C9473020C9473020C9473020C9473020C
:1000A0000C9473020C9473020C9473020C947302FC
:1000B0000C9473020C9473020C9473020C947302EC
:1000C0000C9473020C9473020C9473020C947302DC
:1000D0000C9473020C9473020C9473020C947302CC
:1000E0000C9473020C9484080C9475080C944508C5
:1000F0000C9444090C9436080C9427080C941508A9
:100100000C9406080C9473020C9473020C94730202
:100110000C9473020C9473020C9473020C9473028B
:10012000211427142A142D143014331439143614BE
:100130003C143F1442144B144E14511454144814DC
:100140001E14241457145A1445141B144E616E6F58
:100150002D524B2056657273696F6E2000205461DA
:10016000736B2049443A20000D0A202020546F74FC
:10017000616C2053797374656D20557074696D6579
:100180003A20000D0A20202049646C6520546173D8
:100190006B204465657020536C6565702054696DF3
:1001A000653A20000D0A202020546F74616C2043B2
:1001B00050553A20000D0A20202054696D65205BBF
:1001C0004D696E2C4C6173742C4D61785D3A200042
:1001D0000D0A202020537761702D696E733A20003C
:1001E0000D0A202020507265656D7074696F6E7302
:1001F0003A20000D0A2020204B65726E656C205657
:10020000696F6C6174696F6E733A20000D0A20206B
:10021000204F766572666C6F77204572726F722020
:100220005374617475733A20000D0A000D0A4E6113
:100230006E6F2D524B205461736B2053746174693F
:1002400073746963733A0D0A002A4E524B2045526B
:10025000524F522800293A20005461736B20706578
:1002600072696F6420746F6F206C617267652E20F5
:10027000506572696F64206D757374206265206CBF
:10028000657373207468616E203631207365636F07
:100290006E64732E00537461636B20776173206EFC
:1002A0006F7420646566696E6564206173206C619B
:1002B00072676520656E6F75676821005461736BA6
:1002C00020537461636B204F766572666C6F7700A4
:1002D000496E76616C696420537461636B20506F62
:1002E000696E746572005265736572766520457239
:1002F000726F7220696E205363686564756C6572F5
:10030000005461736B20526573657276652056697F
:100310006F6C61746564005363686564756C6572C5
:10032000204D69737365642057616B657570004477
:1003300075706C696361746564205461736B2049E6
:100340004400556E6578706563746564205265730A
:10035000746172740049646C65206F72204B657221
:100360006E656C20537461636B204F766572666CAA
:100370006F77004578747261205461736B207374D9
:1003800061727465642C206973206E726B5F6366A2
:10039000672E68206F6B3F004C6F7720566F6C7430
:1003A00061676500556E68616E646C656420496EB6
:1003B0007465727275707420566563746F72005440
:1003C000696D6572204F766572666C6F7700535762
:1003D000205761746368646F67205265737461723B
:1003E00074005761746368646F6720526573746149
:1003F000727400446576696365204472697665723B
:10040000204572726F72004B65726E656C20667566
:100410006E6374696F6E206E6F7420696D706C65A9
:100420006D656E746564004661696C656420746F07
:1004300020637265617465205369676E616C004664
:1004400061696C656420746F2063726561746520F6
:1004500053656D6170686F72650042726F776E20D0
:100460004F757420446574656374004578746572D3
:100470006E616C20526573657400554E4B4F574E3C
:10048000000D0A535441434B2044554D500D0A0072
:10049000202B2D2E30313233343536373839680041
:1004A000454647656667000011241FBECFEFD1E4C3
:1004B000DEBFCDBF13E0A0E0B2E0E2E8FBE500E084
:1004C0000BBF02C007900D92A637B107D9F718E00D
:1004D000A6E7B3E001C01D92AF38B107E1F70E9473
:1004E000AA280C94BF2D0C9441250E94A91C1F9290
:1004F0008F9380E292E09F938F930E94702B0F90D6
:100500000F900F900F9014E0C2E6D2E080E090E0F0
:100510000E94BC0C1F921F93DF93CF930E94702BFD
:100520000E94161C0F900F900F900F90EFCF0E941B
:10053000A91C1F928F938FE292E09F938F930E944A
:10054000702B0F900F900F900F9013E0C2E6D2E047
:1005500081E090E00E94BC0C1F921F93DF93CF9329
:100560000E94702B0E94161C0F900F900F900F90FE
:10057000EFCF0E94A91C1F928F938EE392E09F936E
:100580008F930E94702B0F900F900F900F9012E09E
:10059000C2E6D2E083E090E00E94BC0C1F921F9361
:1005A000DF93CF930E94702B0E94161C0F900F9028
:1005B0000F900F90EFCFCF93DF93CDB7DEB7289793
:1005C0000FB6F894DEBF0FBECDBF8CE491E00E9461
:1005D000B2091F9285E68F9380E892E09F938F93F4
:1005E0000E94702B1F921F928DE492E09F938F9335
:1005F0000E94702B0E94A91C1F928F9387E692E0A5
:100600009F938F930E94702B85E090E0A0E0B0E074
:1006100089839A83AB83BC831D821E821F821886C6
:1006200040E050E0BE016F5F7F4F80E090E00E94AD
:10063000202380E090E00E949A23F090170260E06F
:100640008F2D0E94C80B0FB6F894DEBF0FBECDBF32
:10065000EE24E39402E612E080E090E00E9443235F
:1006600082E090E00E94BC0C8F2D0E94B10A1F9284
:10067000EF921F930F930E94702B0E94161C0F90F5
:100680000F900F900F90E8CF8F929F92AF92BF92F2
:10069000CF92DF92EF92FF92CF936BED72E082E206
:1006A00094E00E94F32740E850E064EF74E082E2B7
:1006B00094E00E94F727C1E0C0932A04C093290464
:1006C000C0932B04C0932C0410922D0410922E047E
:1006D00010922F041092300480E892EBA6EEBEE058
:1006E0008093310490933204A0933304B093340484
:1006F000812C912C5401839480923504909236047D
:10070000A0923704B0923804C12C91EED92E95EF07
:10071000E92E95E0F92EC0923904D0923A04E09285
:100720003B04F0923C0410923D0410923E0410925F
:100730003F0410924004109241041092420410921F
:1007400043041092440482E294E00E947E1A69EB12
:1007500072E08FE097E00E94F32740E850E06DE4FC
:1007600074E08FE097E00E94F72782E080931707FC
:10077000C0931607C0931807C093190710921A0761
:1007800010921B0710921C0710921D0780E095E63F
:10079000ADECBDE180931E0790931F07A093200747
:1007A000B09321071092220710922307109224077A
:1007B00010922507C0922607D0922707E0922807BB
:1007C000F092290710922A0710922B0710922C07FB
:1007D00010922D0710922E0710922F0710923007BB
:1007E000109231078FE097E00E947E1A67E972E06D
:1007F00081ED94E00E94F32740E850E060EA73E066
:1008000081ED94E00E94F72783E08093D904C093A0
:10081000D804C093DA04C093DB048092DC04909285
:10082000DD04A092DE04B092DF041092E004109286
:10083000E1041092E2041092E3041092E404109296
:10084000E5041092E6041092E704C092E804D09206
:10085000E904E092EA04F092EB041092EC041092A6
:10086000ED041092EE041092EF041092F004109236
:10087000F1041092F2041092F30481ED94E00E94CE
:100880007E1A65E772E08BE793E00E94F32740E869
:1008900050E06FE876E08BE793E00E94F72784E072
:1008A00080938303C0938203C0938403C093850322
:1008B00082E090E0A0E0B0E080938603909387030D
:1008C000A0938803B093890310928A0310928B033C
:1008D00010928C0310928D0310928E0310928F034E
:1008E0001092900310929103C0929203D0929303BE
:1008F000E0929403F092950310929603109297035E
:10090000109298031092990310929A0310929B03ED
:1009100010929C0310929D038BE793E0CF91FF9080
:10092000EF90DF90CF90BF90AF909F908F900C94FE
:100930007E1ABF92CF92DF92EF92FF920F931F9396
:10094000CF93DF93CDB7DEB72A970FB6F894DEBF0B
:100950000FBECDBFB82E8E010F5F1F4FF80190E084
:1009600091939F5F9A30E1F76E018BE0C80ED11C26
:1009700029E3E22E23E0F22EF80181918F011F92EC
:100980008F93FF92EF920E94702B0F900F900F9019
:100990000F900C151D0581F71F92BF9226E732E0DC
:1009A0003F932F930E94702B0F900F900F900F90FA
:1009B000F1E0FB1520F48B2D81500E94990480E01A
:1009C0002A960FB6F894DEBF0FBECDBFDF91CF9150
:1009D0001F910F91FF90EF90DF90CF90BF900895FF
:1009E000909141019F719F31D9F380934201089505
:1009F00081E0809338070895109238070895809118
:100A000041018F718F31D9F3809141018F71E1F0F4
:100A10008F30D1F0809141018F71883031F4809115
:100A2000390182608093390109C088E00E94F00496
:100A3000809141018F718830D9F7F1CF80914101C8
:100A40008F7111F08F30D1F70895809141018F712E
:100A50008F31D9F3809141018F7111F08F3051F4B2
:100A6000809139018D7F80933901809141018F718F
:100A70008830D9F70895E5E4F1E09081907F908384
:100A800090818F70892B80830895E7E5F1E0808164
:100A90008D7F80830895E7E5F1E080818260808327
:100AA0000895EEE6F1E080818F7E80830895EEE682
:100AB000F1E080818061808308958093600190934C
:100AC00061019093420780934107089590933C07FA
:100AD00080933B07E8E4F1E08081807E8083808121
:100AE000682B608308959093790380937803089529
:100AF000909377038093760308951F93CF93DF93AA
:100B000070E27093440170EC7093450160626093F1
:100B1000480165EC6093490167EA60934B0160E826
:100B200060934C0120936001309361014093620116
:100B300050936301E6E4F1E0C081A08160811081FF
:100B4000C295C695C77070E4C79FE0011124129545
:100B5000169513701C2BA295A695A37070E1A79F04
:100B6000D00111241A2B629566956370A4E06A9FE8
:100B7000B0011124162B10936D016081E081629504
:100B80006695637070E0660F771F6064E295E69586
:100B9000E370E62BE0936E0110926C016FEF6093AF
:100BA0004E0190933C0780933B0710923D071092B3
:100BB0003E075093400740933F07309342072093EE
:100BC00041071092430781E080934D0710925C0724
:100BD00010924C0710923807DF91CF911F91089522
:100BE00086E10C94F00486E10C94F00488E00E9405
:100BF000F00410925C0708953F924F925F926F92BB
:100C00007F928F929F92AF92BF92CF92DF92EF929C
:100C1000FF920F931F93CF93DF93EC013B018091E1
:100C20004D07811102C0CFEF1CC19E8180913D070D
:100C30008F5F80933D0780918101807E816090FB72
:100C400085F98F7380648093810188E880938201A5
:100C500080913807882361F08FEF809383018AEABF
:100C60009AEA90938901809388018FEF9FEF11C0DA
:100C700080913D0780938301309161012091600153
:100C8000932F80E0822B9093890180938801888143
:100C9000998190938701809386013091630120911F
:100CA0006201932F80E0822B9093850180938401D1
:100CB0004A81842F992787FD90956B817C81592FDC
:100CC0008AE891E00E94F02A8A81855F8093800102
:100CD000309041018FE13822832D81508230C0F362
:100CE00081E13816A9F382E1381691F38FE13816C5
:100CF00079F388E0381649F086E0381631F086E15D
:100D0000381619F089E038128ECF86E10E94F0047F
:100D10008D81811107C089E00E94F0048E818823B3
:100D200091F00EC0809148018068809348018091C5
:100D3000410187FFFCCF8091410186FF74CFEBCF4B
:100D400089E10E94F0046114710499F184E497E050
:100D50000E94AF1C8091440790914507A0914607DF
:100D6000B091470780934E0790934F07A093500789
:100D7000B0935107D30120E432E44FE050E00E94E9
:100D80001A2A009148071091490720914A0730918B
:100D90004B07600F711F821F931F60935207709360
:100DA000530780935407909355078EE497E00E9471
:100DB000A01D10924C0782E00E94F004412C512C9F
:100DC00008C08FEF481A580A88EE48168DEF58066B
:100DD00021F080914C078823A1F36114710421F460
:100DE0008E8181112DC034C084E497E00E94AF1C35
:100DF0008090440790904507A0904607B090470721
:100E0000C0904807D0904907E0904A07F0904B0700
:100E100000914E0710914F072091500730915107D4
:100E200040915207509153076091540770915507B4
:100E30008DE597E00E940B1D8F3F09F0BACFD0CF10
:100E40008091420182958695877011F0CFEF06C0A0
:100E500088EE48168DEF5806C9F3C1E0832D0E9435
:100E6000F0048C2FDF91CF911F910F91FF90EF90A5
:100E7000DF90CF90BF90AF909F908F907F906F90BA
:100E80005F904F903F90089560E070E00C94FC05F7
:100E9000CF93DF9380914D07882341F1C0914101A9
:100EA000CF718C2F81508230C8F3C131B9F3C23178
:100EB000A9F3CF3199F3C83021F0C63011F0C63113
:100EC000A9F486E10E94F004809148018068809333
:100ED00048018091410187FFFCCFD09141018C2FC7
:100EE0000E94F004D6FB882780F901C08FEFDF91C4
:100EF000CF91089580914D07882309F485C0809192
:100F00005C07882309F47EC080917B01E0913B0758
:100F1000F0913C0790E002972481332727FD30951C
:100F2000281739070CF470C0E0913B07F0913C079B
:100F3000809182018083E0913B07F0913C07809192
:100F400087019091880192838183E0913B07F09122
:100F50003C0780917B018B508383A0913B07B0912C
:100F60003C07E0913B07F0913C0713969C918481EC
:100F700089173CF0E0913B07F0913C07838187FFA4
:100F80000DC010925C0780914C018F7780934C01CB
:100F900080914C01806880934C0136C0A0913B0742
:100FA000B0913C07E0913B07F0913C0713964C91C0
:100FB000842F992787FD9095592F69E871E08581E5
:100FC00096810E94F02AE0913B07F0913C078091C6
:100FD000800185FB882780F98783E0913B07F091AA
:100FE0003C0780914701808710925C0780914C01FB
:100FF0008F7780934C0180914C01806880934C01E5
:1010000081E0089580E008958FEF08951F920F9278
:101010000FB60F9211248F9380E880934F018F9128
:101020000F900FBE0F901F9018951F920F920FB642
:101030000F9211248F9381E080934C0780E480937A
:101040004F018F910F900FBE0F901F9018951F9218
:101050000F920FB60F9211248F9380E280934F016D
:101060008F910F900FBE0F901F9018951F920F92A7
:101070000FB60F9211248F9380E180934F018F91CF
:101080000F900FBE0F901F9018951F920F920FB6E2
:101090000F9211240BB60F922F933F934F935F93B0
:1010A0006F937F938F939F93AF93BF93EF93FF9330
:1010B00084E080934F01E0917803F09179033097B9
:1010C00009F00995FF91EF91BF91AF919F918F9199
:1010D0007F916F915F914F913F912F910F900BBE38
:1010E0000F900FBE0F901F9018951F920F920FB682
:1010F0000F9211248F9382E080934F018F910F9074
:101100000FBE0F901F9018951F920F920FB60F925F
:1011100011248F9381E080934F018F910F900FBE28
:101120000F901F901895E9E4F1E09081907F9083F3
:1011300090818F70892B808308958FEF0895089593
:10114000089508958FEF089580913607909137079D
:10115000089580E00895089581E0089581E008955C
:1011600081E00895089508950895089508950895D3
:1011700008950895E7E3F1E0808183608083989A81
:10118000A09A8DB1806E8DB98EB1806E8EB90895A2
:10119000E7E3F1E0808183608083989AA0988DB125
:1011A000806E8DB98EB1806E8EB90895CF92DF9228
:1011B000EF92FF920F931F93CF93DF93CDB7DEB7DC
:1011C00027970FB6F894DEBF0FBECDBF0E94FE0D6D
:1011D000E0913B07F0913C07C080D38005811681E8
:1011E000E0840E947A0718161CF085E892E006C099
:1011F000F801F080F11007C084EA92E00E948D2B84
:101200000E94000E32C0F5E0FF1204C08AE090E0B8
:101210000E94872BC80101969F938F938E2D99274B
:1012200087FD90959F93EF921F92FF921F92CF920E
:1012300086EC92E09F938F930E94702B1D830C830A
:10124000FA94F801F082DB821E821F828FEF9FEFFB
:101250009A8389830E94000ECE0101960E94440762
:101260000FB6F894DEBF0FBECDBF27960FB6F89429
:10127000DEBF0FBECDBFDF91CF911F910F91FF90C9
:10128000EF90DF90CF9008951F920F920FB60F92BC
:1012900011240BB60F922F933F934F935F936F934D
:1012A0007F938F939F93AF93BF93EF93FF9380E0D0
:1012B00001C08F5F90917B018917D8F3809146011F
:1012C00087FF04C081E080935C0704C08FEE92E04A
:1012D0000E948D2B88E080934F018091460187FF0B
:1012E00005C08091380781110E94D608FF91EF91C7
:1012F000BF91AF919F918F917F916F915F914F912E
:101300003F912F910F900BBE0F900FBE0F901F902B
:1013100018958091C00087FFFCCF8091C0008F7727
:101320008093C0008091C60008959091C00095FF01
:10133000FCCF9091C0009F7D9093C0008093C60029
:1013400008958FEF0895813031F48091C80087FDB2
:1013500007C080E008958111FCCF8091C000F7CFD5
:1013600081E00895CF93DF93EC0107C06091870877
:101370007091880890E00E94442BFE012196849190
:101380008111F4CFDF91CF91089586E084B985B9BA
:1013900088EF8AB980EF8BB982E08EB980E681B997
:1013A000169A08950C94C5098F3F09F466C0982FCA
:1013B0009770923051F130F4992359F0913009F03F
:1013C0005CC015C09430E9F170F1953009F055C05A
:1013D00046C092B186958695869521E030E0082E2C
:1013E00001C0220F0A94EAF7922B92B944C095B13A
:1013F00086958695869521E030E0082E01C0220F63
:101400000A94EAF7922B95B936C098B186958695DD
:10141000869521E030E0082E01C0220F0A94EAF7F9
:10142000922B98B928C09BB186958695869521E028
:1014300030E0082E01C0220F0A94EAF7922B9BB9E4
:101440001AC09EB186958695869521E030E0082EDB
:1014500001C0220F0A94EAF7922B9EB90CC091B3F7
:1014600086958695869521E030E001C0220F8A9509
:10147000EAF7922B91BB81E008958FEF08958F3F9B
:1014800009F46DC0982F9770923069F130F4992368
:1014900061F0913009F063C017C0943009F441C085
:1014A00088F1953009F05BC04BC092B18695869566
:1014B000869521E030E0082E01C0220F0A94EAF759
:1014C0002095292322B949C095B1869586958695A0
:1014D00021E030E0082E01C0220F0A94EAF720959F
:1014E000292325B93AC098B186958695869521E03D
:1014F00030E0082E01C0220F0A94EAF72095292334
:1015000028B92BC09BB186958695869521E030E061
:10151000082E01C0220F0A94EAF7209529232BB93F
:101520001CC09EB186958695869521E030E0082EF8
:1015300001C0220F0A94EAF7209529232EB90DC085
:1015400091B386958695869521E030E001C0220F03
:101550008A95EAF72095292321BB81E008958FEF32
:1015600008958F3F39F1982F9770923081F028F4C9
:10157000992349F09130F1F408C0943061F048F0BB
:101580009530C1F40AC020B109C023B107C026B10B
:1015900005C029B103C02CB101C02FB130E0869540
:1015A0008695869502C0359527958A95E2F7822F14
:1015B000817008958FEF08958F3F09F4E7C0982F49
:1015C0009770923009F456C030F4992369F0913045
:1015D00009F0DCC02CC0943009F492C008F46DC04E
:1015E000953009F0D3C0AFC020B186958695869519
:1015F00030E0082E02C0359527950A94E2F792B1A3
:1016000020FD0AC021E030E0082E01C0220F0A941C
:10161000EAF7922B92B921C021E030E0082E01C0F8
:10162000220F0A94EAF72095292322B916C023B184
:1016300086958695869530E0082E02C035952795CB
:101640000A94E2F795B120FD0AC021E030E001C024
:10165000220F8A95EAF7922B95B981E0089521E04F
:1016600030E0082E01C0220F0A94EAF720952923C2
:1016700025B9F3CF26B186958695869530E0082E5C
:1016800002C0359527950A94E2F798B120FD0AC06B
:1016900021E030E0082E01C0220F0A94EAF7922BD5
:1016A00098B9DBCF21E030E0082E01C0220F0A9468
:1016B000EAF72095292328B9D0CF29B186958695B8
:1016C000869530E0082E02C0359527950A94E2F7FA
:1016D0009BB120FD0AC021E030E0082E01C0220F9E
:1016E0000A94EAF7922B9BB9B8CF21E030E0082E9C
:1016F00001C0220F0A94EAF7209529232BB9ADCF18
:101700002CB186958695869530E0082E02C03595D9
:1017100027950A94E2F79EB120FD0AC021E030E04F
:10172000082E01C0220F0A94EAF7922B9EB995CF9A
:1017300021E030E0082E01C0220F0A94EAF720953C
:1017400029232EB98ACF2FB186958695869530E0CC
:10175000082E02C0359527950A94E2F791B320FD33
:101760000AC021E030E0082E01C0220F0A94EAF7F7
:10177000922B91BB72CF21E030E0082E01C0220FE6
:101780000A94EAF72095292321BB67CF8FEF0895AC
:101790008F3F09F4E5C0982F977061117DC092309A
:1017A00099F130F4992361F0913009F0D9C01AC051
:1017B000943009F44DC0D0F1953009F0D1C05AC031
:1017C00091B186958695869521E030E001C0220F83
:1017D0008A95EAF7822F8095892381B982B1822B7D
:1017E00082B9BCC094B186958695869521E030E09B
:1017F00001C0220F8A95EAF7822F8095892384B948
:1018000085B1822B85B9AAC097B1869586958695B4
:1018100021E030E001C0220F8A95EAF7822F8095FF
:10182000892387B988B1822B88B998C09AB18695E7
:101830008695869521E030E001C0220F8A95EAF76F
:10184000822F809589238AB98BB1822B8BB986C070
:101850009DB186958695869521E030E001C0220FE6
:101860008A95EAF7822F809589238DB98EB1822BD4
:101870008EB974C090B386958695869521E030E048
:1018800001C0220F8A95EAF7822F8095892380BBB9
:1018900081B3822B81BB62C0923051F130F4992325
:1018A00059F0913009F05CC015C09430E9F170F145
:1018B000953009F055C046C091B1869586958695BC
:1018C00021E030E0082E01C0220F0A94EAF7922BA3
:1018D00091B944C094B186958695869521E030E013
:1018E000082E01C0220F0A94EAF7922B94B936C051
:1018F00097B186958695869521E030E0082E01C047
:10190000220F0A94EAF7922B97B928C09AB18695CC
:101910008695869521E030E0082E01C0220F0A94BA
:10192000EAF7922B9AB91AC09DB18695869586954D
:1019300021E030E0082E01C0220F0A94EAF7922B32
:101940009DB90CC090B386958695869521E030E0D0
:1019500001C0220F8A95EAF7922B90BB81E008958F
:101960008FEF0895811106C080B18695817091E056
:10197000892708958FEF0895009711F483E20DC031
:101980008130910511F48BE208C08230910511F489
:1019900083E303C0039729F48BE30E94DC0A81E010
:1019A00008958FEF0895009711F483E20DC0813000
:1019B000910511F48BE208C08230910511F483E3A4
:1019C00003C0039729F48BE30E94D40981E00895B2
:1019D0008FEF0895009711F483E20DC081309105D7
:1019E00011F48BE208C08230910511F483E303C047
:1019F000039729F48BE30E943F0A81E008958FEF5B
:101A00000895882319F085B78F7E02C085B780615D
:101A100085BF81E008959091C80095FFFCCF809329
:101A2000CE0008959093C5008093C40086E0809313
:101A3000C200E1ECF0E080818B7F8083A0ECB0E01D
:101A40008C9182608C9380818861808308959093CB
:101A5000CD008093CC0086E08093CA00E9ECF0E0F2
:101A600080818B7F8083A8ECB0E08C9182608C9326
:101A700080818861808308950E94120D69E879E071
:101A800085E999E00E94F92A909388088093870855
:101A900069E879E085E999E00E94F92A909386083F
:101AA0008093850808958091C80087FFFCCF8091BE
:101AB000C8008F778093C8008091CE000895000001
:101AC0000000000000000197D1F708950C944B2C02
:101AD0000E94532C0895EF92FF920F931F93CF9380
:101AE000DF93EC0180E090E00E944B2CF82E8B837A
:101AF00081E090E00E944B2CE82E8A8382E090E007
:101B00000E944B2C082F898383E090E00E944B2C8D
:101B1000182F888384E090E00E944B2C9E2D9F0D0F
:101B2000900F910F891302C081E001C08FEFDF9108
:101B3000CF911F910F91FF90EF900895CF93DF9376
:101B4000EC0185E090E00E944B2C888381E0DF91DE
:101B5000CF910895FC01608186E090E00E94532CB3
:101B600081E00895CF93DF93EC0186E090E00E943E
:101B70004B2C888381E0DF91CF9108950F931F93C1
:101B8000CF93DF93EC0108E010E0C8010E944B2CDA
:101B900089930F5F1F4F08311105B9F781E0DF917D
:101BA000CF911F910F9108950F931F93CF93DF93C0
:101BB000EC0108E010E06991C8010E94532C0F5F0E
:101BC0001F4F08311105B9F781E0DF91CF911F91C7
:101BD0000F910895CF93DF93EC0187E090E00E948E
:101BE0004B2C888381E0DF91CF910895FC016081C7
:101BF00087E090E00E94532C81E00895F8940895C6
:101C0000789408950E94FE0DFFCFCF93DF93CDB758
:101C1000DEB7A3970FB6F894DEBF0FBECDBF0E940C
:101C20007316809312088F3F21F460E08EE00E94CB
:101C300082140E94BA2580FF04C060E086E00E9402
:101C400082140E94D2278F3F31F40E94B52760E0B2
:101C500080E10E9482140E94C327109215081092FE
:101C60002308109222081092140810921308109260
:101C700024080E94CB0F109221088FEF80930E084A
:101C80008093100880930F0893E6909371078093D8
:101C90006F0790939207809390079093B307809378
:101CA000B1079093D4078093D2079093F507809360
:101CB000F307E1E6F8E080E090E065E0AC01019632
:101CC000689F9001699F300D1124225A374F31834C
:101CD0002083649F9001659F300D1124225A374F55
:101CE0003483238335968530910541F7109260083F
:101CF00010925F0810927B0810927A0810921808D0
:101D0000109217088EE598E0909366078093650718
:101D10006CEC7FE1CE0101960E94F32740E850E091
:101D20006FE076E0CE0101960E94F72785E580936B
:101D30000F0619861C861D861E861F86188A198A1C
:101D40001A8A1B8A1C8A1D8A1E8A1F8A188E198E5F
:101D50001A8E1B8E1C8E1D8E1E8E1F8E18A219A20F
:101D60001AA21BA281E0888792E09A878B87CE0116
:101D700001960E947E1AA3960FB6F894DEBF0FBE9E
:101D8000CDBFDF91CF910895CFE6D7E0F12CD88079
:101D90008FEFD81206C0F394A19695E0F912F7CF11
:101DA00014C00FE617E0E12CFE1441F0F801808129
:101DB000D81204C06D2D85E00E948214E3940F5D5B
:101DC0001F4FF5E0EF12F0CFE6CF0E947B1991E2B2
:101DD0008902F0011124E959F84F82858093240883
:101DE000F0932308E0932208F0931408E09313087B
:101DF000809315080E947B280E9465280E947F28F6
:101E0000FFCFAF92BF92CF92DF92EF92FF920F93EC
:101E10001F93CF93DF931F92CDB7DEB75C016B01A9
:101E20007A01DC0119968C911997823021F080910A
:101E300011088C9302C0F501108280911108853041
:101E400020F060E087E00E948214D50119968C9101
:101E5000823029F0809111088F5F80931108809162
:101E60001108811103C081E080931108F5013081D0
:101E700021E23203F0011124E959F84FD182C082E6
:101E8000D50118968C91189782873C913203F00106
:101E90001124E959F84F83E081873C913203F00126
:101EA0001124E959F84F30870C9102038001112465
:101EB0000959184FF8011582C5010B960E942E1E74
:101EC000D8015C969C938E935B97F50103851485EE
:101ED000258536850E3311052105310520F06081F9
:101EE00086E10E948214D5010C91112707FD1095FF
:101EF000C5014B960E942E1E41E2409FD001419F9A
:101F0000B00D1124A959B84F56969C938E935597AE
:101F1000F50100810403800111240959184FD801EB
:101F200055968D919C9156975B962D913C915C971F
:101F3000820F931F58969C938E935797C501439693
:101F400049830E942E1EF801968F858FD5012C9112
:101F500049812403F0011124E959F84F858D968DAC
:101F6000928F818F81E090E090A3878FF382E2824D
:101F700081E084870F90DF91CF911F910F91FF90A7
:101F8000EF90DF90CF90BF90AF9008950C94F01F2A
:101F900085E690E00895CF93DF9310924504109268
:101FA000460410924704109248041092490410927B
:101FB0004A0410924B0410924C04E8E7F5E0A5E9BE
:101FC000B5E0108211821282138210861186128669
:101FD0001386148215821682178214861586168639
:101FE0001786108A118A128A138A108E118E128E09
:101FF000138EED01219718821C927E965E9686E0E4
:10200000EE30F807F1F6DF91CF9108950F931F930B
:10201000E9E4F4E0A82FB0E023EB36EE4EE050E028
:102020000E941A2A0081118122813381600F711F61
:10203000821F931F608371838283938385E494E07E
:102040001F910F910C94A01D40914504509146049E
:102050006091470470914804FC014083518362837E
:1020600073834091490450914A0460914B047091EC
:102070004C04448355836683778308959EE1899F4A
:10208000F0011124E858FA4F858D813039F0848DA4
:102090008F5F848F8F3F11F481E0858F08959EE1DB
:1020A000899FF0011124E858FA4F858D8130B9F0ED
:1020B000148A158A168A178A408951896289738918
:1020C0004F5F5F4F6F4F7F4F408B518B628B738B96
:1020D0004E3F5F4F6F4F7F4F11F481E0858F089522
:1020E0000F931F93962F2EE1829FF0011124E85841
:1020F000FA4F858D813079F1408D518D628D738DD0
:102100004F5F5F4F6F4F7F4F408F518F628F738F45
:10211000892F90E0A0E0B0E00489158926893789ED
:10212000080F191F2A1F3B1F048B158B268B378B1B
:102130000081118122813381080F191F2A1F3B1F43
:1021400000831183228333834E3F5F4F6F4F7F4F56
:1021500011F481E0858F1F910F910895CF92DF9246
:10216000EF92FF920F931F93CF93DF93E82FF0E04E
:102170009EE1899FD0011124A858BA4F5D968C9199
:102180005D97813009F45AC0C62ED12CE12CF12C78
:1021900054964D915D916D917C9157974C0D5D1DBD
:1021A0006E1D7F1D1C964D935D936D937C931F97C1
:1021B0000D911D912D913C9113970C0D1D1D2E1D00
:1021C0003F1D0D931D932D933C93139714968D9162
:1021D0009D910D90BC91A02D0097A105B10529F00E
:1021E000481759076A077B0780F48EE18E9FE0014C
:1021F0008F9FD00D1124C858DA4F8C859D85AE85F0
:10220000BF858C839D83AE83BF838EE18E9FE0016B
:102210008F9FD00D1124C858DA4F8C859D85AE85CF
:10222000BF85488559856A857B85481759076A07A0
:102230007B0720F488879987AA87BB87DF91CF9196
:102240001F910F91FF90EF90DF90CF9008958F92A4
:102250009F92AF92BF92CF92DF92EF92FF920F9335
:102260001F93CF93DF93CDB7DEB760970FB6F89487
:10227000DEBF0FBECDBF182F8DE591E00E94B209E1
:10228000A12EB12C1F921F9328E033E03F932F9390
:102290000E94702B0F900F900F900F90111152C051
:1022A00088E691E00E94B209CE0101960E94AF1C1F
:1022B0006D817E818F819885E0E4CE2EE2E4DE2E72
:1022C000EFE0EE2EF12CA70196010E94492A5F93C0
:1022D0004F933F932F938C818F938B818F938A8120
:1022E0008F9389818F930BE013E01F930F930E94CC
:1022F000702B83E891E00E94B209609149047091CB
:102300004A0480914B0490914C04A70196010E94CD
:10231000492A5F934F933F932F93809148048F9363
:10232000809147048F93809146048F938091450458
:102330008F931F930F930E94702B0FB6F894DEBFFC
:102340000FBECDBF84EA91E00E94B2098EE18A9D62
:1023500080018B9D100D112408581A4FF8016081DF
:102360007181828193810E94E61E29873A874B877B
:102370005C876D877E878F87988B88E0FE01399612
:10238000DE01119601900D928A95E1F76D817E81B3
:102390008F81988520E4C22E22E4D22E2FE0E22EF7
:1023A000F12CA70196010E94492A5F934F933F9316
:1023B0002F938C818F938B818F938A818F938981C7
:1023C0008F933BE0A32E33E0B32EBF92AF920E94D7
:1023D000702B85EB91E00E94B209F8016481758150
:1023E000868197810E94E61E29873A874B875C8702
:1023F0006D877E878F87988B88E0FE013996DE0196
:10240000119601900D928A95E1F76D817E818F8101
:102410009885A70196010E94492A5F934F933F93A5
:102420002F938C818F938B818F938A818F93898156
:102430008F934BE1842E43E0942E9F928F920E94C3
:10244000702BF80164857585868597850E94E61E48
:1024500029873A874B875C876D877E878F87988B24
:1024600088E0FE013996DE01119601900D928A9561
:10247000E1F76D817E818F819885A70196010E9489
:10248000492A5F934F933F932F938C818F938B8136
:102490008F938A818F9389818F939F928F920E94CD
:1024A000702BF80160857185828593850E94E61EF8
:1024B00029873A874B875C876D877E878F87988BC4
:1024C00088E0FE013996DE01119601900D928A9501
:1024D000E1F76D817E818F819885A70196010E9429
:1024E000492A5F934F933F932F938C818F938B81D6
:1024F0008F938A818F9389818F93BF92AF920E942D
:10250000702B0FB6F894DEBF0FBECDBF80ED91E00B
:102510000E94B209F801709683818F9382818F9314
:1025200081818F93F80180898F935DE2E52E53E0DE
:10253000F52EFF92EF920E94702B80EE91E00E94A8
:10254000B209F801789683818F9382818F9381817C
:102550008F93F801808D8F93FF92EF920E94702BE2
:1025600083EF91E00E94B209F801848D1F928F934E
:1025700061E3E62E63E0F62EFF92EF920E94702B4D
:102580008CE092E00E94B209F801858D1F928F9332
:10259000FF92EF920E94702B89E292E00E94B209B2
:1025A0000FB6F894DEBF0FBECDBF60960FB6F8949D
:1025B000DEBF0FBECDBFDF91CF911F910F91FF9076
:1025C000EF90DF90CF90BF90AF909F908F90089545
:1025D0008CE292E00E94B20980E00E94271181E023
:1025E0000E94271182E00E94271183E00E94271198
:1025F00084E00C942711DB01853008F054C09EE183
:10260000899FF0011124E858FA4F4081518162817D
:1026100073814D935D936D937C93139744815581A2
:102620006681778114964D935D936D937C93179794
:10263000408551856285738518964D935D936D93A2
:102640007C931B9744855585668577851C964D93AD
:102650005D936D937C931F9740895189628973893B
:1026600050964D935D936D937C9353974489558910
:102670006689778954964D935D936D937C935797B4
:10268000408D518D628D738D58964D935D936D93F2
:102690007C935B97848D5C968C935C97858D5D961F
:1026A0008C9381E008958FEF0895E0912208F091D6
:1026B000230884870895E0912208F09123088485F7
:1026C0000895CF93DF93D82FC62F80E092E00E9429
:1026D000660D8F5F8F3F19F080937A0302C01092CE
:1026E0007A0320917A0336E0239FC00111246D2FD5
:1026F0008F5F9D4F0E94680D80917A0346E0849F12
:10270000C00111246C2F8E5F9D4F0E94680D209197
:102710007A038091190890911A08A0911B08B09132
:102720001C086B2F77278827992746E0249F900164
:102730001124C9018D5F9D4F0E94680D20917A037D
:102740008091190890911A08A0911B08B0911C085B
:10275000BD018827992746E0249F90011124C901D3
:102760008C5F9D4F0E94680D20917A03809119081B
:1027700090911A08A0911B08B0911C08692F7A2F1C
:102780008B2F992746E0249F90011124C9018B5F6C
:102790009D4F0E94680D80917A0326E0829FC001C0
:1027A0001124609119088A5F9D4F0E94680D609105
:1027B0007A0380E092E0DF91CF910C94680D209134
:1027C0000E06222341F0FB01208320912004FC010E
:1027D000208381E0089580E0089580910E0688238B
:1027E00009F48EC089E492E00E94B209809120042D
:1027F0001F928F9388E093E09F938F930E94702B9A
:1028000085E592E00E94B2090F900F900F900F9013
:1028100080910E06883110F010920E0680910E06FF
:1028200090E0FC013197E631F10508F046C0E05731
:10283000FF4F0C94CA2A89E592E041C085E992E0F5
:102840003EC08CEB92E03BC080ED92E038C086EE5B
:1028500092E035C081E093E032C087E193E02FC081
:102860008FE293E02CC082E493E029C085E593E0F9
:1028700026C083E793E023C088E993E020C084EA80
:1028800093E01DC08FEB93E01AC08EEC93E017C06D
:1028900082EE93E014C083EF93E011C087E094E0F0
:1028A0000EC087E294E00BC08FE394E008C08AE595
:1028B00094E005C08BE694E002C08AE794E00E94B1
:1028C000B20960918708709188088DE090E00E94BD
:1028D000442B60918708709188088AE090E00E94FC
:1028E000442B80910E06803149F0833139F08431D8
:1028F00029F00E94C3270E94FE0DFFCF10920E0602
:1029000080E00895CF93C82F80930E066093200433
:102910000E9461130E94ED13C03149F0C33139F0B8
:10292000C43129F00E94C3270E94FE0DFFCFCF9132
:10293000089580930E06E0912208F09123086085A7
:10294000609320040E9461130C94ED13CF93DF93E6
:102950001F92CDB7DEB7198207C080ED97E00E94C5
:10296000EF2389818F5F898389818436B0F30F904B
:10297000DF91CF91089581E090E00E94EA0C0E94DF
:10298000A61481E090E00E94D30C0C94A61481E080
:1029900090E00E94EA0C0E94A6140E94A6140E94D5
:1029A000A61481E090E00E94D30C0C94A614FF9230
:1029B0000F931F93CF93DF9300D01F92CDB7DEB755
:1029C0001F928F9388E093E09F938F938E010F5F08
:1029D0001F4F1F930F930E94BC2B0F900F900F90CF
:1029E0000F900F900F90F12C6FC0F801E80FF91FB6
:1029F00080818433B9F168F48133E9F020F48033C5
:102A000009F05BC015C0823309F1833309F055C06A
:102A100022C08733C1F130F4853369F1863309F080
:102A20004CC02CC08833B1F1893309F046C03BC09B
:102A30000E94C71402C00E94BB140E94C7140E94C7
:102A4000C7140E94C7140E94C71437C00E94BB1449
:102A50000E94BB14F4CF0E94BB140E94BB140E94BE
:102A6000BB14EFCF0E94BB140E94BB140E94BB1486
:102A70000E94BB14E8CF0E94BB1402C00E94C7147E
:102A80000E94BB1404C00E94C7140E94C7140E9475
:102A9000BB1406C00E94C7140E94C7140E94C7142A
:102AA0000E94BB1408C00E94C7140E94C7140E9451
:102AB000C7140E94C7140E94BB140E94A6140E944F
:102AC000A6140E94A614F394F80101900020E9F7DF
:102AD0003197E01BF10B8F2D90E08E179F0708F4C4
:102AE00084CF0F900F900F90DF91CF911F910F9196
:102AF000FF9008955F926F927F928F929F92AF9214
:102B0000BF92CF92DF92EF92FF920F931F93CF93DA
:102B1000DF9381E894E00E94B209E0912208F091ED
:102B200023082085822F992787FD90959F932F93C7
:102B300084E393E09F938F930E94702BE09122088F
:102B4000F0912308C281D381DF93CF9388E693E08D
:102B50009F938F930E94702B88811F928F938DE398
:102B600093E09F938F930E94702BE0912208F09145
:102B7000230881818F9380818F938AE493E09F93D0
:102B80008F930E94702B809123088F93809122084D
:102B90008F9384E593E09F938F930E94702B07E6B9
:102BA00017E0EDB7FEB774960FB6F894FEBF0FBEF0
:102BB000EDBFC0E0D0E084E6882E83E0982E9DE350
:102BC000A92E93E0B92E2AE4C22E23E0D22E31E2C0
:102BD000532E44E5E42E43E0F42EF8016280738026
:102BE0007F926F92DF93CF939F928F920E94702B70
:102BF000F30180811F928F93BF92AF920E94702B3E
:102C0000F80181818F9380818F93DF92CF920E9410
:102C1000702B5C9EC0015D9E900D11248959984FC8
:102C20009F938F93FF92EF920E94702B21960F5DDE
:102C30001F4F8DB79EB742960FB6F8949EBF0FBE3A
:102C40008DBFC530D10549F6DF91CF911F910F910E
:102C5000FF90EF90DF90CF90BF90AF909F908F90BC
:102C60007F906F905F900895CF93DF93E09122085B
:102C7000F0912308C281D3818881853539F00E9483
:102C80007A1581E00E94991485E58883E0912208F5
:102C9000F0912308808191818115924438F00E943F
:102CA0007A1582E1DF91CF910C949914DF91CF9145
:102CB000089521E28202F0011124E959F84FA2811E
:102CC000B3818C91853519F085E58C9308C080819E
:102CD00091818115924428F082E10E9499148FEF2E
:102CE000089581E008950F931F930091CD041091F2
:102CF000CE042091CF043091D00480E090E0B9015F
:102D0000A801082E04C076956795579547950A94B3
:102D1000D2F740FD19C041E050E060E070E0082EBD
:102D200004C0440F551F661F771F0A94D2F7402B2B
:102D3000512B622B732B4093CD045093CE046093A0
:102D4000CF047093D00405C0019680329105B9F686
:102D50008FEF1F910F910895E0912208F0912308C1
:102D600065857685878590890895CF92DF92EF9269
:102D7000FF920F931F93CF93DF931F92CDB7DEB7D0
:102D8000C12CD12C7601C394082E04C0CC0CDD1CC0
:102D9000EE1CFF1C0A94D2F74091CD045091CE0452
:102DA0006091CF047091D0044C215D216E217F2170
:102DB000452B462B472B09F463C089830E94FE0DE7
:102DC000E0E7F7E097018601009510952095309592
:102DD00093E08981DF0111974C914F3F49F1448184
:102DE0005581668177814C155D056E057F0541F43F
:102DF0001086118612861386DF0112971C9290832B
:102E00004481558166817781402351236223732356
:102E100044835583668377834085518562857385B6
:102E2000402351236223732340875187628773872E
:102E3000B19648E0E531F40769F64EEF5FEF6FEFCA
:102E40007FEF04C0440F551F661F771F8A95D2F786
:102E50008091CD049091CE04A091CF04B091D00484
:102E600084239523A623B7238093CD049093CE0487
:102E7000A093CF04B093D0040E94000E81E001C063
:102E80008FEF0F90DF91CF911F910F91FF90EF90F7
:102E9000DF90CF9008950F931F9341E050E060E0E2
:102EA00070E004C0440F551F661F771F8A95D2F744
:102EB000E0912208F091230885859685A785B08941
:102EC0008A019B01082319232A233B23012B022B70
:102ED000032BD1F0409550956095709584239523F0
:102EE000A623B72385879687A787B08B8189928988
:102EF000A389B48984239523A623B723818B928B3E
:102F0000A38BB48B81E001C08FEF1F910F910895C7
:102F10004091CD045091CE046091CF047091D004C3
:102F2000082E04C076956795579547950A94D2F771
:102F300040FF1DC0E0912208F091230841E050E0DD
:102F400060E070E004C0440F551F661F771F8A952C
:102F5000D2F785859685A785B089842B952BA62BDE
:102F6000B72B85879687A787B08B81E008958FEF71
:102F70000895CF92DF92EF92FF921F93CF93DF934A
:102F8000C12CD12C7601C39404C0CC0CDD1CEE1CEA
:102F9000FF1C8A95D2F78091CD049091CE04A09128
:102FA000CF04B091D0048C219D21AE21BF21892B6B
:102FB0008A2B8B2B11F481E040C00E94FE0DEEE6BF
:102FC000F7E0C0E7D7E010E023E080818130A9F48A
:102FD00082859385A485B5858C219D21AE21BF2155
:102FE000892B8A2B8B2B49F0288317861686108213
:102FF000C286D386E486F58611E08081823091F422
:1030000082859385A485B5858C159D05AE05BF0584
:1030100049F4288317861686108212861386148632
:10302000158611E0B196A19688E0E331F80769F6BC
:103030000E94000E111105C082E00E9455138FEF0F
:1030400001C081E0DF91CF911F91FF90EF90DF9061
:10305000CF9008950F931F93E0912208F0912308D9
:1030600005851685278530890623172328233923CC
:10307000012B022B032B19F1618B728B838B948BA9
:1030800021E02783DC01CB010090120804C0B69533
:10309000A795979587950A94D2F780FF03C00E9461
:1030A0005C1B04C080E090E00E94831BE09122083A
:1030B000F0912308018912892389348903C000E033
:1030C00010E09801B801C9011F910F91089580E0A7
:1030D00090E008958E50984011F480E008958FEFAD
:1030E00008950E946A188F3F11F481E003C0813077
:1030F00029F482E00E9455138FEF0895992787FDE8
:1031000090959C01220F331F280F391FF901E25FB0
:10311000F74F8FEF8083F901E05FF74F8083F9016C
:10312000E15FF74F808380912108815080932108CF
:1031300081E00895CF92DF92EF92FF920F931F9359
:10314000CF93DF931F92CDB7DEB70E946A188F3FEF
:1031500011F481E003C0813029F482E00E9455130C
:103160008FEF4BC0482F552747FD50959A01220FEE
:10317000331F240F351F8901005F174FF901E25FEC
:10318000F74FD8014C9190814917B4F589830E947B
:10319000FE0DF80190819F5F9083E0912208F091ED
:1031A00023081482EEE6F7E000E717E08981C82ED5
:1031B000DD24C7FCD094ED2CFD2C23E0308132308F
:1031C00091F442855385648575854C155D056E05C2
:1031D0007F0549F4D8012C93178616861082128633
:1031E000138614861586B1960F5D1F4FB8E0E33144
:1031F000FB0721F70E94000E81E00F90DF91CF9135
:103200001F910F91FF90EF90DF90CF9008950F9353
:103210001F93CF93DF931F92CDB7DEB70E946A183A
:103220008F3F11F481E003C0813029F482E00E94D5
:1032300055138FEF41C089830E94FE0D8981082FAD
:10324000112707FD1095F801EE0FFF1FE00FF11F8A
:10325000E05FF74F9081911116C0E0912208F09144
:103260002308978192609783992787FD9095A92FCE
:10327000B92F818B928BA38BB48B0E94000E80E0C0
:1032800090E00E94831BC801880F991F800F911F37
:10329000FC01E05FF74F208121502083E09122085C
:1032A000F0912308DC01A15FB74F8C91838781E007
:1032B00084830E94000E81E00F90DF91CF911F91D7
:1032C0000F9108950E946A188F3F11F481E003C0A6
:1032D000813029F482E00E9455138FEF08959927D9
:1032E00087FD9095FC01EE0FFF1FE80FF91FE05FCF
:1032F000F74F80810895E0911708F09118088081B8
:103300000895E0911708F091180803C00380F48134
:10331000E02D3097D9F70895CF92DF92EF92FF9288
:103320000F931F93CF93DF93E0916507F0916607AA
:10333000309709F48AC04091170850911808411538
:10334000510509F446C0DA0191E2692F782F76031E
:10335000900111242959384F8901065F1F4F7901C7
:10336000C4E0EC0EF11C255F3F4F6C9170E0969F1E
:10337000E001979FD00D1124C959D84FDC80DD2082
:1033800029F0DB84E801C880DC1428F1E701D8804B
:10339000DD2061F0969FE001979FD00D1124C9595F
:1033A000D84FDA84E901C880DC14A8F0969FE001C8
:1033B000979FD00D1124C959D84F7A85E8016881AB
:1033C000761748F013960D90BC91A02D109769F6D2
:1033D00002C0A0E0B0E08083C381D481D0936607AF
:1033E000C0936507A417B507B1F4109749F0B483EB
:1033F000A383128211821296FC93EE93119706C05A
:103400001482138212821182FA83E983F0931808DE
:10341000E09317081AC011968D919C911297AC17E2
:10342000BD0759F092838183B483A3831196CD9114
:10343000DC911297FC83EB8304C014821382928385
:1034400081831296FC93EE931197DF91CF911F9198
:103450000F91FF90EF90DF90CF900895CF93DF937F
:10346000E0911708F0911808309709F444C09927A3
:1034700087FD9095208130E02817390781F4A381DA
:10348000B481B0931808A093170812961C921E924C
:10349000119718C00380F481E02D309761F12081ED
:1034A00030E028173907B1F7C181D2818381948137
:1034B0009C838B83A381B481109721F01296DC93B7
:1034C000CE931197A0916507B0916607109739F4D4
:1034D000F0936607E0936507148213820AC0B483F1
:1034E000A3831296FC93EE931197F0936607E093F3
:1034F000650712821182DF91CF910895EF92FF92BA
:103500000F931F93CF93DF93EC014B815C81698113
:103510007A818D819E810E9416282F81222371F04D
:103520004B815C81E12CF12C00E010E020E030E0E8
:10353000BC01CE010E94010F1F820CC0E88121E274
:10354000E202F0011124E959F84F2185233099F462
:1035500091838083E88181E2E802F0011124E95936
:10356000F84F85899689892B41F482E0818788818B
:103570000E948C1902C08FEF01C081E0DF91CF91D2
:103580001F910F91FF90EF9008951F93CF93DF93BA
:10359000CDB7DEB728970FB6F894DEBF0FBECDBF0C
:1035A00029833A834B835C836D837E838F839887E3
:1035B0000E94FE0D0E943E25182FCE0101960E940A
:1035C0002E1E8330910560F0E0912208F0912308CF
:1035D000810F911D968B858B0E94000E81E001C0AA
:1035E0008FEF28960FB6F894DEBF0FBECDBFDF91E8
:1035F000CF911F9108950E94E827E0912208F09151
:10360000230885818111F7CF0895FF920F931F93AF
:10361000CF93DF93CDB7DEB728970FB6F894DEBF10
:103620000FBECDBF29833A834B835C836D837E833A
:103630008F8398870E9434160E94FE0DE091220825
:10364000F091230881E0858381E090E090A3878F4B
:103650000E943E25F82ECE0101960E942E1EE0917A
:103660002208F09123080F2D10E0800F911F968BF8
:10367000858B87EF8F1578F00E94D7240F5F1F4F3F
:10368000282F30E00217130734F48F2D8E5F8093BC
:1036900077050E94DB240E94000E0E94FB1A81E045
:1036A00028960FB6F894DEBF0FBECDBFDF91CF9145
:1036B0001F910F91FF900895CF930E94FE0DE0910E
:1036C0002208F091230881E0858386830E943E25AD
:1036D000C82F883F88F40E94D7242C2F30E02F5F1A
:1036E0003F4F482F50E02417350734F48C2F8E5F5E
:1036F000809377050E94DB240E94000E0E94FB1A33
:1037000081E0CF910895CF93DF93EC010E94FE0DED
:10371000E0912208F091230881E08583D68BC58B48
:103720000E943E25C82F883F88F40E94D7242C2F62
:1037300030E02F5F3F4F482F50E02417350734F417
:103740008C2F8E5F809377050E94DB240E94000EF1
:103750000E94FB1A81E0DF91CF910895FF920F93B1
:103760001F93CF93DF938C010E94FE0DE0912208FE
:10377000F091230881E085830E943E25F82EE09198
:103780002208F0912308C82FD0E00C0F1D1F168BC4
:10379000058B87EF8F1570F00E94D7242196282F74
:1037A00030E0C217D30734F48F2D8E5F80937705F6
:1037B0000E94DB240E94000E0E94FB1A81E0DF9130
:1037C000CF911F910F91FF900895CF93DF93EC015C
:1037D0000E943416209711F4C1E0D0E00E94FE0D43
:1037E000E0912208F091230881E08583D0A3C78F60
:1037F0000E943E25C82F883F88F40E94D7242C2F92
:1038000030E02F5F3F4F482F50E02417350734F446
:103810008C2F8E5F809377050E94DB240E94000E20
:103820000E94FB1A81E0DF91CF910895CF930E940F
:1038300034160E94FE0DE0912208F091230881E0E9
:1038400090E090A3878F81E085830E943E25C82F5A
:10385000883F88F40E94D7242C2F30E02F5F3F4F01
:10386000482F50E02417350734F48C2F8E5F809357
:1038700077050E94DB240E94000E0E94FB1A81E063
:10388000CF910895E0912208F091230880850E944D
:103890002E1AE0912208F091230884E081870E948B
:1038A000161C81E008958F929F92AF92BF92CF92A3
:1038B000DF92EF92FF920F931F93CF93DF93CDB7D9
:1038C000DEB760970FB6F894DEBF0FBECDBF298775
:1038D0003A874B875C876D877E878F87988BCE0171
:1038E00001960E94AF1C89809A80AB80BC80CD80FD
:1038F000DE80EF80F88409851A852B853C854D850F
:103900005E856F857889CE0109960E940B1D8F3FD9
:1039100061F029853A854B855C856D857E858F852F
:1039200098890E94051B81E001C08FEF60960FB659
:10393000F894DEBF0FBECDBFDF91CF911F910F91E5
:10394000FF90EF90DF90CF90BF90AF909F908F90BF
:103950000895E0912208F091230880850895CF9280
:10396000DF92EF92FF92CF93DF93EC011C821D82D6
:103970001E821F828091190890911A08A0911B083D
:10398000B0911C0888839983AA83BB83C0901D08CB
:10399000D0901E08E0901F08F0902008CC82DD82B5
:1039A000EE82FF820E943E25A82FB0E023EB36EE88
:1039B0004EE050E00E941A2A6C0D7D1D8E1D9F1D49
:1039C0006C837D838E839F8313C09A5CAA49BB431B
:1039D0008C839D83AE83BF83488159816A817B81BB
:1039E0004F5F5F4F6F4F7F4F488359836A837B835D
:1039F0008C819D81AE81BF8181152AEC92072AE9D5
:103A0000A2072BE3B20708F7DF91CF91FF90EF9069
:103A1000DF90CF9008956F927F928F929F92AF9296
:103A2000BF92CF92DF92EF92FF920F931F93CF93AB
:103A3000DF93CDB7DEB760970FB6F894DEBF0FBE49
:103A4000CDBF3C0109831A832B833C834D835E8366
:103A50006F83788789869A86AB86BC86CD86DE861C
:103A6000EF86F88AC980DA80EB80FC808D819E81A8
:103A7000AF81B88509851A852B853C854D855E8586
:103A80006F857889C016D106E206F30608F442C0B5
:103A90000C151D052E053F0599F484179507A607FB
:103AA000B707C0F1841B950BA60BB70BF3018483FA
:103AB0009583A683B783108211821282138228C055
:103AC00084179507A607B70790F4F1E0CF1AD1083D
:103AD000E108F108C01AD10AE20AF30AF301C08230
:103AE000D182E282F3829653A546B44C09C0C01A33
:103AF000D10AE20AF30AF301C082D182E282F382A0
:103B0000841B950BA60BB70B84839583A683B78381
:103B100081E001C08FEF60960FB6F894DEBF0FBE54
:103B2000CDBFDF91CF911F910F91FF90EF90DF906C
:103B3000CF90BF90AF909F908F907F906F9008959F
:103B4000FC0113C05A5C6A497B43448355836683F6
:103B5000778340815181628173814F5F5F4F6F4FE7
:103B60007F4F408351836283738344815581668193
:103B7000778141158AEC58078AE968078BE3780753
:103B800008F708958F929F92AF92BF92CF92DF92E3
:103B9000EF92FF920F931F93CF93DF93CDB7DEB7D2
:103BA00060970FB6F894DEBF0FBECDBF09831A83AE
:103BB0002B833C834D835E836F83788789869A86C7
:103BC000AB86BC86CD86DE86EF86F88A49855A8527
:103BD0006B857C8509811A812B813C81400F511FA7
:103BE000621F731FFC0140835183628373834D8581
:103BF0005E856F8578890D811E812F813885400F04
:103C0000511F621F731F44835583668377830E940D
:103C1000A01D81E060960FB6F894DEBF0FBECDBF49
:103C2000DF91CF911F910F91FF90EF90DF90CF9098
:103C3000BF90AF909F908F900895609319087093F4
:103C40001A0880931B0890931C0820931D0830933A
:103C50001E0840931F085093200808952F923F920A
:103C60004F925F926F927F928F929F92AF92BF928C
:103C7000CF92DF92EF92FF920F931F93CF93DF9338
:103C8000CDB7DEB762970FB6F894DEBF0FBECDBFDB
:103C9000FC014080518062807380648175818681DF
:103CA0009781411451046104710409F46CC0F2E479
:103CB0004F1651046104710408F06CC07B018C0143
:103CC00020E030E0A9016983FA820B831C832D83F5
:103CD0003E834F835887E0E0F0E0B0E0A0E0198A2F
:103CE0001A8A312C812C912C01C093949F014B2F67
:103CF0005A2F69897A89832D982DA980BA80CB8023
:103D0000DC80ED80FE800F8118850E94D02A222E53
:103D100039874A875B876C877D878E879F879F015E
:103D20004B2F5A2F69897A89832D982D3653454612
:103D3000544C6F4F7F4F8F4F9F4FF901B42FA52FDA
:103D4000698B7A8B382E892E492D50E060E070E027
:103D5000441555056605770540F283EBA82E96EECF
:103D6000B92E2EE0C22ED12CE12CF12C00E010E077
:103D7000222D39854A855B856C857D858E859F855D
:103D80000E946D2A09C023EB36EE4EE050E00E94FF
:103D9000492A02C020E030E0C90162960FB6F894CB
:103DA000DEBF0FBECDBFDF91CF911F910F91FF906E
:103DB000EF90DF90CF90BF90AF909F908F907F90CB
:103DC0006F905F904F903F902F900895CF92DF9229
:103DD000EF92FF92CF93DF93CDB7DEB728970FB660
:103DE000F894DEBF0FBECDBF6B017C013AE0F694C4
:103DF000E794D794C7943A95D1F7C982DA82EB82D7
:103E0000FC829B01AC0133704427552763EB76EEAF
:103E10008EE090E00E94252A2C2D3A814B815C8116
:103E200028960FB6F894DEBF0FBECDBFDF91CF91BD
:103E3000FF90EF90DF90CF9008952F923F924F9296
:103E40005F926F927F928F929F92AF92BF92CF922A
:103E5000DF92EF92FF920F931F93CF93DF93CDB733
:103E6000DEB762970FB6F894DEBF0FBECDBFFC0180
:103E700040805180628073806481758186819781E2
:103E8000411451046104710409F465C07B018C0183
:103E900020E030E0A9016983FA820B831C832D8323
:103EA0003E834F835887E0E0F0E0B0E0A0E0198A5D
:103EB0001A8A312C812C912C01C093949F014B2F95
:103EC0005A2F69897A89832D982DA980BA80CB8051
:103ED000DC80ED80FE800F8118850E94D02A222E82
:103EE00039874A875B876C877D878E879F879F018D
:103EF0004B2F5A2F69897A89832D982D3653454641
:103F0000544C6F4F7F4F8F4F9F4FF901B42FA52F08
:103F1000698B7A8B382E892E492D50E060E070E055
:103F2000441555056605770540F243EBA42E56EE81
:103F3000B52E6EE0C62ED12CE12CF12C00E010E065
:103F4000222D39854A855B856C857D858E859F858B
:103F50000E946D2A06C023EB36EE4EE050E00E9430
:103F6000492AB901CA0162960FB6F894DEBF0FBEA6
:103F7000CDBFDF91CF911F910F91FF90EF90DF9018
:103F8000CF90BF90AF909F908F907F906F905F90F9
:103F90004F903F902F900895C1E0D2E00E943416D8
:103FA0000E94D724843028F4C09316080E94E82782
:103FB00008C08AE090E00E94EF23D09316080E9488
:103FC000DC2780910F06853519F088E00E9499144E
:103FD00080917E41853511F388E00E949914DECFEF
:103FE0002F923F924F925F926F927F928F929F9209
:103FF000AF92BF92CF92DF92EF92FF920F931F93F7
:10400000CF93DF9300D000D01F92CDB7DEB70E94D0
:104010000B240E94FE0D8AEF0E94DB240E94D92708
:104020000E94A22210917705A12FB0E023EB36EE7B
:104030004EE050E00E941A2A6B017C0140911D085D
:1040400050911E0860911F0870912008C40ED51E63
:10405000E61EF71EC701B60123EB36EE4EE050E038
:104060000E94492AC61AD70AE80AF90AC0921D080E
:10407000D0921E08E0921F08F0922008E0912208DA
:10408000F09123088085811130C08091160882301C
:1040900019F4812F0E940610E0912208F091230864
:1040A0006091770580850E947010E0912208F09160
:1040B000230860E080850E94AE104091190850915D
:1040C0001A0860911B0870911C0880911D0890913E
:1040D0001E08A0911F08B091200813EB812E16EE48
:1040E000912E1EE0A12EB12C22C09581612F91113D
:1040F000E2CF0E947010E1CF412CF6E35F2EF5E68F
:104100006F2EF4EC7F2E480E591E6A1E7B1EC301D3
:10411000B201A50194010E94492AA3019201261B24
:10412000370B480B590BDA01C901B701A601C12CA5
:10413000D12C7601C394C40ED51EE61EF71E811540
:104140003AEC93073AE9A3073BE3B307A8F6409399
:10415000190850931A0860931B0870931C088093E9
:104160001D0890931E08A0931F08B0932008E091AB
:104170002208F091230885818823C1F0818584304D
:10418000A9F08781823009F405C0882341F0868137
:10419000811102C085E001C083E0818704C083E013
:1041A00081871782168280850E942E1AE09122084C
:1041B000F0912308858D968D892BE1F180858823E8
:1041C000C9F191859430B1F1418D528D20917705DF
:1041D00030E04217530788F40E943E10E091220815
:1041E000F0912308608582E00E948214E091220809
:1041F000F0912308128E118E04C0421B530B528F74
:10420000418FE0912208F09123081085218D328D95
:10421000232B81F4812F0E943E10612F83E00E94A6
:104220008214E0912208F091230883E08187812F96
:104230000E942E1A8FE6882E87E0982E40E757E0DE
:104240005D834C839EE6A92E97E0B92E2DE6C22E03
:1042500027E0D22E3CE6E32E37E0F32E00E61AEEFE
:1042600040E021E030E05AEF652E712C212C312CFA
:1042700021012394D4018C918F3F09F4D1C0F7011F
:1042800010828C91882309F449C0AC81BD818C9146
:10429000843009F443C01C966D917C911D978091E8
:1042A000770590E06817790738F0681B790B1D9641
:1042B0007C936E931C9704C0EC81FD811586148657
:1042C000AC81BD811E966D917C911F97681779070F
:1042D00038F0681B790B1F967C936E931E9714C061
:1042E000EC81FD81628973898617970728F4681B22
:1042F000790B7787668708C00E94352AAC81BD811B
:104300001F969C938E931E97EC81FD8186859785E1
:10431000892B21F48289938997878687AC81BD8117
:104320008C91833009F07CC01C968D919C911D97D7
:10433000892B09F069C0F50180818823A9F0D60195
:104340008C91882389F0D201C1010090120804C029
:10435000880F991FAA1FBB1F0A94D2F7EC81FD8119
:1043600080879187A287B387D5011C92F6011082BE
:10437000D7011C92EC81FD81868997898130910556
:10438000D1F484899589918B808B52E05083868506
:1043900097859587848782899389892B11F47586FF
:1043A0006486842F2A833B8349830E948C192A8147
:1043B0003B81498129C0AC81BD8154966D917C912E
:1043C000559751967C936E935097FC013197529676
:1043D0008D919C915397E89FB001E99F700DF89FD4
:1043E000700D11241D967C936E931C971F967C93E1
:1043F0006E931E97892B21F41D967C926E921C97CA
:10440000EC81FD81378B268BAC81BD811C968D9113
:104410009C911D97009721F08017910708F48C015B
:104420004F5FB1E28B0E911CEC81FD81B196FD8353
:10443000EC83F1E2AF0EB11C51E2C50ED11C81E25A
:10444000E80EF11C453009F015CFE0912208F091FB
:10445000230880850E944F100E947B19F82E91E25C
:104460008902F0011124E959F84F828580932408CC
:10447000F0931408E0931308FF2091F0258D368DFA
:10448000232B51F0218D328D2A3F310528F420173E
:104490003107F0F489011CC00B3F1105C8F013C0AF
:1044A00004301105A8F09801235031092A3F310545
:1044B00038F489012230310558F402E010E008C0D8
:1044C0000D3F110519F00AEF10E002C007EF10E0F0
:1044D00080931508F0932308E09322080093770552
:1044E0000E943E25282F30E02F5F3F4F20173107D5
:1044F00040F00E943E25082F10E00E5F1F4F0093F2
:104500007705F11010921608802F0E94DB240E947C
:1045100074280F900F900F900F900F90DF91CF9114
:104520001F910F91FF90EF90DF90CF90BF90AF90D1
:104530009F908F907F906F905F904F903F902F90C3
:104540000C947F283F924F925F926F927F928F924E
:104550009F92AF92BF92CF92DF92EF92FF920F9312
:104560001F93CF93DF93CDB7DEB760970FB6F89464
:10457000DEBF0FBECDBFCE0109960E94AF1C87E201
:10458000482E88E0582E612C712C93E1392EF201CF
:104590008081813061F5369CF001379CF00D11244B
:1045A000E05DF74F89849A84AB84BC84CD84DE843B
:1045B000EF84F88800811181228133814481558103
:1045C00066817781CE0101960E940B1D8F3F79F4A1
:1045D000662D85E10E948214F20132970190F081EC
:1045E000E02D309719F40E94020E01C00995FFEFEB
:1045F0006F1A7F0A83E1480E511CE3E06E167104C6
:1046000031F660960FB6F894DEBF0FBECDBFDF91D6
:10461000CF911F910F91FF90EF90DF90CF90BF90BF
:10462000AF909F908F907F906F905F904F903F9052
:1046300008951092270810923A0810924D08089594
:10464000DB018330F0F493E1899FF0011124EB5DED
:10465000F74F518340834D915D916D917C911397FC
:10466000438354836583768314964D915D916D9158
:104670007C9117974783508761877287128281E008
:1046800008958FEF0895CF92DF92EF92FF920F93EC
:104690001F93CF93DF93CDB7DEB728970FB6F8946B
:1046A000DEBF0FBECDBF182F8330A0F5CE0101961F
:1046B0000E94AF1C23E1129FC00111248C010B5DED
:1046C000174FF8014381548165817681C980DA8072
:1046D000EB80FC804C0D5D1D6E1D7F1D4387548754
:1046E000658776874781508561857285CD80DE80BC
:1046F000EF80F8844C0D5D1D6E1D7F1D4787508B2C
:10470000618B728B805D974F0E94A01D81E0F80144
:10471000828301C08FEF28960FB6F894DEBF0FBEDC
:10472000CDBFDF91CF911F910F91FF90EF90DF9060
:10473000CF9008950F931F93CF93DF93CDB7DEB73C
:1047400028970FB6F894DEBF0FBECDBF182F833069
:1047500068F5CE0101960E94AF1C83E1189FF0011D
:104760001124EB5DF74F4381548165817681898106
:104770009A81AB81BC81480F591F6A1F7B1F4387F9
:1047800054876587768747815085618572850D815D
:104790001E812F813885400F511F621F731F47876D
:1047A000508B618B728B81E0828301C08FEF2896E2
:1047B0000FB6F894DEBF0FBECDBFDF91CF911F9132
:1047C0000F910895833048F493E1899FF0011124FB
:1047D000EB5DF74F128281E008958FEF089500009E
:1047E00000000000000000000000000000000000C9
:1047F000000000000000019791F708951092210138
:10480000089589E0809321018DE89CE3909329012C
:104810008093280108951092250110922401089593
:10482000CF93DF9300D0CDB7DEB780912401909174
:1048300025019A83898329813A81C9010F900F90BC
:10484000DF91CF91089510928100089581E08093C7
:104850008100089583B5816083BD10928500109218
:1048600084000895CF93DF9300D0CDB7DEB7809159
:104870008400909185009A83898329813A81C901B6
:104880000F900F90DF91CF910895CF92DF92EF922A
:10489000FF92CF93DF93EC01CC0FDD1FC9378FEF71
:1048A000D80710F0C0E0D0E06B01E12CF12CCC0E69
:1048B000DD1EE11CF11C81E0C816D104E806F104FC
:1048C00040F081E0E81AF1080E943224C817D907A5
:1048D000D8F30E9432248C159D05D8F3DF91CF9137
:1048E000FF90EF90DF90CF9008951092B100E0E735
:1048F000F0E080818D7F808380818E7F808308952A
:104900008093B2000895E0E7F0E0808183608083C7
:1049100083E08093B100089583B5826083BD1092D7
:10492000B20010922104109277050895CF93DF937F
:104930008EEF8093770590E29093B6008093B3005A
:1049400083E087BB92E09093B0008093B10093B571
:10495000926093BD87BB84BD83B5826083BD109296
:10496000800081E080938100109285001092840085
:1049700083B5826083BD83B5816083BD10922001C1
:10498000C4E2D1E01982188283B5826083BD83B509
:10499000816083BD0E948C24198218820E94832426
:1049A0000E94012410922104DF91CF9108958091FB
:1049B000B3008F5F089581508093B30008958111F3
:1049C00002C0109271008FEF0895811106C01092FD
:1049D00095001092940081E008958FEF0895811161
:1049E00005C0209194003091950002C020E030E095
:1049F000C9010895811105C082E08093710081E0B2
:104A000008958FEF0895811135C0CB010197059767
:104A100010F4609376051092900088E080939100E6
:104A2000509399004093980030939F0320939E03E6
:104A300080917605813021F480919100816011C0D0
:104A4000823021F48091910082600BC0833021F488
:104A500080919100836005C0843031F48091910091
:104A600084608093910008C0853031F4809191007A
:104A70008560F7CF8FEF089581E008958091B200AF
:104A800008951F920F920FB60F92112460E08AE0F2
:104A90000E948214FFCF0F920FB60F921F922F9297
:104AA0003F924F925F926F927F928F929F92AF92BE
:104AB000BF92CF92DF92EF92FF920F931F932F93AB
:104AC0003F934F935F936F937F938F939F93AF9396
:104AD000BF93CF93DF93EF93FF93A0912208B09100
:104AE00023080DB60D920EB60D921F92A09174057B
:104AF000B09175051E90BEBFADBF08951F920F9275
:104B00000FB60F9211240BB60F922F933F934F9332
:104B10005F936F937F938F939F93AF93BF93EF9325
:104B2000FF93E0919E03F0919F03309711F0099558
:104B300004C060E08AE00E948214FF91EF91BF916F
:104B4000AF919F918F917F916F915F914F913F9125
:104B50002F910F900BBE0F900FBE0F901F901895C6
:104B60001F920F920FB60F9211240F900FBE0F904D
:104B70001F90189504B603FC02C080E001C080E1DC
:104B800004B602FE06C094B79B7F94BF04B600FE35
:104B9000846004B601FE05C094B79D7F94BF826017
:104BA000089581110CC004B600FE04C094B79E7F26
:104BB00094BF01C081E09091B000911181E008950F
:104BC000811102C0E89A39C0813011F4E99A089540
:104BD000823011F4EA9A31C0833021F480916B0065
:104BE000816029C0843021F480916B00826023C0F1
:104BF000853021F480916B0084601DC0863021F4E3
:104C000080916B00886017C0873021F480916B0021
:104C1000806111C0883021F480916B0080620BC0EC
:104C2000893021F480916B00806405C08A3039F4AA
:104C300080916B00806880936B0081E008958FEF16
:104C40000895811102C0E89839C0813011F4E998C3
:104C50000895823011F4E99831C0833021F48091B5
:104C60006B008E7F29C0843021F480916B008D7F92
:104C700023C0853021F480916B008B7F1DC086306E
:104C800021F480916B00877F17C0873021F48091D9
:104C90006B008F7E11C0883021F480916B008F7D76
:104CA0000BC0893021F480916B008F7B05C08A3066
:104CB00039F480916B008F7780936B0081E00895C9
:104CC0008FEF0895811127C05093800840937F088B
:104CD000611104C0809169008C7F3EC0613049F44D
:104CE000809169008D7F8093690080916900816067
:104CF00033C0623049F4809169008260809369001A
:104D0000809169008E7F28C0633009F027C08091B0
:104D10006900836021C0813049F550937E0840933B
:104D20007D08611104C080916900837F15C06130E6
:104D300049F480916900877F8093690080916900C0
:104D400084600AC0623061F4809169008860809359
:104D50006900809169008B7F8093690081E00895EC
:104D60006330E1F7809169008C60F6CF823031F5D5
:104D70005093820840938108611104C080916900BA
:104D80008F7CEACF613049F4809169008F7D8093F8
:104D90006900809169008061DFCF623049F48091C1
:104DA0006900806280936900809169008F7ED4CF12
:104DB0006330A1F6809169008063CECF8350883044
:104DC00050F480916800816080936800509384085B
:104DD00040938308C3CF8FEF08951F920F920FB6B1
:104DE0000F9211240BB60F922F933F934F935F9323
:104DF0006F937F938F939F93AF93BF93EF93FF93A3
:104E0000E0918308F0918408309711F0099504C06F
:104E100060E08AE00E948214FF91EF91BF91AF9110
:104E20009F918F917F916F915F914F913F912F91C2
:104E30000F900BBE0F900FBE0F901F9018951F92F2
:104E40000F920FB60F9211240BB60F922F933F9330
:104E50004F935F936F937F938F939F93AF93BF9382
:104E6000EF93FF93E0917F08F0918008309711F065
:104E7000099504C060E08AE00E948214FF91EF91DE
:104E8000BF91AF919F918F917F916F915F914F9162
:104E90003F912F910F900BBE0F900FBE0F901F9060
:104EA00018951F920F920FB60F9211240BB60F9206
:104EB0002F933F934F935F936F937F938F939F9322
:104EC000AF93BF93EF93FF93E0917D08F0917E083D
:104ED000309711F0099504C060E08AE00E948214C6
:104EE000FF91EF91BF91AF919F918F917F916F91C2
:104EF0005F914F913F912F910F900BBE0F900FBE7E
:104F00000F901F9018951F920F920FB60F921124B9
:104F10000BB60F922F933F934F935F936F937F93B3
:104F20008F939F93AF93BF93EF93FF93E09181088B
:104F3000F0918208309711F0099504C060E08AE092
:104F40000E948214FF91EF91BF91AF919F918F9139
:104F50007F916F915F914F913F912F910F900BBE79
:104F60000F900FBE0F901F9018950E94FE0DA895F0
:104F700084B7877F84BFE0E6F0E08081886180832A
:104F800010820C94000E0E94FE0DA89584B7877FB6
:104F900084BFE0E6F0E08081886180838DE08083DB
:104FA0000C94000E04B603FC02C081E008958FEF5C
:104FB0000895A8950895089583B7817F866083BF7B
:104FC00083B7816083BF889583B78E7F83BF089541
:104FD00083B7817F83BF83B7816083BF889583B7A1
:104FE0008E7F83BF0895FC01768365830895EF92D9
:104FF000FF920F931F93CF93DF93EC018B017A0104
:105000004032510518F481E10E949914A7014150E2
:105010005109400F511F5A8349831C830B83DF9131
:10502000CF911F910F91FF90EF90089525E5FA0120
:105030002083FB0132979083FB0131978083FB0132
:10504000349711821082FB01369711821082FB0186
:10505000389711821082FB013A9711821082FB016E
:105060003C9711821082FB013E9711821082FB0156
:10507000709711821082FB01729711821082FB01DE
:10508000749711821082FB01769711821082FB01C6
:10509000789711821082FB017A9711821082FB01AE
:1050A0007C9711821082FB017E9711821082FB0196
:1050B000B09711821082FB01B29711821082FB011E
:1050C000B49711821082CF01089585E580937E41C7
:1050D000EEEFF1E4F0937505E093740586EC9FE044
:1050E00090838093FF41089586EC9FE09093FE416A
:1050F0008093FF4108950E9496240C94000EA09185
:105100001308B0911408CD91CDBFDD91DEBFFF91A2
:10511000EF91DF91CF91BF91AF919F918F917F914F
:105120006F915F914F913F912F911F910F91FF9040
:10513000EF90DF90CF90BF90AF909F908F907F9037
:105140006F905F904F903F902F901F900F900FBEE9
:105150000F9018950E94D20980E190E00E943C0DCA
:105160000E94050E82E090E00E94D30C83E090E064
:105170000E94D30C81E090E00E94D30C80E090E08C
:105180000E94D30C20E030E0A90160E070E0CB0188
:105190000E941D1E0E9444030E94C40E80E090E005
:1051A00008957F928F929F92AF92BF92CF92DF929B
:1051B000EF92FF920F931F93CF93DF93CDB7DEB79C
:1051C0002C970FB6F894DEBF0FBECDBF7C016B01EC
:1051D0008A01FC0117821682838181FD03C013C1FD
:1051E000850105C088248394912C8C0E9D1EF701A7
:1051F000B380F601B3FC8591B3FE81916F018823E2
:1052000009F4FDC0853239F4B3FC2591B3FE219138
:105210006F01253219F5B70190E00E94442B580127
:10522000DFCF222309F4EBC0622F70E080E994E025
:105230002C870E94E52A2C85892B49F4233219F406
:10524000F0E17F2A04C02C3679F420E8722AF601B6
:10525000B3FC2591B3FE21916F0101C0712C77FE43
:10526000E0CF222309F4CBC0622F70E080EA94E003
:105270002C870E94E52A2C85892B41F05801F4E007
:10528000AF0EB11CB7018FE390E00FC0233629F0B9
:10529000233781F0233519F50BC0580122E0A20E07
:1052A000B11CB701F801808191810E94442B98CFF5
:1052B000F1E07F2A580122E0A20EB11CF801008122
:1052C000118104C0B70190E00E94442BF80170FCEA
:1052D000859170FE81918F018111F4CF81CF2436A9
:1052E00011F0293631F5580177FE09C0F4E0AF0E10
:1052F000B11CF80160817181828193810AC0F2E062
:10530000AF0EB11CF80160817181882777FD80950F
:10531000982FFFEE7F2297FF09C09095809570959A
:1053200061957F4F8F4F9F4F20E4722A2AE030E033
:1053300036C0203791F030F42835B1F02F3609F01F
:105340005EC017C0253721F0283709F058C007C0C4
:105350008FEE78222AE030E00EC0E0E17E2AF4E20F
:105360007F2A20E130E007C024E0722A20E132E009
:1053700002C028E030E0580177FE09C084E0A80EA2
:10538000B11CF801608171818281938108C0F2E0D3
:10539000AF0EB11CF8016081718180E090E0A40142
:1053A0000E94ED2B182F181976FE05C0B7018DE26B
:1053B00090E00E94442B74FE16C0FE01E10FF11D27
:1053C0008081803381F0B70180E390E00E94442B1C
:1053D00072FE09C0272D2072822F90E0B701885AF3
:1053E0009F4F0E94442B1150F401E10FF11DB701B2
:1053F000808190E00E94442B1111F5CFF1CEF7018E
:105400002681378102C02FEF3FEFC9012C960FB6DE
:10541000F894DEBF0FBECDBFDF91CF911F910F91EA
:10542000FF90EF90DF90CF90BF90AF909F908F90C4
:105430007F9008950E94D92AA59F900DB49F900D4A
:10544000A49F800D911D11240895DB018F939F93DC
:105450000E941A2ABF91AF91A29F800D911DA39F18
:10546000900DB29F900D11240895AA1BBB1B51E112
:1054700007C0AA1FBB1FA617B70710F0A61BB70BC4
:10548000881F991F5A95A9F780959095BC01CD0169
:105490000895A1E21A2EAA1BBB1BFD010DC0AA1F75
:1054A000BB1FEE1FFF1FA217B307E407F50720F08D
:1054B000A21BB30BE40BF50B661F771F881F991F08
:1054C0001A9469F760957095809590959B01AC0151
:1054D000BD01CF010895689401C0E8948F929F9216
:1054E000CF93DF930E94792ADF91CF919F908F9085
:1054F000089588249924F401E401B0E49F93AA2735
:105500009A158B049C04ED05FE05CF05D007A10775
:1055100098F4AD2FDC2FCF2FFE2FE92D982C892E5C
:10552000982F872F762F652F542F432F322F222726
:10553000B85031F7BF9127C01B2EBF91BB27220F58
:10554000331F441F551F661F771F881F991F881C14
:10555000991CEE1FFF1FCC1FDD1FAA1FBB1F8A1443
:105560009B04EC05FD05CE05DF05A007B10748F05B
:105570008A189B08EC09FD09CE09DF09A00BB10BC5
:1055800021601A94E1F62EF49401AF01BE01CD0121
:10559000000C0895EE0FFF1F0590F491E02D099483
:1055A0002A0D3B1D4C1D5D1D6E1D7F1D801F911F13
:1055B0000895A29FB001B39FC001A39F01D0B29FE5
:1055C000700D811D1124911D0895FC010590061692
:1055D00021F00020D9F7C00108953197CF01089537
:1055E000FB01DC0102C001900D9241505040D8F700
:1055F00008950F931F93CF93DF93EC018B010097D6
:1056000031F46115710519F4E0E0F0E037C06EE0A7
:1056100070E081E090E00E94612CFC010097A1F312
:1056200080E883830115110571F01387028781E8F3
:1056300083838091850890918608892B21F4F093CB
:105640008608E09385082097C9F0D187C0878381B9
:10565000826083838091870890918808892B71F4F8
:10566000F0938808E09387088091890890918A08D0
:10567000892B21F4F0938A08E0938908CF01DF9108
:10568000CF911F910F9108950F931F93CF93DF93A5
:105690008C01EB018B8181FD03C00FEF1FEF1AC05E
:1056A00082FF0DC02E813F818C819D812817390793
:1056B00064F4E881F9810193F983E88306C0E88501
:1056C000F985802F0995892B41F78E819F8101965D
:1056D0009F838E83C801DF91CF911F910F91089511
:1056E000CF93DF9300D0CDB7DEB7FE01379661913F
:1056F0007191FA83E983AF018091870890918808BE
:105700000E94D1280F900F90DF91CF910895609162
:105710008708709188080C94442B0F931F93CF93A4
:10572000DF938C01E0918708F0918808838181FFE5
:105730001BC0C0E0D0E005C00995892B11F0CFEF68
:10574000DFEFF80181918F016091870870918808DF
:10575000DB011896ED91FC9119978111EDCF8AE04C
:105760000995892B09F402C0CFEFDFEFCE01DF915D
:10577000CF911F910F9108950F931F93CF93DF93B4
:10578000CDB7DEB760970FB6F894DEBF0FBECDBFC2
:105790000F89188D86E08C831A8309838FEF9FE72A
:1057A0009E838D83AE01455E5F4F588B4F87698D19
:1057B0007A8DCE0101960E94D128EF81F885E00F05
:1057C000F11F108260960FB6F894DEBF0FBECDBFFA
:1057D000DF91CF911F910F910895FA01AA272830E8
:1057E00051F1203181F1E8946F936E7F6E5F7F4FAE
:1057F0008F4F9F4FAF4FB1E03ED0B4E03CD0670F2A
:10580000781F891F9A1FA11D680F791F8A1F911D7C
:10581000A11D6A0F711D811D911DA11D20D009F4CC
:1058200068943F912AE0269F11243019305D31930E
:10583000DEF6CF010895462F4770405D4193B3E0F7
:105840000FD0C9F7F6CF462F4F70405D4A3318F09E
:10585000495D31FD4052419302D0A9F7EACFB4E04F
:10586000A6959795879577956795BA95C9F7009707
:105870006105710508959B01AC010A2E06945795A8
:10588000479537952795BA95C9F7620F731F841FFF
:10589000951FA01D0895F999FECF92BD81BDF89A7C
:1058A000992780B50895262FF999FECF1FBA92BD8A
:1058B00081BD20BD0FB6F894FA9AF99A0FBE0196F1
:1058C00008950F931F93CF93DF93689F8001699F83
:1058D000100D789F100D1124C8010E947F2CC82F35
:1058E000D92F209731F0A80160E070E08C2F0E9442
:1058F000B82DCE01DF91CF911F910F9108950F9395
:105900001F93CF93DF938230910510F482E090E0F3
:10591000E0918D08F0918E0820E030E0C0E0D0E00A
:1059200023C04081518148175907A8F048175907EB
:1059300061F482819381209719F09B838A832EC022
:1059400090938E0880938D0829C02115310529F088
:105950004217530710F0A90102C0BE01DF01028106
:105960001381EF019A01F8013097D9F6211531051D
:1059700009F1281B390B2430310590F412968D91D2
:105980009C9113976115710521F0FB01938382832C
:1059900004C090938E0880938D08FD01329644C018
:1059A000FD01E20FF31F81939193225031092D9352
:1059B0003C933AC020918B0830918C08232B41F402
:1059C000209102023091030230938C0820938B08BF
:1059D00020910002309101022115310541F42DB7CB
:1059E0003EB74091040250910502241B350BE09113
:1059F0008B08F0918C08E217F307A0F42E1B3F0BE5
:105A00002817390778F0AC014E5F5F4F2417350730
:105A100048F04E0F5F1F50938C0840938B08819382
:105A2000919302C0E0E0F0E0CF01DF91CF911F91B0
:105A30000F910895EF92FF920F931F93CF93DF93EF
:105A4000009709F48EC0DC01129713961C921E92E7
:105A50001297E0908D08F0908E08E114F10489F41B
:105A60002D913C911197280F391F80918B089091AF
:105A70008C088217930789F5B0938C08A0938B0844
:105A800070C0E70120E030E001C0EA01CA17DB077F
:105A900038F44A815B819E0141155105B1F722C05E
:105AA000AC0142505109FA01D383C28300811181B4
:105AB000BC01600F711F6C177D0761F468817981EB
:105AC000600F711F6E5F7F4F718360836A817B817E
:105AD000738362832115310529F4B0938E08A09356
