:100000000C94F4010C94F4260C9426270C94582795
:100010000C9413020C9413020C9413020C9413020C
:100020000C9413020C94C2260C9413020C94130229
:100030000C9413020C9420250C9413020C9420258C
:100040000C9413020C9413020C9413020C941302DC
:100050000C9413020C9413020C9413020C941302CC
:100060000C9413020C9413020C9413020C941302BC
:100070000C9413020C9413020C9413020C941302AC
:100080000C9453250C9413020C9413020C94130239
:100090000C9413020C9413020C9413020C9413028C
:1000A0000C9413020C9413020C9413020C9413027C
:1000B0000C9413020C9413020C9413020C9413026C
:1000C0000C9413020C9413020C9413020C9413025C
:1000D0000C9413020C9413020C9413020C9413024C
:1000E0000C9413020C94330D0C94240D0C94F40C0A
:1000F0000C94F30D0C94E50C0C94D60C0C94C40CDD
:100100000C94B50C0C9413020C9413020C9413026F
:100110000C9413020C9413020C9413020C9413020B
:10012000BB14C114C414C714CA14CD14D314D014EE
:10013000D614D914DC14E514E814EB14EE14E2140C
:10014000B814BE14F114F414DF14B5144661696CCC
:10015000656420746F206F70656E2073656E736FB9
:1001600072206472697665720D0A004661696C6579
:100170006420746F206C6F6164206D79204144436A
:10018000206472697665720D0A002A4E524B204532
:1001900052524F522800293A20005461736B20704C
:1001A0006572696F6420746F6F206C617267652E71
:1001B00020506572696F64206D75737420626520CC
:1001C0006C657373207468616E20363120736563CB
:1001D0006F6E64732E00537461636B2077617320BC
:1001E0006E6F7420646566696E6564206173206C4F
:1001F0006172676520656E6F756768210054617371
:100200006B20537461636B204F766572666C6F77F9
:1002100000496E76616C696420537461636B205091
:100220006F696E74657200526573657276652045FC
:1002300072726F7220696E205363686564756C65B5
:1002400072005461736B2052657365727665205637
:10025000696F6C61746564005363686564756C658F
:1002600072204D69737365642057616B657570000A
:100270004475706C696361746564205461736B20AC
:10028000494400556E6578706563746564205265F5
:1002900073746172740049646C65206F72204B65E1
:1002A000726E656C20537461636B204F7665726665
:1002B0006C6F77004578747261205461736B2073A2
:1002C0007461727465642C206973206E726B5F6355
:1002D00066672E68206F6B3F004C6F7720566F6CFF
:1002E0007461676500556E68616E646C6564204971
:1002F0006E7465727275707420566563746F7200E7
:1003000054696D6572204F766572666C6F77005325
:1003100057205761746368646F6720526573746116
:100320007274005761746368646F672052657374F8
:10033000617274004465766963652044726976650C
:1003400072204572726F72004B65726E656C20662A
:10035000756E6374696F6E206E6F7420696D706C5A
:10036000656D656E746564004661696C65642074D2
:100370006F20637265617465205369676E616C00FC
:100380004661696C656420746F2063726561746591
:100390002053656D6170686F72650042726F776E91
:1003A000204F7574204465746563740045787465E6
:1003B000726E616C20526573657400554E4B4F57D9
:1003C0004E000D0A535441434B2044554D500D0AE5
:1003D00000202B2D2E303132333435363738396802
:1003E000004546476566670011241FBECFEFD1E484
:1003F000DEBFCDBF13E0A0E0B2E0EEE4FDE500E03B
:100400000BBF02C007900D92A634B107D9F716E0D2
:10041000A6E4B3E001C01D92AF34B107E1F70E943A
:100420007F280C94A52E0C941625CF93DF9300D033
:10043000CDB7DEB70E943C1D1F928F9380E292E001
:100440009F938F930E948F2D65E083E00E94E922A5
:10045000E82E0F900F900F900F908FEFE81204C0CE
:100460008CE491E00E94610E0EE212E043E061E054
:100470008E2D0E948A2380E197E20E94C42342E0ED
:10048000BE016F5F7F4F8E2D0E946D238A818F93F7
:1004900089818F931F930F930E948F2D83E090E0AB
:1004A0000E94821180E090E00E94821180E090E042
:1004B0000E946B1129813A814F2D440F550BE09119
:1004C000F503F091F603E40FF51F31832083F394D5
:1004D0000F900F900F900F9080917C04F81201C044
:1004E000F12C0E94A91CC2CFCF9365E172E08EE48B
:1004F00093E00E94C82740E850E067EF73E08EE485
:1005000093E00E94CC2740E850E067EF73E08EE470
:1005100093E00E94CC27C1E0C0935603C0935503DB
:10052000C0935703C09358031092590310925A0373
:1005300010925B0310925C0380E894E8AEE1B0E0B7
:1005400080935D0390935E03A0935F03B093600379
:10055000109261031092620310926303109264037D
:10056000109265031092660310926703109268035D
:100570001092690310926A0310926B0310926C033D
:1005800010926D0310926E0310926F03109270031D
:100590008EE493E00E94111B6DEA73E08DEF94E00E
:1005A0000E94C82740E850E061E773E08DEF94E0D7
:1005B0000E94CC2782E080930505C0930405C09378
:1005C0000605C093070510920805109209051092C0
:1005D0000A0510920B0580E099EFA2E0B5E980933F
:1005E0000C0590930D05A0930E05B0930F05109286
:1005F0001005109211051092120510921305109219
:1006000014051092150510921605109217051092F8
:1006100018051092190510921A0510921B051092D8
:100620001C0510921D0510921E0510921F058DEFDE
:1006300094E0CF910C94111B63E08DEF97E00E9442
:10064000D1228F3F21F48BE691E00C94610E089546
:100650003F924F925F926F927F928F929F92AF9252
:10066000BF92CF92DF92EF92FF920F931F93CF939F
:10067000DF93EC01042F312C10E0442E552447FC6D
:100680005094662E772467FC7094842E992487FCFE
:100690009094A92CB92C47C0AA0FBB1FAC0FBD1F4B
:1006A0000D90BC91A02D9D010E94DC2AC60ED71E84
:1006B000E81EF91E4F5F04C0412FC12CD12C7601DA
:1006C000A42FB0E0AE17BF073CF3C701B601A501E8
:1006D00094010E941F2BCA01B9010E941C2A0E948A
:1006E000862A6B017C011F923F9287E492E09F93E0
:1006F0008F930E948F2DC701B6010E94F0299F930E
:100700008F937F936F9385E592E09F938F930E94E1
:100710008F2D3394100F8DB79EB70A960FB6F894AD
:100720009EBF0FBE8DBFF201E10FF11D6E167F0659
:100730001CF680E090E0DF91CF911F910F91FF9028
:10074000EF90DF90CF90BF90AF909F908F907F9071
:100750006F905F904F903F9008950E943C1D1F92B4
:100760008F9380E292E09F938F930E948F2D0F9042
:100770000F900F900F9083E090E00E94821180E034
:1007800090E00E94821183E090E00E946B114AE0A9
:1007900060917C048091F5039091F6030E942803F8
:1007A0000E94A91CE8CF80914A05813011F48FEF97
:1007B000089581E080934A0560FF15C0739A1092F6
:1007C0004F0580917C00807E80937C0090917C001E
:1007D00080917C00807E892B80937C0088EE93E062
:1007E0000E94C42305C0862F867009F76770F9F24E
:1007F00081E00895739810924A050E943A08EAE74A
:10080000F0E080818F77808381E00895613019F472
:1008100080914F0508958FEF0895613059F52C3080
:1008200069F420934F0580917C00807E80937C004A
:1008300080917C0090917C00836012C02D3020F06C
:1008400081E00E946B1416C020934F0580917C00BC
:10085000807E80937C0080917C0090917C00822B34
:10086000907E892B80937C0088EC90E00E94C423CA
:1008700081E008958FEF08950F931F93CF93DF9337
:10088000CDB7DEB766970FB6F894DEBF0FBECDBF0B
:10089000AE014F5F5F4F66E170E08AEA90E00E9430
:1008A0004408FE01329660E275E0CE0148969F0151
:1008B00021503109D9011C9100E02081A801422B6F
:1008C0009A01DB012D933D93BD013296E817F9079C
:1008D00071F766960FB6F894DEBF0FBECDBFDF91FD
:1008E000CF911F910F910895EAE7F0E083E08083B4
:1008F00080818068808310924F05ACE7B0E08C91D6
:10090000807E8C939C918C91807E892B8C938081AE
:100910008F77808308951DB86B9A739A0E94740430
:100920000E942A088EEE0E9427080E943C04109222
:100930004A0581E0089588EC90E00C94C4238091EE
:100940007A00806480937A0080917A0084FFFCCFE3
:100950000E949B042091780030917900932F80E0D1
:10096000AC01422B9A01C90108954F925F926F9298
:100970007F928F929F92AF92BF92CF92DF92EF922F
:10098000FF921F93CF93DF9300D000D0CDB7DEB797
:10099000182F8090460590904705A0904805B0908C
:1009A000490580EA881A8FE0980AA108B108809268
:1009B000360590923705A0923805B0923905A50109
:1009C0009401C501B4010E94FB2A20E030E140E01F
:1009D00050E00E94412B29833A834B835C83C09073
:1009E0002005D0902105EE24D7FCE094FE2CF2E007
:1009F000CC0CDD1CEE1CFF1CFA95D1F7A0912E0546
:100A0000B0912F050E94F32A20E038E040E050E04A
:100A10000E94412B29013A01A0912205B0912305A2
:100A2000A50194010E94F32A20E038E040E050E064
:100A30000E94412B420E531E641E751EC40CD51C11
:100A4000E61CF71C012E04C0CC0CDD1CEE1CFF1CA8
:100A50000A94D2F7E2E0CE0ED11CE11CF11CA4E016
:100A60004A2E512C612C712CC701B601A3019201B1
:100A70000E94412B69017A01209368053093690532
:100A800040936A0550936B05A0912405B09125050C
:100A9000A50194010E94F32A20E030E240E050E0FA
:100AA0000E94412B49015A01A0912C05B0912D05BE
:100AB00029813A814B815C810E94F32A20E030E059
:100AC00041E050E00E94412B820E931EA41EB51EF1
:100AD000F2E08F0E911CA11CB11CC501B401A30151
:100AE00092010E94412B2093500530935105409371
:100AF000520550935305A0912605B0912705305813
:100B00004F4F5F4F0E94E82A20E030E840E050E07D
:100B10000E94412B49015A012093540530935505F9
:100B2000409356055093570520916005309161051B
:100B300040916205509163052C193D094E095F09EA
:100B400060E573EC80E090E004C09595879577951B
:100B500067951A95D2F70E94FB2A60935C05709303
:100B60005D0580935E0590935F0597FD09C0660F54
:100B7000771F881F991FA50194010E941F2B08C091
:100B8000A50194010E941F2B220F331F441F551FE4
:100B9000209364053093650540936605509367057F
:100BA000C0906405D0906505E0906605F0906705FB
:100BB000C701B60120E031E040E050E00E94412B47
:100BC000CA01B9010E94FB2A9B01AC01AEEDBBE05A
:100BD0000E94E82A412C512C32016394A301920116
:100BE0000E94412B49015A0120934B0530934C053B
:100BF00040934D0550934E05A3E4B3EEA701960133
:100C00000E94F62AA30192010E94412B20933E05E7
:100C100030933F054093400550934105C501B40111
:100C2000620F731F841F951F6153714F8F4F9F4F2A
:100C300020E130E040E050E00E94412B2C0D3D1DB2
:100C40004E1D5F1D20936405309365054093660536
:100C500050936705B901CA010F900F900F900F9044
:100C6000DF91CF911F91FF90EF90DF90CF90BF90D9
:100C7000AF909F908F907F906F905F904F9008956E
:100C8000CF92DF92EF92FF9280912A0590912B05EF
:100C900020913A0530913B0540913C0550913D052E
:100CA000281B390B41095109A0912805B09129054C
:100CB0000E94E82A20E030E840E050E00E94412B0A
:100CC00069017A0120934B0530934C0540934D0503
:100CD00050934E056091320570913305882777FD5A
:100CE0008095982FBBE0660F771F881F991FBA95D4
:100CF000D1F72091340530913505442737FD4095D3
:100D0000542F2C0D3D1D4E1D5F1D0E94412B209325
:100D10003E0530933F054093400550934105C20E78
:100D2000D31EE41EF51EC0924605D0924705E09200
:100D30004805F0924905C701B601685F7F4F8F4FA4
:100D40009F4F20E130E040E050E00E94412B209393
:100D50004205309343054093440550934505B9013E
:100D6000CA01FF90EF90DF90CF900895CF93DF936B
:100D700000D01F92CDB7DEB78EE28B83AE014D5F00
:100D80005F4F61E070E084EF90E00E94620984E9C7
:100D900091E10E94C423AE014F5F5F4F62E070E0BB
:100DA00086EF90E00E944408398120E08A81A90101
:100DB000482BCA01A0E0B0E080933A0590933B0530
:100DC000A0933C05B0933D050F900F900F90DF91DD
:100DD000CF9108950E94B6060C9440061F93CF93BE
:100DE000DF9300D000D0CDB7DEB7182F982F9295A3
:100DF000990F990F907C9C5C9C83AE014C5F5F4F78
:100E000061E070E084EF90E00E94620984E991E182
:100E10000E94C423AE014F5F5F4F63E070E086EF36
:100E200090E00E9444088A81498150E060E070E0CF
:100E3000BA0155274427582B8B81480F511D611D3E
:100E4000711D28E030E0211B310904C075956795BC
:100E5000579547952A95D2F74093600550936105C1
:100E600060936205709363050F900F900F900F9041
:100E7000DF91CF911F910895CF93C82F0E94EE0666
:100E80008C2FCF910C94B504AF92BF92DF92EF926A
:100E9000FF920F931F93CF93DF931F92CDB7DEB7CF
:100EA0005A0180917A00806880937A00822F815065
:100EB000823018F0243009F094C080914F058730BB
:100EC000A0F429830E949F042981223021F4F50196
:100ED000808391832EC0213009F035C09695879587
:100EE00096958795F50180832EC08C3071F530E49E
:100EF000D32EE12CF12C01E014E029830E949F0401
:100F000029818017910708F48C01E816F90608F486
:100F10007C018DE790E029830E94C423DA94298123
:100F2000D110EBCFE01AF10A223029F4F501E0826A
:100F3000F18281E04FC0213031F4F694E794F694C9
:100F4000E794F501E08280E045C08B3069F51092AE
:100F500058051092590510925A0510925B057A991E
:100F6000FECF7A9BFECF8091580590915905A091B4
:100F70005A05B0915B050196A11DB11D80935805DE
:100F800090935905A0935A05B0935B057A99EBCFDE
:100F9000F501808380915905818380915A05828370
:100FA00080915B058383CFCF982F9950923058F66C
:100FB0002430B9F48A3019F40E94EA0605C00E9470
:100FC000EA0680E00E943C07F5016083718382831A
:100FD000938383E090917A009F7790937A008F5F5C
:100FE00001C080E00F90DF91CF911F910F91FF9092
:100FF000EF90DF90BF90AF9008958230A9F028F471
:10100000882349F08130D9F409C08430A9F078F000
:101010008530A9F406C080E00C948B0481E00C9428
:10102000D30385E00C94440782E00C94FA0361300A
:1010300061F480914F05089584E00C940D0460E004
:101040008CE00E940F1580E008958FEF0895809343
:101050006D05089582E08093B8001092B900E4E62F
:10106000F0E080818F778083ECEBF0E0808184601A
:1010700080830895E4E6F0E080818083ECEBF0E08B
:1010800080818B7F80830895292F30E0277033275C
:10109000220F90916D05292B35E6F4EAE4E8A22FA2
:1010A000A160315009F48DC0F093BC009091BC0058
:1010B00097FFFCCF9091B900987F90936C05903189
:1010C00029F0983389F3983009F07BC02093BB0056
:1010D000E093BC009091BC0097FFFCCF9091B900C9
:1010E000987F90936C059032E1F29833E9F2983151
:1010F00009F061C08093BB00E093BC009091BC00FC
:1011000097FFFCCF9091B900987F90936C05903336
:1011100059F1983349F2983209F04DC0F093BC0070
:101120009091BC0097FFFCCF9091B900987F90936D
:101130006C05903129F0983309F4B6CF9830D9F581
:10114000A093BB00E093BC009091BC0097FFFCCF44
:101150009091B900987F90936C05903419F1983470
:1011600019F0983341F5A0CF20E030E026C061307F
:10117000710509F494E89093BC008091BC0087FF4E
:10118000FCCF8091B900887F80936C05803521F079
:10119000883589F460E070E08091BB0081936150F4
:1011A000710902C0FA0194EC9F01241B350B16163D
:1011B0001706ECF202C02FEF3FEF84E98093BC00EA
:1011C00002C02FEF3FEFC9010895680F791F9C01FE
:1011D00027606217730718F0B9016F5F7F4F392FCF
:1011E000330F3E7020916D05322BE5E6A4EAF4E85A
:1011F000E15009F463C0A093BC002091BC0027FF1C
:10120000FCCF2091B900287F20936C05203129F074
:10121000283389F3283009F051C03093BB00F09394
:10122000BC002091BC0027FFFCCF2091B900287F93
:1012300020936C052032E1F22833E9F22831C1F520
:101240008093BB00F093BC002091BC0027FFFCCF33
:101250002091B900287F20936C05203329F0283392
:1012600051F2283229F503C020E030E023C0681B8A
:10127000790B20E030E0E4E814C0DA018D91AD0193
:101280008093BB00E093BC008091BC0087FFFCCF43
:101290008091B900887F80936C05883249F42F5F74
:1012A0003F4FCB01821B930B1816190634F302C073
:1012B0002FEF3FEF84E98093BC0002C02FEF3FEF98
:1012C000C9010895CF92DF92EF92FF920F931F937F
:1012D000CF93DF936C018B017A01C0E0D0E0A701CE
:1012E000B801C6010E94E5088F3F2FEF920761F019
:1012F000C80ED91E081B190BE80EF91EC80FD91FFE
:101300001016110664F302C0CFEFDFEFCE01DF91BC
:10131000CF911F910F91FF90EF90DF90CF900895A4
:1013200080916C051F928F938BE692E09F938F9331
:101330000E948F2D0F900F900F900F900895909115
:1013400041019F719F31D9F380934201089581E05B
:101350008093740508951092740508958091410159
:101360008F718F31D9F3809141018F71E1F08F300E
:10137000D1F0809141018F71883031F48091390131
:1013800082608093390109C088E00E949F098091A2
:1013900041018F718830D9F7F1CF809141018F7170
:1013A00011F08F30D1F70895809141018F718F3105
:1013B000D9F3809141018F7111F08F3051F48091F8
:1013C00039018D7F80933901809141018F7188307F
:1013D000D9F70895E5E4F1E09081907F90839081C2
:1013E0008F70892B80830895E7E5F1E080818D7F00
:1013F00080830895E7E5F1E080818260808308952D
:10140000EEE6F1E080818F7E80830895EEE6F1E0E4
:101410008081806180830895809360019093610151
:1014200090937E0580937D05089590937805809331
:101430007705E8E4F1E08081807E80838081682BFD
:10144000608308959093490380934803089590938F
:1014500047038093460308951F93CF93DF9370E271
:101460007093440170EC7093450160626093480191
:1014700065EC6093490167EA60934B0160E8609313
:101480004C012093600130936101409362015093BD
:101490006301E6E4F1E0C081A08160811081C29522
:1014A000C695C77070E4C79FE00111241295169588
:1014B00013701C2BA295A695A37070E1A79FD00175
:1014C00011241A2B629566956370A4E06A9FB0019F
:1014D0001124162B10936D016081E0816295669551
:1014E000637070E0660F771F6064E295E695E370C5
:1014F000E62BE0936E0110926C016FEF60934E014A
:1015000090937805809377051092790510927A056B
:1015100050937C0540937B0530937E0520937D0599
:1015200010927F0581E080938905109298051092B2
:10153000880510927405DF91CF911F91089586E17F
:101540000C949F0986E10C949F0988E00E949F09F2
:101550001092980508953F924F925F926F927F92FA
:101560008F929F92AF92BF92CF92DF92EF92FF92B3
:101570000F931F93CF93DF93EC013B01809189057B
:10158000811102C0CFEF1CC19E81809179058F5FD0
:101590008093790580918101807E816090FB85F93F
:1015A0008F7380648093810188E8809382018091A9
:1015B0007405882361F08FEF809383018AEA9AEAA9
:1015C00090938901809388018FEF9FEF11C08091E4
:1015D0007905809383013091610120916001932FFF
:1015E00080E0822B90938901809388018881998182
:1015F000909387018093860130916301209162016D
:10160000932F80E0822B90938501809384014A81FF
:10161000842F992787FD90956B817C81592F8AE8CB
:1016200091E00E940F2D8A81855F80938001309028
:1016300041018FE13822832D81508230C0F381E156
:101640003816A9F382E1381691F38FE1381679F351
:1016500088E0381649F086E0381631F086E1381611
:1016600019F089E038128ECF86E10E949F098D81A2
:10167000811107C089E00E949F098E81882391F023
:101680000EC080914801806880934801809141019B
:1016900087FFFCCF8091410186FF74CFEBCF89E1BA
:1016A0000E949F096114710499F180E895E00E94FD
:1016B000421D8091800590918105A0918205B09195
:1016C000830580938A0590938B05A0938C05B09336
:1016D0008D05D30120E432E44FE050E00E94E82A77
:1016E000009184051091850520918605309187052C
:1016F000600F711F821F931F60938E0570938F057B
:1017000080939005909391058AE895E00E94331E9E
:101710001092880582E00E949F09412C512C08C03C
:101720008FEF481A580A88EE48168DEF580621F0B8
:10173000809188058823A1F36114710421F48E81BE
:1017400081112DC034C080E895E00E94421D809038
:10175000800590908105A0908205B0908305C0908F
:101760008405D0908505E0908605F090870500916E
:101770008A0510918B0520918C0530918D05409143
:101780008E0550918F05609190057091910589E9C2
:1017900095E00E949E1D8F3F09F0BACFD0CF809177
:1017A000420182958695877011F0CFEF06C088EED2
:1017B00048168DEF5806C9F3C1E0832D0E949F099A
:1017C0008C2FDF91CF911F910F91FF90EF90DF90C1
:1017D000CF90BF90AF909F908F907F906F905F90D1
:1017E0004F903F90089560E070E00C94AB0ACF9367
:1017F000DF9380918905882341F1C0914101CF7128
:101800008C2F81508230C8F3C131B9F3C231A9F3B2
:10181000CF3199F3C83021F0C63011F0C631A9F4A8
:1018200086E10E949F098091480180688093480169
:101830008091410187FFFCCFD09141018C2F0E9404
:101840009F09D6FB882780F901C08FEFDF91CF91E8
:10185000089580918905882309F485C080919805B1
:10186000882309F47EC080917B01E0917705F09197
:10187000780590E002972481332727FD30952817BB
:1018800039070CF470C0E0917705F09178058091EC
:1018900082018083E0917705F0917805809187013E
:1018A0009091880192838183E0917705F09178058A
:1018B00080917B018B508383A0917705B09178054F
:1018C000E0917705F091780513969C9184818917B2
:1018D0003CF0E0917705F0917805838187FF0DC09A
:1018E0001092980580914C018F7780934C018091E4
:1018F0004C01806880934C0136C0A0917705B0916F
:101900007805E0917705F091780513964C91842F36
:10191000992787FD9095592F69E871E08581968117
:101920000E940F2DE0917705F0917805809180015C
:1019300085FB882780F98783E0917705F09178050A
:101940008091470180871092980580914C018F7794
:1019500080934C0180914C01806880934C0181E020
:10196000089580E008958FEF08951F920F920FB6AB
:101970000F9211248F9380E880934F018F910F90E5
:101980000FBE0F901F9018951F920F920FB60F92D7
:1019900011248F9381E08093880580E480934F0128
:1019A0008F910F900FBE0F901F9018951F920F925E
:1019B0000FB60F9211248F9380E280934F018F9185
:1019C0000F900FBE0F901F9018951F920F920FB699
:1019D0000F9211248F9380E180934F018F910F908C
:1019E0000FBE0F901F9018951F920F920FB60F9277
:1019F00011240BB60F922F933F934F935F936F93E6
:101A00007F938F939F93AF93BF93EF93FF9384E064
:101A100080934F01E0914803F0914903309709F01A
:101A20000995FF91EF91BF91AF919F918F917F9118
:101A30006F915F914F913F912F910F900BBE0F903F
:101A40000FBE0F901F9018951F920F920FB60F9216
:101A500011248F9382E080934F018F910F900FBEDE
:101A60000F901F9018951F920F920FB60F9211248E
:101A70008F9381E080934F018F910F900FBE0F9055
:101A80001F901895E9E4F1E09081907F9083908118
:101A90008F70892B808308958FEF0895089508959E
:101AA00008958FEF089580917205909173050895C0
:101AB00080E00895089581E0089581E0089581E02F
:101AC000089508950895089508950895089508952E
:101AD0000895E7E3F1E0808183608083989AA09A7B
:101AE0008DB1806E8DB98EB1806E8EB90895E7E3A9
:101AF000F1E0808183608083989AA0988DB1806E98
:101B00008DB98EB1806E8EB90895CF92DF92EF922B
:101B1000FF920F931F93CF93DF93CDB7DEB7279735
:101B20000FB6F894DEBF0FBECDBF0E94AD12E0919C
:101B30007705F0917805C080D38005811681E08417
:101B40000E94290C18161CF082E892E006C0F801E9
:101B5000F080F11007C081EA92E00E94AC2D0E9453
:101B6000AF1232C0F5E0FF1204C08AE090E00E949C
:101B7000A62DC80101969F938F938E2D992787FDDF
:101B800090959F93EF921F92FF921F92CF9283ECBA
:101B900092E09F938F930E948F2D1D830C83FA9464
:101BA000F801F082DB821E821F828FEF9FEF9A8303
:101BB00089830E94AF12CE0101960E94F30B0FB6EB
:101BC000F894DEBF0FBECDBF27960FB6F894DEBFE8
:101BD0000FBECDBFDF91CF911F910F91FF90EF907E
:101BE000DF90CF9008951F920F920FB60F9211249D
:101BF0000BB60F922F933F934F935F936F937F9307
:101C00008F939F93AF93BF93EF93FF9380E001C0B7
:101C10008F5F90917B018917D8F38091460187FFF0
:101C200004C081E08093980504C08CEE92E00E948D
:101C3000AC2D88E080934F018091460187FF05C05D
:101C40008091740581110E94850DFF91EF91BF91E4
:101C5000AF919F918F917F916F915F914F913F9144
:101C60002F910F900BBE0F900FBE0F901F901895E5
:101C70008091C00087FFFCCF8091C0008F77809358
:101C8000C0008091C60008959091C00095FFFCCFE0
:101C90009091C0009F7D9093C0008093C6000895EE
:101CA0008FEF0895813031F48091C80087FD07C01F
:101CB00080E008958111FCCF8091C000F7CF81E0D2
:101CC0000895CF93DF93EC0107C060914B067091AC
:101CD0004C0690E00E94632DFE01219684918111B3
:101CE000F4CFDF91CF91089586E084B985B988EF6C
:101CF0008AB980EF8BB982E08EB980E681B9169AF5
:101D000008950C94740E8F3F09F466C0982F977055
:101D1000923051F130F4992359F0913009F05CC0C0
:101D200015C09430E9F170F1953009F055C046C006
:101D300092B186958695869521E030E0082E01C007
:101D4000220F0A94EAF7922B92B944C095B1869576
:101D50008695869521E030E0082E01C0220F0A9476
:101D6000EAF7922B95B936C098B1869586958695F7
:101D700021E030E0082E01C0220F0A94EAF7922BEE
:101D800098B928C09BB186958695869521E030E06C
:101D9000082E01C0220F0A94EAF7922B9BB91AC0B1
:101DA0009EB186958695869521E030E0082E01C08B
:101DB000220F0A94EAF7922B9EB90CC091B3869534
:101DC0008695869521E030E001C0220F8A95EAF7DA
:101DD000922B91BB81E008958FEF08958F3F09F416
:101DE0006DC0982F9770923069F130F4992361F0AB
:101DF000913009F063C017C0943009F441C088F1F4
:101E0000953009F05BC04BC092B18695869586955A
:101E100021E030E0082E01C0220F0A94EAF7209555
:101E2000292322B949C095B186958695869521E0EA
:101E300030E0082E01C0220F0A94EAF720952923EA
:101E400025B93AC098B186958695869521E030E00F
:101E5000082E01C0220F0A94EAF72095292328B9F9
:101E60002BC09BB186958695869521E030E0082EA3
:101E700001C0220F0A94EAF7209529232BB91CC030
:101E80009EB186958695869521E030E0082E01C0AA
:101E9000220F0A94EAF7209529232EB90DC091B399
:101EA00086958695869521E030E001C0220F8A95BF
:101EB000EAF72095292321BB81E008958FEF08954B
:101EC0008F3F39F1982F9770923081F028F4992341
:101ED00049F09130F1F408C0943061F048F0953049
:101EE000C1F40AC020B109C023B107C026B105C0A2
:101EF00029B103C02CB101C02FB130E08695869581
:101F0000869502C0359527958A95E2F7822F8170D4
:101F100008958FEF08958F3F09F4E7C0982F9770C9
:101F2000923009F456C030F4992369F0913009F0E9
:101F3000DCC02CC0943009F492C008F46DC0953018
:101F400009F0D3C0AFC020B186958695869530E064
:101F5000082E02C0359527950A94E2F792B120FD2C
:101F60000AC021E030E0082E01C0220F0A94EAF7EF
:101F7000922B92B921C021E030E0082E01C0220F3F
:101F80000A94EAF72095292322B916C023B1869531
:101F90008695869530E0082E02C0359527950A94DF
:101FA000E2F795B120FD0AC021E030E001C0220F28
:101FB0008A95EAF7922B95B981E0089521E030E007
:101FC000082E01C0220F0A94EAF72095292325B98B
:101FD000F3CF26B186958695869530E0082E02C00F
:101FE000359527950A94E2F798B120FD0AC021E0C3
:101FF00030E0082E01C0220F0A94EAF7922B98B91C
:10200000DBCF21E030E0082E01C0220F0A94EAF76E
:102010002095292328B9D0CF29B186958695869514
:1020200030E0082E02C0359527950A94E2F79BB15F
:1020300020FD0AC021E030E0082E01C0220F0A94E2
:10204000EAF7922B9BB9B8CF21E030E0082E01C00F
:10205000220F0A94EAF7209529232BB9ADCF2CB192
:1020600086958695869530E0082E02C03595279591
:102070000A94E2F79EB120FD0AC021E030E0082E6C
:1020800001C0220F0A94EAF7922B9EB995CF21E066
:1020900030E0082E01C0220F0A94EAF72095292388
:1020A0002EB98ACF2FB186958695869530E0082E79
:1020B00002C0359527950A94E2F791B320FD0AC036
:1020C00021E030E0082E01C0220F0A94EAF7922B9B
:1020D00091BB72CF21E030E0082E01C0220F0A949C
:1020E000EAF72095292321BB67CF8FEF08958F3F13
:1020F00009F4E5C0982F977061117DC0923099F175
:1021000030F4992361F0913009F0D9C01AC09430AD
:1021100009F44DC0D0F1953009F0D1C05AC091B149
:1021200086958695869521E030E001C0220F8A953C
:10213000EAF7822F8095892381B982B1822B82B9F7
:10214000BCC094B186958695869521E030E001C0AB
:10215000220F8A95EAF7822F8095892384B985B169
:10216000822B85B9AAC097B186958695869521E080
:1021700030E001C0220F8A95EAF7822F80958923EB
:1021800087B988B1822B88B998C09AB1869586950F
:10219000869521E030E001C0220F8A95EAF7822F70
:1021A000809589238AB98BB1822B8BB986C09DB16A
:1021B00086958695869521E030E001C0220F8A95AC
:1021C000EAF7822F809589238DB98EB1822B8EB943
:1021D00074C090B386958695869521E030E001C065
:1021E000220F8A95EAF7822F8095892380BB81B3DD
:1021F000822B81BB62C0923051F130F4992359F0A7
:10220000913009F05CC015C09430E9F170F195305F
:1022100009F055C046C091B186958695869521E016
:1022200030E0082E01C0220F0A94EAF7922B91B9F0
:1022300044C094B186958695869521E030E0082EBD
:1022400001C0220F0A94EAF7922B94B936C097B1D5
:1022500086958695869521E030E0082E01C0220FF4
:102260000A94EAF7922B97B928C09AB18695869579
:10227000869521E030E0082E01C0220F0A94EAF78B
:10228000922B9AB91AC09DB186958695869521E0C4
:1022900030E0082E01C0220F0A94EAF7922B9DB974
:1022A0000CC090B386958695869521E030E001C0FC
:1022B000220F8A95EAF7922B90BB81E008958FEF69
:1022C0000895811106C080B18695817091E08927BB
:1022D00008958FEF0895009711F483E20DC08130C7
:1022E000910511F48BE208C08230910511F483E36B
:1022F00003C0039729F48BE30E948B0F81E00895BC
:102300008FEF0895009711F483E20DC0813091059D
:1023100011F48BE208C08230910511F483E303C00D
:10232000039729F48BE30E94830E81E008958FEFD9
:102330000895009711F483E20DC08130910511F4E6
:102340008BE208C08230910511F483E303C0039748
:1023500029F48BE30E94EE0E81E008958FEF08953B
:10236000882319F085B78F7E02C085B7806185BF4D
:1023700081E008959091C80095FFFCCF8093CE0036
:1023800008959093C5008093C40086E08093C200B6
:10239000E1ECF0E080818B7F8083A0ECB0E08C9159
:1023A00082608C9380818861808308959093CD00B2
:1023B0008093CC0086E08093CA00E9ECF0E0808155
:1023C0008B7F8083A8ECB0E08C9182608C938081BD
:1023D0008861808308950E94C11168E37EE084E4EF
:1023E0009EE00E94182D90934C0680934B0668E364
:1023F0007EE084E49EE00E94182D90934A0680932C
:10240000490608958091C80087FFFCCF8091C800DD
:102410008F778093C8008091CE000895000000005F
:10242000000000000197D1F708950C946A2E0E94D5
:10243000722E0895EF92FF920F931F93CF93DF9325
:10244000EC0180E090E00E946A2EF82E8B8381E000
:1024500090E00E946A2EE82E8A8382E090E00E943B
:102460006A2E082F898383E090E00E946A2E182F3D
:10247000888384E090E00E946A2E9E2D9F0D900F2D
:10248000910F891302C081E001C08FEFDF91CF91DE
:102490001F910F91FF90EF900895CF93DF93EC0180
:1024A00085E090E00E946A2E888381E0DF91CF91E1
:1024B0000895FC01608186E090E00E94722E81E028
:1024C0000895CF93DF93EC0186E090E00E946A2E9E
:1024D000888381E0DF91CF9108950F931F93CF936D
:1024E000DF93EC0108E010E0C8010E946A2E899396
:1024F0000F5F1F4F08311105B9F781E0DF91CF91D0
:102500001F910F9108950F931F93CF93DF93EC01C9
:1025100008E010E06991C8010E94722E0F5F1F4F02
:1025200008311105B9F781E0DF91CF911F910F912B
:102530000895CF93DF93EC0187E090E00E946A2E2C
:10254000888381E0DF91CF910895FC01608187E06D
:1025500090E00E94722E81E00895F8940895789496
:1025600008950E94AD12FFCFCF93DF93CDB7DEB7B2
:10257000A3970FB6F894DEBF0FBECDBF0E94ED1635
:1025800080930F068F3F21F460E08EE00E940F15CC
:102590000E948F2580FF04C060E086E00E940F1536
:1025A000109212061092200610921F061092110629
:1025B000109210061092210610921E068FEF809343
:1025C000080680930A068093090680930B06809381
:1025D0000D0680930C0693E69093AD058093AB05B2
:1025E0009093CE058093CC059093EF058093ED05F5
:1025F00047E256E0509326064093250682E296E095
:1026000090932906809328062CE236E030932B061F
:1026100020932A0650932E0640932D0641E356E060
:102620005093300640932F063093330620933206A2
:10263000109224061092230610923506109234064A
:1026400010921506109214069093A2058093A1058E
:102650006FE570E2CE0101960E94C82740E850E085
:102660006DE774E0CE0101960E94CC2785E580934A
:102670007D0419861C861D861E861F86188A198A67
:102680001A8A1B8A1C8A1D8A1E8A1F8A188E198E16
:102690001A8E1B8E1C8E1D8E1E8E1F8E18A219A2C6
:1026A0001AA21BA281E0888792E09A878B87CE01CD
:1026B00001960E94111BA3960FB6F894DEBF0FBEC1
:1026C000CDBFDF91CF910895CBEAD5E0F12CD88032
:1026D0008FEFD81206C0F394A19693E0F912F7CFCA
:1026E00014C00BEA15E0E12CFE1441F0F8018081E2
:1026F000D81204C06D2D85E00E940F15E3940F5D84
:102700001F4FF3E0EF12F0CFE6CF0E940E1A91E2D6
:102710008902F0011124ED55FA4F8285809321063C
:10272000F0932006E0931F06F0931106E093100645
:10273000809312060E9450280E943A280E94542832
:10274000FFCFAF92BF92CF92DF92EF92FF920F93A3
:102750001F93CF93DF931F92CDB7DEB75C016B0160
:102760007A01DC0119968C911997823021F08091C1
:102770000E068C9302C0F501108280910E06833004
:1027800020F060E087E00E940F15D50119968C912A
:10279000823029F080910E068F5F80930E06809123
:1027A0000E06811103C081E080930E06F501308191
:1027B00021E23203F0011124ED55FA4FD182C0829B
:1027C000D50118968C91189782873C913203F001BD
:1027D0001124ED55FA4F83E081873C913203F001DB
:1027E0001124ED55FA4F30870C910203800111241A
:1027F0000D551A4FF8011582C5010B960E94C11E96
:10280000D8015C969C938E935B97F50103851485A4
:10281000258536850E3311052105310520F06081AF
:1028200086E10E940F15D5010C91112707FD109527
:10283000C5014B960E94C11E41E2409FD001419FBD
:10284000B00D1124AD55BA4F56969C938E93559763
:10285000F50100810403800111240D551A4FD801A0
:1028600055968D919C9156975B962D913C915C97D6
:10287000820F931F58969C938E935797C50143964A
:1028800049830E94C11EF801968F858FD5012C9136
:1028900049812403F0011124ED55FA4F858D968D61
:1028A000928F818F81E090E090A3878FF382E28204
:1028B00081E084870F90DF91CF911F910F91FF905E
:1028C000EF90DF90CF90BF90AF9008950C9483204D
:1028D00085E690E00895E0911F06F0912006848738
:1028E0000895E0911F06F0912006848508952091B7
:1028F0007B04222341F0FB01208320914C03FC0147
:10290000208381E0089580E0089580917B048823EE
:1029100009F483C00E94AD128AE891E00E94610E22
:1029200080914C031F928F9382E592E09F938F9347
:102930000E948F2D86E991E00E94610E0F900F900A
:102940000F900F9080917B04883110F010927B04DF
:1029500080917B0490E0FC013197E631F10508F0AD
:1029600046C0E057FF4F0C94BC2B8AE991E041C070
:1029700086ED91E03EC08DEF91E03BC081E192E0B9
:1029800038C087E292E035C082E492E032C088E548
:1029900092E02FC080E792E02CC083E892E029C04B
:1029A00086E992E026C084EB92E023C089ED92E0B4
:1029B00020C085EE92E01DC080E093E01AC08FE059
:1029C00093E017C083E293E014C084E393E011C066
:1029D00088E493E00EC088E693E00BC080E893E0C3
:1029E00008C08BE993E005C08CEA93E002C08BEB52
:1029F00093E00E94610E60914B0670914C068DE051
:102A000090E00E94632D60914B0670914C068AE025
:102A100090E00E94632D10927B0480E008958093E3
:102A20007B0460934C030C94851480937B04E091A9
:102A30001F06F0912006808580934C030C9485142A
:102A4000CF93DF931F92CDB7DEB7198207C080ED19
:102A500097E00E94C42389818F5F898389818436AE
:102A6000B0F30F90DF91CF91089581E090E00E9444
:102A700099110E94201581E090E00E9482110C942F
:102A8000201581E090E00E9499110E9420150E947B
:102A900020150E94201581E090E00E9482110C9484
:102AA0002015FF920F931F93CF93DF9300D01F92B7
:102AB000CDB7DEB71F928F9382E592E09F938F93FD
:102AC0008E010F5F1F4F1F930F930E94DB2D0F90FE
:102AD0000F900F900F900F900F90F12C6FC0F80196
:102AE000E80FF91F80818433B9F168F48133E9F08C
:102AF00020F4803309F05BC015C0823309F18333C1
:102B000009F055C022C08733C1F130F4853369F133
:102B1000863309F04CC02CC08833B1F1893309F0F9
:102B200046C03BC00E94411502C00E9435150E945C
:102B300041150E9441150E9441150E94411537C060
:102B40000E9435150E943515F4CF0E9435150E945C
:102B500035150E943515EFCF0E9435150E943515A9
:102B60000E9435150E943515E8CF0E94351502C028
:102B70000E9441150E94351504C00E9441150E9413
:102B800041150E94351506C00E9441150E9441154D
:102B90000E9441150E94351508C00E9441150E94EF
:102BA00041150E9441150E9441150E9435150E9451
:102BB00020150E9420150E942015F394F801019021
:102BC0000020E9F73197E01BF10B8F2D90E08E1775
:102BD0009F0708F484CF0F900F900F90DF91CF9153
:102BE0001F910F91FF9008955F926F927F928F9245
:102BF0009F92AF92BF92CF92DF92EF92FF920F938C
:102C00001F93CF93DF9382EC93E00E94610EE091DB
:102C10001F06F09120062085822F992787FD909529
:102C20009F932F9385E093E09F938F930E948F2D26
:102C3000E0911F06F0912006C281D381DF93CF93EC
:102C400089E393E09F938F930E948F2D88811F9239
:102C50008F938EE093E09F938F930E948F2DE0914E
:102C60001F06F091200681818F9380818F938BE1E5
:102C700093E09F938F930E948F2D809120068F93D6
:102C800080911F068F9385E293E09F938F930E941C
:102C90008F2D03EA15E0EDB7FEB774960FB6F894E2
:102CA000FEBF0FBEEDBFC0E0D0E085E3882E83E01D
:102CB000982E9EE0A92E93E0B92E2BE1C22E23E0A0
:102CC000D22E31E2532E45E2E42E43E0F42EF801F9
:102CD000628073807F926F92DF93CF939F928F92E7
:102CE0000E948F2DF30180811F928F93BF92AF922C
:102CF0000E948F2DF80181818F9380818F93DF92C5
:102D0000CF920E948F2D5C9EC0015D9E900D11247C
:102D10008D559A4F9F938F93FF92EF920E948F2D24
:102D200021960F5D1F4F8DB79EB742960FB6F89450
:102D30009EBF0FBE8DBFC330D10549F6DF91CF9145
:102D40001F910F91FF90EF90DF90CF90BF90AF90C9
:102D50009F908F907F906F905F900895CF93DF93B7
:102D6000E0911F06F0912006C281D38188818535CC
:102D700039F00E94F41581E00E94151585E58883DD
:102D8000E0911F06F0912006808191818115924487
:102D900038F00E94F41582E1DF91CF910C94151563
:102DA000DF91CF91089521E28202F0011124ED55C7
:102DB000FA4FA281B3818C91853519F085E58C930A
:102DC00008C0808191818115924428F082E10E949F
:102DD00015158FEF089581E008950F931F930091CB
:102DE000F1031091F2032091F3033091F40380E09A
:102DF00090E0B901A801082E04C076956795579513
:102E000047950A94D2F740FD19C041E050E060E0D8
:102E100070E0082E04C0440F551F661F771F0A94E8
:102E2000D2F7402B512B622B732B4093F10350931D
:102E3000F2036093F3037093F40305C001968032AC
:102E40009105B9F68FEF1F910F910895E0911F063C
:102E5000F091200665857685878590890895CF92C3
:102E6000DF92EF92FF920F931F93CF93DF931F9206
:102E7000CDB7DEB7C12CD12C7601C394082E04C087
:102E8000CC0CDD1CEE1CFF1C0A94D2F74091F10320
:102E90005091F2036091F3037091F4034C215D2192
:102EA0006E217F21452B462B472B09F463C0898374
:102EB0000E94AD12ECEAF5E09701860100951095AD
:102EC0002095309593E08981DF0111974C914F3F18
:102ED00049F144815581668177814C155D056E0508
:102EE0007F0541F41086118612861386DF01129742
:102EF0001C929083448155816681778140235123C0
:102F00006223732344835583668377834085518589
:102F10006285738540235123622373234087518741
:102F200062877387B19646E0EF30F40769F64EEF9B
:102F30005FEF6FEF7FEF04C0440F551F661F771FD1
:102F40008A95D2F78091F1039091F203A091F30357
:102F5000B091F40384239523A623B7238093F10330
:102F60009093F203A093F303B093F4030E94AF1283
:102F700081E001C08FEF0F90DF91CF911F910F91F2
:102F8000FF90EF90DF90CF9008950F931F9341E053
:102F900050E060E070E004C0440F551F661F771FCB
:102FA0008A95D2F7E0911F06F091200685859685D7
:102FB000A785B0898A019B01082319232A233B2373
:102FC000012B022B032BD1F0409550956095709505
:102FD00084239523A623B72385879687A787B08B5D
:102FE00081899289A389B48984239523A623B72351
:102FF000818B928BA38BB48B81E001C08FEF1F91EB
:103000000F9108954091F1035091F2036091F30301
:103010007091F403082E04C07695679557954795EF
:103020000A94D2F740FF1DC0E0911F06F0912006E0
:1030300041E050E060E070E004C0440F551F661F9F
:10304000771F8A95D2F785859685A785B089842BC9
:10305000952BA62BB72B85879687A787B08B81E00A
:1030600008958FEF0895CF92DF92EF92FF921F9312
:10307000CF93DF93C12CD12C7601C39404C0CC0C28
:10308000DD1CEE1CFF1C8A95D2F78091F103909114
:10309000F203A091F303B091F4038C219D21AE21A2
:1030A000BF21892B8A2B8B2B11F481E040C00E9419
:1030B000AD12EAEAF5E0CCEAD5E010E023E0808149
:1030C0008130A9F482859385A485B5858C219D21C5
:1030D000AE21BF21892B8A2B8B2B49F028831786A1
:1030E00016861082C286D386E486F58611E080813A
:1030F000823091F482859385A485B5858C159D05D4
:10310000AE05BF0549F428831786168610821286FD
:1031100013861486158611E0B196A19686E0ED30EF
:10312000F80769F60E94AF12111105C082E00E94F3
:103130006B148FEF01C081E0DF91CF911F91FF9061
:10314000EF90DF90CF9008950F931F93E0911F06AB
:10315000F0912006058516852785308906231723DB
:1031600028233923012B022B032B19F1618B728B3E
:10317000838B948B21E02783DC01CB0100900F0629
:1031800004C0B695A795979587950A94D2F780FFC6
:1031900003C00E94EF1B04C080E090E00E94161C58
:1031A000E0911F06F0912006018912892389348954
:1031B00003C000E010E09801B801C9011F910F9110
:1031C000089590911E0691111CC0909108069F3F92
:1031D00031F090910B069F3F21F421E003C020E0E5
:1031E00001C022E030E0F901EE0FFF1FE20FF31FF4
:1031F000E85FF94F82838083618381E080931E06BC
:1032000002C0E0E0F0E0CF01089526E088309207A8
:1032100029F08B50964021F481E0089580E00895D4
:103220008FEF08950E9405198F3F11F481E002C0CD
:10323000823021F40E946B148FEF0895992787FD47
:103240009095FC01EE0FFF1FE80FF91FE85FF94FA3
:103250008FEF80838283818380911E0681508093CB
:103260001E0681E00895CF92DF92EF92FF920F93B6
:103270001F93CF93DF931F92CDB7DEB70E9405193E
:103280008F3F11F481E002C0823021F40E946B1460
:103290008FEF49C0282F332727FD30958901000F74
:1032A000111F020F131F085F194FD80112962C919E
:1032B00012979C912917B4F589830E94AD12F801E9
:1032C00092819F5F9283E0911F06F0912006148205
:1032D000EAEAF5E00CEA15E08981C82EDD24C7FC96
:1032E000D094ED2CFD2C23E03081323091F44285D6
:1032F0005385648575854C155D056E057F0549F41C
:10330000D8012C931786168610821286138614868F
:103310001586B1960F5D1F4FB6E0ED30FB0721F724
:103320000E94AF1281E00F90DF91CF911F910F911A
:10333000FF90EF90DF90CF9008950F931F93CF935E
:10334000DF931F92CDB7DEB70E9405198F3F11F4AE
:1033500081E002C0823021F40E946B148FEF40C0E4
:1033600089830E94AD128981082F112707FD1095CE
:10337000F801EE0FFF1FE00FF11FE85FF94F928198
:10338000911116C0E0911F06F0912006978192607E
:103390009783992787FD9095A92FB92F818B928BC1
:1033A000A38BB48B0E94AF1280E090E00E94161CA9
:1033B000F801EE0FFF1FE00FF11FE85FF94F828168
:1033C00081508283A0911F06B091200681811B96B7
:1033D0008C931B9781E014968C930E94AF1281E02E
:1033E0000F90DF91CF911F910F9108950E940519C1
:1033F0008F3F11F481E002C0823021F40E946B14EF
:103400008FEF0895992787FD9095FC01EE0FFF1F20
:10341000E80FF91FE85FF94F82810895E0911406E3
:10342000F091150680810895E0911406F09115063B
:1034300003C00380F481E02D3097D9F70895CF922F
:10344000DF92EF92FF920F931F93CF93DF93E09160
:10345000A105F091A205309709F48AC040911406A5
:10346000509115064115510509F446C0DA0191E263
:10347000692F782F7603900111242D553A4F890139
:10348000065F1F4F7901C4E0EC0EF11C255F3F4F32
:103490006C9170E0969FE001979FD00D1124CD555F
:1034A000DA4FDC80DD2029F0DB84E801C880DC1401
:1034B00028F1E701D880DD2061F0969FE001979F19
:1034C000D00D1124CD55DA4FDA84E901C880DC141F
:1034D000A8F0969FE001979FD00D1124CD55DA4FAB
:1034E0007A85E8016881761748F013960D90BC91B3
:1034F000A02D109769F602C0A0E0B0E08083C381E0
:10350000D481D093A205C093A105A417B507B1F447
:10351000109749F0B483A383128211821296FC9310
:10352000EE93119706C01482138212821182FA83DD
:10353000E983F0931506E09314061AC011968D9155
:103540009C911297AC17BD0759F092838183B48385
:10355000A3831196CD91DC911297FC83EB8304C079
:1035600014821382928381831296FC93EE931197B7
:10357000DF91CF911F910F91FF90EF90DF90CF904F
:103580000895CF93DF93E0911406F09115063097DC
:1035900009F444C0992787FD9095208130E02817D1
:1035A000390781F4A381B481B0931506A093140662
:1035B00012961C921E92119718C00380F481E02D80
:1035C000309761F1208130E028173907B1F7C181C8
:1035D000D281838194819C838B83A381B481109752
:1035E00021F01296DC93CE931197A091A105B09192
:1035F000A205109739F4F093A205E093A105148277
:1036000013820AC0B483A3831296FC93EE9311979E
:10361000F093A205E093A10512821182DF91CF9170
:103620000895EF92FF920F931F93CF93DF93EC01D6
:103630004B815C8169817A818D819E810E94EB271B
:103640002F81222371F04B815C81E12CF12C00E071
:1036500010E020E030E0BC01CE010E94A1131F82E7
:103660000CC0E88121E2E202F0011124ED55FA4F8D
:103670002185233099F491838083E88181E2E802F7
:10368000F0011124ED55FA4F85899689892B41F473
:1036900082E0818788810E941F1A02C08FEF01C0DB
:1036A00081E0DF91CF911F910F91FF90EF900895EE
:1036B0001F93CF93DF93CDB7DEB728970FB6F8945B
:1036C000DEBF0FBECDBF29833A834B835C836D83FE
:1036D0007E838F8398870E94AD120E941325182F36
:1036E000CE0101960E94C11E8330910560F0E091E9
:1036F0001F06F0912006810F911D968B858B0E94ED
:10370000AF1281E001C08FEF28960FB6F894DEBFAC
:103710000FBECDBFDF91CF911F9108950E94BD27AD
:10372000E0911F06F091200685818111F7CF089561
:10373000FF920F931F93CF93DF93CDB7DEB72897F8
:103740000FB6F894DEBF0FBECDBF29833A834B83FB
:103750005C836D837E838F8398870E94AE160E9460
:10376000AD12E0911F06F091200681E0858381E093
:1037700090E090A3878F0E941325F82ECE0101962A
:103780000E94C11EE0911F06F09120060F2D10E04F
:10379000800F911F968B858B87EF8F1578F00E9495
:1037A000AC240F5F1F4F282F30E00217130734F4AB
:1037B0008F2D8E5F80937A040E94B0240E94AF12F6
:1037C0000E948E1B81E028960FB6F894DEBF0FBED4
:1037D000CDBFDF91CF911F910F91FF900895CF93AF
:1037E0000E94AD12E0911F06F091200681E08583D2
:1037F00086830E941325C82F883F88F40E94AC243A
:103800002C2F30E02F5F3F4F482F50E02417350713
:1038100034F48C2F8E5F80937A040E94B0240E942F
:10382000AF120E948E1B81E0CF910895CF93DF935A
:10383000EC010E94AD12E0911F06F091200681E09C
:103840008583D68BC58B0E941325C82F883F88F4AB
:103850000E94AC242C2F30E02F5F3F4F482F50E0C8
:103860002417350734F48C2F8E5F80937A040E94DE
:10387000B0240E94AF120E948E1B81E0DF91CF9195
:103880000895FF920F931F93CF93DF938C010E94B3
:10389000AD12E0911F06F091200681E085830E9421
:1038A0001325F82EE0911F06F0912006C82FD0E0D6
:1038B0000C0F1D1F168B058B87EF8F1570F00E9464
:1038C000AC242196282F30E0C217D30734F48F2D73
:1038D0008E5F80937A040E94B0240E94AF120E94EF
:1038E0008E1B81E0DF91CF911F910F91FF90089582
:1038F000CF93DF93EC010E94AE16209711F4C1E044
:10390000D0E00E94AD12E0911F06F091200681E008
:103910008583D0A3C78F0E941325C82F883F88F4C2
:103920000E94AC242C2F30E02F5F3F4F482F50E0F7
:103930002417350734F48C2F8E5F80937A040E940D
:10394000B0240E94AF120E948E1B81E0DF91CF91C4
:103950000895CF930E94AE160E94AD12E0911F060B
:10396000F091200681E090E090A3878F81E085832D
:103970000E941325C82F883F88F40E94AC242C2F66
:1039800030E02F5F3F4F482F50E02417350734F4C5
:103990008C2F8E5F80937A040E94B0240E94AF1215
:1039A0000E948E1B81E0CF910895E0911F06F09157
:1039B000200680850E94C11AE0911F06F091200622
:1039C00084E081870E94A91C81E008958F929F92D4
:1039D000AF92BF92CF92DF92EF92FF920F931F931D
:1039E000CF93DF93CDB7DEB760970FB6F894DEBF05
:1039F0000FBECDBF29873A874B875C876D877E874F
:103A00008F87988BCE0101960E94421D89809A80F3
:103A1000AB80BC80CD80DE80EF80F88409851A857C
:103A20002B853C854D855E856F857889CE0109960D
:103A30000E949E1D8F3F61F029853A854B855C85EC
:103A40006D857E858F8598890E94981B81E001C0D5
:103A50008FEF60960FB6F894DEBF0FBECDBFDF913B
:103A6000CF911F910F91FF90EF90DF90CF90BF907B
:103A7000AF909F908F900895E0911F06F0912006DF
:103A800080850895CF92DF92EF92FF92CF93DF93DC
:103A9000EC011C821D821E821F828091160690916D
:103AA0001706A0911806B091190688839983AA83F6
:103AB000BB83C0901A06D0901B06E0901C06F090C5
:103AC0001D06CC82DD82EE82FF820E941325A82F84
:103AD000B0E023EB36EE4EE050E00E94E82A6C0D99
:103AE0007D1D8E1D9F1D6C837D838E839F8313C0E0
:103AF0009A5CAA49BB438C839D83AE83BF83488174
:103B000059816A817B814F5F5F4F6F4F7F4F488341
:103B100059836A837B838C819D81AE81BF818115AE
:103B20002AEC92072AE9A2072BE3B20708F7DF91F4
:103B3000CF91FF90EF90DF90CF9008956F927F929A
:103B40008F929F92AF92BF92CF92DF92EF92FF92AD
:103B50000F931F93CF93DF93CDB7DEB760970FB668
:103B6000F894DEBF0FBECDBF3C0109831A832B83BF
:103B70003C834D835E836F83788789869A86AB8684
:103B8000BC86CD86DE86EF86F88AC980DA80EB8037
:103B9000FC808D819E81AF81B88509851A852B8532
:103BA0003C854D855E856F857889C016D106E20615
:103BB000F30608F442C00C151D052E053F0599F4C7
:103BC00084179507A607B707C0F1841B950BA60BB2
:103BD000B70BF30184839583A683B7831082118288
:103BE0001282138228C084179507A607B70790F49E
:103BF000F1E0CF1AD108E108F108C01AD10AE20AAF
:103C0000F30AF301C082D182E282F3829653A54681
:103C1000B44C09C0C01AD10AE20AF30AF301C08207
:103C2000D182E282F382841B950BA60BB70B8483AF
:103C30009583A683B78381E001C08FEF60960FB6AE
:103C4000F894DEBF0FBECDBFDF91CF911F910F91D2
:103C5000FF90EF90DF90CF90BF90AF909F908F90AC
:103C60007F906F900895FC0113C05A5C6A497B43B2
:103C70004483558366837783408151816281738158
:103C80004F5F5F4F6F4F7F4F4083518362837383DA
:103C9000448155816681778141158AEC58078AE90C
:103CA00068078BE3780708F708958F929F92AF9289
:103CB000BF92CF92DF92EF92FF920F931F93CF9319
:103CC000DF93CDB7DEB760970FB6F894DEBF0FBEB7
:103CD000CDBF09831A832B833C834D835E836F831F
:103CE000788789869A86AB86BC86CD86DE86EF8607
:103CF000F88A49855A856B857C8509811A812B81D3
:103D00003C81400F511F621F731FFC014083518390
:103D1000628373834D855E856F8578890D811E81F1
:103D20002F813885400F511F621F731F44835583B5
:103D3000668377830E94331E81E060960FB6F89405
:103D4000DEBF0FBECDBFDF91CF911F910F91FF90CE
:103D5000EF90DF90CF90BF90AF909F908F9008959D
:103D600060931606709317068093180690931906B1
:103D700020931A0630931B0640931C0650931D0691
:103D800008952F923F924F925F926F927F928F92FF
:103D90009F92AF92BF92CF92DF92EF92FF920F93DA
:103DA0001F93CF93DF93CDB7DEB762970FB6F8942A
:103DB000DEBF0FBECDBFFC014080518062807380AA
:103DC0006481758186819781411451046104710475
:103DD00009F46CC0F2E44F1651046104710408F058
:103DE0006CC07B018C0120E030E0A9016983FA827C
:103DF0000B831C832D833E834F835887E0E0F0E0E4
:103E0000B0E0A0E0198A1A8A312C812C912C01C0D3
:103E100093949F014B2F5A2F69897A89832D982D6E
:103E2000A980BA80CB80DC80ED80FE800F81188570
:103E30000E94C22B222E39874A875B876C877D8739
:103E40008E879F879F014B2F5A2F69897A89832DEF
:103E5000982D36534546544C6F4F7F4F8F4F9F4F91
:103E6000F901B42FA52F698B7A8B382E892E492D15
:103E700050E060E070E0441555056605770540F2B6
:103E800083EBA82E96EEB92E2EE0C22ED12CE12C7B
:103E9000F12C00E010E0222D39854A855B856C8588
:103EA0007D858E859F850E945F2B09C023EB36EEB2
:103EB0004EE050E00E941F2B02C020E030E0C9011C
:103EC00062960FB6F894DEBF0FBECDBFDF91CF91E3
:103ED0001F910F91FF90EF90DF90CF90BF90AF9028
:103EE0009F908F907F906F905F904F903F902F901A
:103EF0000895CF92DF92EF92FF92CF93DF93CDB7E9
:103F0000DEB728970FB6F894DEBF0FBECDBF6B01AA
:103F10007C013AE0F694E794D794C7943A95D1F7A8
:103F2000C982DA82EB82FC829B01AC0133704427A8
:103F3000552763EB76EE8EE090E00E94FB2A2C2D55
:103F40003A814B815C8128960FB6F894DEBF0FBE94
:103F5000CDBFDF91CF91FF90EF90DF90CF9008958C
:103F60002F923F924F925F926F927F928F929F9289
:103F7000AF92BF92CF92DF92EF92FF920F931F9377
:103F8000CF93DF93CDB7DEB762970FB6F894DEBF5D
:103F90000FBECDBFFC014080518062807380648180
:103FA000758186819781411451046104710409F47B
:103FB00065C07B018C0120E030E0A9016983FA82B1
:103FC0000B831C832D833E834F835887E0E0F0E012
:103FD000B0E0A0E0198A1A8A312C812C912C01C002
:103FE00093949F014B2F5A2F69897A89832D982D9D
:103FF000A980BA80CB80DC80ED80FE800F8118859F
:104000000E94C22B222E39874A875B876C877D8767
:104010008E879F879F014B2F5A2F69897A89832D1D
:10402000982D36534546544C6F4F7F4F8F4F9F4FBF
:10403000F901B42FA52F698B7A8B382E892E492D43
:1040400050E060E070E0441555056605770540F2E4
:1040500043EBA42E56EEB52E6EE0C62ED12CE12CED
:10406000F12C00E010E0222D39854A855B856C85B6
:104070007D858E859F850E945F2B06C023EB36EEE3
:104080004EE050E00E941F2BB901CA0162960FB6A4
:10409000F894DEBF0FBECDBFDF91CF911F910F917E
:1040A000FF90EF90DF90CF90BF90AF909F908F9058
:1040B0007F906F905F904F903F902F900895C1E058
:1040C000D2E00E94AE160E94AC24843028F4C09343
:1040D00013060E94BD2708C08AE090E00E94C42316
:1040E000D09313060E94B12780917D04853519F085
:1040F00088E00E94151580917E41853511F388E096
:104100000E941515DECF2F923F924F925F926F92D1
:104110007F928F929F92AF92BF92CF92DF92EF9257
:10412000FF920F931F93CF93DF9300D000D01F9285
:10413000CDB7DEB70E94E0230E94AD120E94FF239C
:104140000E9407249A8389838AEF0E94B024A09159
:104150007A04B0E023EB36EE4EE050E00E94E82A0D
:104160006B017C0180911A0690911B06A0911C06A0
:10417000B0911D06C80ED91EEA1EFB1EC701B6016E
:104180000E941F2BC61AD70AE80AF90A8091160660
:1041900090911706A0911806B091190673EB872E1F
:1041A00076EE972E7EE0A72EB12C12C02AECD21A02
:1041B0002AE9E20A2BE3F20AC701B601A50194013C
:1041C0000E941F2BC61AD70AE80AF90AD301C201B6
:1041D000412C512C32014394480E591E6A1E7B1EFD
:1041E000C114EAECDE06EAE9EE06EBE3FE06F0F6C1
:1041F0008093160690931706A0931806B09319069D
:10420000C0921A06D0921B06E0921C06F0921D0680
:10421000E0911F06F091200685818823C1F08185F9
:104220008430A9F08781823009F405C0882341F0E9
:104230008681811102C085E001C083E0818704C0CE
:1042400083E081871782168280850E94C11AE091DF
:104250001F06F0912006858D968D892B91F1608542
:10426000662379F18185843061F1218D328D8091D1
:104270007A0490E02817390750F482E00E940F1565
:10428000E0911F06F0912006128E118E04C0281BAB
:10429000390B328F218FE0911F06F0912006108597
:1042A000218D328D232B69F4612F83E00E940F153D
:1042B000E0911F06F091200683E08187812F0E9404
:1042C000C11A8BEA682E85E0782E9CEA892E95E04B
:1042D000992E2AEAA22E25E0B22E39EAC32E35E025
:1042E000D32E48EAE42E45E0F42E00E61AEE40E034
:1042F0002AEF30E0212C312C21012394D3018C9121
:104300008F3F09F4BFC0F70110828C91882309F414
:104310003FC0D4018C918430D9F11C966D917C9171
:104320001D9780917A0490E06817790738F0681B30
:10433000790B1D967C936E931C9703C0F401158630
:104340001486D4011E966D917C911F97681779078A
:1043500038F0681B790B1F967C936E931E970FC0E5
:10436000F401628973898617970728F4681B790B13
:104370007787668704C00E940B2B97878687F40196
:1043800086859785892B21F48289938997878687EB
:10439000D4018C91833009F075C01C968D919C914D
:1043A0001D97892B09F063C0F50180818823A1F056
:1043B000D6018C91882381F0D201C10100900F06B3
:1043C00004C0880F991FAA1FBB1F0A94D2F7F401DB
:1043D00080879187A287B387D5011C92F60110824E
:1043E000D7011C92F4018689978981309105D1F417
:1043F00084899589918B808B82E0808386859785DF
:104400009587848782899389892B11F4358724873E
:10441000842F2C833D834B830E941F1A2C813D8166
:104420004B8125C0D40164897589718B608BFC0137
:10443000319752968D919C915397E89FB001E99FD7
:10444000700DF89F700D11241D967C936E931C9730
:104450001F967C936E931E97892B21F41D963C9397
:104460002E931C9781E090E0F401978B868BD4010A
:104470001C968D919C911D97009721F080179107B4
:1044800008F48C014F5FB1E26B0E711CE1E28E0EFD
:10449000911CF1E2AF0EB11C81E2C80ED11C91E279
:1044A000E90EF11C433009F029CF0E940E1AF82EB4
:1044B000A1E28A02F0011124ED55FA4F8285809322
:1044C0002106F0931106E0931006FF2091F0258D50
:1044D000368D232B51F0218D328D2A3F310528F462
:1044E00020173107F0F489011CC00B3F1105C8F0FB
:1044F00013C004301105A8F09801235031092A3F58
:10450000310538F489012230310558F402E010E019
:1045100008C00D3F110519F00AEF10E002C007EFC7
:1045200010E080931206F0932006E0931F0600939C
:104530007A040E941325282F30E02F5F3F4F201769
:10454000310740F00E941325082F10E00E5F1F4F27
:1045500000937A04F11010921306802F0E94B02469
:104560006CED75E089819A810E941A240E94492885
:104570000F900F900F900F900F90DF91CF911F91A0
:104580000F91FF90EF90DF90CF90BF90AF909F90F2
:104590008F907F906F905F904F903F902F900C94F2
:1045A000542840913706141694F054E045029001C7
:1045B0001124F901E85CF94F6083F901E65CF94FD9
:1045C000918380834F5F4093370681E008958FEF9A
:1045D00008950F931F93CF93DF93062F40913706D3
:1045E000552747FD509510E0E82FF0E030C0E90175
:1045F000CC0FDD1FCC0FDD1FDE01A85CB94F8C9105
:10460000992787FD90958E179F0701F5F901E45CC6
:10461000F94F808181110EC081E08083FE01E65C4C
:10462000F94F0190F081E02D20E040E050E0602F54
:1046300080E00995C65CD94FE881F98120E040E02F
:1046400050E0602F81E00995812F07C01F5F212F67
:1046500030E0241735075CF28FEFDF91CF911F9187
:104660000F910895E82FF0E080913706992787FD94
:1046700090958E179F077CF0EE0FFF1FEE0FFF1F28
:10468000E65CF94F0190F081E02D20E040E050E041
:1046900060E082E0099481E00E946B148FEF08953E
:1046A000242FE82FF0E080913706992787FD909519
:1046B0008E179F076CF0EE0FFF1FEE0FFF1FE65CDB
:1046C000F94F0190F081E02DAB0160E086E00994A4
:1046D00081E00E946B148FEF0895242FE82FF0E003
:1046E00080913706992787FD90958E179F076CF06C
:1046F000EE0FFF1FEE0FFF1FE65CF94F0190F081F8
:10470000E02DAB0160E085E0099481E00E946B142C
:104710008FEF0895242FE82FF0E080913706992736
:1047200087FD90958E179F076CF0EE0FFF1FEE0F21
:10473000FF1FE65CF94F0190F081E02D40E050E072
:1047400084E0099481E00E946B148FEF0895E82FB4
:10475000F0E080913706992787FD90958E179F0787
:1047600074F0EE0FFF1FEE0FFF1FE65CF94F019094
:10477000F081E02D20E040E050E083E0099481E00A
:104780000E946B148FEF08950000000000000000ED
:104790000000000000000000000000000000000019
:1047A000019791F7089510922101089589E080936F
:1047B00021018DE89CE390932901809328010895BD
:1047C00010922501109224010895CF93DF9300D019
:1047D000CDB7DEB780912401909125019A8389831A
:1047E00029813A81C9010F900F90DF91CF910895EF
:1047F00010928100089581E080938100089583B52F
:10480000816083BD10928500109284000895CF933B
:10481000DF9300D0CDB7DEB7809184009091850002
:104820009A83898329813A81C9010F900F90DF9182
:10483000CF910895CF92DF92EF92FF92CF93DF93C3
:10484000EC01CC0FDD1FC9378FEFD80710F0C0E0A7
:10485000D0E06B01E12CF12CCC0EDD1EE11CF11C33
:1048600081E0C816D104E806F10440F081E0E81ABE
:10487000F1080E940724C817D907D8F30E9407241B
:104880008C159D05D8F3DF91CF91FF90EF90DF90CD
:10489000CF9008951092B100E0E7F0E080818D7F25
:1048A000808380818E7F808308958093B2000895F5
:1048B000E0E7F0E080818360808383E08093B10053
:1048C000089583B5826083BD1092B20010924D03AB
:1048D00010927A040895CF93DF938EEF80937A0439
:1048E00090E29093B6008093B30083E087BB92E0A0
:1048F0009093B0008093B10093B5926093BD87BB55
:1049000084BD83B5826083BD1092800081E0809376
:104910008100109285001092840083B5826083BD6F
:1049200083B5816083BD10922001C4E2D1E0198279
:10493000188283B5826083BD83B5816083BD0E9488
:104940006124198218820E9458240E94D623109252
:104950004D03DF91CF9108958091B3008F5F08954B
:1049600081508093B3000895811102C010927100AC
:104970008FEF0895811106C0109295001092940057
:1049800081E008958FEF0895811105C02091940072
:104990003091950002C020E030E0C90108958111F6
:1049A00005C082E08093710081E008958FEF089543
:1049B000811135C0CB010197059710F460937904FC
:1049C0001092900088E0809391005093990040935A
:1049D000980030934B0320934A03809179048130EF
:1049E00021F480919100816011C0823021F4809186
:1049F000910082600BC0833021F48091910083602C
:104A000005C0843031F480919100846080939100DE
:104A100008C0853031F4809191008560F7CF8FEF29
:104A2000089581E008958091B20008951F920F9239
:104A30000FB60F92112460E08AE00E940F15FFCF9D
:104A40000F920FB60F921F922F923F924F925F924A
:104A50006F927F928F929F92AF92BF92CF92DF928E
:104A6000EF92FF920F931F932F933F934F935F9378
:104A70006F937F938F939F93AF93BF93CF93DF9366
:104A8000EF93FF93A0911F06B09120060DB60D92F3
:104A90000EB60D921F92A0917704B09178041E90EB
:104AA000BEBFADBF08951F920F920FB60F92112493
:104AB0000BB60F922F933F934F935F936F937F9318
:104AC0008F939F93AF93BF93EF93FF93E0914A032C
:104AD000F0914B03309711F0099504C060E08AE033
:104AE0000E940F15FF91EF91BF91AF919F918F9110
:104AF0007F916F915F914F913F912F910F900BBEDE
:104B00000F900FBE0F901F9018951F920F920FB627
:104B10000F9211240F900FBE0F901F90189504B69E
:104B200003FC02C080E001C080E104B602FE06C0C2
:104B300094B79B7F94BF04B600FE846004B601FE68
:104B400005C094B79D7F94BF8260089581110CC009
:104B500004B600FE04C094B79E7F94BF01C081E0FC
:104B60009091B000911181E00895811102C0E89AFE
:104B700039C0813011F4E99A0895823011F4EA9A2B
:104B800031C0833021F480916B00816029C0843072
:104B900021F480916B00826023C0853021F48091E4
:104BA0006B0084601DC0863021F480916B008860AA
:104BB00017C0873021F480916B00806111C088306C
:104BC00021F480916B0080620BC0893021F48091C8
:104BD0006B00806405C08A3039F480916B00806876
:104BE00080936B0081E008958FEF0895811102C0DA
:104BF000E89839C0813011F4E9980895823011F4B1
:104C0000E99831C0833021F480916B008E7F29C0F8
:104C1000843021F480916B008D7F23C0853021F496
:104C200080916B008B7F1DC0863021F480916B00DA
:104C3000877F17C0873021F480916B008F7E11C071
:104C4000883021F480916B008F7D0BC0893021F476
:104C500080916B008F7B05C08A3039F480916B00A6
:104C60008F7780936B0081E008958FEF0895811115
:104C700027C05093400640933F06611104C08091C5
:104C800069008C7F3EC0613049F4809169008D7F5E
:104C90008093690080916900816033C0623049F47B
:104CA00080916900826080936900809169008E7FA5
:104CB00028C0633009F027C080916900836021C05B
:104CC000813049F550933E0640933D06611104C082
:104CD00080916900837F15C0613049F4809169003B
:104CE000877F809369008091690084600AC0623088
:104CF00061F4809169008860809369008091690007
:104D00008B7F8093690081E008956330E1F78091A3
:104D100069008C60F6CF823031F5509342064093A3
:104D20004106611104C0809169008F7CEACF613037
:104D300049F4809169008F7D8093690080916900BA
:104D40008061DFCF623049F4809169008062809396
:104D50006900809169008F7ED4CF6330A1F6809185
:104D600069008063CECF8350883050F48091680012
:104D70008160809368005093440640934306C3CFFC
:104D80008FEF08951F920F920FB60F9211240BB65A
:104D90000F922F933F934F935F936F937F938F93D4
:104DA0009F93AF93BF93EF93FF93E0914306F091EE
:104DB0004406309711F0099504C060E08AE00E9433
:104DC0000F15FF91EF91BF91AF919F918F917F91BF
:104DD0006F915F914F913F912F910F900BBE0F906C
:104DE0000FBE0F901F9018951F920F920FB60F9243
:104DF00011240BB60F922F933F934F935F936F93B2
:104E00007F938F939F93AF93BF93EF93FF93E09123
:104E10003F06F0914006309711F0099504C060E01C
:104E20008AE00E940F15FF91EF91BF91AF919F9182
:104E30008F917F916F915F914F913F912F910F9043
:104E40000BBE0F900FBE0F901F9018951F920F92E0
:104E50000FB60F9211240BB60F922F933F934F93DF
:104E60005F936F937F938F939F93AF93BF93EF93D2
:104E7000FF93E0913D06F0913E06309711F00995C1
:104E800004C060E08AE00E940F15FF91EF91BF918E
:104E9000AF919F918F917F916F915F914F913F91D2
:104EA0002F910F900BBE0F900FBE0F901F90189573
:104EB0001F920F920FB60F9211240BB60F922F93E1
:104EC0003F934F935F936F937F938F939F93AF9392
:104ED000BF93EF93FF93E0914106F0914206309724
:104EE00011F0099504C060E08AE00E940F15FF915F
:104EF000EF91BF91AF919F918F917F916F915F9152
:104F00004F913F912F910F900BBE0F900FBE0F90BE
:104F10001F9018950E94AD12A89584B7877F84BF13
:104F2000E0E6F0E080818861808310820C94AF120B
:104F30000E94AD12A89584B7877F84BFE0E6F0E0B9
:104F40008081886180838DE080830C94AF1204B6E9
:104F500003FC02C081E008958FEF0895A89508959D
:104F6000089583B7817F866083BF83B7816083BFE5
:104F7000889583B78E7F83BF089583B7817F83BF72
:104F800083B7816083BF889583B78E7F83BF089581
:104F9000FC01768365830895EF92FF920F931F9330
:104FA000CF93DF93EC018B017A014032510518F465
:104FB00081E10E941515A70141505109400F511F71
:104FC0005A8349831C830B83DF91CF911F910F91EB
:104FD000FF90EF90089525E5FA012083FB013297B9
:104FE0009083FB0131978083FB01349711821082FB
:104FF000FB01369711821082FB01389711821082D3
:10500000FB013A9711821082FB013C9711821082BA
:10501000FB013E9711821082FB0170971182108272
:10502000FB01729711821082FB017497118210822A
:10503000FB01769711821082FB0178971182108212
:10504000FB017A9711821082FB017C9711821082FA
:10505000FB017E9711821082FB01B09711821082B2
:10506000FB01B29711821082FB01B497118210826A
:10507000CF01089585E580937E41EEEFF1E4F09352
:105080007804E093770486E694E190838093FF416F
:10509000089586E694E19093FE418093FF41089540
:1050A0000E946B240C94AF12A0911006B0911106CF
:1050B000CD91CDBFDD91DEBFFF91EF91DF91CF911B
:1050C000BF91AF919F918F917F916F915F914F9120
:1050D0003F912F911F910F91FF90EF90DF90CF9014
:1050E000BF90AF909F908F907F906F905F904F9008
:1050F0003F902F901F900F900FBE0F9018950E9419
:10510000810E80E190E00E94EB118AE392E00E9420
:10511000AC2D8EE180937C048CE390E00E94CB2B3D
:105120008093F5039093F6030E94B41220E030E0E0
:10513000A90160E070E0CB010E94B01E0E941C0338
:105140000E9474020E94641380E090E008957F92B0
:105150008F929F92AF92BF92CF92DF92EF92FF9287
:105160000F931F93CF93DF93CDB7DEB72C970FB676
:10517000F894DEBF0FBECDBF7C016B018A01FC013C
:1051800017821682838181FD03C013C1850105C08A
:1051900088248394912C8C0E9D1EF701B380F60118
:1051A000B3FC8591B3FE81916F01882309F4FDC0A2
:1051B000853239F4B3FC2591B3FE21916F0125327C
:1051C00019F5B70190E00E94632D5801DFCF22232B
:1051D00009F4EBC0622F70E081ED93E02C870E9410
:1051E000042D2C85892B49F4233219F4F0E17F2A10
:1051F00004C02C3679F420E8722AF601B3FC25911C
:10520000B3FE21916F0101C0712C77FEE0CF222304
:1052100009F4CBC0622F70E081EE93E02C870E94EE
:10522000042D2C85892B41F05801F4E0AF0EB11C00
:10523000B7018FE390E00FC0233629F0233781F0C8
:10524000233519F50BC0580122E0A20EB11CB7019D
:10525000F801808191810E94632D98CFF1E07F2A2F
:10526000580122E0A20EB11CF8010081118104C096
:10527000B70190E00E94632DF80170FC859170FEEB
:1052800081918F018111F4CF81CF243611F029361D
:1052900031F5580177FE09C0F4E0AF0EB11CF801FA
:1052A00060817181828193810AC0F2E0AF0EB11CEE
:1052B000F80160817181882777FD8095982FFFEE36
:1052C0007F2297FF09C090958095709561957F4FDB
:1052D0008F4F9F4F20E4722A2AE030E036C02037FB
:1052E00091F030F42835B1F02F3609F05EC017C0C8
:1052F000253721F0283709F058C007C08FEE7822F3
:105300002AE030E00EC0E0E17E2AF4E27F2A20E1CC
:1053100030E007C024E0722A20E132E002C028E039
:1053200030E0580177FE09C084E0A80EB11CF801F6
:10533000608171818281938108C0F2E0AF0EB11C5F
:10534000F8016081718180E090E0A4010E940C2E40
:10535000182F181976FE05C0B7018DE290E00E9463
:10536000632D74FE16C0FE01E10FF11D80818033B4
:1053700081F0B70180E390E00E94632D72FE09C0C6
:10538000272D2072822F90E0B701885A9F4F0E94EC
:10539000632D1150F401E10FF11DB701808190E000
:1053A0000E94632D1111F5CFF1CEF70126813781CF
:1053B00002C02FEF3FEFC9012C960FB6F894DEBF65
:1053C0000FBECDBFDF91CF911F910F91FF90EF9056
:1053D000DF90CF90BF90AF909F908F907F90089577
:1053E00070D088F09F5790F0B92F9927B751A0F04F
:1053F000D1F0660F771F881F991F1AF0BA95C9F769
:1054000012C0B13081F077D0B1E0089574C0672F39
:10541000782F8827B85F39F0B93FCCF38695779518
:105420006795B395D9F73EF4909580957095619501
:105430007F4F8F4F9F4F0895E89409C097FB3EF42C
:1054400090958095709561957F4F8F4F9F4F9923D1
:10545000A9F0F92F96E9BB279395F695879577954F
:105460006795B795F111F8CFFAF4BB0F11F460FF0F
:105470001BC06F5F7F4F8F4F9F4F16C0882311F067
:1054800096E911C0772321F09EE8872F762F05C07B
:10549000662371F096E8862F70E060E02AF09A9516
:1054A000660F771F881FDAF7880F9695879597F90B
:1054B000089557FD9058440F551F59F05F3F71F004
:1054C0004795880F97FB991F61F09F3F79F087956B
:1054D0000895121613061406551FF2CF4695F1DFF4
:1054E00008C0161617061806991FF1CF8695710584
:1054F000610508940895E894BB2766277727CB01B8
:1055000097F9089511F40EF44DC03EC0DADFD0F3E0
:105510009923D9F3CEF39F57550B87FF46D000242C
:10552000A0E640EA900180585695979528F4805C53
:10553000660F771F881F20F026173707480730F4BB
:10554000621B730B840B202931294A2BA6951794D3
:105550000794202531254A2758F7660F771F881FA3
:1055600020F026173707480730F4620B730B840BC3
:10557000200D311D411DA09581F7B901842F91584F
:10558000880F9695879508959F3F31F0915020F4AC
:10559000879577956795B795880F911D969587950F
:1055A00097F908959FEF80EC089591505040660F51
:1055B000771F881FD2F70895A29FB001B39FC00143
:1055C000A39F01D0B29F700D811D1124911D0895DC
:1055D0000E94DC2AA59F900DB49F900DA49F800D82
:1055E000911D11240895B7FF0C94E82A0E94E82A1F
:1055F000821B930B0895DB018F939F930E94E82AEF
:10560000BF91AF91A29F800D911DA39F900DB29F5E
:10561000900D11240895AA1BBB1B51E107C0AA1FBE
:10562000BB1FA617B70710F0A61BB70B881F991F43
:105630005A95A9F780959095BC01CD010895A1E2F6
:105640001A2EAA1BBB1BFD010DC0AA1FBB1FEE1FFC
:10565000FF1FA217B307E407F50720F0A21BB30B47
:10566000E40BF50B661F771F881F991F1A9469F7C3
:1056700060957095809590959B01AC01BD01CF011F
:105680000895052E97FB16F4009407D057FD0DD012
:105690000E941F2B07FC09D07EF490958095709591
:1056A00061957F4F8F4F9F4F08955095409530954E
:1056B00021953F4F4F4F5F4F0895689401C0E89484
:1056C0008F929F92CF93DF930E946B2BDF91CF91AC
:1056D0009F908F90089588249924F401E401B0E408
:1056E0009F93AA279A158B049C04ED05FE05CF0510
:1056F000D007A10798F4AD2FDC2FCF2FFE2FE92D77
:10570000982C892E982F872F762F652F542F432F73
:10571000322F2227B85031F7BF9127C01B2EBF91DF
:10572000BB27220F331F441F551F661F771F881F7B
:10573000991F881C991CEE1FFF1FCC1FDD1FAA1F7D
:10574000BB1F8A149B04EC05FD05CE05DF05A007F1
:10575000B10748F08A189B08EC09FD09CE09DF095A
:10576000A00BB10B21601A94E1F62EF49401AF0165
:10577000BE01CD01000C0895EE0FFF1F0590F491BE
:10578000E02D09942A0D3B1D4C1D5D1D6E1D7F1DD6
:10579000801F911F08950F931F93CF93DF93823043
:1057A000910510F482E090E0E0914706F091480600
:1057B00020E030E0C0E0D0E023C0408151814817B4
:1057C0005907A8F04817590761F4828193812097FF
:1057D00019F09B838A832EC09093480680934706D6
:1057E00029C02115310529F04217530710F0A901EE
:1057F00002C0BE01DF0102811381EF019A01F801AD
:105800003097D9F62115310509F1281B390B2430C1
:10581000310590F412968D919C9113976115710545
:1058200021F0FB019383828304C090934806809308
:105830004706FD01329644C0FD01E20FF31F81933C
:105840009193225031092D933C933AC02091450603
:1058500030914606232B41F420910202309103023D
:1058600030934606209345062091000230910102B4
:105870002115310541F42DB73EB7409104025091F6
:105880000502241B350BE0914506F0914606E21710
:10589000F307A0F42E1B3F0B2817390778F0AC0153
:1058A0004E5F5F4F2417350748F04E0F5F1F509330
:1058B0004606409345068193919302C0E0E0F0E0F4
:1058C000CF01DF91CF911F910F910895EF92FF9239
:1058D0000F931F93CF93DF93009709F48EC0DC01E1
:1058E000129713961C921E921297E0904706F09022
:1058F0004806E114F10489F42D913C911197280F89
:10590000391F80914506909146068217930789F5C5
:10591000B0934606A093450670C0E70120E030E052
:1059200001C0EA01CA17DB0738F44A815B819E0196
:1059300041155105B1F722C0AC0142505109FA019D
:10594000D383C28300811181BC01600F711F6C176A
:105950007D0761F468817981600F711F6E5F7F4FF1
:10596000718360836A817B81738362832115310532
:1059700029F4B0934806A09347063FC0F901B383CA
:10598000A283E90149915991C40FD51FAC17BD07F6
:1059900071F4DC019E918E91840F951F0296918384
:1059A000808312968D919C91139793838283A0E0BC
:1059B000B0E002C0D7017C01F7018281938100979A
:1059C000C9F7C701029620813181820F931F209170
:1059D0004506309146062817390779F4109729F4BF
:1059E000109248061092470604C013961C921E920D
:1059F0001297F0924606E0924506DF91CF911F91F3
:105A00000F91FF90EF900895FC010590061621F08C
:105A10000020D9F7C00108953197CF010895FB0107
:105A2000DC0102C001900D9241505040D8F708951A
:105A30000F931F93CF93DF93EC018B01009731F409
:105A40006115710519F4E0E0F0E037C06EE070E038
:105A500081E090E00E94802EFC010097A1F380E895
:105A600083830115110571F01387028781E8838311
:105A70008091490690914A06892B21F4F0934A06B9
:105A8000E09349062097C9F0D187C087838182605F
:105A9000838380914B0690914C06892B71F4F0938F
:105AA0004C06E0934B0680914D0690914E06892B53
:105AB00021F4F0934E06E0934D06CF01DF91CF9194
:105AC0001F910F9108950F931F93CF93DF938C0134
:105AD000EB018B8181FD03C00FEF1FEF1AC082FF26
